:10000000DFC1000007C2000005C2000003C20000FB
:1000100001C20000FFC10000FDC10000FBC10000E3
:10002000F9C100000C945E310C94B3380C94303953
:10003000F1C10000EFC10000EDC10000EBC1000004
:10004000E9C10000E7C10000E5C10000E3C1000014
:10005000E1C10000DFC10000DDC100000C941038D8
:10006000D9C10000D7C10000D5C10000D3C1000034
:10007000D1C10000CFC10000CDC10000CBC1000044
:10008000C9C10000C7C10000C5C10000C3C1000054
:10009000C1C10000BFC10000002E382E0930F52F6D
:1000A000DA2FA52E3B2EA72E962E982E9E2E122EA0
:1000B000192E1B2E242E2D2E2E2E762E8C2E412EDA
:1000C0004B2E093009300930093009303D2E3F2EC2
:1000D000632E0930942E0930A92EAB2EAE2EB62EEB
:1000E000B72E09300930093009300930093009309C
:1000F0000930093009300930B22FB42FC42FBC2F7A
:10010000B72FD82FC52FC72FC92FCA2FD62FD82F1B
:100110000930093009300930BE2EC42ECF2ED72E1B
:10012000DF2EE22EF52EFF2E0A2F142F1F2F292F40
:10013000312F392F3E2F462F4E2F522F7F2F812FB9
:10014000852F882F902FA22FA42FA62F093009309A
:100150000930093009300930552F592F652F672F85
:100160005D2F612F6E2F702F722F742F762F782FA7
:100170007A2F7B2F7C2F7E2FB02F0930093009304A
:1001800009300930093009300930093009300930A7
:100190000930093009300930093009300930093097
:1001A0000930093009300930093009300930093087
:1001B0000930093009300930DC2FDE2FE12FE92F1B
:1001C000EB2FED2FEF2FF12FF32F093009300930EE
:1001D0000930093009300930F72FFA2F0130033088
:1001E0000530073000C201000100050005000300D2
:1001F00000E1000001000F000F000D00009600005C
:10020000020019001A001700127A000007002000EF
:1002100021001D00807000000B002300230020003F
:10022000004B000014003700370034004038000055
:100230001E004B004B004800802500003200720079
:1002400072007000C01200006E00E900E900E600D4
:1002500060090000E500D801D801D501B004000014
:10026000D301B403B403B10358020000B403670719
:10027000670762072C0100006707DD0EDD0EDA0E4E
:100280000129022904290829102920294029802927
:10029000012C022C012602260426082610262026E0
:1002A00040268026402C802C01230223042308238F
:1002B0001023202340238023012002200420082033
:1002C0001020202040208020102C202C012F022FD5
:1002D000042F082F102F202F402F802F7EFE7EFD11
:1002E0007EFB7EF77EEF7EDF7EBF7E7F000100001B
:1002F0009D0312000200005A03430003000056034E
:1003000004010309043C031802030904240316032F
:1003100003090416030C0C033100320033003400CF
:100320003500000016035500530042002000530022
:1003300065007200690061006C0000001803540041
:10034000650065006E007300790064007500690047
:100350006E006F000000040309040902430002015B
:1003600000C032090400000102020100052400104F
:1003700001052401000104240206052406000107EA
:1003800005820308004009040100020A000000077A
:10039000050302400000070584024000001201002E
:1003A0000202000020C01683047202010203010051
:1003B00001C1020180360181360025157D3C2C15D6
:1003C00011241FBECFEFD0E2DEBFCDBF11E0A0E011
:1003D000B1E0E6EEFFE700E00BBF02C007900D9230
:1003E000A03AB107D9F725E0A0EAB1E001C01D921B
:1003F000A13CB207E1F711E0CFEDD1E004C02197B5
:10040000FE010E94A43CCD3DD107C9F70E946C3487
:100410000C94E73FF5CDFB0101900020E9F73197FF
:10042000AF01461B570BDC01ED91FC910280F3817B
:10043000E02D0994DC01ED91FC910190F081E02D1B
:100440000994809147039091480301969093480343
:100450008093470365E185EB95E0ECCF0F931F9305
:10046000CF93DF93EC01D7DF8C01CE010E94AE3237
:10047000800F911FDF91CF911F910F910895CF931E
:10048000DF931F92CDB7DEB76983DC01ED91FC915C
:100490000280F381E02D41E050E0BE016F5F7F4FAD
:1004A00009950F90DF91CF91089540E052EC61E003
:1004B00070E085EB95E00E94153C11B814B817B8B0
:1004C0001AB81DB810BA0895DC0128E030E067FFC3
:1004D00021C0139A129AED91FC911197339728F04D
:1004E00021F0EE0FFF1F3197F1F790B196959170C3
:1004F000660F692B1298ED91FC911197339728F0B4
:1005000021F0EE0FFF1F3197F1F721503109F9F675
:10051000862F08951398DECF0F931F930FB6F8948C
:100520008091AA059091AB05A091AC05B091AD0565
:100530000FBE4091A0015091A1016091A201709164
:10054000A3018C019D01041B150B260B370B0832F0
:10055000110521053105F0F08093A0019093A101D0
:10056000A093A201B093A3012091050180EE820F18
:10057000813A28F090910401919590930401809123
:100580000401820F80930501699A803810F47198F4
:1005900001C0719A1F910F91089590912F028823A5
:1005A00019F0911103C004C0911102C0149A08956A
:1005B000149808950F931F93CF93DF938B01EC0151
:1005C000DD27FE010E94F1366EE170E080E090E0F0
:1005D0000E945038FE010E94F7366EE170E080E024
:1005E00090E00E9450380150110958F7DF91CF91E7
:1005F0001F910F91089540E05BE460E070E085EBAF
:1006000095E00E94153C6F9A62E070E083E190E013
:10061000D1DF689A62E070E088E090E0CBDF699A11
:1006200062E070E089E090E0C5CF882311F0779A0E
:100630000895779808951F93CF93DF93162FD42FA3
:10064000C22F682F89E493E03FDF612F89E493E0B4
:100650003BDF6D2F89E493E037DF6C2F89E493E073
:10066000DF91CF911F9130CF209143022093300230
:10067000809144028093310280914502809332023E
:100680008091460280933302809147028093340226
:10069000809148028093350280914902809336020E
:1006A00080914A028093370280914B0280933802F6
:1006B00080914D0290E0982F882730914E02830F51
:1006C000911D90933A028093390280914F0290E0FD
:1006D000982F882730915002830F911D90933C02F0
:1006E00080933B028091510290E0982F88273091AF
:1006F0005202830F911D90933E0280933D028091A0
:10070000530290E0A0E0B0E0BA2FA92F982F8827DD
:1007100030915402830F911DA11DB11DDC01992759
:1007200088274091550250E0542F4427052E000C95
:10073000660B770B840F951FA61FB71F30915602CB
:10074000830F911DA11DB11D80933F029093400224
:10075000A0934102B093420281E0203E08F480E081
:1007600080932F02089581E018DF0C9A1298139855
:100770000A9A0B9A0998119884E090E0A0E0B0E002
:100780008093490390934A03A0934B03B0934C0387
:10079000129864E170E080E090E00E94503880E0C0
:1007A000FCDE88EC81500000E9F781E0F6DE62E3D0
:1007B00070E080E090E00E94503820E040E063E587
:1007C0008CEA39DF81E090E0909346038093450303
:1007D00008950B9813980A98129880E0DEDE0C9822
:1007E000149810924603109245030895242F880F01
:1007F000880F880F462F672F805C1DCFCF93DF9324
:10080000D82FC92F80E090E010DF20E04D2F6C2F13
:100810008CE411DF6EE170E080E090E00E945038DF
:1008200081E090E0DF91CF9100CF20913B023091A9
:100830003C0280914303909144032032310511F42E
:10084000807F08952034310511F4807E089520388A
:10085000310511F4807C08952115314009F4807828
:100860000895CF92DF92EF92FF920F931F93CF9351
:10087000DF936C01DADF8C01C3E4D2E0CE01835454
:1008800092408C159D051CF5D0DF7C0108171907D7
:1008900021F0C801B3DFC9DF7C016091430370918F
:1008A0004403488180E0A2DF6091430370914403D8
:1008B000498181E09BDF809143039091440301963D
:1008C000909344038093430322968701D7CFC801B6
:1008D00095DF80E1DF91CF911F910F91FF90EF9015
:1008E000DF90CF900895462F880F880F880F20E063
:1008F000672F805EA0CE0F931F93CF93DF938C0161
:10090000C0E0D0E0C017D107FCF4609143037091C0
:10091000440380E0E8DF682F85EB95E08BDD609194
:1009200043037091440381E0DEDF682F85EB95E09F
:1009300081DD809143039091440301969093440399
:10094000809343032296DECF80E1DF91CF911F9108
:100950000F910895EF92FF920F931F93CF93DF9320
:100960007C010091430310914403000F111FE80123
:10097000CE01801B910B8E159F055CF42FEF4C2F41
:100980006D2F80EA58DE682F85EB95E053DD2196C8
:10099000EFCF80E1DF91CF911F910F91FF90EF900A
:1009A00008958FEF84B987B981B98DB18F608DB902
:1009B0008EB18F608EB964EF71E080E090E00C94AE
:1009C00050380F931F932FEF24B927B921B9DC01B9
:1009D000CB01B695A7959795879585B9092F1A2FBD
:1009E0002B2F332708B9CD01AA27BB2782B97298CC
:1009F00015B818B814B817B87198000000000000B6
:100A0000000026B183B1719A729A90E0922B1F91E7
:100A10000F9108950F931F932FEF24B927B921B990
:100A2000DC01CB01B695A7959795879585B9092FD8
:100A30001A2F2B2F332708B9CD01AA27BB2782B93C
:100A400072980000000045B958B970980000000085
:100A5000709A729A1F910F9108952FEF24B927B9B8
:100A600011B865B9BB27A92F982F872F88B971981E
:100A7000739800000000000000000000000000006B
:100A8000000080B1739A719A08952FEF24B927B9A5
:100A900021B965B9BB27A92F982F872F88B942B9EB
:100AA0000000000000000000000000000000000046
:100AB0007098739800000000000000000000000023
:100AC0000000000000000000739A709A000000000F
:100AD00000000000000000000000000008950F93D7
:100AE0001F93CF93DF934AEA50E06AEA7AE080E00E
:100AF00090E090DF45E550E065E575E080E090E04E
:100B000089DF40E950E06AEA7AE080E090E082DF45
:100B100000000000000060E070E0CB0152DF082F11
:100B200062E070E080E090E04CDF182F6CE170E054
:100B300080E090E046DFD82F6EE170E080E090E04A
:100B400040DFC82F68EE73E080E090E00E945038EC
:100B5000602F85EB95E093DC612F85EB95E08FDCD2
:100B60006D2F85EB95E08BDC6C2F85EB95E087DCBA
:100B700040EF50E06AEA7AE080E090E04BDF00006E
:100B800000000000DF91CF911F910F910895739A9B
:100B90008FEF84B987B98DB18F608DB98EB18760C1
:100BA0008EB9739A11B860E971E080E090E00C941E
:100BB000503885B998B900000000000000008EB1DF
:100BC000897F8EB9000000000000000080B19EB156
:100BD00096609EB90000000000000000089585B9ED
:100BE00098B962B900000000000000007098000091
:100BF000000000000000709A0000000000000000EB
:100C0000089585B998B962B9729A00000000000091
:100C100000007298000070980000000000000000C2
:100C2000709A0000729A0000000000000000089511
:100C300087E491E0BEDF90E090932C0280932B023A
:100C400088E491E0B6DF90E0A0E0B0E08093270276
:100C500090932802A0932902B0932A0289E491E09C
:100C6000A8DF90E090932E0280932D0222E030E0E6
:100C700030931F0220931E024091270250912802B8
:100C80006091290270912A02411551056105710593
:100C900049F002C0220F331F4A95E2F730931F023A
:100CA00020931E02109221021092200260912B02CA
:100CB00070912C026630710531F421E030E0309300
:100CC0002102209320028230910539F421E030E0A6
:100CD000309321022093200219C08330910519F42A
:100CE00024E030E00BC08430910519F420E130E0BD
:100CF00005C08530910551F428E030E030932102A1
:100D0000209320026630710591F403C066307105AE
:100D100031F42FEF31EA30931D0220931C02813011
:100D2000910519F48FEF97EA04C0029734F08FEF22
:100D30009FEB90931D0280931C0285EB95E09FDB57
:100D40006091270285EB95E09ADB60912D0285EB9F
:100D500095E095CBEF92FF920F931F93CF93DF9384
:100D600011B884E391E025DF8FEF81B980912B02E8
:100D700090912C02059724F461E080E090E62FDF4B
:100D80006AE080E090E02BDFC0E0DFEF8C2F90E0A6
:100D900020912002309121028217930724F58EB111
:100DA00080588EB9D1B96C2F80E090E418DF11B86B
:100DB00000E010EA80911C0290911D0280179107BB
:100DC00080F0E12CF12CC8018E0D9F1DF2DE8FEF1B
:100DD000E81AF80A80E4E816F104A9F7005C1F4F4E
:100DE000E9CFCF5FD3CF8FEF81B960E080E090E0B3
:100DF000F6DE11B87798DF91CF911F910F91FF9098
:100E0000EF900895FF920F931F93CF93DF93CFEF4F
:100E1000C1B960E080E090E3E2DE64E670E080E08B
:100E200090E00E94503860E080E090E2D8DE64E616
:100E300070E080E090E00E9450386AEA8AEA9AE026
:100E4000CEDE65E585E595E0CADE60E98AEA9AE0EE
:100E5000C6DE00000000000011B880E090E0A9DECE
:100E6000F82E82E090E0A5DE082F8CE190E0A1DE74
:100E7000182F8EE190E09DDED82F6F2D85EB95E049
:100E8000FEDA602F85EB95E0FADA612F85EB95E0CD
:100E9000F6DA6D2F85EB95E0F2DAC1B960EF85E502
:100EA00095E0DF91CF911F910F91FF9098CE8FEF3A
:100EB00081B960E080E090E392DE64E670E080E07B
:100EC00090E00E94503860E080E090E288DE64E6C6
:100ED00070E080E090E00E9450386AEA8AEA9AE086
:100EE0007EDE65E585E595E07ADE60E88AEA9AE0EF
:100EF00076DE6AEA8AEA9AE072DE65E585E595E0E3
:100F00006EDE60E18AEA9AE06ADE11B880E090E085
:100F100050DE87FD0AC08EB180588EB964EF71E053
:100F200080E090E00E945038F1CF779808958FEFDD
:100F300084B915B887B918B881B1836081B981B116
:100F4000886181B982B1836082B91398149A0D9A2D
:100F5000159A0A9880E090E0A0E0B8E0809318022B
:100F600090931902A0931A02B0931B026CE271E0F5
:100F700080E090E00C9450388FEF84B915B887B9B1
:100F800018B808951198000000000000000000004B
:100F900026B183B1119A000090E0922B0895BC0114
:100FA000660F771F20E030E040E22617370731F068
:100FB00092B1942792B92F5F3F4FF7CF0895CF9307
:100FC000DF93D82FC8E00A9A8D2F90E0880F892FE1
:100FD000881F990B892B39F082E090E0E0DF0A98B6
:100FE00086E090E006C086E090E0D9DF0A9882E0D3
:100FF00090E0D5DFDD0FC15031F7DF91CF9108953B
:101000000A9A82E090E0CBDF0A9884E090E0C7CFB4
:101010000F931F93CF930EEC11E0C0E4029B04C02A
:1010200081E090E0BCDFFACF83E090E0B8DF80B1F0
:1010300082FB882780F9F80181938F01029904C00F
:1010400081E090E0ACDFFACFC15041F7CF911F9122
:101050000F9108950D9A159A0A98779A80E593EC66
:101060009EDF77980895CF93DF93CDB7DEB72797AC
:101070000FB6F894DEBF0FBECDBF28E730E04EE6D6
:1010800065EB75E0CE0101960E947033CE010196AA
:101090000E94613460935405709355058093560502
:1010A00090935705CE0101960E94A63327960FB65E
:1010B000F894DEBF0FBECDBFDF91CF9108958F9220
:1010C0009F92AF92BF92CF92DF92EF92FF92CBDFCF
:1010D0006AE070E080E090E00E9450388090540513
:1010E00090905505A0905605B090570521E0821AC2
:1010F0009108A108B108C12CD12C7601C814D904DB
:10110000EA04FB04B0F54AEA50E06AEA7AE080E0DB
:1011100090E080DC45E550E065E575E080E090E03A
:1011200079DC40E850E06AEA7AE080E090E072DC46
:101130004AEA50E06AEA7AE080E090E06BDC45E55C
:1011400050E065E575E080E090E064DC40E350E06D
:10115000C701B6015FDCC701B60133DC8F679F6F43
:101160000196C9F78EB180588EB982E0E80EF11C65
:10117000C5CFFF90EF90DF90CF90BF90AF909F9042
:101180008F900895CF93DF93CDB7DEB727970FB633
:10119000F894DEBF0FBECDBF28E730E04EE665EB2A
:1011A00075E0CE0101960E947033CE0101960E9437
:1011B0006134609358057093590580935A05909354
:1011C0005B05CE0101960E94A63327960FB6F894D0
:1011D000DEBF0FBECDBFDF91CF910895CF93DF93D8
:1011E000CDB7DEB727970FB6F894DEBF0FBECDBFE1
:1011F00028E730E04EE665EB75E0CE0101960E94EF
:101200007033CE0101960E9461347093CD016093DA
:10121000CC01CE0101960E94A63327960FB6F89412
:10122000DEBF0FBECDBFDF91CF9108958FEF84B9A0
:1012300087B981B980BB8DB18F6D8DB98EB18F6447
:101240008EB9749A77981AB808958EB182658EB95E
:1012500008958EB18C608EB98D9A089565B9BB27BB
:10126000A92F982F872F88B9749A4BB900000000D6
:101270000000000000007698000000000000000060
:101280000000769A000000000000000000000895B1
:1012900065B9BB27A92F982F872F88B900000000B8
:1012A0000000000000007498000000000000000032
:1012B000000089B1749A00000000000000000000E6
:1012C000089562B9BB27A92F982F872F81BB8D98CE
:1012D0004BB9729A000000000000000000007398F3
:1012E00000000000000000000000739A8D9A0000CA
:1012F0000000000000000000089562B9BB27A92F7C
:10130000982F872F81BB8D98739A000000000000F2
:1013100000000000729800000000000000000000C3
:1013200089B1729A8D9A0000000000000000000050
:101330000895709A000000000000709800000000FE
:101340000000749A08950F931F931AB865B9072F78
:10135000182F292F332708B9611570488105910589
:1013600008F07498709A000000000000000089B135
:101370007098749A9FEF9AB91F910F9108950F93E7
:101380001F9365B9072F182F292F332708B9719894
:101390002FEF2AB94BB90000000000000000000048
:1013A000769800000000000000000000769A00001F
:1013B00000000000000000006115704881059105E3
:1013C00008F07498709A0000000000000000709807
:1013D000749A719A1AB81F910F91089565B9BB2735
:1013E000A92F982F872F88B971988FEF8AB94BB999
:1013F000749A709A000000000000000000000000D5
:101400000000000000007098749A719A1AB808954C
:1014100082B991BB8D988FEF8AB96BB9729A00002F
:1014200073980000739A8D9A1AB8089582B991BB87
:10143000739A000000000000000000007298000095
:10144000000000000000000089B1729A0000000056
:101450000000000000000895CF92DF92EF92FF920B
:10146000CF936B017C01C42F64DFC5B8CD2CDE2C7B
:10147000EF2CFF24C8B871988FEF8AB9CBB9749854
:10148000709A00000000000000007098749A719A31
:101490001AB8CF91FF90EF90DF90CF904ACF40E401
:1014A00061E070EA80E090E0D7DF40E060E070EA61
:1014B00080E090E0D1DF40E060E070E880E090E024
:1014C000CBDF40E061E070E880E090E0C5DF41E024
:1014D00060E070E880E090E0BFDF42E061E070E84B
:1014E00080E090E0B9DF42E060E070E880E090E00A
:1014F000B3DF45E161E070E880E090E0ADDF43E01C
:1015000060E070E880E090E0A7DF45E161E070E82E
:1015100080E090E0A1DF44E060E070E880E090E0EF
:101520009BDF4AE061E070E880E090E095DF45E015
:1015300060E070E880E090E08FDF4AE061E070E812
:1015400080E090E089DF46E060E070E880E090E0D5
:1015500083DF40E061E070E880E090E07DDF47E01D
:1015600060E070E880E090E077DF41E061E070E803
:1015700080E090E071DF40E060E070E880E090E0C3
:101580006BCFD7DE40E860E070E880E090E0F7DE07
:10159000D0CECF92DF92EF92FF921F93CF93DF9343
:1015A0006B017C01142FC5E0D0E0C701B601CBDE92
:1015B000412FC701B601E3DE16952197B1F7DF9100
:1015C000CF911F91FF90EF90DF90CF90089560E052
:1015D00070E880E090E0B7DE40E860E070E880E02E
:1015E00090E0CDDE40E160E070E880E090E0D1DFA7
:1015F00040E160E070EE80E090E0CBDF42E160E04F
:1016000070EA80E090E0C5DF45E160E070EC80E0EA
:1016100090E0BFCF9FEF9AB98BB97198749A749884
:10162000719A9AB90895CF93DF93CFEFCAB94AEA76
:1016300065E575E580E090E011DE45E56AEA7AE26D
:1016400080E090E00BDE40E965E575E580E090E044
:1016500005DE0000000000001AB860E070E0CB0179
:1016600017DE61E070E080E090E012DED82F68EED7
:1016700073E080E090E00E9450386D2F85EB95E09C
:101680000E943F02CAB94AEA65E575E580E090E04C
:10169000E5DD45E56AEA7AE280E090E0DFDD40EFF3
:1016A00065E575E580E090E0D9DD00000000000010
:1016B0001AB8DF91CF910895CF93DF9380E090E047
:1016C000A9DF80E090E0A6DF80E090E0A3DFCFEF2D
:1016D000CAB9469A4AEA65E575E580E090E0BEDD64
:1016E000469845E56AEA7AE280E090E0B7DD469AFE
:1016F00040E965E575E580E090E0B0DD00000000C0
:1017000000001AB860E070E0CB01C2DD61E070E07B
:1017100080E090E0BDDDD82F68EE73E080E090E0DF
:101720000E9450386D2F85EB95E00E943F02CAB9A8
:10173000469A4AEA65E575E580E090E08FDD4698D7
:1017400045E56AEA7AE280E090E088DD469A40EF7B
:1017500065E575E580E090E081DD000000000000B7
:101760001AB8DF91CF910895CF93DF93CFEFCAB925
:1017700040E160E070E880E090E00BDF40E160E095
:1017800070EE80E090E005DF40E160E070E880E02E
:1017900090E0FFDE4AEA65E575E580E090E0EFDD88
:1017A00045E56AEA7AE280E090E0E9DD40E965E556
:1017B00075E580E090E0E3DD0000000000001AB86D
:1017C00060E070E0CB0164DD61E070E080E090E01B
:1017D0005FDDD82F68EE73E080E090E00E94503823
:1017E0006D2F85EB95E00E943F02CAB94AEA65E594
:1017F00075E580E090E0C3DD45E56AEA7AE280E0E5
:1018000090E0BDDD40EF65E575E580E090E0B7DD97
:101810000000000000001AB8DF91CF910895CF9327
:10182000DF93CFEFCAB93BDE4AEA65E575E580E0B4
:1018300090E0A5DD45E56AEA7AE280E090E09FDD90
:1018400040E965E575E580E090E099DD0000000085
:1018500000001AB860E070E0CB011ADD61E070E0D2
:1018600080E090E015DDD82F68EE73E080E090E036
:101870000E9450386D2F85EB95E00E943F02CAB957
:101880004AEA65E575E580E090E079DD45E56AEADC
:101890007AE280E090E073DD40EF65E575E580E099
:1018A00090E06DDD0000000000001AB8DF91CF91DC
:1018B0000895CF93DF93CFEFCAB9F1DD4AEA6AEA20
:1018C0007AE080E090E05BDD45E565E575E080E08D
:1018D00090E055DD40E96AEA7AE080E090E04FDD93
:1018E0000000000000001AB860E070E0CB01D0DC1E
:1018F00062E070E080E090E0CBDCD82F68EE73E02F
:1019000080E090E00E9450386D2F85EB95E00E94BA
:101910003F02CAB94AEA6AEA7AE080E090E02FDD45
:1019200045E565E575E080E090E029DD40EF6AEA95
:101930007AE080E090E023DD0000000000001AB8AB
:10194000DF91CF91089585DC8FEF8AB94AEA65E58A
:1019500075E580E090E082DC45E56AEA7AE280E0C5
:1019600090E07CDC40E865E575E580E090E076DCC1
:101970004AEA65E575E580E090E070DC45E56AEAF5
:101980007AE280E090E06ADC40E165E575E580E0C0
:1019900090E064DC64E670E080E090E00E94503803
:1019A0001AB860E070E0CB0173DC87FD0AC08EB12D
:1019B00080588EB964EF71E080E090E00E9450386A
:1019C000F0CF7798089541DC8FEF8AB94AEA65E550
:1019D00075E580E090E075DC45E56AEA7AE280E052
:1019E00090E06FDC40E865E575E580E090E069DC5B
:1019F0004AEA65E575E580E090E063DC45E56AEA82
:101A00007AE280E090E05DDC40E165E575E580E04C
:101A100090E057DC64E670E080E090E00E9450388F
:101A20001AB860E070E0CB0168DC87FD0EC08EB1B3
:101A300080588EB964EF71E080E090E00E945038E9
:101A400060E070E0CB0124DCF0CF779808958FEF51
:101A50008AB9FBDB82E090E0DDDD82E090E0DADD58
:101A600082E090E0D7DD6AEA85E595E1D1DC81E0AE
:101A700090E0D0DD81E090E0CDDD81E090E0CADD56
:101A800065E58AEA9AE0C4DC82E090E0C3DD82E0AA
:101A900090E0C0DD82E090E0BDDD60E885E595E1A5
:101AA000B7DC82E090E0B6DD82E090E0B3DD82E07A
:101AB00090E0B0DD6AEA85E595E1AADC81E090E09E
:101AC000A9DD81E090E0A6DD81E090E0A3DD65E5A1
:101AD0008AEA9AE09DDC82E090E09CDD82E090E082
:101AE00099DD82E090E096DD60E185E595E190DCAE
:101AF00080E090E08FDD80E090E08CDD80E090E0A1
:101B000089DD64E670E080E090E00E9450389DDB63
:101B10001AB860E070E0CB01F0DB87FD0AC08EB13F
:101B200080588EB964EF71E080E090E00E945038F8
:101B3000F0CF7798089580E090E06CDD80E090E051
:101B400069DD80E090E066DD8FEF8AB9469A4AEA67
:101B500065E575E580E090E081DB469845E56AEA59
:101B60007AE280E090E07ADB469A40E865E575E548
:101B700080E090E073DB469A4AEA65E575E580E02F
:101B800090E06CDB469845E56AEA7AE280E090E016
:101B900065DB469A40E165E575E580E090E05EDB57
:101BA00064E670E080E090E00E9450381AB860E08F
:101BB00070E0CB016DDB87FD0AC08EB180588EB915
:101BC00064EF71E080E090E00E945038F0CF08951B
:101BD0003CDB8FEF8AB94AEA65E575E580E090E085
:101BE00070DB45E56AEA7AE280E090E06ADB40E893
:101BF00065E575E580E090E064DB4AEA65E575E55A
:101C000080E090E05EDB45E56AEA7AE280E090E021
:101C100058DB40E165E575E580E090E052DB64E685
:101C200070E080E090E00E9450381AB860E070E008
:101C3000CB0163DB87FD0AC08EB180588EB964EF9B
:101C400071E080E090E00E945038F0CF77980895DE
:101C500000DB8FEF8AB946E060E070E880E090E05A
:101C6000FBDB40E061E070E880E090E0F5DB47E01E
:101C700060E070E880E090E0EFDB41E061E070E878
:101C800080E090E0E9DB4AEA65E575E580E090E018
:101C900076DB45E56AEA7AE280E090E070DB40E8D6
:101CA00065E575E580E090E06ADB4AEA65E575E5A3
:101CB00080E090E064DB45E56AEA7AE280E090E06B
:101CC0005EDB40E165E575E580E090E058DB64E6C9
:101CD00070E080E090E00E9450381AB860E070E058
:101CE000CB01D6DA87FD0AC08EB180588EB964EF79
:101CF00071E080E090E00E945038F0CF40E060E07A
:101D000070E880E090E0A8DB77980895A2DA8FEF82
:101D10008AB946E060E070E880E090E09DDB40E05A
:101D200061E070E880E090E097DB47E060E070E819
:101D300080E090E091DB41E061E070E880E090E0DD
:101D40008BDB4AEA6AEA7AE080E090E018DB45E55E
:101D500065E575E080E090E012DB40E86AEA7AE051
:101D600080E090E00CDB4AEA6AEA7AE080E090E00A
:101D700006DB45E565E575E080E090E000DB40E1ED
:101D80006AEA7AE080E090E0FADA64E670E080E007
:101D900090E00E9450381AB860E070E0CB0178DA29
:101DA00087FD0AC08EB180588EB964EF71E080E083
:101DB00090E00E945038F0CF40E060E070E880E0B2
:101DC00090E04ADB7798089540DA8FEF8AB94AEAC3
:101DD00065E575E180E090E074DA45E56AEA7AE16C
:101DE00080E090E06EDA40E865E575E180E090E043
:101DF00068DA4AEA65E575E180E090E062DA45E597
:101E00006AEA7AE180E090E05CDA40E165E575E15C
:101E100080E090E056DA64E670E080E090E00E94B6
:101E200050381AB860E070E0CB0167DA87FD0AC06D
:101E30008EB180588EB964EF71E080E090E00E942E
:101E40005038F0CF7798089504DA8FEF8AB94AEACC
:101E500065E575E580E090E092DA45E56AEA7AE2C8
:101E600080E090E08CDA40E865E575E580E090E0A0
:101E700086DA4AEA65E575E580E090E080DA45E5D6
:101E80006AEA7AE280E090E07ADA40E165E575E5B9
:101E900080E090E074DA64E670E080E090E00E9418
:101EA00050381AB860E070E0CB01F2D987FD0AC063
:101EB0008EB180588EB964EF71E080E090E00E94AE
:101EC0005038F0CF77980895CF93DF93CDB7DEB732
:101ED00027970FB6F894DEBF0FBECDBF28E730E0DE
:101EE0004EE665EB75E0CE0101960E947033CE019F
:101EF00001960E94613470935D0560935C05CE018C
:101F000001960E94A63327960FB6F894DEBF0FBE47
:101F1000CDBFDF91CF910895CF93DF93CDB7DEB7DB
:101F200027970FB6F894DEBF0FBECDBF28E730E08D
:101F30004EE665EB75E0CE0101960E947033CE014E
:101F400001960E9461347093CB016093CA01CE0167
:101F500001960E94A63327960FB6F894DEBF0FBEF7
:101F6000CDBFDF91CF9108958FEF8AB980BB81B942
:101F70008DB18D638DB9699A689814B817B88EB110
:101F80008C638EB9719868EC70E080E090E00C94FE
:101F900050388FEF84B987B9089514B817B80895E9
:101FA000CF92DF92EF92FF92CF93DF936B017C0190
:101FB000D42FC52FEEDFCBB8BB27AF2D9E2D8D2D97
:101FC00081BB6701EE24FF24C2B8D5B9C8B90000AF
:101FD00073980000749800000000000000000000EA
:101FE000749A0000739A00000000DF91CF91FF9077
:101FF000EF90DF90CF90D1CFCF92DF92EF92FF9210
:102000006B017C01CADFCBB8BB27AF2D9E2D8D2D78
:1020100081BB6701EE24FF24C2B800007398729858
:1020200000000000000000000000000026B183B1A5
:10203000729A739A000090E0922BFF90EF90DF90DD
:10204000CF900895CF93DF93D82FC92F0E94BC075C
:10205000D5B9C8B9000010980000000000000000C9
:102060000000109A00000000DF91CF9196CFCF9230
:10207000DF92EF92FF926B017C010E94BC07C701C7
:10208000AA27BB2722B1236022B9139A0000149A11
:1020900085B9892F992788B900001498C5B8CD2C27
:1020A000DD24C8B800000000139800000000000004
:1020B0000000000000000000000000000000FF9091
:1020C000EF90DF90CF9069CFD2DF80EF90E0BADF62
:1020D00064E670E080E090E00C9450381F93CF935A
:1020E000DF931092140210921502109216021092B1
:1020F00017028091000190910101A0910201B0911D
:102100000301BC01CD016655754F8F4F9F4FAFDF67
:102110008AEA90E097DF8091000190910101A091FF
:102120000201B0910301BC01CD016C5A7A4F8F4F6F
:102130009F4F9DDF85E590E085DF809100019091C4
:102140000101A0910201B0910301BC01CD016655CE
:10215000754F8F4F9F4F8BDF80E990E073DF609169
:1021600000017091010180910201909103017FDFD4
:102170000E94C2079F938F9383E191E09F938F9377
:102180008FE092E09F938F930E940C3D0E94C207C4
:102190009F938F93C8E1D1E0DF93CF938EE595E0D5
:1021A0009F938F930E940C3D8091000190910101BB
:1021B000A0910201B0910301BC01CD01645E7F4F8B
:1021C0008F4F9F4F54DF0E94C207182F0E94C207F3
:1021D00020E030E0282B1F932F93DF93CF9382E2F0
:1021E00092E09F938F930E940C3D6FE072E085EB2D
:1021F00095E00E940B026DE171E085EB95E00E9495
:102200000B026EE575E085EB95E00E940B026DE137
:1022100071E085EB95E00E940B0262E272E085EBD3
:1022200095E00E940B026DE171E085EB95E00E9464
:102230000B028DB79EB742960FB6F8949EBF0FBEA5
:102240008DBF609100017091010180910201909118
:102250000301DF91CF911F9137CF4F925F926F9221
:102260007F928F929F92AF92BF92CF92DF92EF9226
:10227000FF928090000190900101A0900201B09027
:102280000301C12CD12C7601240135012AEA420E2A
:102290002AE0521E611C711C84E5880E85E0981EA0
:1022A000A11CB11C8091500390915103A091520345
:1022B000B0915303C816D906EA06FB0608F04CC0D5
:1022C0008EB180588EB9C301B201D1DE8AEA90E0A6
:1022D000B9DEC501B401CBDE85E590E0B3DEC30114
:1022E000B201C5DE80E890E0ADDEC301B201BFDE21
:1022F0008AEA90E0A7DEC501B401B9DE85E590E089
:10230000A1DE8091000190910101A0910201B091A4
:102310000301BC01CD016C0D7D1D8E1D9F1DA7DE2F
:1023200080E390E08FDE8091000190910101A09107
:102330000201B0910301BC01CD016C0D7D1D8E1D0C
:102340009F1D95DE0E94C2078F679F6F019659F708
:1023500082E0E80EF11CA6CF7798FF90EF90DF9017
:10236000CF90BF90AF909F908F907F906F905F9035
:102370004F900895CF92DF92EF92FF926B017C0114
:1023800060E070E081E098E072DEC7015BDEC601CC
:10239000FF90EF90DF90CF9055CE60E070E080E04E
:1023A00092EDE8DF6AE070E080E090E00E94503853
:1023B00060E070E080E092EDDDDF6AE070E080E0F8
:1023C00090E00E94503860E070E080E091EED2DF53
:1023D0006AE070E080E090E00C9450380F931F9317
:1023E000CF93DF934AEA50E065E575E080E090E046
:1023F000D7DD45E550E06AEA72E080E090E0D0DDAC
:1024000040E950E065E575E080E090E0C9DD00005E
:102410000000000060E070E0CB01EEDD082F61E01D
:1024200070E080E090E0E8DD182F6EE070E080E082
:1024300090E0E2DDD82F6FE070E080E090E0DCDD3E
:10244000C82F68EE73E080E090E00E945038602F63
:1024500085EB95E00E943F02612F85EB95E00E949D
:102460003F026D2F85EB95E00E943F026C2F85EBBC
:1024700095E00E943F0240EF50E065E575E080E0A6
:1024800090E08EDD000000000000DF91CF911F91F1
:102490000F9108954AEA50E065E575E080E090E02C
:1024A0007FDD45E550E06AEA72E080E090E078DDAB
:1024B00040E850E065E575E080E090E071DD4AEAD3
:1024C00050E065E575E080E090E06ADD45E550E0CC
:1024D0006AEA72E080E090E063DD40E150E065E5AB
:1024E00075E080E090E05CDD60E070E0CB0184DDD1
:1024F0008F679F6F019651F08EB180588EB968EC4E
:1025000070E080E090E00E945038EECF7798089518
:10251000CF93DF9368ED70E080E090E06DDD813473
:10252000924541F469ED70E080E090E065DD803235
:10253000984F09F11092BD011092BC011092BE019A
:102540001092BF011092C0011092C1014091BE01D2
:102550005091BF016091C0017091C10120E085EBF5
:1025600095E00E94C8326DE171E085EB95E0DF9166
:10257000CF910C940B026AED70E080E090E03CDDBE
:10258000EC016BED70E080E090E036DDAC01CE0157
:10259000A0E0B0E0DC019927882760E070E0842BA0
:1025A000952BA62BB72B8093C6019093C701A093C0
:1025B000C801B093C9016CED70E080E090E01CDDD3
:1025C000EC016DED70E080E090E016DDAC01CE0135
:1025D000A0E0B0E0DC019927882760E070E0842B60
:1025E000952BA62BB72B8093C2019093C301A09388
:1025F000C401B093C5014091C6015091C7016091DB
:10260000C8017091C9014130510520E2620771058E
:1026100019F421E030E008C0411551056042710510
:1026200009F094CF22E030E03093BD012093BC014B
:102630008F5F9F4FAF41B109B695A7959795879545
:102640008093BE019093BF01A093C001B093C101DC
:1026500080E090E0A0E1B0E08093C6019093C701D4
:10266000A093C801B093C90171CFCF93C82F91DC5B
:10267000C8B97598000000000000000000000000CC
:10268000759A000000000000000000000000CF91DB
:1026900084CC0F931F93CF93DF9362ED70E080E0C3
:1026A00090E0AADCEC0163ED70E080E090E0A4DC57
:1026B000AE0160E070E0BA01552744278C0120E0AC
:1026C00030E0402B512B622B732B4F5F5F4F6F4FCE
:1026D0007F4F20E085EB95E00E94C8326DE171E00C
:1026E00085EB95E0DF91CF911F910F910C940B0238
:1026F000CF93DF93CDB7DEB727970FB6F894DEBF41
:102700000FBECDBF28E730E04EE665EB75E0CE01A9
:1027100001960E947033CE0101960E94613460934D
:102720005003709351038093520390935303CE014F
:1027300001960E94A63327960FB6F894DEBF0FBE0F
:10274000CDBFDF91CF910895CF92DF92EF92FF92AC
:10275000CFDF6AE070E080E090E00E945038C12C4A
:10276000D12C76018091500390915103A091520396
:10277000B0915303B695A79597958795C816D90636
:10278000EA06FB06B0F58EB180588EB94AEA50E0F1
:1027900065E575E080E090E003DC45E550E06AEA3D
:1027A00072E080E090E0FCDB40E850E065E575E039
:1027B00080E090E0F5DB4AEA50E065E575E080E016
:1027C00090E0EEDB45E550E06AEA72E080E090E000
:1027D000E7DB40E350E0C701B601E2DBC701B60129
:1027E0000BDC8F679F6F0196C9F78FEFE81AF80A25
:1027F000B9CF7798FF90EF90DF90CF9008958FEF4B
:102800008AB980BB84B991B19F6091B992B1966049
:1028100092B992B1967F92B98DB9779817B8089509
:102820000F931F936BB9072F182F292F332701BB45
:10283000AA27BB2785B948B90000129800000000FC
:102840000000129A0000000000001F910F910895EF
:102850000F931F936BB9072F182F292F332701BB15
:10286000AA27BB2785B9000011980000000086B197
:10287000119A0000000000001F910F910895FF922F
:102880000F931F93CF93DF93779ACFEFC7B94AEA9D
:102890006AEA7AE080E090E0C3DF45E565E575E04F
:1028A00080E090E0BDDF40E96AEA7AE080E090E015
:1028B000B7DF17B860E070E0CB01CADFF82E62E046
:1028C00070E080E090E0C4DF082F6CE170E080E011
:1028D00090E0BEDF182F6EE170E080E090E0B8DF9E
:1028E000D82F68EE73E080E090E00E9450386F2DA2
:1028F00085EB95E00E943F02602F85EB95E00E94FA
:102900003F02612F85EB95E00E943F026D2F85EB22
:1029100095E00E943F02C7B940EF6AEA7AE080E0A2
:1029200090E07EDF7798DF91CF911F910F91FF901C
:1029300008958FEF87B94AEA6AEA7AE080E090E08A
:102940006FDF45E565E575E080E090E069DF40E830
:102950006AEA7AE080E090E063DF4AEA6AEA7AE0D5
:1029600080E090E05DDF45E565E575E080E090E0C2
:1029700057DF40E16AEA7AE080E090E051DF17B883
:1029800060E070E0CB0164DF87FD0AC08EB1805843
:102990008EB968EC70E080E090E00E945038F0CF93
:1029A0000895CF92DF92EF92FF92CF93A1DE6AE07B
:1029B00070E080E090E00E945038C12CD12C76016C
:1029C000CFEF8091500390915103A0915203B091A9
:1029D0005303C816D906EA06FB0680F58EB1805867
:1029E0008EB9C7B94AEA6AEA7AE080E090E018DF77
:1029F00045E565E575E080E090E012DF40E86AEAD1
:102A00007AE080E090E00CDF4AEA6AEA7AE080E06F
:102A100090E006DF45E565E575E080E090E000DFE9
:102A200040E3C701B601FCDE17B8C701B60110DFED
:102A300087FFFBCF82E0E80EF11CC3CF7798CF91E0
:102A4000FF90EF90DF90CF90089520E04FE16CE190
:102A500084EA91E00C94CA3184EA91E00C948032CB
:102A60008F929F92AF92BF92CF92DF92EF92FF929E
:102A7000CF93DF930E943308C12CD12C7601809133
:102A8000540590915505A0915605B0915705C8166B
:102A9000D906EA06FB06E8F4779AC4E5D3E04601D6
:102AA000570185EB95E00E94D33A8993482FC501E1
:102AB000B4010E9445058FEF881A980AA80AB80A3F
:102AC00085E0C435D80769F782E0D80EE11CF11C17
:102AD000D6CF7798DF91CF91FF90EF90DF90CF9096
:102AE000BF90AF909F908F9008950F931F93CF93B7
:102AF00064E670E080E090E00E945038779A11B868
:102B000084E391E00E94D9058FEF81B980912B0277
:102B100090912C0205972CF461E080E090E60E94F1
:102B2000EF056AE080E090E00E94EF05C0E08C2FA6
:102B300090E0209120023091210282179307ECF45B
:102B40006C2F80E090E40E94EF0500E010EA809195
:102B50001C0290911D028017910768F085EB95E0AB
:102B60000E94D33A80935403682FC8010E94010643
:102B70000F5F1F4FECCFCF5FDACF60E080E090E0D7
:102B80000E94EF0511B87798CF911F910F9108958A
:102B9000DF92EF92FF920F931F93CF93DF93A8DD05
:102BA0006AE070E080E090E00E945038609150034D
:102BB0008FEF81B9779A80E090E20E94EF0560E0A4
:102BC00080E090E40E94EF0500E010E4DD24DA9458
:102BD000C4E5D3E0C801845593407C0185EB95E0C2
:102BE0000E94D33A88836AEA8AEA9AE00E94EF0553
:102BF00065E585E595E00E94EF0560EA8AEA9AE0DE
:102C00000E94EF056881C7018C0F9D1F0E94EF0590
:102C100011B88EB1897F8EB9999180B1892787FDCE
:102C2000FCCF8EB186608EB9D1B895E0C435D90796
:102C3000A9F61E5F011580E8180751F611B87798BC
:102C4000DF91CF911F910F91FF90EF90DF9008954A
:102C5000AF92BF92CF92DF92EF92FF920F931F93AA
:102C6000CF93DF93D0E010E054E5E52E55E0F52E4C
:102C7000212F30E08091CC019091CD0197FDCF962E
:102C800046E0959587954A95E1F7281739078CF521
:102C900084E5C82E83E0D82E560185EB95E00E948E
:102CA000D33AF50181935F01EE16FF06B1F7F89470
:102CB000C0E080E995E60E94CF0785E00E94DF072B
:102CC0008D2F8C0F0E94DF07560108E0F5018191DE
:102CD0005F010E94DF070150C9F70E940008CF5F23
:102CE000F8E0CF0ED11CC03421F778941F5FD05C80
:102CF000BFCFDF91CF911F910F91FF90EF90DF90A9
:102D0000CF90BF90AF900895BF92CF92DF92EF9295
:102D1000FF920F931F93CF93DF93C0901802D09030
:102D20001902E0901A02F0901B0280911802909113
:102D30001902A0911A02B0911B029058AF4FBF4FD9
:102D4000C816D906EA06FB0608F5C701B6018FD9F1
:102D5000C4E5D3E085EB95E00E94D33AB82E888392
:102D600085EB95E00E94D33A89831B2D00E0980102
:102D7000282BC90167D9229633E0C439D30751F70C
:102D800080E4C80ED11CE11CF11CCFCFDF91CF91A4
:102D90001F910F91FF90EF90DF90CF90BF9008951B
:102DA00085EB95E00E94D33A80934F0308952F92CC
:102DB0003F924F925F926F927F928F929F92AF92CB
:102DC000BF92CF92DF92EF92FF920F931F93CF9318
:102DD000DF93CDB7DEB761970FB6F894DEBF0FBEB5
:102DE000CDBF8090000190900101A0900201B090B1
:102DF0000301D6DF6AE070E080E090E00E94503886
:102E00000E9433086AE070E080E090E00E94503851
:102E10000E94C2086AE070E080E090E00E945038B2
:102E2000C0905405D0905505E0905605F090570598
:102E3000A50194012655354F4F4F5F4F2B833C839F
:102E40004D835E83D501C4018C5A9A4FAF4FBF4F5B
:102E50008F839887A987BA8740915405509155056B
:102E600060915605709157058091580590915905CC
:102E7000A0915A05B0915B05840F951FA61FB71F3F
:102E8000C816D906EA06FB0608F02EC18EB1805896
:102E90008EB9812C912C540100E010E06B817C8173
:102EA0008D819E81E4D88AEA90E0CCD86F817885C4
:102EB00089859A85DCD885E590E0C4D82801012E63
:102EC000000C660877088091000190910101A091A3
:102ED0000201B09103018C0D9D1DAE1DBF1D880D1B
:102EE000991DAA1DBB1DBC01CD01640D751D861D5C
:102EF000971DBDD885E290E0A5D880910001909102
:102F00000101A0910201B09103018C0D9D1DAE1D28
:102F1000BF1D880D991DAA1DBB1DBC01CD01640DEF
:102F2000751D861D971DA3D880914F03869590E04F
:102F3000019788D81B8620914F039B859217A8F58F
:102F400085EB95E00E94D33A8C878093540385EB00
:102F500095E00E94D33A80935503AC85AA831982E9
:102F600029803A80282A8091000190910101A09146
:102F70000201B09103018C0D9D1DAE1DBF1D880D7A
:102F8000991DAA1DBB1D840D951DA61DB71DBC0155
:102F9000CD012B85620F711D811D911D68D8C10166
:102FA00051D83B853E5F3B87C6CF40910001509191
:102FB000010160910201709103014C0D5D1D6E1DB8
:102FC0007F1D480D591D6A1D7B1DDB01CA01840D43
:102FD000951DA61DB71D8E879F87A88BB98B822F45
:102FE00090E00297092E000CAA0BBB0B2E853F85A3
:102FF00048895989280F391F4A1F5B1FCA01B90127
:1030000036D889E290E01ED840914F0350E04250FC
:103010005109052E000C660B770B809100019091F1
:103020000101A0910201B0910301840F951FA61F19
:10303000B71F8C0D9D1DAE1DBF1D880D991DAA1DAE
:10304000BB1DBC01CD01640D751D861D971D0FD8DC
:103050000E94C207A1014F675F6F5D874C878F6732
:103060009F6F40914F03AC85BD858A179B0731F157
:1030700050E042505109052E000C660B770B8091F1
:10308000000190910101A0910201B0910301840F10
:10309000951FA61FB71F8C0D9D1DAE1DBF1D880D52
:1030A000991DAA1DBB1DBC01CD01640D751D861D9A
:1030B000971D0E9437100E94C207D1CF040F111D27
:1030C0000115B0E41B070CF4E9CE20E4920EA11C1C
:1030D000B11C8114910432E0A306B10409F0DCCEE6
:1030E00042E0E40EF11CB8CE779861960FB6F894E2
:1030F000DEBF0FBECDBFDF91CF911F910F91FF902B
:10310000EF90DF90CF90BF90AF909F908F907F9087
:103110006F905F904F903F902F9008958F929F9265
:10312000AF92BF92CF92DF92EF92FF921F93CF9315
:10313000DF930E9429098FEF8AB9C12CD12C760127
:103140001FEFD701C6019770AA27BB27892B8A2BAF
:103150008B2B19F48EB180588EB9C4E5D3E04601AB
:10316000570185EB95E00E94D33A88834AEA65E5EA
:1031700075E580E090E00E94BF0945E56AEA7AE2E1
:1031800080E090E00E94BF0940EA65E575E580E0D7
:1031900090E00E94BF094881C501B4010E94BF09A7
:1031A0001AB87498999189B1892787FDFCCF749AD0
:1031B0001AB98FEF881A980AA80AB80A85E0C435A8
:1031C000D80779F682E0D80EE11CF11CC11480E822
:1031D000D806E104F10409F0B4CF0E942509C12CFE
:1031E000D12C76011FEFD701C6019770AA27BB2704
:1031F000892B8A2B8B2B19F48EB180588EB9C4E59C
:10320000D3E04601570185EB95E00E94D33A8883CD
:103210004AEA65E575E580E090E00E94610945E5D0
:103220006AEA7AE280E090E00E94610940EA65E59E
:1032300075E580E090E00E9461094881C501B40114
:103240000E9461091AB88D987298999189B189275D
:1032500087FDFCCF729A8D9A1AB98FEF881A980A57
:10326000A80AB80A85E0C435D80769F682E0D80E06
:10327000E11CF11CC11480E2D806E104F10409F05C
:10328000B2CF7798DF91CF911F91FF90EF90DF90B1
:10329000CF90BF90AF909F908F9008954F925F9284
:1032A0006F927F928F929F92AF92BF92CF92DF9256
:1032B000EF92FF920F931F93CF93DF930E94290900
:1032C0008FEF8AB9812C912C540104E515E0DD249F
:1032D000DA94D501C4019770AA27BB27892B8A2BC2
:1032E0008B2B19F48EB180588EB984E5E82E85E0D9
:1032F000F82EC4E5D3E02401350185EB95E00E946A
:10330000D33A88834AEA65E575E580E090E00E945B
:103310002E0945E56AEA7AE280E090E00E942E09F3
:1033200040EA65E575E580E090E00E942E0948815D
:10333000C301B2010E942E091AB87498999189B1FB
:10334000892787FDFCCF749ADAB88FEF481A580A9C
:10335000680A780A0C171D0781F692E0990EA11CE5
:10336000B11C8114E0E89E06A104B10409F0B1CFBC
:10337000C0E0D0E077247A94CE010E940A0B812C21
:10338000912C5401D501C4019770AA27BB27892B22
:103390008A2B8B2B19F48EB180588EB904E513E07B
:1033A000C401845593406C0185EB95E00E94D33AAB
:1033B000F801808382E090E00E940A0B82E090E0B6
:1033C0000E940A0B82E090E00E940A0B6AEA85E5FF
:1033D00095E10E94080A81E090E00E940A0B81E0DA
:1033E00090E00E940A0B81E090E00E940A0B65E5E4
:1033F0008AEA9AE00E94080A82E090E00E940A0BA2
:1034000082E090E00E940A0B82E090E00E940A0BAA
:1034100060EA85E595E10E94080ACE010E940A0B48
:10342000CE010E940A0BCE010E940A0BF8016081B6
:10343000C601800F911F0E94080A1AB872988D98D1
:10344000F80191918F0189B1892787FDFCCF729A8C
:103450007AB8E016F10609F0A7CFF2E09F0EA11CA2
:10346000B11C811480E29806A104B10409F08ACF4E
:103470002196C830D10509F07FCF7798DF91CF91A1
:103480001F910F91FF90EF90DF90CF90BF90AF9082
:103490009F908F907F906F905F904F9008957F9254
:1034A0008F929F92AF92BF92CF92DF92EF92FF9254
:1034B0000F931F93CF93DF938FEF8AB94698C0E0A5
:1034C000D0E077247A94CE010E940A0BC12CD12C33
:1034D0007601D701C6019770AA27BB27892B8A2BB3
:1034E0008B2B19F48EB180588EB904E513E0460198
:1034F000570185EB95E00E94D33AF80180834AEAB0
:1035000065E575E580E090E00E942E09469880E030
:1035100090E00E940A0B80E090E00E940A0B80E09D
:1035200090E00E940A0B469845E56AEA7AE280E05C
:1035300090E00E942E0940EA65E575E580E090E0A4
:103540000E942E094698CE010E940A0BCE010E94CD
:103550000A0BCE010E940A0B4698F8014081C50172
:10356000B4010E942E091AB87498F80191918F0144
:1035700089B1892787FDFCCF749A7AB8FFEF8F1A3B
:103580009F0AAF0ABF0A83E00439180709F0B1CFD8
:10359000E0E4CE0ED11CE11CF11CC114F0E4DF0606
:1035A000E104F10409F095CF80E090E00E940A0B5D
:1035B00080E090E00E940A0B80E090E00E940A0BFD
:1035C0002196C031D10509F07ECFDF91CF911F91B7
:1035D0000F91FF90EF90DF90CF90BF90AF909F90B2
:1035E0008F907F9008957F928F929F92AF92BF921B
:1035F000CF92DF92EF92FF920F931F93CF93DF93BF
:103600008FEF8AB9C0E0D0E077247A94CE010E948F
:103610000A0BC12CD12C7601D701C6019770AA27BD
:10362000BB27892B8A2B8B2B19F48EB180588EB92E
:1036300004E513E04601570185EB95E00E94D33A7B
:10364000F80180834AEA65E575E580E090E00E9434
:103650002E0945E56AEA7AE280E090E00E942E09B0
:1036600040EA65E575E580E090E00E942E09CE0114
:103670000E940A0BCE010E940A0BCE010E940A0B87
:10368000F8014081C501B4010E942E091AB874984E
:10369000F80191918F0189B1892787FDFCCF749A38
:1036A0007AB8FFEF8F1A9F0AAF0ABF0A85E0043588
:1036B000180711F6E2E0DE0EE11CF11CC114F0E87F
:1036C000DF06E104F10409F0A7CF2196C830D10547
:1036D00009F09CCFDF91CF911F910F91FF90EF9058
:1036E000DF90CF90BF90AF909F908F907F90089584
:1036F0007F928F929F92AF92BF92CF92DF92EF9282
:10370000FF920F931F93CF93DF938FEF8AB90E949D
:103710008C0F6AE070E080E090E00E94503800E09A
:1037200010E077247A948091CA019091CB01081718
:1037300019070CF05AC0402F440F60E070EE80E093
:1037400090E00E94C90AC12CD12C7601D701C60194
:103750009770AA27BB27892B8A2B8B2B19F48EB144
:1037600080588EB9C4E5D3E04601570185EB95E05A
:103770000E94D33A88834AEA65E575E580E090E0E7
:103780000E94BF0945E56AEA7AE280E090E00E9483
:10379000BF0940EA65E575E580E090E00E94BF0959
:1037A0004881C501B4010E94BF091AB87498999163
:1037B00089B1892787FDFCCF749A7AB88FEF881A70
:1037C000980AA80AB80A85E0C435D80779F682E0D5
:1037D000D80EE11CF11CC11480E8D806E104F10404
:1037E00009F0B4CF0F5F1F4F9ECF7798DF91CF9135
:1037F0001F910F91FF90EF90DF90CF90BF90AF900F
:103800009F908F907F9008959F92AF92BF92CF929A
:10381000DF92EF92FF920F931F93CF93DF930E945B
:10382000250910E00FEF99249A949AB8C12CD12C55
:103830007601D701C6019770AA27BB27892B8A2B4F
:103840008B2B19F48EB180588EB9C4E5D3E0C60134
:10385000845593405C0142E060E070EA80E090E0D3
:103860000E94C90A85EB95E00E94D33A88836AEAF0
:1038700085E595E10E94080A65E58AEA9AE00E94DA
:10388000080A60EA85E595E10E94080A412F60E098
:1038900070EA80E090E00E94C90A6881C5018C0F3F
:1038A0009D1F0E94080A1AB88D987298999189B143
:1038B000892787FDFCCF729A8D9A0AB995E0C435A5
:1038C000D90749F682E0D80EE11CF11CC11490E141
:1038D000D906E104F10409F0ACCF1F5F103209F002
:1038E000A4CF7798DF91CF911F910F91FF90EF9028
:1038F000DF90CF90BF90AF909F9008954F925F92CE
:103900006F927F928F929F92AF92BF92CF92DF92EF
:10391000EF92FF920F931F93CF93DF930E94290999
:103920008FEF8AB90E948C0F6AE070E080E090E02F
:103930000E945038C0E0D0E08CE3982E88248A940E
:103940008091CA019091CB01C817D9070CF06DC0C6
:1039500046E060E070E880E090E00E942C0A4C2F86
:1039600061E070E880E090E00E942C0A40E060E0B6
:1039700070E880E090E00E942C0AC12CD12C7601E6
:10398000D701C6019770AA27BB27892B8A2B8B2BBF
:1039900019F48EB180588EB904E513E02601370181
:1039A00085EB95E00E94D33A5801F80181938F018D
:1039B0004AEA65E575E580E090E00E94BF0945E5CB
:1039C0006AEA7AE280E090E00E94BF0940EA65E599
:1039D00075E580E090E00E94BF09F5014081C301D8
:1039E000B2010E94BF09892D81500000E9F78AB811
:1039F00040E060E070E880E090E00E942C0AFFEF79
:103A00004F1A5F0A6F0A7F0A85E00435180741F6EE
:103A1000E2E0DE0EE11CF11CC114F0E2DF06E1047D
:103A2000F10409F0ADCF21968BCF7798DF91CF913C
:103A30001F910F91FF90EF90DF90CF90BF90AF90CC
:103A40009F908F907F906F905F904F9008957F929E
:103A50008F929F92AF92BF92CF92DF92EF92FF929E
:103A60000F931F93CF93DF930E9429098FEF8AB999
:103A70000E948C0F6AE070E080E090E00E94503875
:103A800000E010E077247A948091CA019091CB01F4
:103A9000081719070CF06EC046E060E070E880E09F
:103AA00090E00E942C0A402F61E070E880E090E0F6
:103AB0000E942C0A40E060E070E880E090E00E9404
:103AC0002C0AC12CD12C7601D701C6019770AA27E8
:103AD000BB27892B8A2B8B2B19F48EB180588EB97A
:103AE000C4E5D3E04601570185EB95E00E94D33A47
:103AF00088834AEA6AEA7AE080E090E00E94BF099F
:103B000045E565E575E080E090E00E94BF0940EA88
:103B10006AEA7AE080E090E00E94BF094881C5012E
:103B2000B4010E94BF091AB87498999189B1892784
:103B300087FDFCCF749A7AB840E060E070E880E0DE
:103B400090E00E942C0A8FEF881A980AA80AB80AF7
:103B500085E0C435D80741F682E0D80EE11CF11C9F
:103B6000C11480E2D806E104F10409F0ADCF0F5F83
:103B70001F4F8ACF7798DF91CF911F910F91FF90C0
:103B8000EF90DF90CF90BF90AF909F908F907F90FD
:103B900008958F929F92AF92BF92CF92DF92EF9251
:103BA000FF920F931F93CF93DF930E942509C0E0EC
:103BB000DFEF40E060E070E880E090E00E942C0AD7
:103BC0004C2F440F61E070E880E090E00E942C0AE6
:103BD00041E060E070E880E090E00E942C0A41E063
:103BE0004C0F440F61E070E880E090E00E942C0AE6
:103BF000DAB9C12CD12C7601D701C6019770AA275A
:103C0000BB27892B8A2B8B2B19F48EB180588EB948
:103C100004E513E04601570185EB95E00E94D33A95
:103C2000F80180834AEA65E575E180E090E00E9452
:103C3000610945E56AEA7AE180E090E00E94610965
:103C400040EA65E575E180E090E00E946109F801D5
:103C50004081C501B4010E9461091AB88D9872981B
:103C6000F80191918F0189B1892787FDFCCF729A64
:103C70008D9ADAB9FFEF8F1A9F0AAF0ABF0A85E063
:103C80000435180749F6E2E0DE0EE11CF11CC11410
:103C9000F0E1DF06E104F10409F0AECFCE5FC038F9
:103CA00009F087CF7798DF91CF911F910F91FF9007
:103CB000EF90DF90CF90BF90AF909F908F9008953E
:103CC0008FEF8AB90E94330885EB95E00E94D33AC2
:103CD000809354034AEA65E575E580E090E00E9430
:103CE000BF0945E56AEA7AE280E090E00E94BF09F8
:103CF00040EA65E575E580E090E00E94BF096091CB
:103D00005405709155058091560590915705409145
:103D100054030E94BF091AB874989091540389B152
:103D2000892787FDFCCF749A8FEF8AB97798089519
:103D30008F929F92AF92BF92CF92DF92EF92FF92BB
:103D4000CF93DF9340E060E070EE80E090E00E946F
:103D5000C90A42E060E070EA80E090E00E94C90A8F
:103D600045E060E070EC80E090E00E94C90A6AE003
:103D700070E080E090E00E9450388FEF8AB9C12C4B
:103D800080E6D82EE12CF12C779AC4E5D3E04601E9
:103D9000570185EB95E00E94D33A8993482FC501DE
:103DA000B4010E94EE098FEF881A980AA80AB80A8F
:103DB00085E0C435D80769F782E0D80EE11CF11C14
:103DC000C11480E8D806E104F104F1F6779840E1E7
:103DD00060E070EE80E090E00E94C90A42E160E09D
:103DE00070EA80E090E00E94C90A45E160E070EC72
:103DF00080E090E0DF91CF91FF90EF90DF90CF9047
:103E0000BF90AF909F908F900C94C90A8F929F9211
:103E1000AF92BF92CF92DF92EF92FF92CF93DF9358
:103E200040E861E070EA80E090E00E942C0A6AE0DD
:103E300070E080E090E00E9450388FEF8AB9C12C8A
:103E400080E6D82EE12CF12C779AC4E5D3E0460128
:103E5000570185EB95E00E94D33A8993482FC5011D
:103E6000B4010E94EE098FEF881A980AA80AB80ACE
:103E700085E0C435D80769F782E0D80EE11CF11C53
:103E8000C11480E8D806E104F104F1F6779840E423
:103E900061E070EA80E090E0DF91CF91FF90EF90D9
:103EA000DF90CF90BF90AF909F908F900C942C0A92
:103EB0002F923F924F925F926F927F928F929F923A
:103EC000AF92BF92CF92DF92EF92FF920F931F9328
:103ED000CF93DF93CDB7DEB728970FB6F894DEBF48
:103EE0000FBECDBF0E94D0166AE070E080E090E087
:103EF0000E9450380E9433086AE070E080E090E051
:103F00000E9450380E94C2086AE070E080E090E0B1
:103F10000E9450388090540590905505A090560509
:103F2000B0905705B694A794979487944091540500
:103F3000509155056091560570915705809158052F
:103F400090915905A0915A05B0915B05840F951F7A
:103F5000A61FB71FB695A7959795879588169906BA
:103F6000AA06BB0608F0B8C08EB180588EB9412CA5
:103F7000512C320118861F82D501C401840D951D74
:103F8000A61DB71D8B839C83AD83BE834AEA50E098
:103F900065E575E080E090E00E94D00F45E550E0D7
:103FA0006AEA72E080E090E00E94D00FAF81B885AD
:103FB0006D01BB0FEE08FF088B819C81AD81BE8136
:103FC000C80ED91EEA1EFB1E45E250E0C701B6012D
:103FD0000E94D00F40914F0350E041505109C7015A
:103FE000B6010E94D00F312C60914F033616E8F4D1
:103FF00085EB95E00E94D33A182F8093540385EB0C
:1040000095E00E94D33A809355031A83198209815F
:104010001A81082BC701B601630D711D811D911D09
:10402000A8010E94D00F3394DFCF70E06150710976
:10403000CB01770FAA0BBB0BBC01CD016C0D7D1D15
:104040008E1D9F1D49E250E00E94D00F60914F03EA
:1040500070E061507109CB01770FAA0BBB0BBC015B
:10406000CD016C0D7D1D8E1D9F1D0E94FC0F180142
:10407000AFE72A2A33243A948F679F6F60914F03EA
:104080008215930581F070E061507109CB01770FC3
:10409000AA0BBB0BBC01CD016C0D7D1D8E1D9F1DA0
:1040A0000E94FC0FE9CF8F819885860F911D98871C
:1040B0008F83811590420CF469CFB0E25B0E611CD6
:1040C000711C4114510421E06206710409F052CFC1
:1040D0008FEFA81AB80A2ACF779828960FB6F894C7
:1040E000DEBF0FBECDBFDF91CF911F910F91FF902B
:1040F000EF90DF90CF90BF90AF909F908F907F9088
:104100006F905F904F903F902F9008956F927F92A5
:104110008F929F92AF92BF92CF92DF92EF92FF92D7
:104120000F931F93CF93DF930E9478136AE070E0A0
:1041300080E090E00E945038C12CD12C7601809113
:10414000500390915103A0915203B0915303B6953F
:10415000A79597958795C816D906EA06FB0608F035
:104160005FC0D701C6019770AA27BB27892B8A2B6E
:104170008B2B19F48EB180588EB94601570100E29D
:1041800010E085EB95E00E94D33AC82F809354034A
:1041900085EB95E00E94D33A809355037C2E612CE9
:1041A000E301C82B4AEA50E065E575E080E090E065
:1041B0000E94D00F45E550E06AEA72E080E090E0AE
:1041C0000E94D00F40EA50E065E575E080E090E0A5
:1041D0000E94D00FAE01C501B4010E94D00FC501ED
:1041E000B4010E94FC0FCF67DF6F8F679F6F8C1742
:1041F0009D0729F0C501B4010E94FC0FF6CF0150C4
:1042000011098FEF881A980AA80AB80A0115110532
:1042100009F0B7CF80E2C80ED11CE11CF11C8FCF92
:104220007798DF91CF911F910F91FF90EF90DF90E2
:10423000CF90BF90AF909F908F907F906F90089598
:104240008F929F92AF92BF92CF92DF92EF92FF92A6
:104250001F93CF93DF930E9433086AE070E080E001
:1042600090E00E9450380E94C2086AE070E080E04E
:1042700090E00E9450388FEF87B9C0905405D090DD
:104280005505E0905605F09057051FEF40915405F5
:1042900050915505609156057091570580915805CC
:1042A00090915905A0915A05B0915B05840F951F17
:1042B000A61FB71FC816D906EA06FB06E8F58EB199
:1042C00080588EB9C4E5D3E04601570185EB95E0EF
:1042D0000E94D33A88834AEA6AEA7AE080E090E072
:1042E0000E94101445E565E575E080E090E00E94CD
:1042F000101440EA6AEA7AE080E090E00E9410142C
:104300004881C501B4010E94101417B81198999101
:1043100086B1892787FDFCCF119A17B98FEF881ACC
:10432000980AA80AB80A85E0C435D80779F682E069
:10433000D80EE11CF11CAACF17B87798DF91CF9166
:104340001F91FF90EF90DF90CF90BF90AF909F9024
:104350008F9008958F929F92AF92BF92CF92DF92EB
:10436000EF92FF92CF93DF930E943308C0905405E1
:10437000D0905505E0905605F09057058091540572
:1043800090915505A0915605B09157059E5FAF4F8E
:10439000BF4FC816D906EA06FB0620F58EB1805835
:1043A0008EB9C4E5D3E046015701C501B4010E94AE
:1043B000E1048883998382E0880E911CA11CB11CC2
:1043C000229685E0C435D80781F740E052E064E5E5
:1043D00073E085EB95E00E94153B82E0D80EE11C6E
:1043E000F11CCCCF7798DF91CF91FF90EF90DF90C9
:1043F000CF90BF90AF909F908F9008958F929F9293
:10440000AF92BF92CF92DF92EF92FF92CF93DF9362
:104410000E943308C0905405D0905505E090560591
:10442000F09057058091540590915505A09156053F
:10443000B09157059E5FAF4FBF4FC816D906EA0629
:10444000FB06F8F4C4E5D3E046015701C501B40109
:104450000E942D0589938FEF881A980AA80AB80A36
:1044600085E0C435D80791F740E052E064E573E099
:1044700085EB95E00E94153B82E0D80EE11CF11C13
:10448000D1CF7798DF91CF91FF90EF90DF90CF90D1
:10449000BF90AF909F908F900895CF92DF92EF9250
:1044A000FF920F931F93CF93DF930E9433086AE02C
:1044B00070E080E090E00E9450380E94C2086AE0FC
:1044C00070E080E090E00E945038C0905805D09095
:1044D0005905E0905A05F0905B058FEF81B9809106
:1044E0002B0290912C02059724F06C2D80E091E234
:1044F00013C060E080E090E60E94EF05B60185E021
:10450000769567958A95E1F780E090E40E94EF0543
:104510006C2D6F7180E090E20E94EF0511B8C090A1
:104520005405D0905505E0905605F09057058091C0
:10453000540590915505A0915605B09157059E5F81
:10454000AF4FBF4FC816D906EA06FB06F8F48EB186
:1045500080588EB9C4E5D3E0860104551340C801E4
:104560008C0F9D1F0E94D905899385E0C435D8071B
:10457000B1F740E052E064E573E085EB95E00E941E
:10458000153B82E0D80EE11CF11CD1CF7798DF916A
:10459000CF911F910F91FF90EF90DF90CF900895F2
:1045A0006F927F928F929F92AF92BF92CF92DF9243
:1045B000EF92FF920F931F93CF93DF93CDB7DEB7A8
:1045C000C054D1090FB6F894DEBF0FBECDBF11B8ED
:1045D00084E391E00E94D9058FEF81B980912B028D
:1045E00090912C0205972CF461E080E090E60E9407
:1045F000EF056AE080E090E00E94EF0510E00FEF29
:10460000CE0101966C015E0191E4A90EB11C812FCF
:1046100090E020912002309121028217930784F5C7
:104620008EB180588EB901B9612F80E090E40E946C
:10463000EF0511B8E12C80EAF82E80911C029091D0
:104640001D028E159F05D0F0360147018C189D087C
:10465000C401860D971D0E94D905F30181933F0186
:10466000EA15FB05A9F740E450E0B60185EB95E0BB
:104670000E94153BF0E4EF0EF11CDFCF1F5FC7CFA8
:104680008FEF81B960E080E090E00E94EF0511B803
:104690007798C05CDF4F0FB6F894DEBF0FBECDBF7A
:1046A000DF91CF911F910F91FF90EF90DF90CF900E
:1046B000BF90AF909F908F907F906F900895CF9212
:1046C000DF92EF92FF92CF93DF930E943308C09066
:1046D0000001D0900101E0900201F090030180916F
:1046E000540590915505A0915605B0915705C80EF7
:1046F000D91EEA1EFB1E40910001509101016091FC
:104700000201709103018091540590915505A0918B
:104710005605B0915705840F951FA61FB71F9E5FC2
:10472000AF4FBF4FC816D906EA06FB06E8F4779AE2
:10473000C701B6010E943710C4E5D3E00E94C2074A
:1047400098838983229685E0C435D807B9F740E07D
:1047500052E064E573E085EB95E00E94153B82E052
:10476000D80EE11CF11CC7CF7798DF91CF91FF9055
:10477000EF90DF90CF900895CF92DF92EF92FF926B
:104780000F931F93CF93DF9310E000E0202F30E0D2
:104790008091CC019091CD0197FDCF9646E0959503
:1047A00087954A95E1F7281739070CF065C0F8940A
:1047B000F12EC0E0D0E084E00E94DF078F2D0E9440
:1047C000DF070E9400080E9408080E940008EEEC23
:1047D000F1E0E12CAE014C5A5C4F8E2D869586950A
:1047E0008695DA01A80FB11D808160E8869F90014F
:1047F0001124918160E4969FC0011124822B2781AE
:10480000822B928120E2929F60011124282F2C2973
:10481000938130E1939FB0011124822F862B9481E4
:1048200068E0969F90011124282B958134E0939F96
:10483000C0011124822B9681990F892B8C9368E0FB
:10484000E60E389680E4E812C8CF8CE291E00E9430
:10485000CF07F3942896C11592E0D90709F0ABCFA2
:10486000789440E052E064E573E085EB95E00E94C7
:10487000153B0F5F105C8ACFDF91CF911F910F9195
:10488000FF90EF90DF90CF900895CF92DF92EF925C
:10489000FF92CF93DF930E943308C0901802D0900C
:1048A0001902E0901A02F0901B0280915405909139
:1048B0005505A0915605B0915705C80ED91EEA1EA0
:1048C000FB1E409118025091190260911A027091DA
:1048D0001B028091540590915505A0915605B09109
:1048E0005705840F951FA61FB71F9E5FAF4FBF4F81
:1048F000C816D906EA06FB06E0F4C701B6010E9415
:104900003710C4E5D3E00E94C207988389832296BA
:1049100085E0C435D807B9F740E052E064E573E0BC
:1049200085EB95E00E94153B82E0D80EE11CF11C5E
:10493000C8CFDF91CF91FF90EF90DF90CF90089597
:10494000CF92DF92EF92FF92CF93DF930E943308D2
:104950000E94CD1160E070E080E090EF0E94BA11FB
:10496000C0901802D0901902E0901A02F0901B0239
:104970008091540590915505A0915605B091570529
:10498000C80ED91EEA1EFB1E409118025091190252
:1049900060911A0270911B02809154059091550507
:1049A000A0915605B0915705840F951FA61FB71FFC
:1049B00080589F4FAF4FBF4FC816D906EA06FB0677
:1049C000C0F4C701B6010E943710C4E5D3E00E94CD
:1049D000C20798838983229683E0C43DD807B9F73C
:1049E00040E850E064E573E085EB95E00E94153BFC
:1049F000BFCFDF91CF91FF90EF90DF90CF900895E0
:104A00008F929F92AF92BF92CF92DF92EF92FF92DE
:104A1000CF93DF930E9433081AB80E942909C090EF
:104A20005405D0905505E0905605F09057058091BB
:104A3000540590915505A0915605B09157059E5F7C
:104A4000AF4FBF4FC816D906EA06FB0600F5779AA6
:104A5000C4E5D3E046015701C501B4010E944809ED
:104A600089938FEF881A980AA80AB80A85E0C43596
:104A7000D80791F740E052E064E573E085EB95E0FC
:104A80000E94153B82E0D80EE11CF11CD0CF779834
:104A9000DF91CF91FF90EF90DF90CF90BF90AF90DC
:104AA0009F908F900895CF92DF92EF92FF920F9395
:104AB0001F93CF93DF930E9433080E94640F80916D
:104AC0005C0590915D050E940A0B80915C059091B8
:104AD0005D050E940A0B80915C0590915D050E9426
:104AE0000A0B0E9425091AB8C0905405D0905505AC
:104AF000E0905605F090570580915405909155052A
:104B0000A0915605B09157059E5FAF4FBF4FC81695
:104B1000D906EA06FB06E8F4779AC4E5D3E08601F5
:104B200004551340C8018C0F9D1F0E94160A8993DB
:104B300085E0C435D807B1F740E052E064E573E0A2
:104B400085EB95E00E94153B82E0D80EE11CF11C3C
:104B5000D3CF7798DF91CF911F910F91FF90EF9076
:104B6000DF90CF9008958F929F92AF92BF92CF9295
:104B7000DF92EF92FF92CF93DF930E9433081AB82F
:104B8000C0905405D0905505E0905605F09057051B
:104B90008091540590915505A0915605B091570507
:104BA0009E5FAF4FBF4FC816D906EA06FB0600F559
:104BB000779AC4E5D3E046015701C501B4010E94CC
:104BC000480989938FEF881A980AA80AB80A85E0DD
:104BD000C435D80791F740E052E064E573E085EB17
:104BE00095E00E94153B82E0D80EE11CF11CD0CF6D
:104BF0007798DF91CF91FF90EF90DF90CF90BF90AB
:104C0000AF909F908F900895CF92DF92EF92FF9296
:104C10000F931F93CF93DF930E9433081AB8C0906D
:104C20005405D0905505E0905605F09057058091B9
:104C3000540590915505A0915605B09157059E5F7A
:104C4000AF4FBF4FC816D906EA06FB06E8F4779ABD
:104C5000C4E5D3E0860104551340C8018C0F9D1FA5
:104C60000E94160A899385E0C435D807B1F740E061
:104C700052E064E573E085EB95E00E94153B82E02D
:104C8000D80EE11CF11CD3CF7798DF91CF911F9103
:104C90000F91FF90EF90DF90CF9008958F929F92A9
:104CA000AF92BF92CF92DF92EF92FF92CF93DF93BA
:104CB0000E9433080E94640F80915C0590915D050D
:104CC0000E940A0B80915C0590915D050E940A0B81
:104CD00080915C0590915D050E940A0B1AB8C09006
:104CE0005405D0905505E0905605F09057058091F9
:104CF000540590915505A0915605B09157059E5FBA
:104D0000AF4FBF4FC816D906EA06FB0600F5779AE3
:104D1000C4E5D3E046015701C501B4010E9448092A
:104D200089938FEF881A980AA80AB80A85E0C435D3
:104D3000D80791F740E052E064E573E085EB95E039
:104D40000E94153B82E0D80EE11CF11CD0CF779871
:104D5000DF91CF91FF90EF90DF90CF90BF90AF9019
:104D60009F908F9008958F929F92AF92BF92CF9213
:104D7000DF92EF92FF92CF93DF930E9433080E945D
:104D8000640F40915C05440F60E070EE80E090E0BD
:104D90000E94C90A1AB8C0905405D0905505E090F9
:104DA0005605F09057058091540590915505A091B6
:104DB0005605B09157059E5FAF4FBF4FC816D90635
:104DC000EA06FB0600F5779AC4E5D3E046015701F1
:104DD000C501B4010E94480989938FEF881A980A87
:104DE000A80AB80A85E0C435D80791F740E052E038
:104DF00064E573E085EB95E00E94153B82E0D80EF8
:104E0000E11CF11CD0CF7798DF91CF91FF90EF900C
:104E1000DF90CF90BF90AF909F908F9008958F922A
:104E20009F92AF92BF92CF92DF92EF92FF92CF9379
:104E3000DF930E9433080E94640F40915C0560E09C
:104E400070EA80E090E00E94C90A0E9425091AB821
:104E5000C0905405D0905505E0905605F090570548
:104E60008091540590915505A0915605B091570534
:104E70009E5FAF4FBF4FC816D906EA06FB0600F586
:104E8000779AC4E5D3E046015701C501B4010E94F9
:104E90007D0989938FEF881A980AA80AB80A85E0D5
:104EA000C435D80791F740E052E064E573E085EB44
:104EB00095E00E94153B82E0D80EE11CF11CD0CF9A
:104EC0007798DF91CF91FF90EF90DF90CF90BF90D8
:104ED000AF909F908F9008958F929F92AF92BF92C4
:104EE000CF92DF92EF92FF92CF93DF930E9433082D
:104EF0000E94640F46E060E070E880E090E00E946D
:104F00002C0A40915C0561E070E880E090E00E942E
:104F10002C0A40E060E070E880E090E00E942C0AFB
:104F20001AB8C0905405D0905505E0905605F09001
:104F300057058091540590915505A0915605B09163
:104F400057059E5FAF4FBF4FC816D906EA06FB064E
:104F500000F5779AC4E5D3E046015701C501B401D5
:104F60000E94480989938FEF881A980AA80AB80AFC
:104F700085E0C435D80791F740E052E064E573E07E
:104F800085EB95E00E94153B82E0D80EE11CF11CF8
:104F9000D0CF7798DF91CF91FF90EF90DF90CF90B7
:104FA000BF90AF909F908F9008958F929F92AF92F5
:104FB000BF92CF92DF92EF92FF92CF93DF930E9446
:104FC00033080E94640F40E060E070E880E090E009
:104FD0000E942C0A40915C05440F61E070E880E07B
:104FE00090E00E942C0A41E060E070E880E090E0F0
:104FF0000E942C0A40915C054F5F440F61E070E80D
:1050000080E090E00E942C0A0E9425091AB8C09006
:105010005405D0905505E0905605F09057058091C5
:10502000540590915505A0915605B09157059E5F86
:10503000AF4FBF4FC816D906EA06FB0600F5779AB0
:10504000C4E5D3E046015701C501B4010E947D09C2
:1050500089938FEF881A980AA80AB80A85E0C435A0
:10506000D80791F740E052E064E573E085EB95E006
:105070000E94153B82E0D80EE11CF11CD0CF77983E
:10508000DF91CF91FF90EF90DF90CF90BF90AF90E6
:105090009F908F9008958F929F92AF92BF92CF92E0
:1050A000DF92EF92FF92CF93DF930E94330840E0AC
:1050B00060E070EE80E090E00E94C90A42E060E0AB
:1050C00070EA80E090E00E94C90A45E060E070EC80
:1050D00080E090E00E94C90A1AB8C0905405D090B0
:1050E0005505E0905605F090570580E6D80EE11C76
:1050F000F11C8091540590915505A0915605B091F1
:1051000057059E59AF4FBF4FC816D906EA06FB0692
:1051100000F5779AC4E5D3E046015701C501B40113
:105120000E94A30989938FEF881A980AA80AB80ADF
:1051300085E0C435D80791F740E052E064E573E0BC
:1051400085EB95E00E94153B82E0D80EE11CF11C36
:10515000D0CF779840E160E070EE80E090E00E9470
:10516000C90A42E160E070EA80E090E00E94C90A6A
:1051700045E160E070EC80E090E0DF91CF91FF903E
:10518000EF90DF90CF90BF90AF909F908F900C9456
:10519000C90A8F929F92AF92BF92CF92DF92EF9205
:1051A000FF92CF93DF930E94330840EC61E070EAF6
:1051B00080E090E00E942C0A1AB8C0905405D0906C
:1051C0005505E0905605F090570580E6D80EE11C95
:1051D000F11C8091540590915505A0915605B09110
:1051E00057059E59AF4FBF4FC816D906EA06FB06B2
:1051F00000F5779AC4E5D3E046015701C501B40133
:105200000E94A30989938FEF881A980AA80AB80AFE
:1052100085E0C435D80791F740E052E064E573E0DB
:1052200085EB95E00E94153B82E0D80EE11CF11C55
:10523000D0CF779840E461E070EA80E090E0DF91C1
:10524000CF91FF90EF90DF90CF90BF90AF909F9065
:105250008F900C942C0A8F929F92AF92BF92CF9214
:10526000DF92EF92FF92CF93DF930E943308C090BA
:105270005405D0905505E0905605F0905705809163
:10528000540590915505A0915605B09157059F5F23
:10529000AF4FBF4FC816D906EA06FB0610F5779A3E
:1052A000C4E5D3E046015701C501B4010E94FC0FDB
:1052B000988389838FEF881A980AA80AB80A2296D9
:1052C00085E0C435D80781F740E052E064E573E03B
:1052D00085EB95E00E94153B8FEFD81AE80AF80A93
:1052E000CECF7798DF91CF91FF90EF90DF90CF9066
:1052F000BF90AF909F908F9008958F929F92AF92A2
:10530000BF92CF92DF92EF92FF92CF93DF930E94F2
:1053100033086AE070E080E090E00E945038C0906E
:10532000C601D090C701E090C801F090C9018091FA
:10533000540590915505A0915605B0915705C80E9A
:10534000D91EEA1EFB1E4091C6015091C701609113
:10535000C8017091C9018091540590915505A091A3
:105360005605B0915705840F951FA61FB71F9E5F66
:10537000AF4FBF4FC816D906EA06FB0668F5779A05
:10538000C4E5D3E046015701C501B4010E94FC0FFA
:105390002091BC013091BD012230310511F4988378
:1053A00004C02130310509F488838FEF881A980AE8
:1053B000A80AB80A219685E0C435D80729F740E045
:1053C00052E064E573E085EB95E00E94153B82E0D6
:1053D000D80EE11CF11CB7CF7798DF91CF91FF90E9
:1053E000EF90DF90CF90BF90AF909F908F900895F7
:1053F0008F929F92AF92BF92CF92DF92EF92FF92E5
:10540000CF93DF930E943308C0905405D090550588
:10541000E0905605F0905705809154059091550500
:10542000A0915605B09157059E5FAF4FBF4FC8166C
:10543000D906EA06FB0600F5779AC4E5D3E04601F3
:105440005701C501B4010E94281489938FEF881A6F
:10545000980AA80AB80A85E0C435D80791F740E051
:1054600052E064E573E085EB95E00E94153B82E035
:10547000D80EE11CF11CD0CF7798DF91CF91FF902F
:10548000EF90DF90CF90BF90AF909F908F90089556
:1054900085EB95E00E949A3A892BD1F385EB95E054
:1054A0000C94D33A08950F931F93CF93DF938C01FD
:1054B000C3E4D2E0CE0183549240801791071CF4DC
:1054C000E7DF8993F7CFDF91CF911F910F91089577
:1054D000EF92FF920F931F93CF93DF93EC018B0119
:1054E000CB01E1DF80E090E00E94150383E4E82E29
:1054F00082E0F82E0C0F1D1FC017D10781F0F701B5
:1055000021917F014C2F6D2F80EC0E941B036DE2D7
:1055100070E080E090E00E9450382196EDCF81E06D
:1055200090E00E94150380E1DF91CF911F910F91D0
:10553000FF90EF9008950F931F93CF93DF938C010B
:1055400080913D0290913E028017910758F480911E
:105550004703909148030196909348038093470333
:1055600081E115C0C0914303D0914403CC0FDD1FEE
:105570000132110540F060E270E0CE01A9DFA09693
:1055800000521109F5CFB801CE01A2DF80E1DF9111
:10559000CF911F910F9108957BDF803239F464E140
:1055A00085EB95E00E941A0260E10AC080914703F2
:1055B000909148030196909348038093470365E1D7
:1055C00085EB95E00C941A02CF93C82F61DF8032EF
:1055D00061F464E185EB95E00E941A026C2F85EB83
:1055E00095E00E941A0260E10AC080914703909101
:1055F00048030196909348038093470365E185EB48
:1056000095E0CF910C941A02813859F020F480383B
:1056100061F482E00BC0823831F0833931F483E5E4
:1056200005C081E003C082E101C080E0CDCF84E00D
:1056300090E039DFE3E4F2E02381428161818081FF
:105640000E941B03C1CFCF93DF93EC012CDF20DF3F
:10565000803251F464E185EB95E00E941A02CE019C
:105660000E943104682F0AC080914703909148033B
:105670000196909348038093470365E185EB95E09D
:10568000DF91CF910C941A02CF93DF9301DFC82FE3
:10569000D0E0DC2FCC27FCDEC80FD11DF9DE86342C
:1056A00021F4CE01DF91CF91CECF853489F4CE01A4
:1056B00042DFC82FEDDE803239F464E185EB95E0FE
:1056C0000E941A026C2F05C0DF91CF910C94210229
:1056D00061E185EB95E0DF91CF910C941A020F9375
:1056E0001F93CF93DF93D4DEC82FD2DE082FD0DEF6
:1056F000182FCEDE803231F0DF91CF911F910F91C4
:105700000C942102D0E0DC2FCC27C00FD11D64E126
:1057100085EB95E00E941A02163421F4CE010E9416
:105720007B0407C0153421F4CE010E94AA0401C0F5
:1057300081E1682F85EB95E0DF91CF911F910F916B
:105740000C941A02A5DE803259F0809147039091A3
:1057500048030196909348038093470365E127C06F
:1057600064E185EB95E00E941A0220E040E060E0F1
:1057700080E30E941B03682F85EB95E00E941A02CC
:1057800020E041E060E080E30E941B03682F85EB8E
:1057900095E00E941A0220E042E060E080E30E946F
:1057A0001B03682F85EB95E00E941A0260E185EBF0
:1057B00095E00C941A026CDE813509F471C0E8F4AE
:1057C000813409F459C050F4803309F440C0813366
:1057D00009F442C0803209F075C06AC0853409F40A
:1057E0004DC0803509F44EC0823409F06BC084E1AD
:1057F00090E059DE0E94340344C0813609F44CC065
:10580000F0F4863509F44BC0803609F444C0853580
:1058100009F058C03DDE90E0909344038093430329
:1058200037DE90E0982F882720914303309144037E
:10583000820F931F909344038093430322C08437C5
:1058400069F18537A1F1843609F03CC01DCF109273
:1058500048031092470315C01BDE803249F564E10E
:1058600085EB95E00E941A0260E271E085EB95E01D
:105870000E940B0260E135C00BDEC6CE85E090E0F1
:1058800012DE8ACE8091450390914603892BC9F799
:105890000E94B303F6CFFCDDFBDDF3CF20CFC7CEF4
:1058A00010924803109247030E94E903EACF4ACFBF
:1058B0008091470390914803019690934803809309
:1058C00047030EC08091470390914803019690933F
:1058D000480380934703DCDD803211F462E101C0AC
:1058E00065E185EB95E00C941A02CF93DF938091EC
:1058F000450390914603892B11F0779A01C0779860
:105900008091470390914803892B11F0709A01C050
:1059100070980E948C0285EB95E00E949A3A892B40
:1059200019F4C0E0D0E012C0DF91CF9144CF2196AE
:1059300061E070E080E090E00E945038C83883E178
:10594000D80724F010924E0310924D0385EB95E09A
:105950000E949A3A892B59F3DF91CF9108952F92A3
:105960003F924F925F926F927F928F929F92AF92EF
:10597000BF92CF92DF92EF92FF920F931F93CF933C
:10598000DF93CDB7DEB728970FB6F894DEBF0FBE12
:10599000CDBF0E94D0166AE070E080E090E00E94E7
:1059A00050380E9433086AE070E080E090E00E9486
:1059B00050380E94C2086AE070E080E090E00E94E7
:1059C000503885EB95E00E949A3A181619060CF0AB
:1059D000D2C0C0905405D0905505E0905605F09087
:1059E00057054091540550915505609156057091A9
:1059F00057058091580590915905A0915A05B0918D
:105A00005B05840F951FA61FB71FC816D906EA06A7
:105A1000FB0608F0B0C08EB180588EB92601370160
:105A2000212C312C18861F824AEA50E06AEA7AE07B
:105A300080E090E00E940A0545E550E065E575E0EC
:105A400080E090E00E940A0545E250E0C701B601FF
:105A50000E940A0540914F03469550E0415051097C
:105A6000C701B6010E940A0519822F8138854901B4
:105A7000330FAA08BB08D501C401840D951DA61DCE
:105A8000B71D8B839C83AD83BE8380914F03998127
:105A90009817F0F485EB95E00E94D33A182F85EB28
:105AA00095E00E94D33A982F8827DC01A12B8D0125
:105AB0006B817C818D819E81B9816B0F711D811DF0
:105AC000911DA8010E940A0529812E5F2983DDCF3F
:105AD00049E250E0C701B6010E940A05840C951CFA
