:1000000059C1000081C100007FC100007DC1000016
:100010007BC1000079C1000077C1000075C10000FC
:1000200073C1000071C100000C944A2B0C94C72BC3
:100030006BC1000069C1000067C1000065C100001C
:1000400063C1000061C100005FC100005DC100002C
:100050005BC1000059C1000057C100000C94A72AE1
:1000600053C1000051C100004FC100004DC100004C
:100070004BC1000049C1000047C1000045C100005C
:1000800043C1000041C100003FC100003DC100006C
:100090003BC1000039C10000E62408257B26682604
:1000A000562669250B256B255A255C256225F824E3
:1000B0007B267B267B267B26FF243D2552250F258C
:1000C00018257B267B267B267B267B260D250E2569
:1000D0002D257B2659257B266D256F2572257925B3
:1000E0007A257B267B267B267B267B267B267B260A
:1000F0007B267B267B267B263026322641263A2607
:10010000352654264226442646264726522654267D
:100110007B267B267B267B26812587259125982596
:100120009F25A225B325BC25C625CF25D925E225A7
:10013000E925F025F525FC25032607262E267B2616
:100140007B267B267B267B267B267B267B267B26A7
:100150007B267B267B267B260A260E261A261C2635
:100160001226162623262426252626262726282656
:1001700029262A262B262D267B267B267B267B26B8
:100180007B267B267B267B267B267B267B267B2667
:100190007B267B267B267B267B267B267B267B2657
:1001A0007B267B267B267B267B267B267B267B2647
:1001B0007B267B267B267B2658265A265D266426B0
:1001C00066267B267B267B267B267B267B267B263C
:1001D0007B267B267B267B266A266D267326752644
:1001E00077267926000100009502120002000052D5
:1001F0000243000300004E02040103090434021804
:10020000020309041C0216030309040E020C0C036A
:100210003100320033003400350000001603550071
:100220005300420020005300650072006900610025
:100230006C00000018035400650065006E00730038
:1002400079006400750069006E006F00000004030F
:10025000090409024300020100C032090400000140
:1002600002020100052400100105240100010424FC
:100270000206052406000107058203080040090460
:100280000100020A00000007050302400000070504
:1002900084024000001201000202000020C0168308
:1002A000047202010203010001C1020180360181D2
:1002B0003600142F11241FBECFEFD0E2DEBFCDBF1A
:1002C00011E0A0E0B1E0E2EBF4E600E00BBF02C019
:1002D00007900D92A038B107D9F724E0A0E8B1E06B
:1002E00001C01D92A132B207E1F711E0CAE5D1E0E9
:1002F00004C02197FE010E94282FC935D107C9F7F4
:100300000E9437280C9457327BCEFB0101900020CD
:10031000E9F73197AF01461B570BDC01ED91FC91DA
:100320000280F381E02D09940F931F93CF93DF9305
:10033000EC01EBDF8C01CE010E947C26800F911F27
:10034000DF91CF911F910F910895CF93DF931F926B
:10035000CDB7DEB76983DC01ED91FC910280F381BA
:10036000E02D41E050E0BE016F5F7F4F09950F9097
:10037000DF91CF91089540E052EC61E070E085E1BB
:1003800094E00E94AC2E11B814B817B81AB81DB872
:1003900010BA08958FEF84B987B981B98DB18F6094
:1003A0008DB98EB18F608EB964EF71E080E090E01E
:1003B0000C94E72A0F931F932FEF24B927B921B983
:1003C000DC01CB01B695A7959795879585B9092F3F
:1003D0001A2F2B2F332708B9CD01AA27BB2782B9A3
:1003E000729815B818B814B817B8719800000000C2
:1003F0000000000026B183B1719A729A90E0922BAE
:100400001F910F9108950F931F932FEF24B927B9D0
:1004100021B9DC01CB01B695A7959795879585B94C
:10042000092F1A2F2B2F332708B9CD01AA27BB2755
:1004300082B972980000000045B958B97098000060
:100440000000709A729A1F910F9108952FEF24B9AE
:1004500027B911B865B9BB27A92F982F872F88B95D
:100460007198739800000000000000000000000078
:100470000000000080B1739A719A08952FEF24B99B
:1004800027B921B965B9BB27A92F982F872F88B91C
:1004900042B9000000000000000000000000000061
:1004A0000000709873980000000000000000000039
:1004B00000000000000000000000739A709A000025
:1004C000000000000000000000000000000008958F
:1004D0000F931F93CF93DF934AEA50E06AEA7AE0E2
:1004E00080E090E090DF45E550E065E575E080E074
:1004F00090E089DF40E950E06AEA7AE080E090E04D
:1005000082DF00000000000060E070E0CB0152DFFD
:10051000082F62E070E080E090E04CDF182F6CE183
:1005200070E080E090E046DFD82F6EE170E080E080
:1005300090E040DFC82F68EE73E080E090E00E941A
:10054000E72A602F85E194E000DF612F85E194E0E8
:10055000FCDE6D2F85E194E0F8DE6C2F85E194E000
:10056000F4DE40EF50E06AEA7AE080E090E04BDFB2
:10057000000000000000DF91CF911F910F910895BE
:10058000739A8FEF84B987B98DB18F608DB98EB1B1
:1005900087608EB9739811B860E971E080E090E0EF
:1005A0000C94E72A85B998B900000000000000000B
:1005B0008EB1897F8EB9000000000000000080B17C
:1005C0009EB196609EB900000000000000000895F2
:1005D00085B998B962B90000000000000000709869
:1005E0000000000000000000709A00000000000001
:1005F0000000089587E491E0D5DF90E09093F20148
:100600008093F10188E491E0CDDF90E0A0E0B0E0DC
:100610008093ED019093EE01A093EF01B093F00170
:1006200089E491E0BFDF90E09093F4018093F301BF
:1006300022E030E03093E5012093E4014091ED01A8
:100640005091EE016091EF017091F001411551055B
:100650006105710549F002C0220F331F4A95E2F788
:100660003093E5012093E4011092E7011092E60136
:100670006091F1017091F2016630710531F421E071
:1006800030E03093E7012093E6018230910539F4A0
:1006900021E030E03093E7012093E60119C0833078
:1006A000910519F424E030E00BC08430910519F471
:1006B00020E130E005C08530910551F428E030E0BC
:1006C0003093E7012093E6016630710591F403C091
:1006D0006630710531F42FEF31EA3093E301209356
:1006E000E2018130910519F48FEF97EA04C0029777
:1006F00034F08FEF9FEB9093E3018093E20185E16B
:1007000094E023DE6091ED0185E194E01EDE6091CE
:10071000F30185E194E019CEFF920F931F93CF93DD
:10072000DF93CFEFC1B960E080E090E351DF64E692
:1007300070E080E090E00E94E72A60E080E090E2D4
:1007400047DF64E670E080E090E00E94E72A6AEA12
:100750008AEA9AE03DDF65E585E595E039DF60E905
:100760008AEA9AE035DF00000000000011B880E05E
:1007700090E018DFF82E82E090E014DF082F8CE183
:1007800090E010DF182F8EE190E00CDFD82F6F2D56
:1007900085E194E0DADD602F85E194E0D6DD612F1C
:1007A00085E194E0D2DD6D2F85E194E0CEDDC1B925
:1007B00060EF85E595E0DF91CF911F910F91FF905C
:1007C00007CF8FEF81B960E080E090E301DF64E65E
:1007D00070E080E090E00E94E72A60E080E090E234
:1007E000F7DE64E670E080E090E00E94E72A6AEAC3
:1007F0008AEA9AE0EDDE65E585E595E0E9DE60E808
:100800008AEA9AE0E5DE6AEA8AEA9AE0E1DE65E5EC
:1008100085E595E0DDDE60E18AEA9AE0D9DE11B88F
:1008200080E090E0BFDE87FD0AC08EB180588EB9AF
:1008300064EF71E080E090E00E94E72AF1CF7798C2
:1008400008958FEF84B915B887B918B881B183605E
:1008500081B981B1886181B982B1836082B913980D
:10086000149A0D9A159A0A9880E090E0A0E0B8E0FA
:100870008093DE019093DF01A093E001B093E1014A
:100880006CE271E080E090E00C94E72A8FEF84B98D
:1008900015B887B918B80895119800000000000035
:1008A0000000000026B183B1119A000090E0922B65
:1008B0000895BC01660F771F20E030E040E2261764
:1008C000370731F092B1942792B92F5F3F4FF7CF9E
:1008D0000895CF93DF93D82FC8E00A9A8D2F90E028
:1008E000880F892F881F990B892B39F082E090E0BF
:1008F000E0DF0A9886E090E006C086E090E0D9DF6D
:100900000A9882E090E0D5DFDD0FC15031F7DF912A
:10091000CF9108950A9A82E090E0CBDF0A9884E0B4
:1009200090E0C7CF0F931F93CF9304E911E0C0E489
:10093000029B04C081E090E0BCDFFACF83E090E04E
:10094000B8DF80B182FB882780F9F80181938F019D
:10095000029904C081E090E0ACDFFACFC15041F7CA
:10096000CF911F910F9108950D9A159A0A98779A31
:1009700080E593EC9EDF77980895CF93DF93CDB712
:10098000DEB727970FB6F894DEBF0FBECDBF28E7BE
:1009900030E04EE665E174E0CE0101960E943E270C
:1009A000CE0101960E942D286093FA037093FB03F9
:1009B0008093FC039093FD03CE0101960E9474275F
:1009C00027960FB6F894DEBF0FBECDBFDF91CF9153
:1009D00008958F929F92AF92BF92CF92DF92EF9243
:1009E000FF92CBDF6AE070E080E090E00E94E72AAF
:1009F0008090FA039090FB03A090FC03B090FD035D
:100A000021E0821A9108A108B108C12CD12C7601ED
:100A1000C814D904EA04FB04B0F54AEA50E06AEAD3
:100A20007AE080E090E0EFDC45E550E065E575E0D8
:100A300080E090E0E8DC40E850E06AEA7AE080E0BC
:100A400090E0E1DC4AEA50E06AEA7AE080E090E097
:100A5000DADC45E550E065E575E080E090E0D3DC68
:100A600040E350E0C701B601CEDCC701B601A2DC0D
:100A70008F679F6F0196C9F78EB180588EB982E05B
:100A8000E80EF11CC5CFFF90EF90DF90CF90BF90A4
:100A9000AF909F908F900895CF93DF93CDB7DEB73F
:100AA00027970FB6F894DEBF0FBECDBF28E730E022
:100AB0004EE665E174E0CE0101960E943E27CE012C
:100AC00001960E942D286093FE037093FF0380938C
:100AD000000490930104CE0101960E94742727968A
:100AE0000FB6F894DEBF0FBECDBFDF91CF91089552
:100AF000CF93DF93CDB7DEB727970FB6F894DEBF5D
:100B00000FBECDBF28E730E04EE665E174E0CE01D0
:100B100001960E943E27CE0101960E942D287093D7
:100B2000930160939201CE0101960E94742727964B
:100B30000FB6F894DEBF0FBECDBFDF91CF91089501
:100B40008FEF84B987B981B980BB8DB18F6D8DB9B5
:100B50008EB18F648EB9749A77981AB808958EB151
:100B600082658EB908958EB18C608EB98D9A089584
:100B700065B9BB27A92F982F872F88B9749A4BB9CD
:100B80000000000000000000000076980000000057
:100B9000000000000000769A000000000000000045
:100BA0000000089565B9BB27A92F982F872F88B912
:100BB0000000000000000000000074980000000029
:100BC00000000000000089B1749A000000000000DD
:100BD00000000000089562B9BB27A92F982F872F26
:100BE00081BB8D984BB9729A000000000000000094
:100BF0000000739800000000000000000000739ADD
:100C00008D9A00000000000000000000089562B905
:100C1000BB27A92F982F872F81BB8D98739A00002F
:100C200000000000000000007298000000000000BA
:100C30000000000089B1729A8D9A00000000000047
:100C4000000000000895709A0000000000007098F5
:100C5000000000000000749A08950F931F931AB8C3
:100C600065B9072F182F292F332708B96115704848
:100C70008105910508F07498709A0000000000004A
:100C8000000089B17098749A9FEF9AB91F910F91E3
:100C900008950F931F9365B9072F182F292F332716
:100CA00008B971982FEF2AB94BB900000000000075
:100CB0000000000076980000000000000000000026
:100CC000769A0000000000000000000061157048E6
:100CD0008105910508F07498709A000000000000EA
:100CE00000007098749A719A1AB81F910F91089524
:100CF00065B9BB27A92F982F872F88B971988FEFD7
:100D00008AB94BB9749A709A000000000000000084
:100D1000000000000000000000007098749A719AB2
:100D20001AB8089582B991BB8D988FEF8AB96BB9C3
:100D3000729A000073980000739A8D9A1AB80895F9
:100D400082B991BB739A000000000000000000000F
:100D500072980000000000000000000089B1729A43
:100D6000000000000000000000000895CF92DF9214
:100D7000EF92FF92CF936B017C01C42F64DFC5B863
:100D8000CD2CDE2CEF2CFF24C8B871988FEF8AB9D8
:100D9000CBB97498709A00000000000000007098B1
:100DA000749A719A1AB8CF91FF90EF90DF90CF901C
:100DB0004ACF40E461E070EA80E090E0D7DF40E0B5
:100DC00060E070EA80E090E0D1DF40E060E070E851
:100DD00080E090E0CBDF40E061E070E880E090E010
:100DE000C5DF41E060E070E880E090E0BFDF42E016
:100DF00061E070E880E090E0B9DF42E060E070E838
:100E000080E090E0B3DF45E161E070E880E090E0F1
:100E1000ADDF43E060E070E880E090E0A7DF45E10F
:100E200061E070E880E090E0A1DF44E060E070E81D
:100E300080E090E09BDF4AE061E070E880E090E0D5
:100E400095DF45E060E070E880E090E08FDF4AE009
:100E500061E070E880E090E089DF46E060E070E803
:100E600080E090E083DF40E061E070E880E090E0C7
:100E70007DDF47E060E070E880E090E077DF41E010
:100E800061E070E880E090E071DF40E060E070E8F1
:100E900080E090E06BCFD7DE40E860E070E880E073
:100EA00090E0F7DED0CECF92DF92EF92FF921F93C9
:100EB000CF93DF936B017C01142FC5E0D0E0C70115
:100EC000B601CBDE412FC701B601E3DE16952197AF
:100ED000B1F7DF91CF911F91FF90EF90DF90CF900E
:100EE000089560E070E880E090E0B7DE40E860E000
:100EF00070E880E090E0CDDE40E160E070E880E006
:100F000090E0D1DF40E160E070EE80E090E0CBDF88
:100F100042E160E070EA80E090E0C5DF45E160E03A
:100F200070EC80E090E0BFCF9FEF9AB98BB97198D9
:100F3000749A7498719A9AB90895CF93DF93CFEF0A
:100F4000CAB94AEA65E575E580E090E011DE45E55D
:100F50006AEA7AE280E090E00BDE40E965E575E55B
:100F600080E090E005DE0000000000001AB860E0BC
:100F700070E0CB0117DE61E070E080E090E012DE0F
:100F8000D82F68EE73E080E090E00E94E72A6D2F92
:100F900085E194E0DAD9CAB94AEA65E575E580E009
:100FA00090E0E6DD45E56AEA7AE280E090E0E0DDA7
:100FB00040EF65E575E580E090E0DADD00000000D7
:100FC00000001AB8DF91CF910895CF93DF9380E0AE
:100FD00090E0AADF80E090E0A7DF80E090E0A4DF6F
:100FE000CFEFCAB9469A4AEA65E575E580E090E038
:100FF000BFDD469845E56AEA7AE280E090E0B8DD38
:10100000469A40E965E575E580E090E0B1DD0000D5
:10101000000000001AB860E070E0CB01C3DD61E0C1
:1010200070E080E090E0BEDDD82F68EE73E080E0F5
:1010300090E00E94E72A6D2F85E194E086D9CAB935
:10104000469A4AEA65E575E580E090E091DD4698CC
:1010500045E56AEA7AE280E090E08ADD469A40EF70
:1010600065E575E580E090E083DD000000000000AC
:101070001AB8DF91CF910895CF93DF93CFEFCAB91C
:1010800040E160E070E880E090E00DDF40E160E08A
:1010900070EE80E090E007DF40E160E070E880E023
:1010A00090E001DF4AEA65E575E580E090E0F1DD7A
:1010B00045E56AEA7AE280E090E0EBDD40E965E54B
:1010C00075E580E090E0E5DD0000000000001AB862
:1010D00060E070E0CB0166DD61E070E080E090E010
:1010E00061DDD82F68EE73E080E090E00E94E72A8F
:1010F0006D2F85E194E029D9CAB94AEA65E575E51D
:1011000080E090E0C6DD45E56AEA7AE280E090E0C2
:10111000C0DD40EF65E575E580E090E0BADD0000F8
:10112000000000001AB8DF91CF910895CF93DF93AC
:10113000CFEFCAB93EDE4AEA65E575E580E090E0AA
:10114000A8DD45E56AEA7AE280E090E0A2DD40E9C8
:1011500065E575E580E090E09CDD000000000000A2
:101160001AB860E070E0CB011DDD61E070E080E066
:1011700090E018DDD82F68EE73E080E090E00E94E8
:10118000E72A6D2F85E194E0E0D8CAB94AEA65E51F
:1011900075E580E090E07DDD45E56AEA7AE280E091
:1011A00090E077DD40EF65E575E580E090E071DD8A
:1011B0000000000000001AB8DF91CF910895D3DC41
:1011C0008FEF8AB94AEA65E575E580E090E0D0DC0A
:1011D00045E56AEA7AE280E090E0CADC40E865E54D
:1011E00075E580E090E0C4DC4AEA65E575E580E0FD
:1011F00090E0BEDC45E56AEA7AE280E090E0B8DCA7
:1012000040E165E575E580E090E0B2DC64E670E021
:1012100080E090E00E94E72A1AB860E070E0CB011D
:10122000C1DC87FD0AC08EB180588EB964EF71E0D1
:1012300080E090E00E94E72AF0CF779808958FDC55
:101240008FEF8AB94AEA65E575E580E090E0C3DC96
:1012500045E56AEA7AE280E090E0BDDC40E865E5D9
:1012600075E580E090E0B7DC4AEA65E575E580E089
:1012700090E0B1DC45E56AEA7AE280E090E0ABDC40
:1012800040E165E575E580E090E0A5DC64E670E0AE
:1012900080E090E00E94E72A1AB860E070E0CB019D
:1012A000B6DC87FD0EC08EB180588EB964EF71E058
:1012B00080E090E00E94E72A60E070E0CB0172DC01
:1012C000F0CF779808958FEF8AB949DC82E090E0FB
:1012D0002BDE82E090E028DE82E090E025DE6AEA04
:1012E00085E595E11FDD81E090E01EDE81E090E084
:1012F0001BDE81E090E018DE65E58AEA9AE012DD07
:1013000082E090E011DE82E090E00EDE82E090E08C
:101310000BDE60E885E595E105DD82E090E004DE26
:1013200082E090E001DE82E090E0FEDD6AEA85E5A1
:1013300095E1F8DC81E090E0F7DD81E090E0F4DD1C
:1013400081E090E0F1DD65E58AEA9AE0EBDC82E09D
:1013500090E0EADD82E090E0E7DD82E090E0E4DD2D
:1013600060E185E595E1DEDC80E090E0DDDD80E0B8
:1013700090E0DADD80E090E0D7DD64E670E080E0C8
:1013800090E00E94E72AEBDB1AB860E070E0CB0146
:101390003EDC87FD0AC08EB180588EB964EF71E0E3
:1013A00080E090E00E94E72AF0CF7798089580E0EF
:1013B00090E0BADD80E090E0B7DD80E090E0B4DD61
:1013C0008FEF8AB9469A4AEA65E575E580E090E0D4
:1013D000CFDB469845E56AEA7AE280E090E0C8DB38
:1013E000469A40E865E575E580E090E0C1DB469A05
:1013F0004AEA65E575E580E090E0BADB469845E5A8
:101400006AEA7AE280E090E0B3DB469A40E165E583
:1014100075E580E090E0ACDB64E670E080E090E0B1
:101420000E94E72A1AB860E070E0CB01BBDB87FDC1
:101430000AC08EB180588EB964EF71E080E090E010
:101440000E94E72AF0CF08958ADB8FEF8AB94AEA33
:1014500065E575E580E090E0BEDB45E56AEA7AE2A5
:1014600080E090E0B8DB40E865E575E580E090E07D
:10147000B2DB4AEA65E575E580E090E0ACDB45E586
:101480006AEA7AE280E090E0A6DB40E165E575E596
:1014900080E090E0A0DB64E670E080E090E00E94F5
:1014A000E72A1AB860E070E0CB01B1DB87FD0AC023
:1014B0008EB180588EB964EF71E080E090E00E94B8
:1014C000E72AF0CF779808954EDB8FEF8AB946E090
:1014D00060E070E880E090E049DC40E061E070E8C6
:1014E00080E090E043DC47E060E070E880E090E07E
:1014F0003DDC41E061E070E880E090E037DC4AEA02
:1015000065E575E580E090E0C4DB45E56AEA7AE2EE
:1015100080E090E0BEDB40E865E575E580E090E0C6
:10152000B8DB4AEA65E575E580E090E0B2DB45E5C9
:101530006AEA7AE280E090E0ACDB40E165E575E5DF
:1015400080E090E0A6DB64E670E080E090E00E943E
:10155000E72A1AB860E070E0CB0124DB87FD0AC0FF
:101560008EB180588EB964EF71E080E090E00E9407
:10157000E72AF0CF40E060E070E880E090E0F6DB42
:1015800077980895ECDA8FEF8AB94AEA65E575E154
:1015900080E090E020DB45E56AEA7AE180E090E0D7
:1015A0001ADB40E865E575E180E090E014DB4AEA8B
:1015B00065E575E180E090E00EDB45E56AEA7AE1F9
:1015C00080E090E008DB40E165E575E180E090E0D7
:1015D00002DB64E670E080E090E00E94E72A1AB83F
:1015E00060E070E0CB0113DB87FD0AC08EB180584C
:1015F0008EB964EF71E080E090E00E94E72AF0CFBE
:1016000077980895B0DA8FEF8AB94AEA65E575E50B
:1016100080E090E03EDB45E56AEA7AE280E090E037
:1016200038DB40E865E575E580E090E032DB4AEACA
:1016300065E575E580E090E02CDB45E56AEA7AE255
:1016400080E090E026DB40E165E575E580E090E034
:1016500020DB64E670E080E090E00E94E72A1AB8A0
:1016600060E070E0CB019EDA87FD0AC08EB1805841
:101670008EB964EF71E080E090E00E94E72AF0CF3D
:1016800077980895CF93DF93CDB7DEB727970FB63E
:10169000F894DEBF0FBECDBF28E730E04EE665E12F
:1016A00074E0CE0101960E943E27CE0101960E9471
:1016B0002D287093910160939001CE0101960E94B4
:1016C000742727960FB6F894DEBF0FBECDBFDF910B
:1016D000CF910895CF93DF93CDB7DEB727970FB69D
:1016E000F894DEBF0FBECDBF28E730E04EE665E1DF
:1016F00074E0CE0101960E943E27CE0101960E9421
:101700002D2870938F0160938E01CE0101960E9467
:10171000742727960FB6F894DEBF0FBECDBFDF91BA
:10172000CF9108958FEF8AB980BB81B98DB18D6358
:101730008DB9699A689814B817B88EB18C638EB950
:10174000719868EC70E080E090E00C94E72A8FEFED
:1017500084B987B9089514B817B80895CF92DF9265
:10176000EF92FF92CF93DF936B017C01D42FC52FB3
:10177000EEDFCBB8BB27AF2D9E2D8D2D81BB670132
:10178000EE24FF24C2B8D5B9C8B900007398000090
:10179000749800000000000000000000749A00002F
:1017A000739A00000000DF91CF91FF90EF90DF90DF
:1017B000CF90D1CFCF92DF92EF92FF926B017C015D
:1017C000CADFCBB8BB27AF2D9E2D8D2D81BB670106
:1017D000EE24FF24C2B80000739872980000000045
:1017E000000000000000000026B183B1729A739AD5
:1017F000000090E0922BFF90EF90DF90CF90089543
:10180000CF93DF93D82FC92F41D8D5B9C8B90000DD
:10181000109800000000000000000000109A000076
:101820000000DF91CF9197CFCF92DF92EF92FF929E
:101830006B017C012BD8C701AA27BB2722B12360EB
:1018400022B9139A0000149A85B9892F992788B96B
:1018500000001498C5B8CD2CDD24C8B800000000E5
:1018600013980000000000000000000000000000CD
:10187000000000000000FF90EF90DF90CF906BCF52
:10188000D3DF80EF90E0BCDF64E670E080E090E0C2
:101890000C94E72A1F93CF93DF931092DA011092F2
:1018A000DB011092DC011092DD018091000190912A
:1018B0000101A0910201B0910301BC01CD01665567
:1018C000754F8F4F9F4FB0DF8AEA90E099DF80918C
:1018D000000190910101A0910201B0910301BC01AE
:1018E000CD016C5A7A4F8F4F9F4F9EDF85E590E078
:1018F00087DF8091000190910101A0910201B091D8
:101900000301BC01CD016655754F8F4F9F4F8CDF92
:1019100080E990E075DF6091000170910101809194
:1019200002019091030180DF0E944C049F938F93EA
:1019300081E191E09F938F9385ED91E09F938F9349
:101940000E947C2F0E944C049F938F93C6E1D1E0AC
:10195000DF93CF9382E094E09F938F930E947C2F3C
:101960008091000190910101A0910201B0910301C9
:10197000BC01CD01645E7F4F8F4F9F4F55DF0E94AA
:101980004C04182F0E944C0420E030E0282B1F93B9
:101990002F93DF93CF9388EE91E09F938F930E94D4
:1019A0007C2F65ED71E085E194E00E9485016BE19B
:1019B00071E085E194E00E94850162E074E085E1D8
:1019C00094E00E9485016BE171E085E194E00E9462
:1019D000850168EE71E085E194E00E9485016BE18C
:1019E00071E085E194E00E9485018DB79EB7429633
:1019F0000FB6F8949EBF0FBE8DBF6091000170912D
:101A000001018091020190910301DF91CF911F911B
:101A100037CF4F925F926F927F928F929F92AF9249
:101A2000BF92CF92DF92EF92FF9280900001909050
:101A30000101A0900201B0900301C12CD12C7601CC
:101A4000240135012AEA420E2AE0521E611C711C53
:101A500084E5880E85E0981EA11CB11C8091F601DA
:101A60009091F701A091F801B091F901C816D9063B
:101A7000EA06FB0608F04CC08EB180588EB9C3014F
:101A8000B201D2DE8AEA90E0BBDEC501B401CCDE51
:101A900085E590E0B5DEC301B201C6DE80E890E0E6
:101AA000AFDEC301B201C0DE8AEA90E0A9DEC50163
:101AB000B401BADE85E590E0A3DE8091000190914B
:101AC0000101A0910201B0910301BC01CD016C0D97
:101AD0007D1D8E1D9F1DA8DE80E390E091DE80912C
:101AE000000190910101A0910201B0910301BC019C
:101AF000CD016C0D7D1D8E1D9F1D96DE0E944C0438
:101B00008F679F6F019659F782E0E80EF11CA6CF10
:101B10007798FF90EF90DF90CF90BF90AF909F901D
:101B20008F907F906F905F904F900895CF92DF924B
:101B3000EF92FF926B017C0160E070E081E098E041
:101B400073DEC7015DDEC601FF90EF90DF90CF909E
:101B500057CE60E070E080E092EDE8DF6AE070E090
:101B600080E090E00E94E72A60E070E080E092ED83
:101B7000DDDF6AE070E080E090E00E94E72A60E04C
:101B800070E080E091EED2DF6AE070E080E090E00B
:101B90000C94E72A0F931F93CF93DF934AEA50E008
:101BA00065E575E080E090E0D9DD45E550E06AEA62
:101BB00072E080E090E0D2DD40E950E065E575E05C
:101BC00080E090E0CBDD00000000000060E070E00D
:101BD000CB01F0DD082F61E070E080E090E0EADD0D
:101BE000182F6EE070E080E090E0E4DDD82F6FE029
:101BF00070E080E090E0DEDDC82F68EE73E080E00A
:101C000090E00E94E72A602F85E194E00E94A50100
:101C1000612F85E194E00E94A5016D2F85E194E09C
:101C20000E94A5016C2F85E194E00E94A50140EF80
:101C300050E065E575E080E090E090DD0000000098
:101C40000000DF91CF911F910F9108954AEA50E073
:101C500065E575E080E090E081DD45E550E06AEA09
:101C600072E080E090E07ADD40E850E065E575E004
:101C700080E090E073DD4AEA50E065E575E080E0E1
:101C800090E06CDD45E550E06AEA72E080E090E0CB
:101C900065DD40E150E065E575E080E090E05EDD07
:101CA00060E070E0CB0186DD8F679F6F019651F099
:101CB0008EB180588EB968EC70E080E090E00E94B0
:101CC000E72AEECF77980895CF93DF9368ED70E021
:101CD00080E090E06FDD8134924541F469ED70E081
:101CE00080E090E067DD8032984F09F11092810129
:101CF000109280011092820110928301109284014F
:101D0000109285014091820150918301609184017C
:101D10007091850120E085E194E00E9496266BE1B8
:101D200071E085E194E0DF91CF910C9485016AED3B
:101D300070E080E090E03EDDEC016BED70E080E073
:101D400090E038DDAC01CE01A0E0B0E0DC019927E5
:101D5000882760E070E0842B952BA62BB72B80930F
:101D60008A0190938B01A0938C01B0938D016CED4F
:101D700070E080E090E01EDDEC016DED70E080E051
:101D800090E018DDAC01CE01A0E0B0E0DC019927C5
:101D9000882760E070E0842B952BA62BB72B8093CF
:101DA000860190938701A0938801B09389014091A7
:101DB0008A0150918B0160918C0170918D014130AD
:101DC000510520E26207710519F421E030E008C0F6
:101DD000411551056042710509F094CF22E030E0D1
:101DE00030938101209380018F5F9F4FAF41B109F4
:101DF000B695A795979587958093820190938301D7
:101E0000A0938401B093850180E090E0A0E1B0E070
:101E100080938A0190938B01A0938C01B0938D01E4
:101E200071CFCF93C82F93DCC8B97598000000001C
:101E30000000000000000000759A00000000000093
:101E4000000000000000CF9186CC0F931F93CF932A
:101E5000DF9362ED70E080E090E0ACDCEC0163EDDC
:101E600070E080E090E0A6DCAE0160E070E0BA01D6
:101E7000552744278C0120E030E0402B512B622B6A
:101E8000732B4F5F5F4F6F4F7F4F20E085E194E0F2
:101E90000E9496266BE171E085E194E0DF91CF919D
:101EA0001F910F910C948501CF93DF93CDB7DEB7CF
:101EB00027970FB6F894DEBF0FBECDBF28E730E0FE
:101EC0004EE665E174E0CE0101960E943E27CE0108
:101ED00001960E942D286093F6017093F70180937C
:101EE000F8019093F901CE0101960E94742727967C
:101EF0000FB6F894DEBF0FBECDBFDF91CF9108952E
:101F0000CF92DF92EF92FF92CFDF6AE070E080E045
:101F100090E00E94E72AC12CD12C76018091F60135
:101F20009091F701A091F801B091F901B695A795AC
:101F300097958795C816D906EA06FB06B0F58EB1C7
:101F400080588EB94AEA50E065E575E080E090E09F
:101F500005DC45E550E06AEA72E080E090E0FEDBF7
:101F600040E850E065E575E080E090E0F7DB4AEAA4
:101F700050E065E575E080E090E0F0DB45E550E09D
:101F80006AEA72E080E090E0E9DB40E350E0C701FC
:101F9000B601E4DBC701B6010DDC8F679F6F0196C8
:101FA000C9F78FEFE81AF80AB9CF7798FF90EF904A
:101FB000DF90CF9008958FEF8AB980BB84B991B13B
:101FC0009F6091B992B1966092B992B1967F92B9A1
:101FD0008DB9779817B808950F931F936BB9072F92
:101FE000182F292F332701BBAA27BB2785B948B94A
:101FF00000001298000000000000129A000000008B
:1020000000001F910F9108950F931F936BB9072F35
:10201000182F292F332701BBAA27BB2785B900001A
:1020200011980000000086B1119A00000000000025
:102030001F910F910895FF920F931F93CF93DF93FA
:10204000779ACFEFC7B94AEA6AEA7AE080E090E08F
:10205000C3DF45E565E575E080E090E0BDDF40E980
:102060006AEA7AE080E090E0B7DF17B860E070E0FD
:10207000CB01CADFF82E62E070E080E090E0C4DFC0
:10208000082F6CE170E080E090E0BEDF182F6EE179
:1020900070E080E090E0B8DFD82F68EE73E080E079
:1020A00090E00E94E72A6F2D85E194E00E94A5014F
:1020B000602F85E194E00E94A501612F85E194E005
:1020C0000E94A5016D2F85E194E00E94A501C7B98A
:1020D00040EF6AEA7AE080E090E07EDF7798DF9177
:1020E000CF911F910F91FF9008958FEF87B94AEA22
:1020F0006AEA7AE080E090E06FDF45E565E575E04B
:1021000080E090E069DF40E86AEA7AE080E090E011
:1021100063DF4AEA6AEA7AE080E090E05DDF45E565
:1021200065E575E080E090E057DF40E16AEA7AE03B
:1021300080E090E051DF17B860E070E0CB0164DF31
:1021400087FD0AC08EB180588EB968EC70E080E0DF
:1021500090E00E94E72AF0CF0895CF92DF92EF92AD
:10216000FF92CF93A1DE6AE070E080E090E00E94F1
:10217000E72AC12CD12C7601CFEF8091F601909106
:10218000F701A091F801B091F901C816D906EA0645
:10219000FB0680F58EB180588EB9C7B94AEA6AEA63
:1021A0007AE080E090E018DF45E565E575E080E0E5
:1021B00090E012DF40E86AEA7AE080E090E00CDF2D
:1021C0004AEA6AEA7AE080E090E006DF45E565E504
:1021D00075E080E090E000DF40E3C701B601FCDE7F
:1021E00017B8C701B60110DF87FFFBCF82E0E80E0A
:1021F000F11CC3CF7798CF91FF90EF90DF90CF90F5
:1022000008958F929F92AF92BF92CF92DF92EF92FA
:10221000FF92CF93DF930E94BD04C12CD12C760195
:102220008091FA039091FB03A091FC03B091FD0310
:10223000C816D906EA06FB06E8F4779ACAEFD1E099
:102240004601570185E194E00E946A2D8993482F49
:10225000C501B4010E943E028FEF881A980AA80AAD
:10226000B80A83E0CA3FD80769F782E0D80EE11CBC
:10227000F11CD6CF7798DF91CF91FF90EF90DF9050
:10228000CF90BF90AF909F908F900895DF92EF9284
:10229000FF920F931F93CF93DF9306DE6AE070E007
:1022A00080E090E00E94E72A6091F6018FEF81B90B
:1022B000779A80E090E20E94E80260E080E090E49B
:1022C0000E94E80200E010E4DD24DA94CAEFD1E0D5
:1022D000C8018A5F91407C0185E194E00E946A2DEB
:1022E00088836AEA8AEA9AE00E94E80265E585E561
:1022F00095E00E94E80260EA8AEA9AE00E94E80219
:102300006881C7018C0F9D1F0E94E80211B88EB131
:10231000897F8EB9999180B1892787FDFCCF8EB1D5
:1023200086608EB9D1B893E0CA3FD907A9F61E5F7F
:10233000011580E8180751F611B87798DF91CF9111
:102340001F910F91FF90EF90DF900895AF92BF9291
:10235000CF92DF92EF92FF920F931F93CF93DF9371
:10236000D0E010E05AEFE52E53E0F52E212F30E0BB
:10237000809192019091930197FDCF9646E09595BB
:1023800087954A95E1F7281739078CF58AEFC82E0B
:1023900081E0D82E560185E194E00E946A2DF50176
:1023A00081935F01EE16FF06B1F7F894C0E080E973
:1023B00095E60E94590485E00E9469048D2F8C0FD8
:1023C0000E946904560108E0F50181915F010E94B5
:1023D00069040150C9F70E948A04CF5FF8E0CF0E6C
:1023E000D11CC03421F778941F5FD05CBFCFDF9140
:1023F000CF911F910F91FF90EF90DF90CF90BF9002
:10240000AF900895BF92CF92DF92EF92FF920F9319
:102410001F93CF93DF93C090DE01D090DF01E09057
:10242000E001F090E1018091DE019091DF01A09147
:10243000E001B091E1019058AF4FBF4FC816D906E7
:10244000EA06FB0608F5C701B601EED9CAEFD1E0EE
:1024500085E194E00E946A2DB82E888385E194E09E
:102460000E946A2D89831B2D00E09801282BC90149
:10247000C7D9229632E0CA33D30751F780E4C80E99
:10248000D11CE11CF11CCFCFDF91CF911F910F9197
:10249000FF90EF90DF90CF90BF90089585E194E09A
:1024A0000E946A2D8093F50108952F923F924F92DA
:1024B0005F926F927F928F929F92AF92BF92CF92D4
:1024C000DF92EF92FF920F931F93CF93DF93CDB7DD
:1024D000DEB761970FB6F894DEBF0FBECDBF809018
:1024E000000190900101A0900201B0900301D6DF9D
:1024F0006AE070E080E090E00E94E72A0E94BD045C
:102500006AE070E080E090E00E94E72A0E944C05BB
:102510006AE070E080E090E00E94E72AC090FA0351
:10252000D090FB03E090FC03F090FD03A501940123
:102530002655354F4F4F5F4F2B833C834D835E8332
:10254000D501C4018C5A9A4FAF4FBF4F8F839887E4
:10255000A987BA874091FA035091FB036091FC036D
:102560007091FD038091FE039091FF03A091000400
:10257000B0910104840F951FA61FB71FC816D90676
:10258000EA06FB0608F02DC18EB180588EB9812C69
:10259000912C540100E010E06B817C818D819E8143
:1025A00043D98AEA90E02CD96F81788589859A850C
:1025B0003BD985E590E024D92801012E000C66085E
:1025C00077088091000190910101A0910201B091E2
:1025D00003018C0D9D1DAE1DBF1D880D991DAA1DEB
:1025E000BB1DBC01CD01640D751D861D971D1CD939
:1025F00085E290E005D98091000190910101A091C0
:102600000201B09103018C0D9D1DAE1DBF1D880DF3
:10261000991DAA1DBB1DBC01CD01640D751D861D34
:10262000971D02D98091F501869590E00197E8D831
:102630001B862091F5019B859217A8F585E194E012
:102640000E946A2D8C878093FA0185E194E00E94B4
:102650006A2D8093FB01AC85AA83198229803A8078
:10266000282A8091000190910101A0910201B0916E
:1026700003018C0D9D1DAE1DBF1D880D991DAA1D4A
:10268000BB1D840D951DA61DB71DBC01CD012B855D
:10269000620F711D811D911DC7D8C101B1D83B8545
:1026A0003E5F3B87C6CF4091000150910101609190
:1026B0000201709103014C0D5D1D6E1D7F1D480DC3
:1026C000591D6A1D7B1DDB01CA01840D951DA61DC8
:1026D000B71D8E879F87A88BB98B822F90E00297BA
:1026E000092E000CAA0BBB0B2E853F854889598902
:1026F000280F391F4A1F5B1FCA01B90195D889E20B
:1027000090E07ED84091F50150E042505109052EED
:10271000000C660B770B8091000190910101A09154
:102720000201B0910301840F951FA61FB71F8C0DE6
:102730009D1DAE1DBF1D880D991DAA1DBB1DBC0191
:10274000CD01640D751D861D971D6ED80E944C0429
:10275000A1014F675F6F5D874C878F679F6F4091C7
:10276000F501AC85BD858A179B0729F150E04250E1
:102770005109052E000C660B770B8091000190919A
:102780000101A0910201B0910301840F951FA61FC2
:10279000B71F8C0D9D1DAE1DBF1D880D991DAA1D57
:1027A000BB1DBC01CD01640D751D861D971D3CD858
:1027B0000E944C04D2CF040F111D0115B0E41B0779
:1027C0000CF4EACE20E4920EA11CB11C81149104F9
:1027D00032E0A306B10409F0DDCE42E0E40EF11CC4
:1027E000B9CE779861960FB6F894DEBF0FBECDBF15
:1027F000DF91CF911F910F91FF90EF90DF90CF90DD
:10280000BF90AF909F908F907F906F905F904F9010
:102810003F902F9008958F929F92AF92BF92CF9248
:10282000DF92EF92FF921F93CF93DF930E94B30545
:102830008FEF8AB9C12CD12C76011FEFD701C601C9
:102840009770AA27BB27892B8A2B8B2B19F48EB163
:1028500080588EB9CAEFD1E04601570185E194E076
:102860000E946A2D88834AEA65E575E580E090E07C
:102870000E94490645E56AEA7AE280E090E00E941B
:10288000490640EA65E575E580E090E00E9449066A
:102890004881C501B4010E9449061AB874989991FB
:1028A00089B1892787FDFCCF749A1AB98FEF881AEE
:1028B000980AA80AB80A83E0CA3FD80779F682E0E6
:1028C000D80EE11CF11CC11480E8D806E104F10423
:1028D00009F0B4CF0E94AF05C12CD12C76011FEFB7
:1028E000D701C6019770AA27BB27892B8A2B8B2B70
:1028F00019F48EB180588EB9CAEFD1E04601570164
:1029000085E194E00E946A2D88834AEA65E575E5D1
:1029100080E090E00E94EB0545E56AEA7AE280E01B
:1029200090E00E94EB0540EA65E575E580E090E007
:102930000E94EB054881C501B4010E94EB051AB85D
:102940008D987298999189B1892787FDFCCF729AE9
:102950008D9A1AB98FEF881A980AA80AB80A83E0E4
:10296000CA3FD80769F682E0D80EE11CF11CC114F9
:1029700080E2D806E104F10409F0B2CF7798DF9144
:10298000CF911F91FF90EF90DF90CF90BF90AF90CD
:102990009F908F9008954F925F926F927F928F9247
:1029A0009F92AF92BF92CF92DF92EF92FF920F93DE
:1029B0001F93CF93DF930E94B3058FEF8AB9812CC9
:1029C000912C54010AEF13E0DD24DA94D501C401FF
:1029D0009770AA27BB27892B8A2B8B2B19F48EB1D2
:1029E00080588EB98AEFE82E83E0F82ECAEFD1E046
:1029F0002401350185E194E00E946A2D88834AEA2A
:102A000065E575E580E090E00E94B80545E56AEA75
:102A10007AE280E090E00E94B80540EA65E575E55D
:102A200080E090E00E94B8054881C301B2010E9495
:102A3000B8051AB87498999189B1892787FDFCCF98
:102A4000749ADAB88FEF481A580A680A780A0C178D
:102A50001D0781F692E0990EA11CB11C8114E0E8DB
:102A60009E06A104B10409F0B1CFC0E0D0E0772404
:102A70007A94CE010E949407812C912C5401D501A7
:102A8000C4019770AA27BB27892B8A2B8B2B19F49B
:102A90008EB180588EB90AEF11E0C4018A5F91406F
:102AA0006C0185E194E00E946A2DF801808382E048
:102AB00090E00E94940782E090E00E94940782E0F8
:102AC00090E00E9494076AEA85E595E10E949206EB
:102AD00081E090E00E94940781E090E00E949407DA
:102AE00081E090E00E94940765E58AEA9AE00E94FE
:102AF000920682E090E00E94940782E090E00E94BB
:102B0000940782E090E00E94940760EA85E595E1F1
:102B10000E949206CE010E949407CE010E94940763
:102B2000CE010E949407F8016081C601800F911FB9
:102B30000E9492061AB872988D98F80191918F01AF
:102B400089B1892787FDFCCF729A7AB8E016F10621
:102B500009F0A7CFF2E09F0EA11CB11C811480E206
:102B60009806A104B10409F08ACF2196C830D10596
:102B700009F07FCF7798DF91CF911F910F91FF9050
:102B8000EF90DF90CF90BF90AF909F908F907F900D
:102B90006F905F904F9008957F928F929F92AF9227
:102BA000BF92CF92DF92EF92FF920F931F93CF933A
:102BB000DF938FEF8AB94698C0E0D0E077247A940B
:102BC000CE010E949407C12CD12C7601D701C601F9
:102BD0009770AA27BB27892B8A2B8B2B19F48EB1D0
:102BE00080588EB90AEF11E04601570185E194E063
:102BF0000E946A2DF80180834AEA65E575E580E068
:102C000090E00E94B805469880E090E00E9494070A
:102C100080E090E00E94940780E090E00E9494079A
:102C2000469845E56AEA7AE280E090E00E94B805BD
:102C300040EA65E575E580E090E00E94B8054698B9
:102C4000CE010E949407CE010E949407CE010E94FB
:102C500094074698F8014081C501B4010E94B80567
:102C60001AB87498F80191918F0189B1892787FD6D
:102C7000FCCF749A7AB8FFEF8F1A9F0AAF0ABF0A87
:102C800082E00A33180709F0B1CFE0E4CE0ED11C80
:102C9000E11CF11CC114F0E4DF06E104F10409F0C9
:102CA00095CF80E090E00E94940780E090E00E9441
:102CB000940780E090E00E9494072196C031D105EE
:102CC00009F07ECFDF91CF911F910F91FF90EF9090
:102CD000DF90CF90BF90AF909F908F907F9008959E
:102CE0007F928F929F92AF92BF92CF92DF92EF929C
:102CF000FF920F931F93CF93DF938FEF8AB9C0E0BA
:102D0000D0E077247A94CE010E949407C12CD12C74
:102D10007601D701C6019770AA27BB27892B8A2B7A
:102D20008B2B19F48EB180588EB90AEF11E0460151
:102D3000570185E194E00E946A2DF80180834AEAF8
:102D400065E575E580E090E00E94B80545E56AEA32
:102D50007AE280E090E00E94B80540EA65E575E51A
:102D600080E090E00E94B805CE010E949407CE0159
:102D70000E949407CE010E949407F8014081C5018A
:102D8000B4010E94B8051AB87498F80191918F01A6
:102D900089B1892787FDFCCF749A7AB8FFEF8F1A23
:102DA0009F0AAF0ABF0A83E00A3F180711F6E2E064
:102DB000DE0EE11CF11CC114F0E8DF06E104F104B1
:102DC00009F0A7CF2196C830D10509F09CCFDF913B
:102DD000CF911F910F91FF90EF90DF90CF90BF9018
:102DE000AF909F908F907F9008957F928F929F9247
:102DF000AF92BF92CF92DF92EF92FF920F931F9309
:102E0000CF93DF938FEF8AB90E946A0B6AE070E07C
:102E100080E090E00E94E72A00E010E077247A94B6
:102E200080918E0190918F01081719070CF05AC0FC
:102E3000402F440F60E070EE80E090E00E94530766
:102E4000C12CD12C7601D701C6019770AA27BB27C8
:102E5000892B8A2B8B2B19F48EB180588EB9CAEF2F
:102E6000D1E04601570185E194E00E946A2D8883F4
:102E70004AEA65E575E580E090E00E94490645E58F
:102E80006AEA7AE280E090E00E94490640EA65E55D
:102E900075E580E090E00E9449064881C501B401D3
:102EA0000E9449061AB87498999189B1892787FDBB
:102EB000FCCF749A7AB88FEF881A980AA80AB80AD1
:102EC00083E0CA3FD80779F682E0D80EE11CF11CF6
:102ED000C11480E8D806E104F10409F0B4CF0F5F13
:102EE0001F4F9ECF7798DF91CF911F910F91FF9049
:102EF000EF90DF90CF90BF90AF909F908F907F909A
:102F000008959F92AF92BF92CF92DF92EF92FF927D
:102F10000F931F93CF93DF930E94AF0510E00FEF45
:102F200099249A949AB8C12CD12C7601D701C60164
:102F30009770AA27BB27892B8A2B8B2B19F48EB16C
:102F400080588EB9CAEFD1E0C6018A5F91405C011A
:102F500042E060E070EA80E090E00E94530785E183
:102F600094E00E946A2D88836AEA85E595E10E94D3
:102F7000920665E58AEA9AE00E94920660EA85E593
:102F800095E10E949206412F60E070EA80E090E0B7
:102F90000E9453076881C5018C0F9D1F0E949206F5
:102FA0001AB88D987298999189B1892787FDFCCFBD
:102FB000729A8D9A0AB993E0CA3FD90749F682E01E
:102FC000D80EE11CF11CC11490E1D906E104F10412
:102FD00009F0ACCF1F5F103209F0A4CF7798DF91D2
:102FE000CF911F910F91FF90EF90DF90CF90BF9006
:102FF000AF909F9008954F925F926F927F928F92C1
:103000009F92AF92BF92CF92DF92EF92FF920F9377
:103010001F93CF93DF930E94B3058FEF8AB90E946D
:103020006A0B6AE070E080E090E00E94E72AC0E06E
:10303000D0E08CE3982E88248A9480918E01909120
:103040008F01C817D9070CF06DC046E060E070E84A
:1030500080E090E00E94B6064C2F61E070E880E0CE
:1030600090E00E94B60640E060E070E880E090E00A
:103070000E94B606C12CD12C7601D701C6019770EB
:10308000AA27BB27892B8A2B8B2B19F48EB180584A
:103090008EB90AEF11E02601370185E194E00E9424
:1030A0006A2D5801F80181938F014AEA65E575E5BB
:1030B00080E090E00E94490645E56AEA7AE280E015
:1030C00090E00E94490640EA65E575E580E090E001
:1030D0000E944906F5014081C301B2010E944906E0
:1030E000892D81500000E9F78AB840E060E070E87F
:1030F00080E090E00E94B606FFEF4F1A5F0A6F0A69
:103100007F0A83E00A3F180741F6E2E0DE0EE11C89
:10311000F11CC114F0E2DF06E104F10409F0ADCFC7
:1031200021968BCF7798DF91CF911F910F91FF90D0
:10313000EF90DF90CF90BF90AF909F908F907F9057
:103140006F905F904F9008958F929F92AF92BF9231
:10315000CF92DF92EF92FF920F931F93CF93DF9363
:103160000E94AF05C0E0DFEF40E060E070E880E083
:1031700090E00E94B6064C2F440F61E070E880E0BA
:1031800090E00E94B60641E060E070E880E090E0E8
:103190000E94B60641E04C0F440F61E070E880E009
:1031A00090E00E94B606DAB9C12CD12C7601D70185
:1031B000C6019770AA27BB27892B8A2B8B2B19F462
:1031C0008EB180588EB90AEF11E04601570185E1B2
:1031D00094E00E946A2DF80180834AEA65E575E172
:1031E00080E090E00E94EB0545E56AEA7AE180E044
:1031F00090E00E94EB0540EA65E575E180E090E033
:103200000E94EB05F8014081C501B4010E94EB0565
:103210001AB88D987298F80191918F0189B1892718
:1032200087FDFCCF729A8D9ADAB9FFEF8F1A9F0A49
:10323000AF0ABF0A83E00A3F180749F6E2E0DE0E54
:10324000E11CF11CC114F0E1DF06E104F10409F016
:10325000AECFCE5FC03809F087CF7798DF91CF919E
:103260001F910F91FF90EF90DF90CF90BF90AF90A4
:103270009F908F9008958F929F92AF92BF92CF921E
:10328000DF92EF92FF92CF93DF9340E060E070EE29
:1032900080E090E00E94530742E060E070EA80E046
:1032A00090E00E94530745E060E070EC80E090E021
:1032B0000E9453076AE070E080E090E00E94E72AF5
:1032C0008FEF8AB9C12C80E6D82EE12CF12C779AA9
:1032D000CAEFD1E04601570185E194E00E946A2DD2
:1032E0008993482FC501B4010E9478068FEF881A90
:1032F000980AA80AB80A83E0CA3FD80769F782E0AB
:10330000D80EE11CF11CC11480E8D806E104F104D8
:10331000F1F6779840E160E070EE80E090E00E9486
:10332000530742E160E070EA80E090E00E945307BA
:1033300045E160E070EC80E090E0DF91CF91FF909C
:10334000EF90DF90CF90BF90AF909F908F900C94B4
:1033500053078F929F92AF92BF92CF92DF92EF92DC
:10336000FF92CF93DF9340E861E070EA80E090E065
:103370000E94B6066AE070E080E090E00E94E72AD2
:103380008FEF8AB9C12C80E6D82EE12CF12C779AE8
:10339000CAEFD1E04601570185E194E00E946A2D11
:1033A0008993482FC501B4010E9478068FEF881ACF
:1033B000980AA80AB80A83E0CA3FD80769F782E0EA
:1033C000D80EE11CF11CC11480E8D806E104F10418
:1033D000F1F6779840E461E070EA80E090E0DF91F8
:1033E000CF91FF90EF90DF90CF90BF90AF909F90E4
:1033F0008F900C94B6062F923F924F925F926F92ED
:103400007F928F929F92AF92BF92CF92DF92EF9274
:10341000FF920F931F93CF93DF93CDB7DEB728971B
:103420000FB6F894DEBF0FBECDBF38D86AE070E0AB
:1034300080E090E00E94E72A0E94BD046AE070E00C
:1034400080E090E00E94E72A0E944C056AE070E06C
:1034500080E090E00E94E72A8090FA039090FB03BE
:10346000A090FC03B090FD03B694A7949794879422
:103470004091FA035091FB036091FC037091FD03AE
:103480008091FE039091FF03A0910004B09101048C
:10349000840F951FA61FB71FB695A795979587957B
:1034A00088169906AA06BB0608F0B8C08EB18058E7
:1034B0008EB9412C512C320118861F82D501C401CE
:1034C000840D951DA61DB71D8B839C83AD83BE8384
:1034D0004AEA50E065E575E080E090E00E94AE0BBE
:1034E00045E550E06AEA72E080E090E00E94AE0BB1
:1034F000AF81B8856D01BB0FEE08FF088B819C8101
:10350000AD81BE81C80ED91EEA1EFB1E45E250E009
:10351000C701B6010E94AE0B4091F50150E0415049
:103520005109C701B6010E94AE0B312C6091F50123
:103530003616E8F485E194E00E946A2D182F8093F6
:10354000FA0185E194E00E946A2D8093FB011A83C1
:10355000198209811A81082BC701B601630D711DFB
:10356000811D911DA8010E94AE0B3394DFCF70E046
:1035700061507109CB01770FAA0BBB0BBC01CD01C8
:103580006C0D7D1D8E1D9F1D49E250E00E94AE0B0B
:103590006091F50170E061507109CB01770FAA0BC2
:1035A000BB0BBC01CD016C0D7D1D8E1D9F1D0E94AE
:1035B000DA0B1801AFE72A2A33243A948F679F6FFA
:1035C0006091F5018215930581F070E061507109F9
:1035D000CB01770FAA0BBB0BBC01CD016C0D7D1D80
:1035E0008E1D9F1D0E94DA0BE9CF8F819885860F73
:1035F000911D98878F83811590420CF469CFB0E2BA
:103600005B0E611C711C4114510421E062067104BF
:1036100009F052CF8FEFA81AB80A2ACF77982896C8
:103620000FB6F894DEBF0FBECDBFDF91CF911F91D3
:103630000F91FF90EF90DF90CF90BF90AF909F9051
:103640008F907F906F905F904F903F902F90089554
:103650006F927F928F929F92AF92BF92CF92DF92A2
:10366000EF92FF920F931F93CF93DF930E94540F1B
:103670006AE070E080E090E00E94E72AC12CD12C43
:1036800076018091F6019091F701A091F801B09137
:10369000F901B695A79597958795C816D906EA06B4
:1036A000FB0608F05FC0D701C6019770AA27BB27A9
:1036B000892B8A2B8B2B19F48EB180588EB9460139
:1036C000570100E210E085E194E00E946A2DC82FC6
:1036D0008093FA0185E194E00E946A2D8093FB01BA
:1036E0007C2E612CE301C82B4AEA50E065E575E0C9
:1036F00080E090E00E94AE0B45E550E06AEA72E09F
:1037000080E090E00E94AE0B40EA50E065E575E095
:1037100080E090E00E94AE0BAE01C501B4010E94B2
:10372000AE0BC501B4010E94DA0BCF67DF6F8F6764
:103730009F6F8C179D0729F0C501B4010E94DA0B19
:10374000F6CF015011098FEF881A980AA80AB80A13
:103750000115110509F0B7CF80E2C80ED11CE11C9C
:10376000F11C8FCF7798DF91CF911F910F91FF9030
:10377000EF90DF90CF90BF90AF909F908F907F9011
:103780006F9008958F929F92AF92BF92CF92DF92E7
:10379000EF92FF921F93CF93DF930E94BD046AE0E4
:1037A00070E080E090E00E94E72A0E944C056AE009
:1037B00070E080E090E00E94E72A8FEF87B9C09028
:1037C000FA03D090FB03E090FC03F090FD031FEFA1
:1037D0004091FA035091FB036091FC037091FD034B
:1037E0008091FE039091FF03A0910004B091010429
:1037F000840F951FA61FB71FC816D906EA06FB0639
:10380000E8F58EB180588EB9CAEFD1E04601570174
:1038100085E194E00E946A2D88834AEA6AEA7AE0A8
:1038200080E090E00E94EC0F45E565E575E080E002
:1038300090E00E94EC0F40EA6AEA7AE080E090E0D3
:103840000E94EC0F4881C501B4010E94EC0F17B82B
:103850001198999186B1892787FDFCCF119A17B9E4
:103860008FEF881A980AA80AB80A83E0CA3FD807D7
:1038700079F682E0D80EE11CF11CAACF17B8779830
:10388000DF91CF911F91FF90EF90DF90CF90BF908D
:10389000AF909F908F9008958F929F92AF92BF921A
:1038A000CF92DF92EF92FF92CF93DF930E94BD04FD
:1038B000C090FA03D090FB03E090FC03F090FD036E
:1038C0008091FA039091FB03A091FC03B091FD035A
:1038D0009E5FAF4FBF4FC816D906EA06FB0620F51C
:1038E0008EB180588EB9CAEFD1E046015701C501AB
:1038F000B4010E94DA018883998382E0880E911CCA
:10390000A11CB11C229683E0CA3FD80781F740E092
:1039100052E06AEF71E085E194E00E94AC2D82E014
:10392000D80EE11CF11CCCCF7798DF91CF91FF909E
:10393000EF90DF90CF90BF90AF909F908F900895C1
:103940008F929F92AF92BF92CF92DF92EF92FF92AF
:10395000CF93DF930E94BD04C090FA03D090FB0385
:10396000E090FC03F090FD038091FA039091FB033B
:10397000A091FC03B091FD039E5FAF4FBF4FC816EF
:10398000D906EA06FB06F8F4CAEFD1E04601570172
:10399000C501B4010E94260289938FEF881A980A04
:1039A000A80AB80A83E0CA3FD80791F740E052E07E
:1039B0006AEF71E085E194E00E94AC2D82E0D80EC0
:1039C000E11CF11CD1CF7798DF91CF91FF90EF9060
:1039D000DF90CF90BF90AF909F908F900895CF923F
:1039E000DF92EF92FF920F931F93CF93DF930E948A
:1039F000BD046AE070E080E090E00E94E72A0E9447
:103A00004C056AE070E080E090E00E94E72AC090F8
:103A1000FE03D090FF03E0900004F09001048FEFCC
:103A200081B960E080E090E60E94E802B60185E09E
:103A3000759567958A95E1F780E090E40E94E80229
:103A40006C2D6F7180E090E20E94E80211B8C09086
:103A5000FA03D090FB03E090FC03F090FD0380910B
:103A6000FA039091FB03A091FC03B091FD039E5FCC
:103A7000AF4FBF4FC816D906EA06FB06F8F48EB161
:103A800080588EB9CAEFD1E086010A5F1140C801A3
:103A90008C0F9D1F0E94D202899383E0CA3FD807F2
:103AA000B1F740E052E06AEF71E085E194E00E94F6
:103AB000AC2D82E0D80EE11CF11CD1CF7798DF91BC
:103AC000CF911F910F91FF90EF90DF90CF900895CD
:103AD000CF92DF92EF92FF92CF93DF930E94BD04CB
:103AE000C0900001D0900101E0900201F09003012C
:103AF0008091FA039091FB03A091FC03B091FD0328
:103B0000C80ED91EEA1EFB1E409100015091010112
:103B100060910201709103018091FA039091FB037F
:103B2000A091FC03B091FD03840F951FA61FB71F42
:103B30009E5FAF4FBF4FC816D906EA06FB06E8F4F2
:103B4000779AC701B6010E94140CCAEFD1E00E9417
:103B50004C0498838983229683E0CA3FD807B9F73B
:103B600040E052E06AEF71E085E194E00E94AC2D04
:103B700082E0D80EE11CF11CC7CF7798DF91CF917E
:103B8000FF90EF90DF90CF900895CF92DF92EF9269
:103B9000FF920F931F93CF93DF9310E000E0202F4D
:103BA00030E0809192019091930197FDCF9646E08D
:103BB000959587954A95E1F7281739070CF065C068
:103BC000F894F12EC0E0D0E084E00E9469048F2DCB
:103BD0000E9469040E948A040E9492040E948A043E
:103BE000E4E9F1E0E12CAE0146505E4F8E2D869562
:103BF00086958695DA01A80FB11D808160E8869FC1
:103C000090011124918160E4969FC0011124822BC0
:103C10002781822B928120E2929F60011124282F1C
:103C20002C29938130E1939FB0011124822F862BA0
:103C3000948168E0969F90011124282B958134E0AF
:103C4000939FC0011124822B9681990F892B8C930D
:103C500068E0E60E389680E4E812C8CF8CE291E086
:103C60000E945904F3942896C11592E0D90709F0EF
:103C7000ABCF789440E052E06AEF71E085E194E0E8
:103C80000E94AC2D0F5F105C8ACFDF91CF911F9106
:103C90000F91FF90EF90DF90CF900895CF92DF9239
:103CA000EF92FF92CF93DF930E94BD04C090DE019C
:103CB000D090DF01E090E001F090E1018091FA0303
:103CC0009091FB03A091FC03B091FD03C80ED91E97
:103CD000EA1EFB1E4091DE015091DF016091E00180
:103CE0007091E1018091FA039091FB03A091FC0394
:103CF000B091FD03840F951FA61FB71F9E5FAF4FA6
:103D0000BF4FC816D906EA06FB06E0F4C701B601A4
:103D10000E94140CCAEFD1E00E944C04988389835E
:103D2000229683E0CA3FD807B9F740E052E06AEF35
:103D300071E085E194E00E94AC2D82E0D80EE11C98
:103D4000F11CC8CFDF91CF91FF90EF90DF90CF9023
:103D50000895CF92DF92EF92FF92CF93DF930E946C
:103D6000BD040E94A90D60E070E080E090EF0E9429
:103D7000960DC090DE01D090DF01E090E001F09060
:103D8000E1018091FA039091FB03A091FC03B091B3
:103D9000FD03C80ED91EEA1EFB1E4091DE015091A4
:103DA000DF016091E0017091E1018091FA0390914F
:103DB000FB03A091FC03B091FD03840F951FA61F88
:103DC000B71F80589F4FAF4FBF4FC816D906EA069E
:103DD000FB06C0F4C701B6010E94140CCAEFD1E083
:103DE0000E944C0498838983229682E0CA37D807C0
:103DF000B9F740E850E06AEF71E085E194E00E9495
:103E0000AC2DBFCFDF91CF91FF90EF90DF90CF909F
:103E100008958F929F92AF92BF92CF92DF92EF92CE
:103E2000FF92CF93DF930E94BD041AB80E94B3059E
:103E3000C090FA03D090FB03E090FC03F090FD03E8
:103E40008091FA039091FB03A091FC03B091FD03D4
:103E50009E5FAF4FBF4FC816D906EA06FB0600F5B6
:103E6000779ACAEFD1E046015701C501B4010E941B
:103E7000D20589938FEF881A980AA80AB80A83E0B6
:103E8000CA3FD80791F740E052E06AEF71E085E160
:103E900094E00E94AC2D82E0D80EE11CF11CD0CF42
:103EA0007798DF91CF91FF90EF90DF90CF90BF9008
:103EB000AF909F908F900895CF92DF92EF92FF92F4
:103EC0000F931F93CF93DF930E94BD040E94420B78
:103ED00080919001909191010E94940780919001AE
:103EE000909191010E94940780919001909191018D
:103EF0000E9494070E94AF051AB8C090FA03D090B0
:103F0000FB03E090FC03F090FD038091FA03909195
:103F1000FB03A091FC03B091FD039E5FAF4FBF4F29
:103F2000C816D906EA06FB06E8F4779ACAEFD1E08C
:103F300086010A5F1140C8018C0F9D1F0E94A006D8
:103F4000899383E0CA3FD807B1F740E052E06AEFB7
:103F500071E085E194E00E94AC2D82E0D80EE11C76
:103F6000F11CD3CF7798DF91CF911F910F91FF90E4
:103F7000EF90DF90CF9008958F929F92AF92BF9273
:103F8000CF92DF92EF92FF92CF93DF930E94BD0416
:103F90000E94420B80919001909191010E949407A0
:103FA00080919001909191010E94940780919001DD
:103FB000909191010E9494071AB8C090FA03D09092
:103FC000FB03E090FC03F090FD038091FA039091D5
:103FD000FB03A091FC03B091FD039E5FAF4FBF4F69
:103FE000C816D906EA06FB0600F5779ACAEFD1E0B3
:103FF00046015701C501B4010E94D20589938FEF94
:10400000881A980AA80AB80A83E0CA3FD80791F725
:1040100040E052E06AEF71E085E194E00E94AC2D4F
:1040200082E0D80EE11CF11CD0CF7798DF91CF91C0
:10403000FF90EF90DF90CF90BF90AF909F908F90C8
:1040400008958F929F92AF92BF92CF92DF92EF929C
:10405000FF92CF93DF930E94BD040E94420B4091D8
:104060009001440F60E070EE80E090E00E94530702
:104070001AB8C090FA03D090FB03E090FC03F090D4
:10408000FD038091FA039091FB03A091FC03B09192
:10409000FD039E5FAF4FBF4FC816D906EA06FB0669
:1040A00000F5779ACAEFD1E046015701C501B40186
:1040B0000E94D20589938FEF881A980AA80AB80A35
:1040C00083E0CA3FD80791F740E052E06AEF71E021
:1040D00085E194E00E94AC2D82E0D80EE11CF11C39
:1040E000D0CF7798DF91CF91FF90EF90DF90CF9076
:1040F000BF90AF909F908F9008958F929F92AF92B4
:10410000BF92CF92DF92EF92FF92CF93DF930E9404
:10411000BD040E94420B4091900160E070EA80E093
:1041200090E00E9453070E94AF051AB8C090FA03AE
:10413000D090FB03E090FC03F090FD038091FA0324
:104140009091FB03A091FC03B091FD039E5FAF4FE4
:10415000BF4FC816D906EA06FB0600F5779ACAEFE4
:10416000D1E046015701C501B4010E9407068993B9
:104170008FEF881A980AA80AB80A83E0CA3FD807BE
:1041800091F740E052E06AEF71E085E194E00E942F
:10419000AC2D82E0D80EE11CF11CD0CF7798DF91D6
:1041A000CF91FF90EF90DF90CF90BF90AF909F9016
:1041B0008F9008958F929F92AF92BF92CF92DF928D
:1041C000EF92FF92CF93DF930E94BD040E94420BB7
:1041D00046E060E070E880E090E00E94B606409122
:1041E000900161E070E880E090E00E94B60640E057
:1041F00060E070E880E090E00E94B6061AB8C090D7
:10420000FA03D090FB03E090FC03F090FD03809153
:10421000FA039091FB03A091FC03B091FD039E5F14
:10422000AF4FBF4FC816D906EA06FB0600F5779ACE
:10423000CAEFD1E046015701C501B4010E94D20581
:1042400089938FEF881A980AA80AB80A83E0CA3FB0
:10425000D80791F740E052E06AEF71E085E194E021
:104260000E94AC2D82E0D80EE11CF11CD0CF7798D3
:10427000DF91CF91FF90EF90DF90CF90BF90AF9004
:104280009F908F9008958F929F92AF92BF92CF92FE
:10429000DF92EF92FF92CF93DF930E94BD040E94C2
:1042A000420B40E060E070E880E090E00E94B606DB
:1042B00040919001440F61E070E880E090E00E943E
:1042C000B60641E060E070E880E090E00E94B6064B
:1042D000409190014F5F440F61E070E880E090E012
:1042E0000E94B6060E94AF051AB8C090FA03D0909B
:1042F000FB03E090FC03F090FD038091FA039091A2
:10430000FB03A091FC03B091FD039E5FAF4FBF4F35
:10431000C816D906EA06FB0600F5779ACAEFD1E07F
:1043200046015701C501B4010E94070689938FEF2A
:10433000881A980AA80AB80A83E0CA3FD80791F7F2
:1043400040E052E06AEF71E085E194E00E94AC2D1C
:1043500082E0D80EE11CF11CD0CF7798DF91CF918D
:10436000FF90EF90DF90CF90BF90AF909F908F9095
:1043700008958F929F92AF92BF92CF92DF92EF9269
:10438000FF92CF93DF930E94BD0440E060E070EEA7
:1043900080E090E00E94530742E060E070EA80E035
:1043A00090E00E94530745E060E070EC80E090E010
:1043B0000E9453071AB8C090FA03D090FB03E09014
:1043C000FC03F090FD0380E6D80EE11CF11C809107
:1043D000FA039091FB03A091FC03B091FD039E5959
:1043E000AF4FBF4FC816D906EA06FB0600F5779A0D
:1043F000CAEFD1E046015701C501B4010E942D0664
:1044000089938FEF881A980AA80AB80A83E0CA3FEE
:10441000D80791F740E052E06AEF71E085E194E05F
:104420000E94AC2D82E0D80EE11CF11CD0CF779811
:1044300040E160E070EE80E090E00E94530742E1CE
:1044400060E070EA80E090E00E94530745E160E0A0
:1044500070EC80E090E0DF91CF91FF90EF90DF90E3
:10446000CF90BF90AF909F908F900C9453078F92F6
:104470009F92AF92BF92CF92DF92EF92FF92CF9333
:10448000DF930E94BD0440EC61E070EA80E090E0C0
:104490000E94B6061AB8C090FA03D090FB03E090D1
:1044A000FC03F090FD0380E6D80EE11CF11C809126
:1044B000FA039091FB03A091FC03B091FD039E5978
:1044C000AF4FBF4FC816D906EA06FB0600F5779A2C
:1044D000CAEFD1E046015701C501B4010E942D0683
:1044E00089938FEF881A980AA80AB80A83E0CA3F0E
:1044F000D80791F740E052E06AEF71E085E194E07F
:104500000E94AC2D82E0D80EE11CF11CD0CF779830
:1045100040E461E070EA80E090E0DF91CF91FF90AD
:10452000EF90DF90CF90BF90AF909F908F900C94C2
:10453000B6068F929F92AF92BF92CF92DF92EF9288
:10454000FF92CF93DF930E94BD04C090FA03D090F6
:10455000FB03E090FC03F090FD038091FA0390913F
:10456000FB03A091FC03B091FD039F5FAF4FBF4FD2
:10457000C816D906EA06FB0610F5779ACAEFD1E00D
:1045800046015701C501B4010E94DA0B9883898363
:104590008FEF881A980AA80AB80A229683E0CA3FC1
:1045A000D80781F740E052E06AEF71E085E194E0DE
:1045B0000E94AC2D8FEFD81AE80AF80ACECF779870
:1045C000DF91CF91FF90EF90DF90CF90BF90AF90B1
:1045D0009F908F9008958F929F92AF92BF92CF92AB
:1045E000DF92EF92FF92CF93DF930E94BD046AE0C7
:1045F00070E080E090E0EBD7C0908A01D0908B0112
:10460000E0908C01F0908D018091FA039091FB0372
:10461000A091FC03B091FD03C80ED91EEA1EFB1E3B
:1046200040918A0150918B0160918C0170918D01B4
:104630008091FA039091FB03A091FC03B091FD03DC
:10464000840F951FA61FB71F9E5FAF4FBF4FC816A1
:10465000D906EA06FB0668F5779ACAEFD1E046016B
:104660005701C501B4010E94DA0B209180013091FD
:1046700081012230310511F4988304C021303105C5
:1046800009F488838FEF881A980AA80AB80A219635
:1046900083E0CA3FD80729F740E052E06AEF71E0B3
:1046A00085E194E00E94AC2D82E0D80EE11CF11C63
:1046B000B7CF7798DF91CF91FF90EF90DF90CF90B9
:1046C000BF90AF909F908F9008958F929F92AF92DE
:1046D000BF92CF92DF92EF92FF92CF93DF930E942F
:1046E000BD04C090FA03D090FB03E090FC03F0906F
:1046F000FD038091FA039091FB03A091FC03B0911C
:10470000FD039E5FAF4FBF4FC816D906EA06FB06F2
:1047100000F5779ACAEFD1E046015701C501B4010F
:104720000E94041089938FEF881A980AA80AB80A81
:1047300083E0CA3FD80791F740E052E06AEF71E0AA
:1047400085E194E00E94AC2D82E0D80EE11CF11CC2
:10475000D0CF7798DF91CF91FF90EF90DF90CF90FF
:10476000BF90AF909F908F9008952F923F924F925D
:104770005F926F927F928F929F92AF92BF92CF92F1
:10478000DF92EF92FF920F931F93CF93DF93CDB7FA
:10479000DEB728970FB6F894DEBF0FBECDBF0E94DC
:1047A0004E126AE070E080E090E011D70E94BD04F4
:1047B0006AE070E080E090E00AD70E944C056AE071
:1047C00070E080E090E003D785E194E00E94312D15
:1047D000181619060CF0D2C0C090FA03D090FB0353
:1047E000E090FC03F090FD034091FA035091FB032D
:1047F0006091FC037091FD038091FE039091FF0393
:10480000A0910004B0910104840F951FA61FB71F4B
:10481000C816D906EA06FB0608F0B0C08EB180586B
:104820008EB926013701212C312C18861F824AEAC5
:1048300050E06AEA7AE080E090E00E94030245E5F9
:1048400050E065E575E080E090E00E94030245E2FB
:1048500050E0C701B6010E9403024091F501469560
:1048600050E041505109C701B6010E94030219826C
:104870002F8138854901330FAA08BB08D501C4012F
:10488000840D951DA61DB71D8B839C83AD83BE83B0
:104890008091F50199819817F0F485E194E00E94E8
:1048A0006A2D182F85E194E00E946A2D982F8827A1
:1048B000DC01A12B8D016B817C818D819E81B98171
:1048C0006B0F711D811D911DA8010E94030229819A
:1048D0002E5F2983DDCF49E250E0C701B6010E9477
:1048E0000302840C951CA61CB71C6091F50170E0B6
:1048F00062507109CB01770FAA0BBB0BBC01CD0134
:10490000680D791D8A1D9B1D0E94DA01D801AF67D1
:10491000BF6FBA83A9838F679F6F6091F50129816B
:104920003A818217930781F070E062507109CB01E0
:10493000770FAA0BBB0BBC01CD01680D791D8A1D39
:104940009B1D0E94DA01E7CF8F819885860F911D0C
:1049500098878F83811590440CF469CFBFEF2B1A91
:104960003B0A20E4520E611C711C38E0231631040E
:1049700009F05BCF82E0E80EF11C36CF77982896DD
:104980000FB6F894DEBF0FBECDBFDF91CF911F9160
:104990000F91FF90EF90DF90CF90BF90AF909F90DE
:1049A0008F907F906F905F904F903F902F900895E1
:1049B00085E194E00E946A2DFC01FF27E63AF105AB
:1049C00008F099C1E45BFF4F0C94282F6EE171E071
:1049D00085E194E00E9494016AE371E085E194E04E
:1049E0000E94940161E571E085E194E00C949401EA
:1049F00011B814B817B81AB81DB810BA08950E94A3
:104A0000210464EF71E080E090E0E1D50C944A0C61
:104A10000E9421041DC00C94920B5AC83FC90E94E9
:104A2000210464EF71E080E090E0D1D50C94021293
:104A30000E94210464EF71E080E090E0C8D50E94FC
:104A4000780564EF71E080E090E0C1D50E94A61186
:104A500064EF71E080E090E0BAC50E94210464EF49
:104A600071E080E090E0B3D50E94780564EF71E0DA
:104A700080E090E0ACD589D8EBCF0E94210464EFB0
:104A800071E080E090E0A3D50E94540F0E94090DD0
:104A900061E085E194E00E94A50164EF71E080E0AF
:104AA00090E004C068EC70E080E090E090D50C9459
:104AB00055124FC90C94B40480E8809361001092A1
:104AC0006100089580E88093610081E08093610037
:104AD00008950C94A0050C94DB0F0C941B100E94FD
:104AE00075100AC064E670E080E090E070D50C9428
:104AF000C21BEBCD0E94AD1061E085E194E00C9407
:104B0000A5010E94A0050E944B070C9471070E940A
:104B1000020B64EF71E080E090E059D50E94240A16
:104B2000EBCF68EC70E080E090E051D50C94F51686
:104B300068EC70E080E090E04AD50C9481170E9408
:104B4000020BDACF0E94A00564E670E080E090E0FE
:104B50003ED50E94020B64E670E080E090E037D51D
:104B60000E941F09C9CF0E94A00564E670E080E0A2
:104B700090E02DD50C940B140E94A00564E670E023
:104B800080E090E024D50E94D709B6CF0E94A0050E
:104B900064E670E080E090E01AD50C94CC150E9499
:104BA000A00564E670E080E090E011D50E94DF0887
:104BB000A3CF0E94A00564E670E080E090E007D5F6
:104BC0000C94701664E670E080E090E000D50C94E0
:104BD000630964E670E080E090E0F9D40C94CB14B3
:104BE0000E94640A0E94C20A87CF64E670E080E0F7
:104BF00090E0EDD40C94FB1764E670E080E090E068
:104C0000E6D40C94A4180E94A0050C94D9060E9426
:104C1000640A72CF0E94A0050C9496080E94A00519
:104C20000C943C080E94A0050C949D070E94A005CE
:104C30000C94E50740E001C040E160E070EA80E0EC
:104C400090E00C945307E5C837C996C9FAC955CA0C
:104C5000B1CA19CB8ECB0C943B1909CC0C94A91971
:104C60000C94CA0D0E94260E47CF0E94920B0E9400
:104C7000800F42CF64E670E080E090E0A8D40C940E
:104C8000FB1957CC0C94250F0C94640EA4CC0E94F5
:104C9000BD0464E670E080E090E099D48091FA036E
:104CA0000C94110F719A08950C94281B0C94C00257
:104CB0000C948C030E94E1031FCF64E670E080E057
:104CC00090E085D40C9446110C94FA020C94EF1CDD
:104CD0000C94CA010E94E9040FCF64E670E080E002
:104CE00090E075D442CD0C944C1C0C9468020C944A
:104CF000A01C0C9401110895CF93DF9300D0CDB781
:104D0000DEB72DE029832AE02A83DC01ED91FC91B6
:104D10000280F381E02D42E050E0BE016F5F7F4FE3
:104D200009950F900F90DF91CF910895EF92FF9228
:104D30000F931F93CF93DF93CDB7DEB72B970FB6AB
:104D4000F894DEBF0FBECDBFA22F7E012CE0E20E95
:104D5000F11C8A019B01E3E30E9F00270E0E011D4B
:104D6000F02D1E9F1127000D111D2E9F2227100DC3
:104D7000211D3E9F3327200D311D1124F00F011FEF
:104D8000121F231F311DF10F021F131F211D311D83
:104D9000F30F011D111D211D311D36952795179506
:104DA0000795F795EAE0FE9FF12D1124B901A801BE
:104DB00030E33F0FF70132937F0141155105610543
:104DC000710509F0C6CFAA2319F02DE222937F01C5
:104DD000AE014E195F09445F5F4FDC01ED91FC911C
:104DE0000280F381E02DB70109952B960FB6F89458
:104DF000DEBF0FBECDBFDF91CF911F910F91FF900E
:104E0000EF900895CF92DF92EF92FF92CF93DF93CE
:104E1000EC010FB6F894C0900A04D0900B04E09017
:104E20000C04F0900D040FBEE881F9810284F38533
:104E3000E02DCE01099597FF1AC00FB6F894809126
:104E40000A0490910B04A0910C04B0910D040FBEC4
:104E50008C199D09AE09BF094B815C816D817E81F2
:104E600084179507A607B707F8F28FEF9FEFDF913A
:104E7000CF91FF90EF90DF90CF900895AF92BF92C7
:104E8000CF92DF92EF92FF920F931F93CF93DF9316
:104E9000EC015B01042F690160E070E08AD0EC80D6
:104EA000FD80002E000C110BEC14FD0488F4C501EC
:104EB000A9DF97FF04C081E0F501878309C000974F
:104EC00039F08017910721F0682FCE01AED0ECCFDA
:104ED000CE01DF91CF911F910F91FF90EF90DF9066
:104EE000CF90BF90AF900895FC01808191815CC10B
:104EF0000F931F93CF93DF93EC018B016F5F7F4F75
:104F000088819981DAD1009731F0998388831B8356
:104F10000A8381E001C080E0DF91CF911F910F9162
:104F20000895CF93DF93FC01228133812617370741
:104F300058F4EC01DDDF882341F08C819D81892BC1
:104F400019F4E881F981108281E0DF91CF91089511
:104F5000EF92FF920F931F93CF93DF93EC017B01AE
:104F60008A014115510531F4E881F981309789F0C2
:104F700010820FC0BA01D5DF2881398181110CC0A0
:104F80002115310521F0C9010FD1198218821B8228
:104F90001A821D821C8205C01D830C83B701C901C2
:104FA0008FD7CE01DF91CF911F910F91FF90EF909E
:104FB0000895FC01118210821382128215821482DC
:104FC00016826115710549F0FB0101900020E9F797
:104FD0003197AF01461B570BBBCF0895EF92FF925D
:104FE0000F931F93CF93DF93EC017B014115510584
:104FF000A1F08C819D818A01080F191FB801CE0193
:1050000090DF882351F0288139818C819D81B701FF
:10501000820F931F55D71D830C83CE01DF91CF9153
:105020001F910F91FF90EF9008950F931F93CF93CF
:10503000DF9300D0CDB7DEB78C0169831A8241E0DF
:1050400050E0BE016F5F7F4FC9DFC8010F900F9026
:10505000DF91CF911F910F910895FC018081918183
:10506000009709F0FEC660E070E0CB01089520D201
:105070000E94BB019DDCFECF0F931F93CF93DF9364
:105080008230910510F482E090E0E0911F04F091ED
:10509000200420E030E0A0E0B0E0309719F140813A
:1050A00051810281138148175907C8F08417950769
:1050B00069F4109731F012960C93129713961C9383
:1050C00027C000931F041093200422C0211531052E
:1050D00019F04217530718F49A01BD01EF01DF01DF
:1050E000F801DBCF21153105F9F0281B390B2430ED
:1050F000310580F48A819B816115710521F0FB01E6
:105100009383828304C09093200480931F04FE0144
:10511000329644C0FE01E20FF31F81939193225017
:105120003109398328833AC020910704309108045B
:10513000232B41F42091060130910701309308049C
:1051400020930704209104013091050121153105B8
:1051500041F42DB73EB74091080150910901241B3D
:10516000350BE0910704F0910804E217F307A0F46F
:105170002E1B3F0B2817390778F0AC014E5F5F4FAD
:105180002417350748F04E0F5F1F509308044093D3
:1051900007048193919302C0E0E0F0E0CF01DF913A
:1051A000CF911F910F910895CF93DF93009709F44A
:1051B00081C0FC01329713821282A0911F04B0912A
:1051C0002004109781F420813181820F931F209158
:1051D0000704309108042817390751F5F0930804A3
:1051E000E093070467C0ED0120E030E0CE17DF0751
:1051F00040F44A815B819E0141155105F1F0EA01BD
:10520000F5CFD383C28340815181840F951FC81786
:10521000D90759F488819981840F951F029691834B
:1052200080838A819B81938382832115310529F4B0
:10523000F0932004E0931F043DC0E901FB83EA835F
:1052400049915991C40FD51FEC17FD0761F4808176
:105250009181840F951F0296E90199838883828149
:1052600093819B838A83E0E0F0E012968D919C917C
:105270001397009719F0FD01DC01F7CF8D919C91F8
:1052800011979D012E5F3F4F820F931F20910704BE
:10529000309108042817390769F4309729F41092DF
:1052A000200410921F0402C013821282B0930804DB
:1052B000A0930704DF91CF9108956F927F928F9210
:1052C0009F92AF92BF92CF92DF92EF92FF920F9395
:1052D0001F93CF93DF93009781F4CB01DF91CF91A0
:1052E0001F910F91FF90EF90DF90CF90BF90AF9004
:1052F0009F908F907F906F90BFCEFC01E60FF71FBD
:105300009C0122503109E217F30708F49FC0EC0119
:10531000D9010D911C91119706171707A8F00530B8
:10532000110508F491C0C80104978617970708F47F
:105330008BC002501109061B170B019311936D933B
:105340007C93CF0131DF80C05B01A01AB10A4C0110
:10535000800E911EA0911F04B0912004612C712C2D
:10536000E12CF12C109709F446C08D919C91119776
:10537000A815B905B1F56C0142E0C40ED11CCA14E0
:10538000DB0478F14C018A189B08640142E0C40EEA
:10539000D11C1296BC9012971396AC91B5E0CB1627
:1053A000D10440F0B282A38391828082D9016D93AF
:1053B0007C9309C00E5F1F4F800F911FF9019183ED
:1053C0008083EB2DFA2FE114F10431F0D70113960D
:1053D000FC93EE93129738C0F0932004E0931F04DF
:1053E00033C06816790608F43C017D0112960D90D1
:1053F000BC91A02DB7CF8091070490910804881626
:105400009906B1F46616770698F48DB79EB7409169
:10541000080150910901841B950BE817F907B0F4B6
:10542000F0930804E0930704F901718360830CC0D2
:10543000CB0122DE7C01009749F0A801BE0137D5DF
:10544000CE01B2DEC70104C0CE0102C080E090E010
:10545000DF91CF911F910F91FF90EF90DF90CF9050
:10546000BF90AF909F908F907F906F9008951DBADE
:10547000109268001CBC10BE1FBA10927A001092E5
:105480006E0010926F0010927000109271001092D6
:10549000C9001092BC0011B814B817B81AB81DB8DA
:1054A00010BA12B815B818B81BB81EB811BA0895BA
:1054B00081E885BF90E895BFF894E1E6F0E090833D
:1054C00081E0808323E024BD25BDEEE6F0E020816D
:1054D000216020838093800022E0209381008093CC
:1054E000B0002093B100809390002093910085E854
:1054F00080937A0090937B0010927E00A9D07894DC
:105500000895F89484B7877F84BF8091600080619C
:10551000809360001092600080E197E20197F1F7BC
:1055200081E08093E00080E28093D80080E395E7FB
:105530000197F1F79CDF0C9400FEFFCFF89497DF02
:1055400080E395E70197F1F70C940000FFCF8F936C
:105550008FB78F93809109048A5F8D37D0F4809341
:10556000090480910A048E5F80930A04D8F0809128
:105570000B048F4F80930B04A8F080910C048F4F85
:1055800080930C0478F080910D048F4F80930D046C
:1055900009C08D578093090480910A048D5F809320
:1055A0000A0428F780910E04885F80930E0458F057
:1055B00080910F048F4F80930F0428F08091100486
:1055C0008F4F809310048F918FBF8F911895CF923A
:1055D000DF92EF92FF926B017C0119D09B01C11405
:1055E000D104E104F10471F012D0621B730B683E28
:1055F0007340A8F381E0C81AD108E108F1082851E6
:105600003C4FEDCFFF90EF90DF90CF9008950FB615
:10561000F89466B515B270910E0480910F049091C4
:1056200010040FBE10FE05C06F3F19F0785F8F4F5A
:105630009F4F11240024660F001C660F001C660F8C
:10564000001C702908958091E80080FFFCCF089528
:105650008091D80087FF02C085FF1BC081E880933E
:10566000D70080EA8093D80086E189BD09B400FEA6
:10567000FDCF80E98093D8001092E00010922304BF
:1056800010922204109221041092E1008DE0809388
:10569000E20008951F920F920FB60F9211240BB6DD
:1056A0000F922F933F934F935F936F937F938F93BB
:1056B0009F93AF93BF93EF93FF939091E10010926C
:1056C000E10093FF11C01092E90081E08093EB00AC
:1056D0001092EC0082E28093ED0088E08093F0006D
:1056E000109223041092210492FF1DC08091230484
:1056F0008823C9F080911404882359F08150809345
:105700001404811106C084E08093E9008AE3809349
:10571000E80080911304882331F0815080931304B2
:10572000811101C0EEDE90FF0CC080E18093E200A9
:105730001092230481E08093220480EA8093D800B1
:1057400019BC80912204882379F094FF0DC086E172
:1057500089BD09B400FEFDCF80E98093D8008DE0BB
:105760008093E20010922204FF91EF91BF91AF91DC
:105770009F918F917F916F915F914F913F912F9169
:105780000F900BBE0F900FBE0F901F9018951F9299
:105790000F920FB60F9211240BB60F92EF92FF9259
:1057A0000F931F932F933F934F935F936F937F9329
:1057B0008F939F93AF93BF93CF93EF93FF931092E9
:1057C000E9008091E80083FF31C1C091F100809130
:1057D000F1000091F1001091F100E090F100F090E3
:1057E000F1004091F1005091F10092EF9093E800A8
:1057F000863009F03FC086E0E4EEF1E02591359176
:105800000217130711F0359615C025913591E21650
:10581000F30611F033960EC02591359184914F3FD8
:10582000510519F010F04FEF50E0481708F4842F9D
:105830005EEF08C0815011F7F9C0891B5093E80052
:105840008823A9F09091E800492F4570D9F392FD83
:10585000F0C0982F813208F090E2492F442369F379
:10586000F90125912093F1009F014150F7CF90322B
:1058700049F3DFC0853041F48EEF8093E800E3DE2A
:1058800000680093E300D5C0893001F5C111CEC096
:105890000093230410922104109214048EEF80933D
:1058A000E80081E0E7EAF2E08093E90095919093C7
:1058B000EB00992331F095919093EC0095919093A2
:1058C000ED008F5F853081F78EE1ABC0883049F401
:1058D000C03809F0ABC0B7DE809123048093F1009B
:1058E0007EC0813279F4C13A09F0A0C0ACDEEAE0B2
:1058F000F1E080818093F100319681E0E131F80799
:10590000C1F76DC0803209F047C0C13209F08EC0C6
:105910008091E80082FFFCCFEAE0F1E08091F100A5
:105920008083319681E0E131F807C1F78BEF8093F6
:10593000E8008EEF8093E80030910A0140910B015E
:1059400080910C0120910D0190E0A0E0B0E0DC011D
:1059500099278827942B832BB22B86389105A10594
:10596000B10521F48FE08093130463C0863991055B
:10597000A105B10509F05DC084E08093E9009FEFC7
:105980008091EE00837039F09093E8008091E800F8
:1059900082FDFCCFF5CFD2DD823231F4C13209F085
:1059A00045C00093210405C0833229F4C13209F0B7
:1059B0003DC049DE14C0811116C045DEC23851F425
:1059C000E092E9008091EB0085FB882780F9109236
:1059D000E90001C080E08093F1001092F1008EEFA9
:1059E0008093E80026C0982F9D7F9130F9F4C23053
:1059F000E9F4012BD9F4CE2DCF779FEF9C0F963091
:105A0000A8F49EEF9093E800C093E900833071F012
:105A100089E18093EB0081E090E001C0880FCA9596
:105A2000EAF78093EA001092EA0003C081E28093D3
:105A3000EB00FF91EF91CF91BF91AF919F918F912B
:105A40007F916F915F914F913F912F911F910F9196
:105A5000FF90EF900F900BBE0F900FBE0F901F9016
:105A60001895FC018FB7F89490912304911102C00E
:105A700090E010C093E09093E9009091F2009111B2
:105A800009C02091E80022FFF3CF25FDF1CF2BE6DE
:105A90002093E8008FBF2085318537FD03C09F3FED
:105AA00009F09F5F892F90E00895CF93DF93EC0179
:105AB0008885998597FF09C0E881F9810284F3857B
:105AC000E02DCE0109959987888788859985DF9192
:105AD000CF910895FC012085318537FD07C04FEF38
