:10000000DFC1000007C2000005C2000003C20000FB
:1000100001C20000FFC10000FDC10000FBC10000E3
:10002000F9C100000C9416350C94093C0C94863CE4
:10003000F1C10000EFC10000EDC10000EBC1000004
:10004000E9C10000E7C10000E5C10000E3C1000014
:10005000E1C10000DFC10000DDC100000C94663B7F
:10006000D9C10000D7C10000D5C10000D3C1000034
:10007000D1C10000CFC10000CDC10000CBC1000044
:10008000C9C10000C7C10000C5C10000C3C1000054
:10009000C1C10000BFC1000024314E31C1335E3107
:1000A0005C31583156315A313F3141314731363167
:1000B000B231C1333D313E316031C431DD316E3159
:1000C0007831C133C133C133E531A8316A316C3184
:1000D0009031C133F731F931FB31FD3104320C324B
:1000E0000D321432163218321A322232C133C13371
:1000F000C133C133C133C1335B335D3375336D33CA
:1001000064338933763378337A337B338733C1333F
:10011000C133C133C133C13323322D323C32443277
:100120004C3253326A32743283328D329C32A63270
:10013000AE32B632BF32C7322932CF320133033347
:1001400007330E33163328332A332C33C133C133EC
:10015000C133C133C133C133D632DA32E632ED3284
:10016000DE32E232F432F632F832F932FA32FB326F
:10017000FC32FD32FE3200333633383340334833FD
:100180004A3352335333C133C133C133C133C13323
:10019000C133C133C133C133C133C133C133C133BF
:1001A000C133C133C133C133C133C133C133C133AF
:1001B000C133C133C133C133913393339A33A23343
:1001C000A433A633A833AA33C133C133C133C133F7
:1001D000C133C133C133C133AC33B333B933BB33B0
:1001E000BD33BF3300C2010001000500050003005C
:1001F00000E1000001000F000F000D00009600005C
:10020000020019001A001700127A000007002000EF
:1002100021001D00807000000B002300230020003F
:10022000004B000014003700370034004038000055
:100230001E004B004B004800802500003200720079
:1002400072007000C01200006E00E900E900E600D4
:1002500060090000E500D801D801D501B004000014
:10026000D301B403B403B10358020000B403670719
:10027000670762072C0100006707DD0EDD0EDA0E4E
:100280000129022904290829102920294029802927
:10029000012C022C012602260426082610262026E0
:1002A00040268026402C802C01230223042308238F
:1002B0001023202340238023012002200420082033
:1002C0001020202040208020102C202C012F022FD5
:1002D000042F082F102F202F402F802F7EFE7EFD11
:1002E0007EFB7EF77EEF7EDF7EBF7E7F000100001B
:1002F0009D0312000200005A03430003000056034E
:1003000004010309043C031802030904240316032F
:1003100003090416030C0C033100320033003400CF
:100320003500000016035500530042002000530022
:1003300065007200690061006C0000001803540041
:10034000650065006E007300790064007500690047
:100350006E006F000000040309040902430002015B
:1003600000C032090400000102020100052400104F
:1003700001052401000104240206052406000107EA
:1003800005820308004009040100020A000000077A
:10039000050302400000070584024000001201002E
:1003A0000202000020C01683047202010203010051
:1003B00001C102018036018136002916D33F37166C
:1003C00011241FBECFEFD0E2DEBFCDBF11E0A0E011
:1003D000B1E0EEE0F7E800E00BBF02C007900D923D
:1003E000A43CB107D9F726E0A4ECB1E001C01D920E
:1003F000A233B207E1F711E0CFEDD1E004C02197BD
:10040000FE010E943840CD3DD107C9F70E94243833
:100410000C947B43F5CDFB0101900020E9F7319767
:10042000AF01461B570BDC01ED91FC910280F3817B
:10043000E02D09940F931F93CF93DF93EC01EBDF33
:100440008C01CE010E946636800F911FDF91CF9103
:100450001F910F910895CF93DF931F92CDB7DEB711
:100460006983DC01ED91FC910280F381E02D41E094
:1004700050E0BE016F5F7F4F09950F90DF91CF91E4
:10048000089540E052EC61E070E086E296E00E9460
:100490006B3F11B814B817B81AB81DB810BA089540
:1004A0008FEF84B987B981B98DB18F608DB98EB165
:1004B0008F608EB964EF71E080E090E00C94A63B11
:1004C0000F931F932FEF24B927B921B9DC01CB017A
:1004D000B695A7959795879585B9092F1A2F2B2F34
:1004E000332708B9CD01AA27BB2782B9729815B85E
:1004F00018B814B817B87198000000000000000088
:1005000026B183B1719A729A90E0922B1F910F914C
:1005100008950F931F932FEF24B927B921B9DC0158
:10052000CB01B695A7959795879585B9092F1A2F71
:100530002B2F332708B9CD01AA27BB2782B9729880
:100540000000000045B958B9709800000000709A8A
:10055000729A1F910F9108952FEF24B927B911B8FE
:1005600065B9BB27A92F982F872F88B971987398E1
:10057000000000000000000000000000000000007B
:1005800080B1739A719A08952FEF24B927B921B9D0
:1005900065B9BB27A92F982F872F88B942B90000CA
:1005A0000000000000000000000000000000709843
:1005B0007398000000000000000000000000000030
:1005C000000000000000739A709A00000000000014
:1005D0000000000000000000000008950F931F932A
:1005E000CF93DF934AEA50E06AEA7AE080E090E055
:1005F00090DF45E550E065E575E080E090E089DF5B
:1006000040E950E06AEA7AE080E090E082DF0000B2
:100610000000000060E070E0CB0152DF082F62E0D4
:1006200070E080E090E04CDF182F6CE170E080E03B
:1006300090E046DFD82F6EE170E080E090E040DF90
:10064000C82F68EE73E080E090E00E94A63B602F28
:1006500086E296E000DF612F86E296E0FCDE6D2FF9
:1006600086E296E0F8DE6C2F86E296E0F4DE40EF5C
:1006700050E06AEA7AE080E090E04BDF00000000A2
:100680000000DF91CF911F910F910895739A8FEF22
:1006900084B987B98DB18F608DB98EB187608EB9FD
:1006A000739A11B860E971E080E090E00C94A63B89
:1006B00085B998B900000000000000008EB1897F64
:1006C0008EB9000000000000000080B19EB196606D
:1006D0009EB90000000000000000089585B998B997
:1006E00062B90000000000000000709800000000E7
:1006F00000000000709A0000000000000000089553
:1007000085B998B962B9729A000000000000000033
:100710007298000070980000000000000000709ABD
:100720000000729A0000000000000000089587E4B5
:1007300091E0BEDF90E09093BD038093BC0388E41A
:1007400091E0B6DF90E0A0E0B0E08093B803909332
:10075000B903A093BA03B093BB0389E491E0A8DF87
:1007600090E09093BF038093BE0322E030E030938B
:10077000B0032093AF034091B8035091B903609147
:10078000BA037091BB03411551056105710549F02C
:1007900002C0220F331F4A95E2F73093B003209333
:1007A000AF031092B2031092B1036091BC03709139
:1007B000BD036630710531F421E030E03093B203BF
:1007C0002093B1038230910539F421E030E0309379
:1007D000B2032093B10319C08330910519F424E0CA
:1007E00030E00BC08430910519F420E130E005C001
:1007F0008530910551F428E030E03093B203209326
:10080000B1036630710591F403C06630710531F4AF
:100810002FEF31EA3093AE032093AD038130910581
:1008200019F48FEF97EA04C0029734F08FEF9FEB33
:100830009093AE038093AD0386E296E00CDE609168
:10084000B80386E296E007DE6091BE0386E296E09A
:1008500002CEFF920F931F93CF93DF93CFEFC1B9D7
:1008600060E080E090E33ADF64E670E080E090E0F2
:100870000E94A63B60E080E090E230DF64E670E03A
:1008800080E090E00E94A63B6AEA8AEA9AE026DFCE
:1008900065E585E595E022DF60E98AEA9AE01EDFFA
:1008A00000000000000011B880E090E001DFF82EA9
:1008B00082E090E0FDDE082F8CE190E0F9DE182F59
:1008C0008EE190E0F5DED82F6F2D86E296E0C3DD55
:1008D000602F86E296E0BFDD612F86E296E0BBDD09
:1008E0006D2F86E296E0B7DDC1B960EF85E595E052
:1008F000DF91CF911F910F91FF90F0CE8FEF81B9D3
:1009000060E080E090E3EADE64E670E080E090E0A2
:100910000E94A63B60E080E090E2E0DE64E670E0EA
:1009200080E090E00E94A63B6AEA8AEA9AE0D6DE7E
:1009300065E585E595E0D2DE60E88AEA9AE0CEDEFC
:100940006AEA8AEA9AE0CADE65E585E595E0C6DEF0
:1009500060E18AEA9AE0C2DE11B880E090E0A8DEA9
:1009600087FD0AC08EB180588EB964EF71E080E0D7
:1009700090E00E94A63BF1CF779808958FEF84B95D
:1009800015B887B918B881B1836081B981B1886120
:1009900081B982B1836082B91398149A0D9A159A1D
:1009A0000A9880E090E0A0E0B8E08093A9039093DB
:1009B000AA03A093AB03B093AC036CE271E080E0B8
:1009C00090E00C94A63BFC0128E00A9A808190E01C
:1009D000880F892F881F990B892B09F425C00000E7
:1009E00000000000000000000A9800000000000065
:1009F00000000000000000000000000000000000F7
:100A000000000000000000000000000000000000E6
:100A100000000000000000000000000000000000D6
:100A200000000000000025C00000000000000000E1
:100A300000000000000000000000000000000000B6
:100A400000000000000000000000000000000000A6
:100A50000000000000000000000000000000000096
:100A60000000000000000000000000000000000086
:100A70000A98215069F0000000000000000000000A
:100A800000000000000000008081880F80839DCF5F
:100A9000615011F0319698CF0895000000000000D9
:100AA00000000A9A000000000000000000000000A2
:100AB0000000000000000000000000000000000036
:100AC0000A9808959C01EAE5F2E08FE3029B03C0D7
:100AD0008150E1F7089500000000000000000000D0
:100AE0000000000000000000000000000000000006
:100AF00000000000000000000000000000000000F6
:100B000000000000000000000000000000000000E5
:100B1000000080B1847081932150310929F09FE356
:100B20000299D3CF9150E1F708958FEF84B915B8AA
:100B300087B918B80895119800000000000000005F
:100B4000000026B183B1119A000090E0922B089525
:100B50000F931F93CF93DF93CDB7DEB72B970FB6CD
:100B6000F894DEBF0FBECDBFF89494E09B878A87D0
:100B700061E0CE010B9627DF61E0CE010A9623DF0C
:100B80008CDF80E490E09EDF7894EAE5F2E080E09C
:100B900090E061E070E02781298326812A83258106
:100BA0002B8324812C8323812D8322812E832181F9
:100BB0002F8320812887DE01119620E030E040E07D
:100BC0005D91552339F08B01022E01C0000F0A946C
:100BD000EAF7402B2F5F3F4F2830310589F7DC01C2
:100BE00023E0B695A7952A95E1F7A75EBD4F4C93F4
:100BF000089638968034910571F62B960FB6F894C6
:100C0000DEBF0FBECDBFDF91CF911F910F91089531
:100C1000BC01660F771F20E030E040E2261737075F
:100C200031F092B1942792B92F5F3F4FF7CF0895DB
:100C3000CF93DF93D82FC8E00A9A8D2F90E0880FCA
:100C4000892F881F990B892B39F082E090E0E0DF33
:100C50000A9886E090E006C086E090E0D9DF0A9826
:100C600082E090E0D5DFDD0FC15031F7DF91CF9109
:100C700008950A9A82E090E0CBDF0A9884E090E041
:100C8000C7CF0F931F93CF930FE513E0C0E4029BF0
:100C900004C081E090E0BCDFFACF83E090E0B8DFF1
:100CA00080B182FB882780F9F80181938F01029936
:100CB00004C081E090E0ACDFFACFC15041F7CF91A2
:100CC0001F910F9108950D9A159A0A98779A80E5C9
:100CD00093EC9EDF77980895CF93DF93CDB7DEB77F
:100CE00027970FB6F894DEBF0FBECDBF28E730E0E0
:100CF0004EE666E276E0CE0101960E942837CE01EC
:100D000001960E9419386093C5057093C6058093BB
:100D1000C7059093C805CE0101960E945E372796BD
:100D20000FB6F894DEBF0FBECDBFDF91CF9108950F
:100D30008F929F92AF92BF92CF92DF92EF92FF92EB
:100D4000CBDF6AE070E080E090E00E94A63B8090FC
:100D5000C5059090C605A090C705B090C80521E0D4
:100D6000821A9108A108B108C12CD12C7601C814AF
:100D7000D904EA04FB04B0F54AEA50E06AEA7AE0F2
:100D800080E090E0C6DB45E550E065E575E080E099
:100D900090E0BFDB40E850E06AEA7AE080E090E073
:100DA000B8DB4AEA50E06AEA7AE080E090E0B1DB42
:100DB00045E550E065E575E080E090E0AADB40E3C2
:100DC00050E0C701B601A5DBC701B60179DB8F672B
:100DD0009F6F0196C9F78EB180588EB982E0E80EF8
:100DE000F11CC5CFFF90EF90DF90CF90BF90AF90F8
:100DF0009F908F900895CF93DF93CDB7DEB727975D
:100E00000FB6F894DEBF0FBECDBF28E730E04EE648
:100E100066E276E0CE0101960E942837CE01019667
:100E20000E9419386093C9057093CA058093CB0559
:100E30009093CC05CE0101960E945E3727960FB69F
:100E4000F894DEBF0FBECDBFDF91CF910895CF9351
:100E5000DF93CDB7DEB727970FB6F894DEBF0FBE8E
:100E6000CDBF28E730E04EE666E276E0CE0101969F
:100E70000E942837CE0101960E94193860935B03C7
:100E800070935C0380935D0390935E03CE010196A3
:100E90000E945E3727960FB6F894DEBF0FBECDBF17
:100EA000DF91CF9108958FEF84B987B981B980BB65
:100EB0008DB18F6D8DB98EB18F648EB96D9A749A24
:100EC00077981AB808958EB182658EB908958EB15B
:100ED0008C608EB98D9A089565B9BB27A92F982F7C
:100EE000872F88B9749A4BB90000000000000000F9
:100EF0000000769800000000000000000000769AD4
:100F000000000000000000000000089565B9BB2744
:100F1000A92F982F872F88B900000000000000003B
:100F2000000074980000000000000000000089B17B
:100F3000749A00000000000000000000089562B9EB
:100F4000BB27A92F982F872F81BB8D984BB9729AF9
:100F50000000000000000000000073980000000086
:100F6000000000000000739A8D9A0000000000004D
:100F700000000000089562B9BB27A92F982F872F82
:100F800081BB8D98739A00000000000000000000F3
:100F900072980000000000000000000089B1729A01
:100FA0008D9A000000000000000000000895709A73
:100FB0000000000000007098000000000000749A1B
:100FC00008950F931F931AB865B9072F182F292F6B
:100FD000332708B9611570488105910508F07498A8
:100FE000709A000000000000000089B17098749AA7
:100FF0009FEF9AB91F910F9108950F931F9365B9B1
:10100000072F182F292F332708B971982FEF2AB9E6
:101010004BB90000000000000000000076980000BE
:101020000000000000000000769A000000000000B0
:1010300000000000611570488105910508F0749862
:10104000709A00000000000000007098749A719A75
:101050001AB81F910F91089565B9BB27A92F982F32
:10106000872F88B971988FEF8AB94BB9749A709AA3
:101070000000000000000000000000000000000070
:1010800000007098749A719A1AB8089582B991BB49
:101090008D988FEF8AB96BB9729A0000739800002F
:1010A000739A8D9A1AB8089582B991BB739A000009
:1010B0000000000000000000729800000000000026
:1010C0000000000089B1729A0000000000000000DA
:1010D00000000895CF92DF92EF92FF92CF936B01C1
:1010E0007C01C42F64DFC5B8CD2CDE2CEF2CFF248F
:1010F000C8B871988FEF8AB9CBB97498709A00000C
:101100000000000000007098749A719A1AB8CF918C
:10111000FF90EF90DF90CF904ACF40E461E070EA1B
:1011200080E090E0D7DF40E060E070EA80E090E0AF
:10113000D1DF40E060E070E880E090E0CBDF40E0AD
:1011400061E070E880E090E0C5DF41E060E070E8D9
:1011500080E090E0BFDF42E061E070E880E090E096
:10116000B9DF42E060E070E880E090E0B3DF45E1A5
:1011700061E070E880E090E0ADDF43E060E070E8BF
:1011800080E090E0A7DF45E161E070E880E090E07A
:10119000A1DF44E060E070E880E090E09BDF4AE09F
:1011A00061E070E880E090E095DF45E060E070E8A5
:1011B00080E090E08FDF4AE061E070E880E090E05E
:1011C00089DF46E060E070E880E090E083DF40E0A7
:1011D00061E070E880E090E07DDF47E060E070E88B
:1011E00080E090E077DF41E061E070E880E090E04F
:1011F00071DF40E060E070E880E090E06BCFD7DE28
:1012000040E860E070E880E090E0F7DED0CECF927A
:10121000DF92EF92FF921F93CF93DF936B017C01DC
:10122000142FC5E0D0E0C701B601CBDE412FC701C6
:10123000B601E3DE16952197B1F7DF91CF911F91AB
:10124000FF90EF90DF90CF90089560E070E880E02D
:1012500090E0B7DE40E860E070E880E090E0CDDE4E
:1012600040E160E070E880E090E0D1DF40E160E0E4
:1012700070EE80E090E0CBDF42E160E070EA80E079
:1012800090E0C5DF45E160E070EC80E090E0BFCF2A
:101290009FEF9AB98BB97198749A7498719A9AB9A8
:1012A0000895CF93DF93CFEFCAB94AEA65E575E5B4
:1012B00080E090E011DE45E56AEA7AE280E090E0C5
:1012C0000BDE40E965E575E580E090E005DE0000B5
:1012D000000000001AB860E070E0CB0117DE61E0AA
:1012E00070E080E090E012DED82F68EE73E080E0DE
:1012F00090E00E94A63B6D2F86E296E0ACD8CAB97A
:101300004AEA65E575E580E090E0E6DD45E56AEAF4
:101310007AE280E090E0E0DD40EF65E575E580E0B1
:1013200090E0DADD0000000000001AB8DF91CF91F4
:101330000895CF93DF9380E090E0AADF80E090E013
:10134000A7DF80E090E0A4DFCFEFCAB9469A4AEA6F
:1013500065E575E580E090E0BFDD469845E56AEA21
:101360007AE280E090E0B8DD469A40E965E575E50F
:1013700080E090E0B1DD0000000000001AB860E0FD
:1013800070E0CB01C3DD61E070E080E090E0BEDDA5
:10139000D82F68EE73E080E090E00E94A63B6D2FAE
:1013A00086E296E058D8CAB9469A4AEA65E575E5F4
:1013B00080E090E091DD469845E56AEA7AE280E0D7
:1013C00090E08ADD469A40EF65E575E580E090E0C3
:1013D00083DD0000000000001AB8DF91CF9108956E
:1013E000CF93DF93CFEFCAB940E160E070E880E0CF
:1013F00090E00DDF40E160E070EE80E090E007DF1C
:1014000040E160E070E880E090E001DF4AEA65E5F5
:1014100075E580E090E0F1DD45E56AEA7AE280E09A
:1014200090E0EBDD40E965E575E580E090E0E5DD25
:101430000000000000001AB860E070E0CB0166DD3B
:1014400061E070E080E090E061DDD82F68EE73E04D
:1014500080E090E00E94A63B6D2F86E296E00E941D
:101460002B02CAB94AEA65E575E580E090E0C5DD82
:1014700045E56AEA7AE280E090E0BFDD40EF65E5AD
:1014800075E580E090E0B9DD0000000000001AB8CA
:10149000DF91CF910895CF93DF93CFEFCAB93DDEAF
:1014A0004AEA65E575E580E090E0A7DD45E56AEA92
:1014B0007AE280E090E0A1DD40E965E575E580E055
:1014C00090E09BDD0000000000001AB860E070E0D2
:1014D000CB011CDD61E070E080E090E017DDD82FEB
:1014E00068EE73E080E090E00E94A63B6D2F86E2FC
:1014F00096E00E942B02CAB94AEA65E575E580E0EC
:1015000090E07BDD45E56AEA7AE280E090E075DD17
:1015100040EF65E575E580E090E06FDD00000000DC
:1015200000001AB8DF91CF910895CF93DF93CFEFEA
:10153000CAB9F3DD4AEA6AEA7AE080E090E05DDD6C
:1015400045E565E575E080E090E057DD40E96AEA51
:101550007AE080E090E051DD0000000000001AB861
:1015600060E070E0CB01D2DC62E070E080E090E00F
:10157000CDDCD82F68EE73E080E090E00E94A63BBF
:101580006D2F86E296E00E942B02CAB94AEA6AEA07
:101590007AE080E090E031DD45E565E575E080E0EA
:1015A00090E02BDD40EF6AEA7AE080E090E025DD14
:1015B0000000000000001AB8DF91CF91089587DC89
:1015C0008FEF8AB94AEA65E575E580E090E084DC52
:1015D00045E56AEA7AE280E090E07EDC40E865E595
:1015E00075E580E090E078DC4AEA65E575E580E045
:1015F00090E072DC45E56AEA7AE280E090E06CDC3B
:1016000040E165E575E580E090E066DC64E670E069
:1016100080E090E00E94A63B1AB860E070E0CB0149
:1016200075DC87FD0AC08EB180588EB964EF71E019
:1016300080E090E00E94A63BF0CF7798089543DCCD
:101640008FEF8AB94AEA65E575E580E090E077DCDE
:1016500045E56AEA7AE280E090E071DC40E865E521
:1016600075E580E090E06BDC4AEA65E575E580E0D1
:1016700090E065DC45E56AEA7AE280E090E05FDCD4
:1016800040E165E575E580E090E059DC64E670E0F6
:1016900080E090E00E94A63B1AB860E070E0CB01C9
:1016A0006ADC87FD0EC08EB180588EB964EF71E0A0
:1016B00080E090E00E94A63B60E070E0CB0126DC79
:1016C000F0CF779808958FEF8AB9FDDB82E090E044
:1016D000DFDD82E090E0DCDD82E090E0D9DD6AEAE7
:1016E00085E595E1D3DC81E090E0D2DD81E090E01A
:1016F000CFDD81E090E0CCDD65E58AEA9AE0C6DCEA
:1017000082E090E0C5DD82E090E0C2DD82E090E022
:10171000BFDD60E885E595E1B9DC82E090E0B8DD09
:1017200082E090E0B5DD82E090E0B2DD6AEA85E536
:1017300095E1ACDC81E090E0ABDD81E090E0A8DDFC
:1017400081E090E0A5DD65E58AEA9AE09FDC82E031
:1017500090E09EDD82E090E09BDD82E090E098DD0D
:1017600060E185E595E192DC80E090E091DD80E04C
:1017700090E08EDD80E090E08BDD64E670E080E05C
:1017800090E00E94A63B9FDB1AB860E070E0CB01BE
:10179000F2DB87FD0AC08EB180588EB964EF71E02C
:1017A00080E090E00E94A63BF0CF7798089580E01B
:1017B00090E06EDD80E090E06BDD80E090E068DD41
:1017C0008FEF8AB9469A4AEA65E575E580E090E0D0
:1017D00083DB469845E56AEA7AE280E090E07CDBCC
:1017E000469A40E865E575E580E090E075DB469A4D
:1017F0004AEA65E575E580E090E06EDB469845E5F0
:101800006AEA7AE280E090E067DB469A40E165E5CB
:1018100075E580E090E060DB64E670E080E090E0F9
:101820000E94A63B1AB860E070E0CB016FDB87FD39
:101830000AC08EB180588EB964EF71E080E090E00C
:101840000E94A63BF0CF089542DB8FEF8AB94AEAA7
:1018500065E575E580E090E0D0DB45E56AEA7AE28F
:1018600080E090E0CADB40E865E575E580E090E067
:10187000C4DB4AEA65E575E580E090E0BEDB45E55E
:101880006AEA7AE280E090E0B8DB40E165E575E580
:1018900080E090E0B2DB64E670E080E090E00E94DF
:1018A000A63B1AB860E070E0CB0130DB87FD0AC0D0
:1018B0008EB180588EB964EF71E080E090E00E94B4
:1018C000A63BF0CF77980895FEDA8FEF8AB94AEAFF
:1018D00065E575E580E090E032DB45E56AEA7AE2AD
:1018E00080E090E02CDB40E865E575E580E090E085
:1018F00026DB4AEA65E575E580E090E020DB45E51A
:101900006AEA7AE280E090E01ADB40E165E575E59D
:1019100080E090E014DB64E670E080E090E00E94FC
:10192000A63B1AB860E070E0CB0125DB87FD0AC05A
:101930008EB180588EB964EF71E080E090E00E9433
:10194000A63BF0CF77980895C2DA8FEF8AB946E0C8
:1019500060E070E880E090E0BDDB40E061E070E8CE
:1019600080E090E0B7DB47E060E070E880E090E086
:10197000B1DB41E061E070E880E090E0ABDB4AEA97
:1019800065E575E580E090E038DB45E56AEA7AE2F6
:1019900080E090E032DB40E865E575E580E090E0CE
:1019A0002CDB4AEA65E575E580E090E026DB45E55D
:1019B0006AEA7AE280E090E020DB40E165E575E5E7
:1019C00080E090E01ADB64E670E080E090E00E9446
:1019D000A63B1AB860E070E0CB0198DA87FD0AC038
:1019E0008EB180588EB964EF71E080E090E00E9483
:1019F000A63BF0CF40E060E070E880E090E06ADB7A
:101A00007798089564DA8FEF8AB946E060E070E86D
:101A100080E090E05FDB40E061E070E880E090E033
:101A200059DB47E060E070E880E090E053DB41E0A4
:101A300061E070E880E090E04DDB4AEA6AEA7AE033
:101A400080E090E0DADA45E565E575E080E090E079
:101A5000D4DA40E86AEA7AE080E090E0CEDA4AEA56
:101A60006AEA7AE080E090E0C8DA45E565E575E08D
:101A700080E090E0C2DA40E16AEA7AE080E090E05B
:101A8000BCDA64E670E080E090E00E94A63B1AB801
:101A900060E070E0CB013ADA87FD0AC08EB1805871
:101AA0008EB964EF71E080E090E00E94A63BF0CF39
:101AB00040E060E070E880E090E00CDB779808950B
:101AC00002DA8FEF8AB94AEA65E575E180E090E0D5
:101AD00036DA45E56AEA7AE180E090E030DA40E81B
:101AE00065E575E180E090E02ADA4AEA65E575E1AE
:101AF00080E090E024DA45E56AEA7AE180E090E06F
:101B00001EDA40E165E575E180E090E018DA64E610
:101B100070E080E090E00E94A63B1AB860E070E0C0
:101B2000CB0129DA87FD0AC08EB180588EB964EFE7
:101B300071E080E090E00E94A63BF0CF7798089596
:101B4000C2D98FEF8AB9759A6AEA85E595E19EDA7E
:101B500065E58AEA9AE09ADA60E885E595E196DA41
:101B60006AEA85E595E192DA65E58AEA9AE08EDA35
:101B700060E185E595E18ADA64E670E080E090E076
:101B80000E94A63B759A1AB880E090E08DDA87FD36
:101B90000AC08EB180588EB964EF71E080E090E0A9
:101BA0000E94A63BF1CF77980895CF93DF93CDB7EE
:101BB000DEB727970FB6F894DEBF0FBECDBF28E77C
:101BC00030E04EE666E276E0CE0101960E942837CC
:101BD000CE0101960E9419387093CE056093CD0511
:101BE000CE0101960E945E3727960FB6F894DEBFAD
:101BF0000FBECDBFDF91CF910895CF93DF93CDB7C7
:101C0000DEB727970FB6F894DEBF0FBECDBF28E72B
:101C100030E04EE666E276E0CE0101960E9428377B
:101C2000CE0101960E94193870931302609312023C
:101C3000CE0101960E945E3727960FB6F894DEBF5C
:101C40000FBECDBFDF91CF910895CF93DF93CDB776
:101C5000DEB727970FB6F894DEBF0FBECDBF28E7DB
:101C600030E04EE666E276E0CE0101960E9428372B
:101C7000CE0101960E94193860930E0270930F02F4
:101C80008093100290931102CE0101960E945E375C
:101C900027960FB6F894DEBF0FBECDBFDF91CF9170
:101CA0000895CF93DF93CDB7DEB727970FB6F8949B
:101CB000DEBF0FBECDBF28E730E04EE666E276E03D
:101CC000CE0101960E942837CE0101960E94193854
:101CD00060930A0270930B0280930C0290930D02A2
:101CE000CE0101960E945E3727960FB6F894DEBFAC
:101CF0000FBECDBFDF91CF910895CF93DF93CDB7C6
:101D0000DEB727970FB6F894DEBF0FBECDBF28E72A
:101D100030E04EE666E276E0CE0101960E9428377A
:101D2000CE0101960E941938609306027093070253
:101D30008093080290930902CE0101960E945E37BB
:101D400027960FB6F894DEBF0FBECDBFDF91CF91BF
:101D50000895CF93DF93CDB7DEB727970FB6F894EA
:101D6000DEBF0FBECDBF28E730E04EE666E276E08C
:101D7000CE0101960E942837CE0101960E941938A3
:101D80006093020270930302809304029093050211
:101D9000CE0101960E945E3727960FB6F894DEBFFB
:101DA0000FBECDBFDF91CF9108958FEF8AB980BB71
:101DB00081B98DB18D638DB9699A689814B817B8D7
:101DC0008EB18C638EB9719868EC70E080E090E021
:101DD0000C94A63B8FEF84B987B9089514B817B84F
:101DE0000895CF92DF92EF92FF92CF93DF936B0132
:101DF0007C01D42FC52FEEDFCBB8BB27AF2D9E2D96
:101E00008D2D81BB6701EE24FF24C2B8D5B9C8B9B6
:101E100000007398000074980000000000000000AB
:101E20000000749A0000739A00000000DF91CF91C7
:101E3000FF90EF90DF90CF90D1CFCF92DF92EF92D3
:101E4000FF926B017C01CADFCBB8BB27AF2D9E2D63
:101E50008D2D81BB6701EE24FF24C2B8000073986A
:101E6000729800000000000000000000000026B191
:101E700083B1729A739A000090E0922BFF90EF90DA
:101E8000DF90CF900895CF93DF93D82FC92F0E9472
:101E90009505D5B9C8B900001098000000000000F1
:101EA00000000000109A00000000DF91CF9196CF53
:101EB000CF92DF92EF92FF926B017C010E94950519
:101EC000C701AA27BB2722B1236022B9139A0000B9
:101ED000149A85B9892F992788B900001498C5B834
:101EE000CD2CDD24C8B800000000139800000000CD
:101EF00000000000000000000000000000000000E2
:101F0000FF90EF90DF90CF9069CFD2DF80EF90E02D
:101F1000BADF64E670E080E090E00C94A63B1F938B
:101F2000CF93DF931092A5031092A6031092A703FC
:101F30001092A8038091010190910201A0910301E8
:101F4000B0910401BC01CD016655754F8F4F9F4F75
:101F5000AFDF8AEA90E097DF809101019091020162
:101F6000A0910301B0910401BC01CD016C5A7A4FDC
:101F70008F4F9F4F9DDF85E590E085DF80910101C8
:101F800090910201A0910301B0910401BC01CD0127
:101F90006655754F8F4F9F4F8BDF80E990E073DF61
:101FA00060910101709102018091030190910401FF
:101FB0007FDF0E949B059F938F938AE291E09F931E
:101FC0008F9380EA93E09F938F930E94A0400E949A
:101FD0009B059F938F93CFE2D1E0DF93CF938FEC5C
:101FE00095E09F938F930E94A04080910101909172
:101FF0000201A0910301B0910401BC01CD01645E16
:102000007F4F8F4F9F4F54DF0E949B05182F0E94D8
:102010009B0520E030E0282B1F932F93DF93CF9375
:1020200083EB93E09F938F930E94A04060EA73E05C
:1020300086E296E00E940B0264E371E086E296E09D
:102040000E940B026FEC75E086E296E00E940B02A4
:1020500064E371E086E296E00E940B0263EB73E0BA
:1020600086E296E00E940B0264E371E086E296E06D
:102070000E940B028DB79EB742960FB6F8949EBF92
:102080000FBE8DBF6091010170910201809103012B
:1020900090910401DF91CF911F9137CF4F925F92C2
:1020A0006F927F928F929F92AF92BF92CF92DF9268
:1020B000EF92FF928090010190900201A0900301A5
:1020C000B0900401C12CD12C7601240135012AEAFB
:1020D000420E2AE0521E611C711C84E5880E85E0C8
:1020E000981EA11CB11C8091C1039091C203A091C4
:1020F000C303B091C403C816D906EA06FB0608F06C
:102100004CC08EB180588EB9C301B201D1DE8AEACB
:1021100090E0B9DEC501B401CBDE85E590E0B3DE29
:10212000C301B201C5DE80E890E0ADDEC301B201BB
:10213000BFDE8AEA90E0A7DEC501B401B9DE85E51D
:1021400090E0A1DE8091010190910201A091030134
:10215000B0910401BC01CD016C0D7D1D8E1D9F1D34
:10216000A7DE80E390E08FDE809101019091020173
:10217000A0910301B0910401BC01CD016C0D7D1D46
:102180008E1D9F1D95DE0E949B058F679F6F019698
:1021900059F782E0E80EF11CA6CF7798FF90EF90F8
:1021A000DF90CF90BF90AF909F908F907F906F9077
:1021B0005F904F900895CF92DF92EF92FF926B0164
:1021C0007C0160E070E081E098E072DEC7015BDED8
:1021D000C601FF90EF90DF90CF9055CE60E070E0A9
:1021E00080E092EDE8DF65E070E080E090E00E9442
:1021F000A63B60E070E080E092EDDDDF65E070E03E
:1022000080E090E00E94A63B60E070E080E091EE0C
:10221000D2DF65E070E080E090E00C94A63BDF92B6
:10222000EF92FF920F931F93CF93DF93CDB7DEB75B
:1022300068970FB6F894DEBF0FBECDBFD82E88E0EA
:10224000E2E1F1E0DE01519601900D928A95E1F70D
:1022500088E0EAE1F1E0DE01199601900D928A959D
:10226000E1F788E0E2E2F1E0DE01119601900D92E3
:102270008A95E1F760E070E080E091EE9CDF61E03C
:1022800070E080E090E00E94A63B60E070E080E0BB
:1022900098E00EDE05EC13E078010E949B05D70163
:1022A0009C9311968C93B2E0EB0EF11CEDECEE16C4
:1022B000E3E0FE0691F7F2E0DF1210C0FE01719636
:1022C0009E01275E3F4F80E04191D8019D918D0195
:1022D000491381E0E217F307B9F729C0B1E0DB1237
:1022E00025C08091140281110FC0FE0139969E0114
:1022F0002F5E3F4F4191D8019D918D01491381E09F
:10230000E217F307B9F713C0813081F4FE0131966B
:102310009E01275F3F4F80E04191D8019D918D0143
:10232000491381E0E217F307B9F701C080E068962E
:102330000FB6F894DEBF0FBECDBFDF91CF911F91D6
:102340000F91FF90EF90DF900895CF92DF92EF9280
:10235000FF9244DF8FE7C82ED12CE12C8BE4F82EBE
:10236000C701B60128DF6AE070E080E090E00E94DB
:10237000A63B60E070E080E098E71DDF6AE070E077
:1023800080E090E00E94A63B60E070E080E092ED8B
:1023900012DF8091000143DF882339F061E070E0B3
:1023A00080E090E00E94A63BF4CF80E8C80ED11CEC
:1023B000E11CF11C8FE7C81684E0D806E1048BE429
:1023C000F80671F6FF90EF90DF90CF9008954F924E
:1023D0005F926F927F928F929F92AF92BF92CF92B5
:1023E000DF92EF92FF920F931F93CF93DF93C82F4B
:1023F00010921502109216021092170210921802F3
:10240000823031F400E810E090E4492E512C05C0F0
:1024100000E012E0412C82E0582E60E070E080E0A5
:1024200090EFC9DEC090A903D090AA03E090AB035F
:10243000F090AC032C2F30E040E050E060E070E022
:1024400082E090E00E941C4049015A01052C000CDA
:10245000660877088091A9039091AA03A091AB0325
:10246000B091AC03880D991DAA1DBB1DC816D906D5
:10247000EA06FB06A0F5C701B6011ADDC5ECD3E0FC
:102480000E949B05988389832296CE01855C9340A8
:1024900080179107ACF3409115025091160260919C
:1024A000170270911802E5ECF3E081918F3F21F063
:1024B0004F5F5F4F6F4F7F4FCF01855C9340801719
:1024C00091079CF3409315025093160260931702F4
:1024D00070931802C40CD51CE61CF71CBBCF60918E
:1024E0001502709116028091170290911802DF91E7
:1024F000CF911F910F91FF90EF90DF90CF90BF9001
:10250000AF909F908F907F906F905F904F900895C5
:102510000F931F93CF93DF9360E070E080E091EE24
:102520004ADE6AE070E080E090E00E94A63B60E056
:1025300070E080E098E0BCDC05EC13E0E8010E946C
:102540009B0598838983229683E0CD3CD807B9F711
:102550008091CC038E3121F482E0809300011BC076
:102560008D3131F481E0809300011092140213C088
:10257000813F61F0F80161918F0186E296E00E944F
:102580002B02F3E00D3C1F07A9F705C081E0809303
:10259000000180931402DF91CF911F910F91089554
:1025A0000F931F93CF93DF934AEA50E065E575E000
:1025B00080E090E016DC45E550E06AEA72E080E0F9
:1025C00090E00FDC40E950E065E575E080E090E0E8
:1025D00008DC00000000000060E070E0CB012DDCB2
:1025E000082F61E070E080E090E027DC182F6EE0BB
:1025F00070E080E090E021DCD82F6FE070E080E0B8
:1026000090E01BDCC82F68EE73E080E090E00E9451
:10261000A63B602F86E296E00E942B02612F86E2A5
:1026200096E00E942B026D2F86E296E00E942B021C
:102630006C2F86E296E00E942B0240EF50E065E5A9
:1026400075E080E090E0CDDB000000000000DF914D
:10265000CF911F910F9108954AEA50E065E575E02A
:1026600080E090E0BEDB45E550E06AEA72E080E0A1
:1026700090E0B7DB40E850E065E575E080E090E091
:10268000B0DB4AEA50E065E575E080E090E0A9DB68
:1026900045E550E06AEA72E080E090E0A2DB40E1CC
:1026A00050E065E575E080E090E09BDB60E070E085
:1026B000CB01C3DB8F679F6F019651F08EB18058BD
:1026C0008EB968EC70E080E090E00E94A63BEECF0F
:1026D00077980895CF93DF9368ED70E080E090E005
:1026E000ACDB8134924541F469ED70E080E090E02C
:1026F000A4DB8032984F09F11092F5011092F40199
:102700001092F6011092F7011092F8011092F9015F
:102710004091F6015091F7016091F8017091F90133
:1027200020E086E296E00E94803664E371E086E273
:1027300096E0DF91CF910C940B026AED70E080E09F
:1027400090E07BDBEC016BED70E080E090E075DB0E
:10275000AC01CE01A0E0B0E0DC019927882760E061
:1027600070E0842B952BA62BB72B8093FE019093C2
:10277000FF01A0930002B09301026CED70E080E0D5
:1027800090E05BDBEC016DED70E080E090E055DB0C
:10279000AC01CE01A0E0B0E0DC019927882760E021
:1027A00070E0842B952BA62BB72B8093FA01909386
:1027B000FB01A093FC01B093FD014091FE015091FB
:1027C000FF0160910002709101024130510520E249
:1027D0006207710519F421E030E008C04115510588
:1027E0006042710509F094CF22E030E03093F501AA
:1027F0002093F4018F5F9F4FAF41B109B695A79524
:10280000979587958093F6019093F701A093F8012F
:10281000B093F90180E090E0A0E1B0E08093FE0188
:102820009093FF01A0930002B093010271CFCF9368
:10283000C82FD0DAC8B97598000000000000000069
:1028400000000000759A0000000000000000000079
:102850000000CF91C3CA0F931F93CF93DF9362ED14
:1028600070E080E090E0E9DAEC0163ED70E080E098
:1028700090E0E3DAAE0160E070E0BA01552744274A
:102880008C0120E030E0402B512B622B732B4F5FEB
:102890005F4F6F4F7F4F20E086E296E00E948036C8
:1028A00064E371E086E296E0DF91CF911F910F9192
:1028B0000C940B02CF93DF93CDB7DEB727970FB6FB
:1028C000F894DEBF0FBECDBF28E730E04EE666E2EB
:1028D00076E0CE0101960E942837CE0101960E9433
:1028E00019386093C1037093C2038093C30390931C
:1028F000C403CE0101960E945E3727960FB6F89466
:10290000DEBF0FBECDBFDF91CF910895CF92DF9292
:10291000EF92FF92CFDF6AE070E080E090E00E94EB
:10292000A63BC12CD12C76018091C1039091C203AA
:10293000A091C303B091C403B695A79597958795C9
:10294000C816D906EA06FB06B0F58EB180588EB9D6
:102950004AEA50E065E575E080E090E042DA45E55E
:1029600050E06AEA72E080E090E03BDA40E850E054
:1029700065E575E080E090E034DA4AEA50E065E52C
:1029800075E080E090E02DDA45E550E06AEA72E01B
:1029900080E090E026DA40E350E0C701B60121DA9A
:1029A000C701B6014ADA8F679F6F0196C9F78FEFAB
:1029B000E81AF80AB9CF7798FF90EF90DF90CF90A0
:1029C00008958FEF8AB980BB84B991B19F6091B9A6
:1029D00092B1966092B992B1967F92B98DB977987B
:1029E00017B808950F931F936BB9072F182F292F2E
:1029F000332701BBAA27BB2785B948B90000129825
:102A0000000000000000129A0000000000001F916A
:102A10000F9108950F931F936BB9072F182F292F2C
:102A2000332701BBAA27BB2785B9000011980000F6
:102A3000000086B1119A0000000000001F910F9164
:102A4000089585B96BB971BB11980000000086B17B
:102A5000119A0000000000000895FF920F931F9349
:102A6000CF93DF93779ACFEFC7B94AEA6AEA7AE061
:102A700080E090E0B7DF45E565E575E080E090E057
:102A8000B1DF40E96AEA7AE080E090E0ABDF17B8B6
:102A900060E070E0CB01BEDFF82E62E070E080E025
:102AA00090E0B8DF082F6CE170E080E090E0B2DFEA
:102AB000182F6EE170E080E090E0ACDFD82F68EE78
:102AC00073E080E090E00E94A63B6F2D86E296E0E6
:102AD0000E942B02602F86E296E00E942B02612F5B
:102AE00086E296E00E942B026D2F86E296E00E941D
:102AF0002B02C7B940EF6AEA7AE080E090E072DF2B
:102B00007798DF91CF911F910F91FF9008958FEFEC
:102B100087B94AEA6AEA7AE080E090E063DF45E557
:102B200065E575E080E090E05DDF40E86AEA7AE024
:102B300080E090E057DF4AEA6AEA7AE080E090E0DD
:102B400051DF45E565E575E080E090E04BDF40E171
:102B50006AEA7AE080E090E045DF17B860E070E074
:102B6000CB0158DF87FD0AC08EB180588EB968EC62
:102B700070E080E090E00E94A63BF0CF0895CF92F5
:102B8000DF92EF92FF92CF9395DE6AE070E080E0F3
:102B900090E00E94A63BC12CD12C7601CFEF809112
:102BA000C1039091C203A091C303B091C403C8169E
:102BB000D906EA06FB0680F58EB180588EB9C7B9F2
:102BC0004AEA6AEA7AE080E090E00CDF45E565E5F4
:102BD00075E080E090E006DF40E86AEA7AE080E0B5
:102BE00090E000DF4AEA6AEA7AE080E090E0FADE0C
:102BF00045E565E575E080E090E0F4DE40E3C7017F
:102C0000B601F0DE17B8C701B60104DF87FFFBCFBE
:102C100082E0E80EF11CC3CF7798CF91FF90EF9040
:102C2000DF90CF9008950E946C066AE070E080E02B
:102C300090E00E94A63B6091C5057091C605809109
:102C4000C7059091C805E6DE682F86E296E00C94F1
:102C50002B0220E04FE16CE18CED91E00E94823587
:102C600020E045E26CE184EC91E00C94823584EC48
:102C700091E00E9438368CED91E00C9438368F92BA
:102C80009F92AF92BF92CF92DF92EF92FF92CF933B
:102C9000DF930E946C06C12CD12C76018091C50572
:102CA0009091C605A091C705B091C805C816D90670
:102CB000EA06FB06E8F4779AC5ECD3E04601570133
:102CC00086E296E00E94293E8993482FC501B4010F
:102CD0000E94C4028FEF881A980AA80AB80A85E0F1
:102CE000C53CD80769F782E0D80EE11CF11CD6CFAD
:102CF0007798DF91CF91FF90EF90DF90CF90BF90CA
:102D0000AF909F908F9008950F931F93CF9364E699
:102D100070E080E090E00E94A63B779A11B884E3CF
:102D200091E00E9458038FEF81B98091BC0390918C
:102D3000BD0305972CF461E080E090E60E946E03ED
:102D40006AE080E090E00E946E03C0E08C2F90E08B
:102D50002091B1033091B20382179307ECF46C2FEA
:102D600080E090E40E946E0300E010EA8091AD03E1
:102D70009091AE038017910768F086E296E00E947A
:102D8000293E8093C503682FC8010E9480030F5F0E
:102D90001F4FECCFCF5FDACF60E080E090E00E9481
:102DA0006E0311B87798CF911F910F910895DF921C
:102DB000EF92FF920F931F93CF93DF937BDD6AE037
:102DC00070E080E090E00E94A63B6091C1038FEF2D
:102DD00081B9779A80E090E20E946E0360E080E023
:102DE00090E40E946E0300E010E4DD24DA94C5EC68
:102DF000D3E0C801855C93407C0186E296E00E94A6
:102E0000293E88836AEA8AEA9AE00E946E0365E5B1
:102E100085E595E00E946E0360EA8AEA9AE00E94E6
:102E20006E036881C7018C0F9D1F0E946E0311B84D
:102E30008EB1897F8EB9999180B1892787FDFCCFAA
:102E40008EB186608EB9D1B895E0C53CD907A9F698
:102E50001E5F011580E8180751F611B87798DF91C9
:102E6000CF911F910F91FF90EF90DF9008950F93F6
:102E70001F93CF93DF9300D0CDB7DEB785E08A8371
:102E800080915B03898305EC13E086E296E00E9463
:102E9000293EF80181938F01F3E00D3C1F07A9F74C
:102EA000F89461E0CE0102960E94E30461E0CE0155
:102EB00001960E94E30468E085EC93E00E94E3043D
:102EC0000E944D0578940F900F90DF91CF911F9144
:102ED0000F910895AF92BF92CF92DF92EF92FF923F
:102EE0000F931F93CF93DF93D0E010E035ECA32E28
:102EF00035E0B32E412F50E060E070E080915B033D
:102F000090915C03A0915D03B0915E0326E0B695BD
:102F1000A795979587952A95D1F7481759076A0776
:102F20007B0788F585ECE82E83E0F82E670186E2C2
:102F300096E00E94293EF60181936F01AE16BF060E
:102F4000B1F7F894C0E080E995E60E94080685E0B4
:102F50000E9418068D2F8C0F0E941806670108E04A
:102F6000F60181916F010E9418060150C9F70E9475
:102F70003906CF5FF8E0EF0EF11CC03421F77894EA
:102F80001F5FD05CB7CFDF91CF911F910F91FF9062
:102F9000EF90DF90CF90BF90AF900895BF92CF9207
:102FA000DF92EF92FF920F931F93CF93DF93C09026
:102FB000A903D090AA03E090AB03F090AC038091FA
:102FC000A9039091AA03A091AB03B091AC039058D0
:102FD000AF4FBF4FC816D906EA06FB0618F5C70162
:102FE000B6010E94580FC5ECD3E086E296E00E943D
:102FF000293EB82E888386E296E00E94293E898386
:103000001B2D00E09801282BC9010E94430F229636
:1030100034E0C530D30749F780E4C80ED11CE11C69
:10302000F11CCDCFDF91CF911F910F91FF90EF90C9
:10303000DF90CF90BF9008954F925F926F927F92F2
:103040009F92AF92BF92CF92DF92EF92FF920F9337
:103050001F93CF93DF9379D980910001B8D9672B63
:10306000682B692B61F067E371E086E296E00E94CD
:103070000B026EE371E086E296E00E940B02AED88E
:10308000C12CD12C76012601370110E08EB1805879
:103090008EB960E070E080E094EB8DD861E070E084
:1030A00080E090E00E94A63B60E070E080E098E065
:1030B0000E94580FC5ECD3E000E086E296E00E9443
:1030C000293E982E888386E296E00E94293E8983D5
:1030D000B92CA12C9501282BC9010E94430F0E5F2A
:1030E0002296003851F761E070E080E090E00E94A5
:1030F000A63BC301B201956A5ED861E070E080E052
:1031000090E00E94A63B60E070E080E092ED53D832
:103110008091000184D8882339F061E070E080E07C
:1031200090E00E94A63BF4CF1F5F3FEF431A530A83
:10313000630A730A103809F0A9CF64E170E080E0F7
:1031400090E00E94A63B80E8C80ED11CE11CF11C57
:10315000C11424E0D206E104F10409F094CF779879
:10316000DF91CF911F910F91FF90EF90DF90CF9063
:10317000BF90AF909F907F906F905F904F90089519
:1031800086E296E00E94293E8093C00308952F9224
:103190003F924F925F926F927F928F929F92AF92E7
:1031A000BF92CF92DF92EF92FF920F931F93CF9334
:1031B000DF93CDB7DEB761970FB6F894DEBF0FBED1
:1031C000CDBF8090010190900201A0900301B090CA
:1031D0000401D6DF6AE070E080E090E00E94A63B48
:1031E0000E946C066AE070E080E090E00E94A63BDE
:1031F0000E94FB066AE070E080E090E00E94A63B3F
:10320000C090C505D090C605E090C705F090C805F0
:10321000A50194012655354F4F4F5F4F2B833C83BB
:103220004D835E83D501C4018C5A9A4FAF4FBF4F77
:103230008F839887A987BA874091C5055091C605A5
:103240006091C7057091C8058091C9059091CA0524
:10325000A091CB05B091CC05840F951FA61FB71F79
:10326000C816D906EA06FB0608F03BC18EB18058A5
:103270008EB9812C912C540100E010E06B817C818F
:103280008D819E810E94580F8AEA90E00E94430F30
:103290006F81788589859A850E94580F85E590E031
:1032A0000E94430F2801012E000C660877088091C8
:1032B000010190910201A0910301B09104018C0DD4
:1032C0009D1DAE1DBF1D880D991DAA1DBB1DBC01F6
:1032D000CD01640D751D861D971D0E94580F85E256
:1032E00090E00E94430F8091010190910201A09112
:1032F0000301B09104018C0D9D1DAE1DBF1D880DF5
:10330000991DAA1DBB1DBC01CD01640D751D861D37
:10331000971D0E94580F8091C003869590E00197F9
:103320000E94430F1B862091C0039B859217B8F51E
:1033300086E296E00E94293E8C878093C50386E250
:1033400096E00E94293E8093C603AC85AA83198229
:1033500029803A80282A8091010190910201A09150
:103360000301B09104018C0D9D1DAE1DBF1D880D84
:10337000991DAA1DBB1D840D951DA61DB71DBC0161
:10338000CD012B85620F711D811D911D0E94580F6B
:10339000C1010E94430F3B853E5F3B87C4CF4091F4
:1033A00001015091020160910301709104014C0DE3
:1033B0005D1D6E1D7F1D480D591D6A1D7B1DDB01A6
:1033C000CA01840D951DA61DB71D8E879F87A88BEA
:1033D000B98B822F90E00297092E000CAA0BBB0B31
:1033E0002E853F8548895989280F391F4A1F5B1F41
:1033F000CA01B9010E94580F89E290E00E94430F70
:103400004091C00350E042505109052E000C660B5C
:10341000770B8091010190910201A0910301B0917D
:103420000401840F951FA61FB71F8C0D9D1DAE1D97
:10343000BF1D880D991DAA1DBB1DBC01CD01640DCA
:10344000751D861D971D0E94580F0E949B05A101A6
:103450004F675F6F5D874C878F679F6F4091C00399
:10346000AC85BD858A179B0731F150E04250510968
:10347000052E000C660B770B8091010190910201E3
:10348000A0910301B0910401840F951FA61FB71FDF
:103490008C0D9D1DAE1DBF1D880D991DAA1DBB1D48
:1034A000BC01CD01640D751D861D971D0E94580F2E
:1034B0000E949B05D1CF040F111D0115B0E41B071D
:1034C0000CF4DCCE20E4920EA11CB11C81149104FA
:1034D00032E0A306B10409F0CFCE42E0E40EF11CC5
:1034E000ABCE779861960FB6F894DEBF0FBECDBF16
:1034F000DF91CF911F910F91FF90EF90DF90CF90D0
:10350000BF90AF909F908F907F906F905F904F9003
:103510003F902F9008958F929F92AF92BF92CF923B
:10352000DF92EF92FF921F93CF93DF930E94670782
:103530008FEF8AB9C12CD12C76011FEFD701C601BC
:103540009770AA27BB27892B8A2B8B2B19F48EB156
:1035500080588EB9C5ECD3E04601570186E296E06B
:103560000E94293E88834AEA65E575E580E090E09F
:103570000E94FD0745E56AEA7AE280E090E00E9459
:10358000FD0740EA65E575E580E090E00E94FD07F3
:103590004881C501B4010E94FD071AB87498999139
:1035A00089B1892787FDFCCF749A1AB98FEF881AE1
:1035B000980AA80AB80A85E0C53CD80779F682E0DF
:1035C000D80EE11CF11CC11480E8D806E104F10416
:1035D00009F0B4CF0E946307C12CD12C76011FEFF4
:1035E000D701C6019770AA27BB27892B8A2B8B2B63
:1035F00019F48EB180588EB9C5ECD3E0460157015D
:1036000086E296E00E94293E88834AEA65E575E5F0
:1036100080E090E00E949F0745E56AEA7AE280E058
:1036200090E00E949F0740EA65E575E580E090E044
:103630000E949F074881C501B4010E949F071AB8E4
:103640008D987298999189B1892787FDFCCF729ADC
:103650008D9A1AB98FEF881A980AA80AB80A85E0D5
:10366000C53CD80769F682E0D80EE11CF11CC114F4
:1036700080E2D806E104F10409F0B2CF7798DF9137
:10368000CF911F91FF90EF90DF90CF90BF90AF90C0
:103690009F908F9008954F925F926F927F928F923A
:1036A0009F92AF92BF92CF92DF92EF92FF920F93D1
:1036B0001F93CF93DF930E9467078FEF8AB9812C06
:1036C000912C540105EC15E0DD24DA94D501C401F8
:1036D0009770AA27BB27892B8A2B8B2B19F48EB1C5
:1036E00080588EB985ECE82E85E0F82EC5ECD3E045
:1036F0002401350186E296E00E94293E88834AEA49
:1037000065E575E580E090E00E946C0745E56AEAB2
:103710007AE280E090E00E946C0740EA65E575E59A
:1037200080E090E00E946C074881C301B2010E94D2
:103730006C071AB87498999189B1892787FDFCCFD5
:10374000749ADAB88FEF481A580A680A780A0C1780
:103750001D0781F692E0990EA11CB11C8114E0E8CE
:103760009E06A104B10409F0B1CFC0E0D0E07724F7
:103770007A94CE010E944809812C912C5401D501E4
:10378000C4019770AA27BB27892B8A2B8B2B19F48E
:103790008EB180588EB905EC13E0C401855C93406E
:1037A0006C0186E296E00E94293EF801808382E067
:1037B00090E00E94480982E090E00E94480982E07F
:1037C00090E00E9448096AEA85E595E10E94460872
:1037D00081E090E00E94480981E090E00E94480961
:1037E00081E090E00E94480965E58AEA9AE00E943B
:1037F000460882E090E00E94480982E090E00E9442
:10380000480982E090E00E94480960EA85E595E178
:103810000E944608CE010E944809CE010E94480934
:10382000CE010E944809F8016081C601800F911FF6
:103830000E9446081AB872988D98F80191918F01EC
:1038400089B1892787FDFCCF729A7AB8E016F10614
:1038500009F0A7CFF2E09F0EA11CB11C811480E2F9
:103860009806A104B10409F08ACF2196C830D10589
:1038700009F07FCF7798DF91CF911F910F91FF9043
:10388000EF90DF90CF90BF90AF909F908F907F9000
:103890006F905F904F9008957F928F929F92AF921A
:1038A000BF92CF92DF92EF92FF920F931F93CF932D
:1038B000DF938FEF8AB94698C0E0D0E077247A94FE
:1038C000CE010E944809C12CD12C7601D701C60136
:1038D0009770AA27BB27892B8A2B8B2B19F48EB1C3
:1038E00080588EB905EC13E04601570186E296E058
:1038F0000E94293EF80180834AEA65E575E580E08B
:1039000090E00E946C07469880E090E00E94480991
:1039100080E090E00E94480980E090E00E94480921
:10392000469845E56AEA7AE280E090E00E946C07FA
:1039300040EA65E575E580E090E00E946C074698F6
:10394000CE010E944809CE010E944809CE010E9482
:1039500048094698F8014081C501B4010E946C07EE
:103960001AB87498F80191918F0189B1892787FD60
:10397000FCCF749A7AB8FFEF8F1A9F0AAF0ABF0A7A
:1039800084E00530180709F0B1CFE0E4CE0ED11C79
:10399000E11CF11CC114F0E4DF06E104F10409F0BC
:1039A00095CF80E090E00E94480980E090E00E947E
:1039B000480980E090E00E9448092196C031D10575
:1039C00009F07ECFDF91CF911F910F91FF90EF9083
:1039D000DF90CF90BF90AF909F908F907F90089591
:1039E0007F928F929F92AF92BF92CF92DF92EF928F
:1039F000FF920F931F93CF93DF938FEF8AB9C0E0AD
:103A0000D0E077247A94CE010E944809C12CD12CB1
:103A10007601D701C6019770AA27BB27892B8A2B6D
:103A20008B2B19F48EB180588EB905EC13E046014A
:103A3000570186E296E00E94293EF80180834AEA17
:103A400065E575E580E090E00E946C0745E56AEA6F
:103A50007AE280E090E00E946C0740EA65E575E557
:103A600080E090E00E946C07CE010E944809CE01E0
:103A70000E944809CE010E944809F8014081C50111
:103A8000B4010E946C071AB87498F80191918F01E3
:103A900089B1892787FDFCCF749A7AB8FFEF8F1A16
:103AA0009F0AAF0ABF0A85E0053C180711F6E2E05D
:103AB000DE0EE11CF11CC114F0E8DF06E104F104A4
:103AC00009F0A7CF2196C830D10509F09CCFDF912E
:103AD000CF911F910F91FF90EF90DF90CF90BF900B
:103AE000AF909F908F907F9008957F928F929F923A
:103AF000AF92BF92CF92DF92EF92FF920F931F93FC
:103B0000CF93DF938FEF8AB90E94FD0D6AE070E0DA
:103B100080E090E00E94A63B00E010E077247A94D9
:103B20008091120290911302081719070CF05AC0E5
:103B3000402F440F60E070EE80E090E00E940709A3
:103B4000C12CD12C7601D701C6019770AA27BB27BB
:103B5000892B8A2B8B2B19F48EB180588EB9C5EC2A
:103B6000D3E04601570186E296E00E94293E888311
:103B70004AEA65E575E580E090E00E94FD0745E5CD
:103B80006AEA7AE280E090E00E94FD0740EA65E59B
:103B900075E580E090E00E94FD074881C501B40111
:103BA0000E94FD071AB87498999189B1892787FDF9
:103BB000FCCF749A7AB88FEF881A980AA80AB80AC4
:103BC00085E0C53CD80779F682E0D80EE11CF11CEF
:103BD000C11480E8D806E104F10409F0B4CF0F5F06
:103BE0001F4F9ECF7798DF91CF911F910F91FF903C
:103BF000EF90DF90CF90BF90AF909F908F907F908D
:103C000008959F92AF92BF92CF92DF92EF92FF9270
:103C10000F931F93CF93DF930E94630710E00FEF82
:103C200099249A949AB8C12CD12C7601D701C60157
:103C30009770AA27BB27892B8A2B8B2B19F48EB15F
:103C400080588EB9C5ECD3E0C601855C93405C0119
:103C500042E060E070EA80E090E00E94070986E2BE
:103C600096E00E94293E88836AEA85E595E10E94F4
:103C7000460865E58AEA9AE00E94460860EA85E51A
:103C800095E10E944608412F60E070EA80E090E0F4
:103C90000E9407096881C5018C0F9D1F0E9446087C
:103CA0001AB88D987298999189B1892787FDFCCFB0
:103CB000729A8D9A0AB995E0C53CD90749F682E017
:103CC000D80EE11CF11CC11490E1D906E104F10405
:103CD00009F0ACCF1F5F103209F0A4CF7798DF91C5
:103CE000CF911F910F91FF90EF90DF90CF90BF90F9
:103CF000AF909F9008954F925F926F927F928F92B4
:103D00009F92AF92BF92CF92DF92EF92FF920F936A
:103D10001F93CF93DF930E9467078FEF8AB90E94AA
:103D2000FD0D6AE070E080E090E00E94A63BC0E0FC
:103D3000D0E08CE3982E88248A948091120290918E
:103D40001302C817D9070CF06DC046E060E070E8B8
:103D500080E090E00E946A084C2F61E070E880E00B
:103D600090E00E946A0840E060E070E880E090E047
:103D70000E946A08C12CD12C7601D701C601977028
:103D8000AA27BB27892B8A2B8B2B19F48EB180583D
:103D90008EB905EC13E02601370186E296E00E9419
:103DA000293E5801F80181938F014AEA65E575E5DE
:103DB00080E090E00E94FD0745E56AEA7AE280E053
:103DC00090E00E94FD0740EA65E575E580E090E03F
:103DD0000E94FD07F5014081C301B2010E94FD0769
:103DE000892D81500000E9F78AB840E060E070E872
:103DF00080E090E00E946A08FFEF4F1A5F0A6F0AA6
:103E00007F0A85E0053C180741F6E2E0DE0EE11C82
:103E1000F11CC114F0E2DF06E104F10409F0ADCFBA
:103E200021968BCF7798DF91CF911F910F91FF90C3
:103E3000EF90DF90CF90BF90AF909F908F907F904A
:103E40006F905F904F9008957F928F929F92AF9264
:103E5000BF92CF92DF92EF92FF920F931F93CF9377
:103E6000DF930E9467078FEF8AB90E94FD0D6AE019
:103E700070E080E090E00E94A63B00E010E0772434
:103E80007A948091120290911302081719070CF08E
:103E90006EC046E060E070E880E090E00E946A0852
:103EA000402F61E070E880E090E00E946A0840E006
:103EB00060E070E880E090E00E946A08C12CD12C9C
:103EC0007601D701C6019770AA27BB27892B8A2BB9
:103ED0008B2B19F48EB180588EB9C5ECD3E0460116
:103EE000570186E296E00E94293E88834AEA6AEA00
:103EF0007AE080E090E00E94FD0745E565E575E029
:103F000080E090E00E94FD0740EA6AEA7AE080E003
:103F100090E00E94FD074881C501B4010E94FD07A1
:103F20001AB87498999189B1892787FDFCCF749A42
:103F30007AB840E060E070E880E090E00E946A08B3
:103F40008FEF881A980AA80AB80A85E0C53CD807F6
:103F500041F682E0D80EE11CF11CC11480E2D806C3
:103F6000E104F10409F0ADCF0F5F1F4F8ACF7798BE
:103F7000DF91CF911F910F91FF90EF90DF90CF9045
:103F8000BF90AF909F908F907F9008958F929F9257
:103F9000AF92BF92CF92DF92EF92FF920F931F9357
:103FA000CF93DF930E946307C0E0DFEF40E060E063
:103FB00070E880E090E00E946A084C2F440F61E0B6
:103FC00070E880E090E00E946A0841E060E070E8FC
:103FD00080E090E00E946A0841E04C0F440F61E0ED
:103FE00070E880E090E00E946A08DAB9C12CD12C18
:103FF0007601D701C6019770AA27BB27892B8A2B88
:104000008B2B19F48EB180588EB905EC13E0460164
:10401000570186E296E00E94293EF80180834AEA31
:1040200065E575E180E090E00E949F0745E56AEA5A
:104030007AE180E090E00E949F0740EA65E575E143
:1040400080E090E00E949F07F8014081C501B40123
:104050000E949F071AB88D987298F80191918F016C
:1040600089B1892787FDFCCF729A8D9ADAB9FFEF63
:104070008F1A9F0AAF0ABF0A85E0053C180749F668
:10408000E2E0DE0EE11CF11CC114F0E1DF06E10408
:10409000F10409F0AECFCE5FC03809F087CF779832
:1040A000DF91CF911F910F91FF90EF90DF90CF9014
:1040B000BF90AF909F908F9008957F928F929F9224
:1040C000AF92BF92CF92DF92EF92FF920F931F9326
:1040D000CF93DF930E9467078FEF8AB90E94FD0D8F
:1040E0006AE070E080E090E00E94A63B00E010E013
:1040F00077247A948091120290911302081719077D
:104100000CF05BC0402F60E070EA80E090E00E941D
:10411000FD07C12CD12C7601D701C6019770AA27C3
:10412000BB27892B8A2B8B2B19F48EB180588EB923
:10413000C5ECD3E04601570186E296E00E94293E95
:10414000888375984AEA65E575E580E090E00E940D
:10415000FD0745E56AEA7AE280E090E00E94FD070B
:1041600040EA65E575E580E090E00E94FD07759AFC
:104170004881C501B4010E94FD071AB8749899914D
:1041800089B1892787FDFCCF749A7AB88FEF881A96
:10419000980AA80AB80A85E0C53CD80769F682E003
:1041A000D80EE11CF11CC11480E2D806E104F10430
:1041B00009F0B2CF0F5F1F4F9DCF7798DF91CF915E
:1041C0001F910F91FF90EF90DF90CF90BF90AF9035
:1041D0009F908F907F9008957F928F929F92AF9241
:1041E000BF92CF92DF92EF92FF920F931F93CF93E4
:1041F000DF930E9467078FEF8AB90E94FD0D6AE086
:1042000070E080E090E00E94A63B00E010E07724A0
:104210007A948091120290911302081719070CF0FA
:104220005BC0402F60E070EA80E090E00E94FD07F4
:10423000C12CD12C7601D701C6019770AA27BB27C4
:10424000892B8A2B8B2B19F48EB180588EB9C5EC33
:10425000D3E04601570186E296E00E94293E88831A
:1042600075984AEA65E575E580E090E00E94FD07F3
:1042700045E56AEA7AE280E090E00E94FD0740EAC4
:1042800065E575E580E090E00E94FD07759A48813C
:10429000C501B4010E94FD071AB87498999189B1BB
:1042A000892787FDFCCF749A7AB88FEF881A980A0D
:1042B000A80AB80A85E0C53CD80769F682E0D80E9E
:1042C000E11CF11CC11480E4D806E104F10409F0FA
:1042D000B2CF0F5F1F4F9DCF7798DF91CF911F9186
:1042E0000F91FF90EF90DF90CF90BF90AF909F9095
:1042F0008F907F9008959F92AF92BF92CF92DF925E
:10430000EF92FF920F931F93CF93DF93759A10E074
:104310000FEF99249A949AB8C12CD12C7601D70129
:10432000C6019770AA27BB27892B8A2B8B2B19F4E0
:104330008EB180588EB9C5ECD3E0C601855C934040
:104340005C0186E296E00E94293E888342E060E0BC
:1043500070EB80E090E00E94FD0742E060E070ECCE
:1043600080E090E00E94FD076AEA85E595E10E9401
:10437000460865E58AEA9AE00E94460860EA85E513
:1043800095E10E944608412F60E070EB80E090E0EC
:104390000E94FD07412F60E070EC80E090E00E94F9
:1043A000FD076881C5018C0F9D1F0E9446081AB841
:1043B0008D987298999189B1892787FDFCCF729A5F
:1043C0008D9A0AB995E0C53CD90709F0BACF82E0C9
:1043D000D80EE11CF11CC11490E1D906E104F104EE
:1043E00009F09DCF1F5F103209F095CF759A77982D
:1043F000DF91CF911F910F91FF90EF90DF90CF90C1
:10440000BF90AF909F900895779A0E9467078FEFB3
:104410008AB90E946C060E94250E0E94510E0E94CD
:104420007D0E0E94A90E86E296E00E94293E8093AE
:10443000C50360910E0270910F028091100290915D
:1044400011024AEA0E94FD0760910A0270910B0274
:1044500080910C0290910D0245E50E94FD0760914C
:104460000E0270910F02809110029091110240EAA9
:104470000E94FD0760910602709107028091080278
:1044800090910902409102020E94FD076091C505CA
:104490007091C6058091C7059091C8054091C503EC
:1044A0000E94FD071AB874989091C50389B18927B5
:1044B00087FDFCCF749A8FEF8AB9779808958F9211
:1044C0009F92AF92BF92CF92DF92EF92FF92CF93E3
:1044D000DF9340E060E070EE80E090E00E9407092A
:1044E00042E060E070EA80E090E00E94070945E069
:1044F00060E070EC80E090E00E9407096AE070E004
:1045000080E090E00E94A63B8FEF8AB9C12C80E644
:10451000D82EE12CF12C779AC5ECD3E04601570157
:1045200086E296E00E94293E8993482FC501B40196
:104530000E942C088FEF881A980AA80AB80A85E00A
:10454000C53CD80769F782E0D80EE11CF11CC11404
:1045500080E8D806E104F104F1F6779840E160E0E4
:1045600070EE80E090E00E94070942E160E070EAAE
:1045700080E090E00E94070945E160E070EC80E097
:1045800090E0DF91CF91FF90EF90DF90CF90BF90C0
:10459000AF909F908F900C9407098F929F92AF924B
:1045A000BF92CF92DF92EF92FF92CF93DF9340E8DA
:1045B00061E070EA80E090E00E946A086AE070E0E2
:1045C00080E090E00E94A63B8FEF8AB9C12C80E684
:1045D000D82EE12CF12C779AC5ECD3E04601570197
:1045E00086E296E00E94293E8993482FC501B401D6
:1045F0000E942C088FEF881A980AA80AB80A85E04A
:10460000C53CD80769F782E0D80EE11CF11CC11443
:1046100080E8D806E104F104F1F6779840E461E01F
:1046200070EA80E090E0DF91CF91FF90EF90DF9013
:10463000CF90BF90AF909F908F900C946A088F920C
:104640009F92AF92BF92CF92DF92EF92FF92CF9361
:10465000DF930E946C066AE070E080E090E00E94C8
:10466000A63B0E94250E6AE070E080E090E00E9488
:10467000A63B8FEF8AB9C090C505D090C605E090E3
:10468000C705F090C80580910E0290910F02A0918D
:104690001002B0911102C816D906EA06FB06E8F42A
:1046A000779AC5ECD3E04601570186E296E00E9476
:1046B000293E8993482FC501B4010E942C088FEF31
:1046C000881A980AA80AB80A85E0C53CD80769F78D
:1046D00082E0D80EE11CF11CD6CF7798DF91CF9104
:1046E000FF90EF90DF90CF90BF90AF909F908F9012
:1046F00008952F923F924F925F926F927F928F9286
:104700009F92AF92BF92CF92DF92EF92FF920F9360
:104710001F93CF93DF93CDB7DEB728970FB6F894EA
:10472000DEBF0FBECDBF0E94C0186AE070E080E01F
:1047300090E00E94A63B0E946C066AE070E080E078
:1047400090E00E94A63B0E94FB066AE070E080E0D9
:1047500090E00E94A63B8090C5059090C605A09071
:10476000C705B090C805B694A794979487944091D4
:10477000C5055091C6056091C7057091C805809127
:10478000C9059091CA05A091CB05B091CC05840FC5
:10479000951FA61FB71FB695A7959795879588165D
:1047A0009906AA06BB0608F0B8C08EB180588EB92B
:1047B000412C512C320118861F82D501C401840D71
:1047C000951DA61DB71D8B839C83AD83BE834AEACE
:1047D00050E065E575E080E090E00E94F10E45E56F
:1047E00050E06AEA72E080E090E00E94F10EAF8152
:1047F000B8856D01BB0FEE08FF088B819C81AD81F0
:10480000BE81C80ED91EEA1EFB1E45E250E0C7015C
:10481000B6010E94F10E4091C00350E04150510991
:10482000C701B6010E94F10E312C6091C00336160B
:10483000E8F486E296E00E94293E182F8093C50393
:1048400086E296E00E94293E8093C6031A8319826D
:1048500009811A81082BC701B601630D711D811DE5
:10486000911DA8010E94F10E3394DFCF70E06150DA
:104870007109CB01770FAA0BBB0BBC01CD016C0DED
:104880007D1D8E1D9F1D49E250E00E94F10E60913A
:10489000C00370E061507109CB01770FAA0BBB0B0D
:1048A000BC01CD016C0D7D1D8E1D9F1D0E941D0F35
:1048B0001801AFE72A2A33243A948F679F6F6091DB
:1048C000C0038215930581F070E061507109CB013E
:1048D000770FAA0BBB0BBC01CD016C0D7D1D8E1D8E
:1048E0009F1D0E941D0FE9CF8F819885860F911D16
:1048F00098878F83811590420CF469CFB0E25B0EEC
:10490000611C711C4114510421E06206710409F01C
:1049100052CF8FEFA81AB80A2ACF779828960FB6E9
:10492000F894DEBF0FBECDBFDF91CF911F910F91E5
:10493000FF90EF90DF90CF90BF90AF909F908F90BF
:104940007F906F905F904F903F902F9008956F925F
:104950007F928F929F92AF92BF92CF92DF92EF920F
:10496000FF920F931F93CF93DF93812C912C5401CF
:104970008EB180588EB97501640100E210E086E2C4
:1049800096E00E94293EC82F8093C50386E296E0F8
:104990000E94293E8093C6037C2E612CE301C82B24
:1049A0004AEA50E065E575E080E090E00E94F10E93
:1049B00045E550E06AEA72E080E090E00E94F10E86
:1049C00040EA50E065E575E080E090E00E94F10E7D
:1049D000AE01C701B6010E94F10EC701B6010E94E7
:1049E0001D0FCF67DF6F8F679F6F8C179D0729F0B3
:1049F000C701B6010E941D0FF6CF015011098FEFBC
:104A0000C81AD80AE80AF80A0115110509F0B7CF43
:104A100080E2880E911CA11CB11C8114910480E1DC
:104A2000A806B10409F0A4CF7798DF91CF911F9128
:104A30000F91FF90EF90DF90CF90BF90AF909F903D
:104A40008F907F906F9008958F929F92AF92BF92B8
:104A5000CF92DF92EF92FF921F93CF93DF930E944A
:104A60006C066AE070E080E090E00E94A63B0E9445
:104A7000FB066AE070E080E090E00E94A63B8FEFCA
:104A800087B9C090C505D090C605E090C705F090E5
:104A9000C8051FEF4091C5055091C6056091C70537
:104AA0007091C8058091C9059091CA05A091CB0568
:104AB000B091CC05840F951FA61FB71FC816D90645
:104AC000EA06FB0608F046C0D701C6019F70AA2778
:104AD000BB27892B8A2B8B2B19F48EB180588EB96A
:104AE000C5ECD3E04601570186E296E00E94293EDC
:104AF00088834AEA6AEA7AE080E090E00E94F21451
:104B000045E565E575E080E090E00E94F21440EA3A
:104B10006AEA7AE080E090E00E94F2144881C501E0
:104B2000B4010E94F21417B81198999186B189279F
:104B300087FDFCCF119A17B98FEF881A980AA80A37
:104B4000B80A85E0C53CD80779F682E0D80EE11CAA
:104B5000F11CA0CF17B87798DF91CF911F91FF90EC
:104B6000EF90DF90CF90BF90AF909F908F9008957F
:104B70008F929F92AF92BF92CF92DF92EF92FF926D
:104B8000CF93DF930E946C066AE070E080E090E0D3
:104B90000E94A63B0E94250E6AE070E080E090E053
:104BA0000E94A63B8FEF87B9C090C505D090C6057F
:104BB000E090C705F090C80580910E0290910F0219
:104BC000A0911002B0911102C816D906EA06FB06A0
:104BD000E8F4779AC5ECD3E04601570186E296E007
:104BE0000E94293E8993482FC501B4010E94F21406
:104BF0008FEF881A980AA80AB80A85E0C53CD8073A
:104C000069F782E0D80EE11CF11CD6CF7798DF91CE
:104C1000CF91FF90EF90DF90CF90BF90AF909F909B
:104C20008F9008958F929F92AF92BF92CF92DF9212
:104C3000EF92FF92CF93DF930E946C06C090C50560
:104C4000D090C605E090C705F090C8058091C505D5
:104C50009091C605A091C705B091C8059E5FAF4F62
:104C6000BF4FC816D906EA06FB0620F58EB180585C
:104C70008EB9C5ECD3E046015701C501B4010E94CD
:104C800060028883998382E0880E911CA11CB11C6C
:104C9000229685E0C53CD80781F740E052E065ECFC
:104CA00073E086E296E00E946B3E82E0D80EE11C43
:104CB000F11CCCCF7798DF91CF91FF90EF90DF90F0
:104CC000CF90BF90AF909F908F9008958F929F92BA
:104CD000AF92BF92CF92DF92EF92FF92CF93DF938A
:104CE0000E946C06C090C505D090C605E090C7052F
:104CF000F090C8058091C5059091C605A091C705A3
:104D0000B091C8059E5FAF4FBF4FC816D906EA06DF
:104D1000FB06F8F4C5ECD3E046015701C501B40128
:104D20000E94AC0289938FEF881A980AA80AB80AE1
:104D300085E0C53CD80791F740E052E065EC73E0B0
:104D400086E296E00E946B3E82E0D80EE11CF11CE8
:104D5000D1CF7798DF91CF91FF90EF90DF90CF90F8
:104D6000BF90AF909F908F900895CF92DF92EF9277
:104D7000FF920F931F93CF93DF930E946C066AE01C
:104D800070E080E090E00E94A63B0E94FB066AE093
:104D900070E080E090E00E94A63BC090C905D090F2
:104DA000CA05E090CB05F090CC058FEF81B98091DA
:104DB000BC039091BD03059724F06C2D80E091E237
:104DC00013C060E080E090E60E946E03B60185E0CB
:104DD000769567958A95E1F780E090E40E946E03EE
:104DE0006C2D6F7180E090E20E946E0311B8C0904C
:104DF000C505D090C605E090C705F090C805809124
:104E0000C5059091C605A091C705B091C8059E5FE4
:104E1000AF4FBF4FC816D906EA06FB06F8F48EB1AD
:104E200080588EB9C5ECD3E08601055C1340C801FB
:104E30008C0F9D1F0E945803899385E0C53CD807BD
:104E4000B1F740E052E065EC73E086E296E00E9444
:104E50006B3E82E0D80EE11CF11CD1CF7798DF9138
:104E6000CF911F910F91FF90EF90DF90CF90089519
:104E70006F927F928F929F92AF92BF92CF92DF926A
:104E8000EF92FF920F931F93CF93DF93CDB7DEB7CF
:104E9000C054D1090FB6F894DEBF0FBECDBF11B814
:104EA00084E391E00E9458038FEF81B98091BC03A5
:104EB0009091BD0305972CF461E080E090E60E949C
:104EC0006E036AE080E090E00E946E0310E00FEF56
:104ED000CE0101966C015E0191E4A90EB11C812FF7
:104EE00090E02091B1033091B2038217930784F5CB
:104EF0008EB180588EB901B9612F80E090E40E9494
:104F00006E0311B8E12C80EAF82E8091AD039091E8
:104F1000AE038E159F05D0F0360147018C189D0811
:104F2000C401860D971D0E945803F30181933F0130
:104F3000EA15FB05A9F740E450E0B60186E296E0E9
:104F40000E946B3EF0E4EF0EF11CDFCF1F5FC7CF76
:104F50008FEF81B960E080E090E00E946E0311B8AD
:104F60007798C05CDF4F0FB6F894DEBF0FBECDBFA1
:104F7000DF91CF911F910F91FF90EF90DF90CF9035
:104F8000BF90AF909F908F907F906F900895CF9239
:104F9000DF92EF92FF92CF93DF930E946C06C09056
:104FA0000101D0900201E0900301F0900401809192
:104FB000C5059091C605A091C705B091C805C80E5A
:104FC000D91EEA1EFB1E4091010150910201609121
:104FD0000301709104018091C5059091C605A091CF
:104FE000C705B091C805840F951FA61FB71F9E5F08
:104FF000AF4FBF4FC816D906EA06FB06E8F4779A0A
:10500000C701B6010E94580FC5ECD3E00E949B0572
:1050100098838983229685E0C53CD807B9F740E09C
:1050200052E065EC73E086E296E00E946B3E82E01F
:10503000D80EE11CF11CC7CF7798DF91CF91FF907C
:10504000EF90DF90CF900895CF92DF92EF92FF9292
:105050000F931F93CF93C0E04C2F50E060E070E0BF
:1050600080915B0390915C03A0915D03B0915E031E
:1050700026E0B695A795979587952A95D1F7481775
:1050800059076A077B0760F5F89480E4C89F6001C0
:10509000112485ECE82E83E0F82E00E010E0C60134
:1050A000800F911F0E94A805E9E1F2E0D7018191EC
:1050B0008D9382E0E132F807D1F70F5F1F4F88E050
:1050C000E80EF11C0034110551F7789440E052E0ED
:1050D00065EC73E086E296E00E946B3ECF5FBCCF4A
:1050E000CF911F910F91FF90EF90DF90CF90089597
:1050F000CF92DF92EF92FF920F931F93CF93DF93A4
:1051000010E000E0402F50E060E070E080915B0331
:1051100090915C03A0915D03B0915E0326E0B6958B
:10512000A795979587952A95D1F7481759076A0744
:105130007B0708F065C0F894F12EC0E0D0E084E071
:105140000E9418068F2D0E9418060E9439060E94A0
:1051500041060E943906EFE5F3E0E12CAE014B5326
:105160005C4F8E2D869586958695DA01A80FB11D28
:10517000808160E8869F90011124918160E4969F70
:10518000C0011124822B2781822B928120E2929FE1
:1051900060011124282F2C29938130E1939FB001C5
:1051A0001124822F862B948168E0969F9001112410
:1051B000282B958134E0939FC0011124822B968186
:1051C000990F892B8C9368E0E60E389680E4E812FC
:1051D000C8CF8CE291E00E940806F3942896C1158E
:1051E00092E0D90709F0ABCF789440E052E065EC4B
:1051F00073E086E296E00E946B3E0F5F105C82CF08
:10520000DF91CF911F910F91FF90EF90DF90CF90A2
:105210000895CF92DF92EF92FF92CF93DF930E9497
:105220006C06C090A903D090AA03E090AB03F09065
:10523000AC038091C5059091C605A091C705B091BA
:10524000C805C80ED91EEA1EFB1E4091A903509145
:10525000AA036091AB037091AC038091C505909156
:10526000C605A091C705B091C805840F951FA61F5C
:10527000B71F9E5FAF4FBF4FC816D906EA06FB06A1
:10528000E0F4C701B6010E94580FC5ECD3E00E94BC
:105290009B0598838983229685E0C53CD807B9F79A
:1052A00040E052E065EC73E086E296E00E946B3EDF
:1052B00082E0D80EE11CF11CC8CFDF91CF91FF90A6
:1052C000EF90DF90CF900895CF92DF92EF92FF9210
:1052D000CF93DF930E946C0660E070E080E090EF77
:1052E0000E94DB10779AC090A903D090AA03E090A7
:1052F000AB03F090AC038091C5059091C605A091D9
:10530000C705B091C805C80ED91EEA1EFB1E409104
:10531000A9035091AA036091AB037091AC038091F3
:10532000C5059091C605A091C705B091C805840F29
:10533000951FA61FB71F805C9F4FAF4FBF4FC8166A
:10534000D906EA06FB06E8F4C701B6010E94580F29
:10535000C5ECD3E00E949B0598838983229684E064
:10536000C534D807B9F740E850E065EC73E086E251
:1053700096E00E946B3E80E4C80ED11CE11CF11C3B
:10538000C6CF7798DF91CF91FF90EF90DF90CF90CD
:1053900008958F929F92AF92BF92CF92DF92EF9239
:1053A000FF92CF93DF930E946C061AB80E946707A2
:1053B000C090C505D090C605E090C705F090C8051F
:1053C0008091C5059091C605A091C705B091C8050B
:1053D0009E5FAF4FBF4FC816D906EA06FB0600F521
:1053E000779AC5ECD3E046015701C501B4010E948C
:1053F000860789938FEF881A980AA80AB80A85E069
:10540000C53CD80791F740E052E065EC73E086E2D6
:1054100096E00E946B3E82E0D80EE11CF11CD0CFDA
:105420007798DF91CF91FF90EF90DF90CF90BF9072
:10543000AF909F908F900895CF92DF92EF92FF925E
:105440000F931F93CF93DF930E946C060E94D50D9C
:105450008091CD059091CE050E9448098091CD059F
:105460009091CE050E9448098091CD059091CE057E
:105470000E9448090E9463071AB8C090C505D090E1
:10548000C605E090C705F090C8058091C5059091CC
:10549000C605A091C705B091C8059E5FAF4FBF4F2D
:1054A000C816D906EA06FB06E8F4779AC5ECD3E0FD
:1054B0008601055C1340C8018C0F9D1F0E94540893
:1054C000899385E0C53CD807B1F740E052E065EC30
:1054D00073E086E296E00E946B3E82E0D80EE11C0B
:1054E000F11CD3CF7798DF91CF911F910F91FF904F
:1054F000EF90DF90CF9008958F929F92AF92BF92DE
:10550000CF92DF92EF92FF92CF93DF930E946C06CF
:105510001AB8C090C505D090C605E090C705F090B8
:10552000C8058091C5059091C605A091C705B091A9
:10553000C8059E5FAF4FBF4FC816D906EA06FB06E7
:1055400000F5779AC5ECD3E046015701C501B401D7
:105550000E94860789938FEF881A980AA80AB80ACA
:1055600085E0C53CD80791F740E052E065EC73E078
:1055700086E296E00E946B3E82E0D80EE11CF11CB0
:10558000D0CF7798DF91CF91FF90EF90DF90CF90C1
:10559000BF90AF909F908F900895CF92DF92EF923F
:1055A000FF920F931F93CF93DF930E946C061AB85C
:1055B000C090C505D090C605E090C705F090C8051D
:1055C0008091C5059091C605A091C705B091C80509
:1055D0009E5FAF4FBF4FC816D906EA06FB06E8F438
:1055E000779AC5ECD3E08601055C1340C8018C0FA7
:1055F0009D1F0E945408899385E0C53CD807B1F7E8
:1056000040E052E065EC73E086E296E00E946B3E7B
:1056100082E0D80EE11CF11CD3CF7798DF91CF91B7
:105620001F910F91FF90EF90DF90CF9008958F9290
:105630009F92AF92BF92CF92DF92EF92FF92CF9361
:10564000DF930E946C060E94D50D8091CD0590914C
:10565000CE050E9448098091CD059091CE050E940B
:1056600048098091CD059091CE050E9448091AB84D
:10567000C090C505D090C605E090C705F090C8055C
:105680008091C5059091C605A091C705B091C80548
:105690009E5FAF4FBF4FC816D906EA06FB0600F55E
:1056A000779AC5ECD3E046015701C501B4010E94C9
:1056B000860789938FEF881A980AA80AB80A85E0A6
:1056C000C53CD80791F740E052E065EC73E086E214
:1056D00096E00E946B3E82E0D80EE11CF11CD0CF18
:1056E0007798DF91CF91FF90EF90DF90CF90BF90B0
:1056F000AF909F908F9008958F929F92AF92BF929C
:10570000CF92DF92EF92FF92CF93DF930E946C06CD
:105710000E94D50D4091CD05440F60E070EE80E011
:1057200090E00E9407091AB8C090C505D090C60540
:10573000E090C705F090C8058091C5059091C60519
:10574000A091C705B091C8059E5FAF4FBF4FC81667
:10575000D906EA06FB0600F5779AC5ECD3E04601C8
:105760005701C501B4010E94860789938FEF881AFB
:10577000980AA80AB80A85E0C53CD80791F740E026
:1057800052E065EC73E086E296E00E946B3E82E0B8
:10579000D80EE11CF11CD0CF7798DF91CF91FF900C
:1057A000EF90DF90CF90BF90AF909F908F90089533
:1057B0008F929F92AF92BF92CF92DF92EF92FF9221
:1057C000CF93DF930E946C060E94D50D4091CD05CA
:1057D00060E070EA80E090E00E9407090E946307A1
:1057E0001AB8C090C505D090C605E090C705F090E6
:1057F000C8058091C5059091C605A091C705B091D7
:10580000C8059E5FAF4FBF4FC816D906EA06FB0614
:1058100000F5779AC5ECD3E046015701C501B40104
:105820000E94BB0789938FEF881A980AA80AB80AC2
:1058300085E0C53CD80791F740E052E065EC73E0A5
:1058400086E296E00E946B3E82E0D80EE11CF11CDD
:10585000D0CF7798DF91CF91FF90EF90DF90CF90EE
:10586000BF90AF909F908F9008958F929F92AF922C
:10587000BF92CF92DF92EF92FF92CF93DF930E947D
:105880006C060E94D50D46E060E070E880E090E094
:105890000E946A084091CD0561E070E880E090E0E8
:1058A0000E946A0840E060E070E880E090E00E94BA
:1058B0006A081AB8C090C505D090C605E090C70523
:1058C000F090C8058091C5059091C605A091C705C7
:1058D000B091C8059E5FAF4FBF4FC816D906EA0604
:1058E000FB0600F5779AC5ECD3E046015701C501E8
:1058F000B4010E94860789938FEF881A980AA80A34
:10590000B80A85E0C53CD80791F740E052E065EC65
:1059100073E086E296E00E946B3E82E0D80EE11CC6
:10592000F11CD0CF7798DF91CF91FF90EF90DF906F
:10593000CF90BF90AF909F908F9008958F929F923D
:10594000AF92BF92CF92DF92EF92FF92CF93DF930D
:105950000E946C060E94D50D40E060E070E880E097
:1059600090E00E946A084091CD05440F61E070E824
:1059700080E090E00E946A0841E060E070E880E02A
:1059800090E00E946A084091CD054F5F440F61E0AE
:1059900070E880E090E00E946A080E9463071AB8ED
:1059A000C090C505D090C605E090C705F090C80529
:1059B0008091C5059091C605A091C705B091C80515
:1059C0009E5FAF4FBF4FC816D906EA06FB0600F52B
:1059D000779AC5ECD3E046015701C501B4010E9496
:1059E000BB0789938FEF881A980AA80AB80A85E03E
:1059F000C53CD80791F740E052E065EC73E086E2E1
:105A000096E00E946B3E82E0D80EE11CF11CD0CFE4
:105A10007798DF91CF91FF90EF90DF90CF90BF907C
:105A2000AF909F908F9008958F929F92AF92BF9268
:105A3000CF92DF92EF92FF92CF93DF930E946C069A
:105A400040E060E070EE80E090E00E94070942E0F4
:105A500060E070EA80E090E00E94070945E060E0C5
:105A600070EC80E090E00E9407091AB8C090C5056C
:105A7000D090C605E090C705F090C80580E6D80E26
:105A8000E11CF11C8091C5059091C605A091C70548
:105A9000B091C8059E59AF4FBF4FC816D906EA0648
:105AA000FB0600F5779AC5ECD3E046015701C50126
:105AB000B4010E94E10789938FEF881A980AA80A17
:105AC000B80A85E0C53CD80791F740E052E065ECA4
:105AD00073E086E296E00E946B3E82E0D80EE11C05
