:1000000000C2000028C2000026C2000024C2000076
:1000100022C2000020C200001EC200001CC200005C
:100020001AC200000C94E6460C94DA4D0C94574E1C
:1000300012C2000010C200000EC200000CC200007C
:100040000AC2000008C2000006C2000004C200008C
:1000500002C2000000C20000FEC100000C94374D37
:10006000FAC10000F8C10000F6C10000F4C10000B0
:10007000F2C10000F0C10000EEC10000ECC10000C0
:10008000EAC10000E8C10000E6C10000E4C10000D0
:10009000E2C10000E0C10000DE4108429145184283
:1000A0001642124210421442F941FB410142F04112
:1000B00081429145F741F8411A429842B1422842A3
:1000C0003242914591459145B9426C4224422642C3
:1000D0004F429145CB42CD422043224329433143F5
:1000E000324339433B433D433F43474348435043F7
:1000F0009145914591459145F344F5440D4505459C
:10010000FC4421450E451045124513451F45294520
:10011000314539453A4591455843624371437943E6
:10012000814388439F43A943B843C243D143DB4340
:10013000E343EB43F443FC435E4304443A443C440E
:10014000404447444F44614463446544914591456C
:1001500091459145914591450B440F441B442244E0
:100160001344174429442B442D442F443144334431
:1001700035443644374439446F44714479448144AA
:1001800083448B448C449444A544AF44B944C24452
:10019000CC44D444DC44E444ED44EF44F144914580
:1001A000914591459145914591459145914591459F
:1001B00091459145914591453C453E4545454D45C7
:1001C0004F455145534555455745914591459145B5
:1001D00091459145914591455F4566456D456F4512
:1001E000714573459145914591459145914591459D
:1001F0009145914591459145CF42D242D542D64253
:10020000E642E842FD4205430F431143184391453E
:100210009145914591459145754577457E45854583
:10022000864588458F4500C2010001000500050094
:10023000030000E1000001000F000F000D00009618
:100240000000020019001A001700127A00000700CF
:10025000200021001D00807000000B0023002300FF
:100260002000004B000014003700370034004038F5
:1002700000001E004B004B004800802500003200AB
:10028000720072007000C01200006E00E900E90008
:10029000E60060090000E500D801D801D501B004EE
:1002A0000000D301B403B403B10358020000B40347
:1002B0006707670762072C0100006707DD0EDD0E88
:1002C000DA0E0129022904290829102920294029A8
:1002D0008029012C022C012602260426082610263D
:1002E000202640268026402C802C01230223042334
:1002F00008231023202340238023012002200420F0
:1003000008201020202040208020102C202C012F9D
:10031000022F042F082F102F202F402F802F7EFE1A
:100320007EFD7EFB7EF77EEF7EDF7EBF7E7F00015F
:100330000000DF0312000200009C034300030000E2
:10034000980304010309047E0318020309046603E9
:10035000160303090458030C0C0331003200330068
:100360003400350000001603550053004200200001
:10037000530065007200690061006C000000180302
:100380005400650065006E0073007900640075001C
:1003900069006E006F0000000403090409024300B5
:1003A000020100C03209040000010202010005241C
:1003B00000100105240100010424020605240600A2
:1003C000010705820308004009040100020A000039
:1003D00000070503024000000705840240000012E8
:1003E00001000202000020C0168304720201020311
:1003F000010001C10201803601813600691A3452C0
:100400007E1A11241FBECFEFD0E2DEBFCDBF11E0B8
:10041000A0E0B1E0E0EDFBEA00E00BBF02C0079016
:100420000D92A03CB107D9F726E0A0ECB1E001C0E5
:100430001D92A634B207E1F711E0C0E0D2E004C09B
:100440002197FE010E949952CE3FD107C9F70E9421
:10045000F4490C94DC55D4CDFB0101900020E9F760
:100460003197AF01461B570BDC01ED91FC910280E7
:10047000F381E02D09940F931F93CF93DF93EC0149
:10048000EBDF8C01CE010E943648800F911FDF9177
:10049000CF911F910F910895CF93DF931F92CDB706
:1004A000DEB76983DC01ED91FC910280F381E02DE0
:1004B00041E050E0BE016F5F7F4F09950F90DF91E3
:1004C000CF91089540E052EC61E070E08AE396E05D
:1004D0000E943C5181E885BF80E885BF11B814B8FF
:1004E00017B81AB81DB810BA8DB184688DB9729852
:1004F000779A68EC70E080E090E00E94774D779802
:1005000068EC70E080E090E00E94774D779A68ECAC
:1005100070E080E090E00E94774D779808958FEF2B
:1005200084B987B981B98DB18F608DB98EB18F6073
:100530008EB964EF71E080E090E00C94774D0F93FA
:100540001F932FEF24B927B921B9DC01CB01B69550
:10055000A7959795879585B9092F1A2F2B2F3327A4
:1005600008B9CD01AA27BB2782B9729815B818B867
:1005700014B817B87198000000000000000026B100
:1005800083B1719A729A90E0922B1F910F91089506
:100590000F931F932FEF24B927B921B9DC01CB01A9
:1005A000B695A7959795879585B9092F1A2F2B2F63
:1005B000332708B9CD01AA27BB2782B9729800005A
:1005C000000045B958B9709800000000709A729AFE
:1005D0001F910F9108952FEF24B927B911B865B96C
:1005E000BB27A92F982F872F88B97198739800007F
:1005F000000000000000000000000000000080B1CA
:10060000739A719A08952FEF24B927B921B965B962
:10061000BB27A92F982F872F88B942B90000000067
:1006200000000000000000000000000070987398B7
:1006300000000000000000000000000000000000BA
:1006400000000000739A709A000000000000000093
:10065000000000000000000008950F931F93CF9347
:10066000DF934AEA50E06AEA7AE080E090E090DFC7
:1006700045E550E065E575E080E090E089DF40E920
:1006800050E06AEA7AE080E090E082DF000000005B
:10069000000060E070E0CB0152DF082F62E070E004
:1006A00080E090E04CDF182F6CE170E080E090E09B
:1006B00046DFD82F6EE170E080E090E040DFC82F89
:1006C00068EE73E080E090E00E94774D602F8AE34F
:1006D00096E0E2DE612F8AE396E0DEDE6D2F8AE3AC
:1006E00096E0DADE6C2F8AE396E0D6DE40EF50E04B
:1006F0006AEA7AE080E090E04BDF00000000000052
:10070000DF91CF911F910F910895739A8FEF84B964
:1007100087B98DB18F608DB98EB187608EB9739AAC
:1007200011B860E971E080E090E00C94774D85B9F4
:1007300098B900000000000000008EB1897F8EB9DA
:10074000000000000000000080B19EB196609EB9DC
:100750000000000000000000089585B998B962B952
:100760000000000000000000709800000000000081
:100770000000709A0000000000000000089585B994
:1007800098B962B9729A00000000000000007298E7
:10079000000070980000000000000000709A000047
:1007A000729A0000000000000000089587E491E0C4
:1007B000BEDF90E09093D1038093D00388E491E072
:1007C000B6DF90E0A0E0B0E08093CC039093CD033F
:1007D000A093CE03B093CF0389E491E0A8DF90E02B
:1007E0009093D3038093D20322E030E03093C4038C
:1007F0002093C3034091CC035091CD036091CE036D
:100800007091CF03411551056105710549F002C092
:10081000220F331F4A95E2F73093C4032093C3039A
:100820001092C6031092C5036091D0037091D1035A
:100830006630710531F421E030E03093C603209337
:10084000C5038230910539F421E030E03093C603CE
:100850002093C50319C08330910519F424E030E0DA
:100860000BC08430910519F420E130E005C08530DB
:10087000910551F428E030E03093C6032093C5037E
:100880006630710591F403C06630710531F42FEFC5
:1008900031EA3093C2032093C1038130910519F4EA
:1008A0008FEF97EA04C0029734F08FEF9FEB90939D
:1008B000C2038093C1038AE396E0EEDD6091CC032E
:1008C0008AE396E0E9DD6091D2038AE396E0E4CD25
:1008D000FF920F931F93CF93DF93CFEFC1B960E0E7
:1008E00080E090E33ADF64E670E080E090E00E9410
:1008F000774D60E080E090E230DF64E670E080E019
:1009000090E00E94774D6AEA8AEA9AE026DF65E580
:1009100085E595E022DF60E98AEA9AE01EDF0000C3
:100920000000000011B880E090E001DFF82E82E0C6
:1009300090E0FDDE082F8CE190E0F9DE182F8EE1CB
:1009400090E0F5DED82F6F2D8AE396E0A5DD602FCD
:100950008AE396E0A1DD612F8AE396E09DDD6D2FAD
:100960008AE396E099DDC1B960EF85E595E0DF9116
:10097000CF911F910F91FF90F0CE8FEF81B960E082
:1009800080E090E3EADE64E670E080E090E00E94C0
:10099000774D60E080E090E2E0DE64E670E080E0C9
:1009A00090E00E94774D6AEA8AEA9AE0D6DE65E531
:1009B00085E595E0D2DE60E88AEA9AE0CEDE6AEA72
:1009C0008AEA9AE0CADE65E585E595E0C6DE60E183
:1009D0008AEA9AE0C2DE11B880E090E0A8DE87FDE6
:1009E0000AC08EB180588EB964EF71E080E090E06B
:1009F0000E94774DF1CF779808958FEF84B915B89D
:100A000087B918B881B1836081B981B1886181B932
:100A10000E9882B1836082B91398149A0D9A159A30
:100A20000A9880E090E0A0E0B8E08093BD03909346
:100A3000BE03A093BF03B093C0036CE271E080E0FB
:100A400090E00C94774DFC0128E00A9A808190E0B8
:100A5000880F892F881F990B892B09F425C0000066
:100A600000000000000000000A98000000000000E4
:100A70000000000000000000000000000000000076
:100A80000000000000000000000000000000000066
:100A90000000000000000000000000000000000056
:100AA00000000000000025C0000000000000000061
:100AB0000000000000000000000000000000000036
:100AC0000000000000000000000000000000000026
:100AD0000000000000000000000000000000000016
:100AE0000000000000000000000000000000000006
:100AF0000A98215069F0000000000000000000008A
:100B000000000000000000008081880F80839DCFDE
:100B1000615011F0319698CF089500000000000058
:100B200000000A9A00000000000000000000000021
:100B300000000000000000000000000000000000B5
:100B40000A9808959C01EEE6F2E08FE3029B03C051
:100B50008150E1F70895000000000000000000004F
:100B60000000000000000000000000000000000085
:100B70000000000000000000000000000000000075
:100B80000000000000000000000000000000000065
:100B9000000080B1847081932150310929F09FE3D6
:100BA0000299D3CF9150E1F708958FEF84B915B82A
:100BB00087B918B8089511980000000000000000DF
:100BC000000026B183B1119A000090E0922B0895A5
:100BD0000F931F93CF93DF93CDB7DEB72B970FB64D
:100BE000F894DEBF0FBECDBFF89494E09B878A8750
:100BF00061E0CE010B9627DF61E0CE010A9623DF8C
:100C00008CDF80E490E09EDF7894EEE6F2E080E016
:100C100090E061E070E02781298326812A83258185
:100C20002B8324812C8323812D8322812E83218178
:100C30002F8320812887DE01119620E030E040E0FC
:100C40005D91552339F08B01022E01C0000F0A94EB
:100C5000EAF7402B2F5F3F4F2830310589F7DC0141
:100C600023E0B695A7952A95E1F7A35DBD4F4C9378
:100C7000089638968034910571F62B960FB6F89445
:100C8000DEBF0FBECDBFDF91CF911F910F910895B1
:100C9000BC01660F771F20E030E040E226173707DF
:100CA00031F092B1942792B92F5F3F4FF7CF08955B
:100CB000CF93DF93D82FC8E00A9A8D2F90E0880F4A
:100CC000892F881F990B892B39F082E090E0E0DFB3
:100CD0000A9886E090E006C086E090E0D9DF0A98A6
:100CE00082E090E0D5DFDD0FC15031F7DF91CF9189
:100CF00008950A9A82E090E0CBDF0A9884E090E0C1
:100D0000C7CF0F931F93CF9303E713E0C0E4029B79
:100D100004C081E090E0BCDFFACF83E090E0B8DF70
:100D200080B182FB882780F9F80181938F010299B5
:100D300004C081E090E0ACDFFACFC15041F7CF9121
:100D40001F910F9108950D9A159A0A98779A80E548
:100D500093EC9EDF77980895CF93DF93CDB7DEB7FE
:100D600027970FB6F894DEBF0FBECDBF28E730E05F
:100D70004EE66AE376E0CE0101960E94F848CE0185
:100D800001960E94E9496093D9057093DA05809332
:100D9000DB059093DC05CE0101960E942E49279633
:100DA0000FB6F894DEBF0FBECDBFDF91CF9108958F
:100DB0008F929F92AF92BF92CF92DF92EF92FF926B
:100DC000CBDF6AE070E080E090E00E94774D809099
:100DD000D9059090DA05A090DB05B090DC0521E004
:100DE000821A9108A108B108C12CD12C7601C8142F
:100DF000D904EA04FB04B0F54AEA50E06AEA7AE072
:100E000080E090E0C5DB45E550E065E575E080E019
:100E100090E0BEDB40E850E06AEA7AE080E090E0F3
:100E2000B7DB4AEA50E06AEA7AE080E090E0B0DBC3
:100E300045E550E065E575E080E090E0A9DB40E342
:100E400050E0C701B601A4DBC701B60178DB8F67AC
:100E50009F6F0196C9F78EB180588EB982E0E80E77
:100E6000F11CC5CFFF90EF90DF90CF90BF90AF9077
:100E70009F908F900895CF93DF93CDB7DEB72797DC
:100E80000FB6F894DEBF0FBECDBF28E730E04EE6C8
:100E90006AE376E0CE0101960E94F848CE01019601
:100EA0000E94E9496093DD057093DE058093DF05BC
:100EB0009093E005CE0101960E942E4927960FB629
:100EC000F894DEBF0FBECDBFDF91CF910895CF93D1
:100ED000DF93CDB7DEB727970FB6F894DEBF0FBE0E
:100EE000CDBF28E730E04EE66AE376E0CE0101961A
:100EF0000E94F848CE0101960E94E94960936F0371
:100F0000709370038093710390937203CE010196E6
:100F10000E942E4927960FB6F894DEBF0FBECDBFB4
:100F2000DF91CF9108958FEF84B987B981B980BBE4
:100F30008DB18F6D8DB98EB18F648EB96D9A749AA3
:100F400077981AB808958EB182658EB908958EB1DA
:100F50008C608EB98D9A089565B9BB27A92F982FFB
:100F6000872F88B9749A4BB9000000000000000078
:100F70000000769800000000000000000000769A53
:100F800000000000000000000000089565B9BB27C4
:100F9000A92F982F872F88B90000000000000000BB
:100FA000000074980000000000000000000089B1FB
:100FB000749A00000000000000000000089562B96B
:100FC000BB27A92F982F872F81BB8D984BB9729A79
:100FD0000000000000000000000073980000000006
:100FE000000000000000739A8D9A000000000000CD
:100FF00000000000089562B9BB27A92F982F872F02
:1010000081BB8D98739A0000000000000000000072
:1010100072980000000000000000000089B1729A80
:101020008D9A000000000000000000000895709AF2
:101030000000000000007098000000000000749A9A
:1010400008950F931F931AB865B9072F182F292FEA
:10105000332708B9611570488105910508F0749827
:10106000709A000000000000000089B17098749A26
:101070009FEF9AB91F910F9108950F931F9365B930
:10108000072F182F292F332708B971982FEF2AB966
:101090004BB900000000000000000000769800003E
:1010A0000000000000000000769A00000000000030
:1010B00000000000611570488105910508F07498E2
:1010C000709A00000000000000007098749A719AF5
:1010D0001AB81F910F91089565B9BB27A92F982FB2
:1010E000872F88B971988FEF8AB94BB9749A709A23
:1010F00000000000000000000000000000000000F0
:1011000000007098749A719A1AB8089582B991BBC8
:101110008D988FEF8AB96BB9729A000073980000AE
:10112000739A8D9A1AB8089582B991BB739A000088
:1011300000000000000000007298000000000000A5
:101140000000000089B1729A000000000000000059
:1011500000000895CF92DF92EF92FF92CF936B0140
:101160007C01C42F64DFC5B8CD2CDE2CEF2CFF240E
:10117000C8B871988FEF8AB9CBB97498709A00008B
:101180000000000000007098749A719A1AB8CF910C
:10119000FF90EF90DF90CF904ACF40E461E070EA9B
:1011A00080E090E0D7DF40E060E070EA80E090E02F
:1011B000D1DF40E060E070E880E090E0CBDF40E02D
:1011C00061E070E880E090E0C5DF41E060E070E859
:1011D00080E090E0BFDF42E061E070E880E090E016
:1011E000B9DF42E060E070E880E090E0B3DF45E125
:1011F00061E070E880E090E0ADDF43E060E070E83F
:1012000080E090E0A7DF45E161E070E880E090E0F9
:10121000A1DF44E060E070E880E090E09BDF4AE01E
:1012200061E070E880E090E095DF45E060E070E824
:1012300080E090E08FDF4AE061E070E880E090E0DD
:1012400089DF46E060E070E880E090E083DF40E026
:1012500061E070E880E090E07DDF47E060E070E80A
:1012600080E090E077DF41E061E070E880E090E0CE
:1012700071DF40E060E070E880E090E06BCFD7DEA7
:1012800040E860E070E880E090E0F7DED0CECF92FA
:10129000DF92EF92FF921F93CF93DF936B017C015C
:1012A000142FC5E0D0E0C701B601CBDE412FC70146
:1012B000B601E3DE16952197B1F7DF91CF911F912B
:1012C000FF90EF90DF90CF90089560E070E880E0AD
:1012D00090E0B7DE40E860E070E880E090E0CDDECE
:1012E00040E160E070E880E090E0D1DF40E160E064
:1012F00070EE80E090E0CBDF42E160E070EA80E0F9
:1013000090E0C5DF45E160E070EC80E090E0BFCFA9
:101310009FEF9AB98BB97198749A7498719A9AB927
:101320000895CF93DF93CFEFCAB94AEA65E575E533
:1013300080E090E011DE45E56AEA7AE280E090E044
:101340000BDE40E965E575E580E090E005DE000034
:10135000000000001AB860E070E0CB0117DE61E029
:1013600070E080E090E012DED82F68EE73E080E05D
:1013700090E00E94774D6D2F8AE396E08DD8CAB930
:101380004AEA65E575E580E090E0E6DD45E56AEA74
:101390007AE280E090E0E0DD40EF65E575E580E031
:1013A00090E0DADD0000000000001AB8DF91CF9174
:1013B0000895CF93DF9380E090E0AADF80E090E093
:1013C000A7DF80E090E0A4DFCFEFCAB9469A4AEAEF
:1013D00065E575E580E090E0BFDD469845E56AEAA1
:1013E0007AE280E090E0B8DD469A40E965E575E58F
:1013F00080E090E0B1DD0000000000001AB860E07D
:1014000070E0CB01C3DD61E070E080E090E0BEDD24
:10141000D82F68EE73E080E090E00E94774D6D2F4A
:101420008AE396E039D8CAB9469A4AEA65E575E58D
:1014300080E090E091DD469845E56AEA7AE280E056
:1014400090E08ADD469A40EF65E575E580E090E042
:1014500083DD0000000000001AB8DF91CF910895ED
:10146000CF93DF93CFEFCAB940E160E070E880E04E
:1014700090E00DDF40E160E070EE80E090E007DF9B
:1014800040E160E070E880E090E001DF4AEA65E575
:1014900075E580E090E0F1DD45E56AEA7AE280E01A
:1014A00090E0EBDD40E965E575E580E090E0E5DDA5
:1014B0000000000000001AB860E070E0CB0166DDBB
:1014C00061E070E080E090E061DDD82F68EE73E0CD
:1014D00080E090E00E94774D6D2F8AE396E00E94B5
:1014E0004C02CAB94AEA65E575E580E090E0C5DDE1
:1014F00045E56AEA7AE280E090E0BFDD40EF65E52D
:1015000075E580E090E0B9DD0000000000001AB849
:10151000DF91CF910895CF93DF93CFEFCAB93DDE2E
:101520004AEA65E575E580E090E0A7DD45E56AEA11
:101530007AE280E090E0A1DD40E965E575E580E0D4
:1015400090E09BDD0000000000001AB860E070E051
:10155000CB011CDD61E070E080E090E017DDD82F6A
:1015600068EE73E080E090E00E94774D6D2F8AE393
:1015700096E00E944C02CAB94AEA65E575E580E04A
:1015800090E07BDD45E56AEA7AE280E090E075DD97
:1015900040EF65E575E580E090E06FDD000000005C
:1015A00000001AB8DF91CF910895CF93DF93CFEF6A
:1015B000CAB9F3DD4AEA6AEA7AE080E090E05DDDEC
:1015C00045E565E575E080E090E057DD40E96AEAD1
:1015D0007AE080E090E051DD0000000000001AB8E1
:1015E00060E070E0CB01D2DC62E070E080E090E08F
:1015F000CDDCD82F68EE73E080E090E00E94774D5C
:101600006D2F8AE396E00E944C02CAB94AEA6AEA60
:101610007AE080E090E031DD45E565E575E080E069
:1016200090E02BDD40EF6AEA7AE080E090E025DD93
:101630000000000000001AB8DF91CF91089587DC08
:101640008FEF8AB94AEA65E575E580E090E084DCD1
:1016500045E56AEA7AE280E090E07EDC40E865E514
:1016600075E580E090E078DC4AEA65E575E580E0C4
:1016700090E072DC45E56AEA7AE280E090E06CDCBA
:1016800040E165E575E580E090E066DC64E670E0E9
:1016900080E090E00E94774D1AB860E070E0CB01E6
:1016A00075DC87FD0AC08EB180588EB964EF71E099
:1016B00080E090E00E94774DF0CF7798089543DC6A
:1016C0008FEF8AB94AEA65E575E580E090E077DC5E
:1016D00045E56AEA7AE280E090E071DC40E865E5A1
:1016E00075E580E090E06BDC4AEA65E575E580E051
:1016F00090E065DC45E56AEA7AE280E090E05FDC54
:1017000040E165E575E580E090E059DC64E670E075
:1017100080E090E00E94774D1AB860E070E0CB0165
:101720006ADC87FD0EC08EB180588EB964EF71E01F
:1017300080E090E00E94774D60E070E0CB0126DC15
:10174000F0CF7798089580E090E0E2DD80E090E0CF
:10175000DFDD80E090E0DCDD8FEF8AB9469A4AEA6F
:1017600065E575E580E090E0F7DB469845E56AEAD7
:101770007AE280E090E0F0DB469A40E865E575E5C6
:1017800080E090E0E9DB469A4AEA65E575E580E0AD
:1017900090E0E2DB469845E56AEA7AE280E090E094
:1017A000DBDB469A40E165E575E580E090E0D4DB5F
:1017B00064E670E080E090E00E94774D1AB860E047
:1017C00070E0CB01E3DB87FD0AC08EB180588EB993
:1017D00064EF71E080E090E00E94774DF0CF0895D3
:1017E000B6DB8FEF8AB94AEA65E575E580E090E0FF
:1017F00044DC45E56AEA7AE280E090E03EDC40E8DD
:1018000065E575E580E090E038DC4AEA65E575E578
:1018100080E090E032DC45E56AEA7AE280E090E040
:101820002CDC40E165E575E580E090E026DC64E6CF
:1018300070E080E090E00E94774D1AB860E070E0C0
:10184000CB01A4DB87FD0AC08EB180588EB964EF4E
:1018500071E080E090E00E94774DF0CF7798089596
:1018600072DB8FEF8AB94AEA65E575E580E090E0C2
:10187000A6DB45E56AEA7AE280E090E0A0DB40E89A
:1018800065E575E580E090E09ADB4AEA65E575E597
:1018900080E090E094DB45E56AEA7AE280E090E05F
:1018A0008EDB40E165E575E580E090E088DB64E68D
:1018B00070E080E090E00E94774D1AB860E070E040
:1018C000CB0199DB87FD0AC08EB180588EB964EFD9
:1018D00071E080E090E00E94774DF0CF7798089516
:1018E00036DB8FEF8AB946E060E070E880E090E098
:1018F00031DC40E061E070E880E090E02BDC47E024
:1019000060E070E880E090E025DC41E061E070E8B4
:1019100080E090E01FDC4AEA65E575E580E090E054
:10192000ACDB45E56AEA7AE280E090E0A6DB40E8DD
:1019300065E575E580E090E0A0DB4AEA65E575E5E0
:1019400080E090E09ADB45E56AEA7AE280E090E0A8
:1019500094DB40E165E575E580E090E08EDB64E6D0
:1019600070E080E090E00E94774D1AB860E070E08F
:10197000CB010CDB87FD0AC08EB180588EB964EFB5
:1019800071E080E090E00E94774DF0CF40E060E0B1
:1019900070E880E090E0DEDB77980895D8DA8FEF8A
:1019A0008AB946E060E070E880E090E0D3DB40E098
:1019B00061E070E880E090E0CDDB47E060E070E857
:1019C00080E090E0C7DB41E061E070E880E090E01B
:1019D000C1DB4AEA6AEA7AE080E090E04EDB45E566
:1019E00065E575E080E090E048DB40E86AEA7AE08F
:1019F00080E090E042DB4AEA6AEA7AE080E090E048
:101A00003CDB45E565E575E080E090E036DB40E1F4
:101A10006AEA7AE080E090E030DB64E670E080E043
:101A200090E00E94774D1AB860E070E0CB01AEDA2A
:101A300087FD0AC08EB180588EB964EF71E080E0F6
:101A400090E00E94774DF0CF40E060E070E880E0E9
:101A500090E080DB7798089576DA8FEF8AB94AEACA
:101A600065E575E180E090E0AADA45E56AEA7AE1A9
:101A700080E090E0A4DA40E865E575E180E090E080
:101A80009EDA4AEA65E575E180E090E098DA45E59E
:101A90006AEA7AE180E090E092DA40E165E575E19A
:101AA00080E090E08CDA64E670E080E090E00E94F4
:101AB000774D1AB860E070E0CB019DDA87FD0AC06F
:101AC0008EB180588EB964EF71E080E090E00E94A2
:101AD000774DF0CF7798089536DA8FEF8AB9759AF7
:101AE0006AEA85E595E112DB65E58AEA9AE00EDBB4
:101AF00060E885E595E10ADB6AEA85E595E106DBC4
:101B000065E58AEA9AE002DB60E185E595E1FEDAC7
:101B100064E670E080E090E00E94774D759A1AB814
:101B200080E090E001DB87FD0AC08EB180588EB95D
:101B300064EF71E080E090E00E94774DF1CF7798FC
:101B400008958FEF8AB9FFD982E090E0E1DB82E06F
:101B500090E0DEDB82E090E0DBDB6AEA85E595E1A0
:101B6000D5DA81E090E0D4DB81E090E0D1DB81E068
:101B700090E0CEDB65E58AEA9AE0C8DA82E090E0A0
:101B8000C7DB82E090E0C4DB82E090E0C1DB60E88C
:101B900085E595E1BBDA82E090E0BADB82E090E097
:101BA000B7DB82E090E0B4DB6AEA85E595E1AEDA86
:101BB00081E090E0ADDB81E090E0AADB81E090E0A5
:101BC000A7DB65E58AEA9AE0A1DA82E090E0A0DB93
:101BD00082E090E09DDB82E090E09ADB60E185E5C9
:101BE00095E194DA80E090E093DB80E090E090DB98
:101BF00080E090E08DDB64E670E080E090E00E94A1
:101C0000774DA1D91AB860E070E0CB01F4D987FD17
:101C10000AC08EB180588EB964EF71E080E090E028
:101C20000E94774DF0CF779808958FEF8AB94AEAEE
:101C30006AEA7AE080E090E08FD945E565E575E0F5
:101C400080E090E089D940E86AEA7AE080E090E0BC
:101C500083D94AEA6AEA7AE080E090E07DD945E5F6
:101C600065E575E080E090E077D940E16AEA7AE0E6
:101C700080E090E071D91AB860E070E0CB0186D9BD
:101C800087FD0AC08EB180588EB968EC70E080E0A4
:101C900090E00E94774DF0CF0895CF93DF93779A2D
:101CA000CFEFCAB94AEA6AEA7AE080E090E054D914
:101CB00045E565E575E080E090E04ED940E96AEAE7
:101CC0007AE080E090E048D91AB862E070E080E005
:101CD00090E05CD9D82F68EE73E080E090E00E943D
:101CE000774D6D2F8AE396E00E944C02CAB940EF0F
:101CF0006AEA7AE080E090E02FD97798DF91CF917F
:101D0000089521D98FEF8AB94AEA6AEA7AE180E038
:101D100090E055D945E565E575E180E090E04FD963
:101D200040E86AEA7AE180E090E049D94AEA6AEA62
:101D30007AE180E090E043D945E565E575E180E032
:101D400090E03DD940E16AEA7AE180E090E037D95D
:101D50001AB860E070E0CB014ED987FD0AC08EB1A1
:101D600080588EB968EC70E080E090E00E94774D7A
:101D7000F0CF77980895E7D88FEF8AB94AEA6AEAF0
:101D80007AE180E090E01BD945E565E575E180E00A
:101D900090E015D940E86AEA7AE180E090E00FD956
:101DA0004AEA6AEA7AE180E090E009D945E565E52A
:101DB00075E180E090E003D940E16AEA7AE180E0F1
:101DC00090E0FDD864E670E080E090E00E94774DFE
:101DD0001AB860E070E0CB010ED987FD0AC08EB161
:101DE00080588EB964EF71E080E090E00E94774DFA
:101DF000F0CF77980895CF93DF93CDB7DEB72797CD
:101E00000FB6F894DEBF0FBECDBF28E730E04EE638
:101E10006AE376E0CE0101960E94F848CE01019671
:101E20000E94E9497093E2056093E105CE010196B5
:101E30000E942E4927960FB6F894DEBF0FBECDBF85
:101E4000DF91CF910895CF93DF93CDB7DEB727977A
:101E50000FB6F894DEBF0FBECDBF28E730E04EE6E8
:101E60006AE376E0CE0101960E94F848CE01019621
:101E70000E94E9497093270260932602CE010196E1
:101E80000E942E4927960FB6F894DEBF0FBECDBF35
:101E9000DF91CF910895CF93DF93CDB7DEB727972A
:101EA0000FB6F894DEBF0FBECDBF28E730E04EE698
:101EB0006AE376E0CE0101960E94F848CE010196D1
:101EC0000E94E949609322027093230280932402C6
:101ED00090932502CE0101960E942E4927960FB6B7
:101EE000F894DEBF0FBECDBFDF91CF910895CF93A1
:101EF000DF93CDB7DEB727970FB6F894DEBF0FBEDE
:101F0000CDBF28E730E04EE66AE376E0CE010196E9
:101F10000E94F848CE0101960E94E94960931E0292
:101F200070931F028093200290932102CE010196AC
:101F30000E942E4927960FB6F894DEBF0FBECDBF84
:101F4000DF91CF910895CF93DF93CDB7DEB7279779
:101F50000FB6F894DEBF0FBECDBF28E730E04EE6E7
:101F60006AE376E0CE0101960E94F848CE01019620
:101F70000E94E94960931A0270931B0280931C022D
:101F800090931D02CE0101960E942E4927960FB60E
:101F9000F894DEBF0FBECDBFDF91CF910895CF93F0
:101FA000DF93CDB7DEB727970FB6F894DEBF0FBE2D
:101FB000CDBF28E730E04EE66AE376E0CE01019639
:101FC0000E94F848CE0101960E94E94960931602EA
:101FD000709317028093180290931902CE01019614
:101FE0000E942E4927960FB6F894DEBF0FBECDBFD4
:101FF000DF91CF9108958FEF8AB980BB81B98DB100
:102000008D638DB9699A689814B817B88EB18C63CE
:102010008EB97198759A68EC70E080E090E00C944D
:10202000774D8FEF84B987B9089514B817B808951C
:10203000CF92DF92EF92FF92CF93DF936B017C01FF
:10204000D42FC52FEEDFCBB8BB27AF2D9E2D8D2D06
:1020500081BB6701EE24FF24C2B8D5B9C8B900001E
:102060007398000074980000000000000000000059
:10207000749A0000739A00000000DF91CF91FF90E6
:10208000EF90DF90CF90D1CFCF92DF92EF92FF927F
:102090006B017C01CADFCBB8BB27AF2D9E2D8D2DE8
:1020A00081BB6701EE24FF24C2B8000073987298C8
:1020B00000000000000000000000000026B183B115
:1020C000729A739A000090E0922BFF90EF90DF904D
:1020D000CF900895CF93DF93D82FC92F0E94D505B5
:1020E000D5B9C8B900001098000000000000000039
:1020F0000000109A00000000DF91CF9196CFCF92A0
:10210000DF92EF92FF926B017C010E94D505C7011F
:10211000AA27BB2722B1236022B9139A0000149A80
:1021200085B9892F992788B900001498C5B8CD2C96
:10213000DD24C8B800000000139800000000000073
:102140000000000000000000000000000000FF9000
:10215000EF90DF90CF9069CFD2DF80EF90E0BADFD1
:1021600064E670E080E090E00C94774D1F93CF938D
:10217000DF931092B9031092BA031092BB0310922E
:10218000BC038091000190910101A0910201B091E6
:102190000301BC01CD016655754F8F4F9F4FAFDFD7
:1021A0008AEA90E097DF8091000190910101A0916F
:1021B0000201B0910301BC01CD016C5A7A4F8F4FDF
:1021C0009F4F9DDF85E590E085DF80910001909134
:1021D0000101A0910201B0910301BC01CD0166553E
:1021E000754F8F4F9F4F8BDF80E990E073DF6091D9
:1021F00000017091010180910201909103017FDF44
:102200000E94DB059F938F938AE291E09F938F93C7
:1022100084EB93E09F938F930E9401530E94DB0510
:102220009F938F93CFE2D1E0DF93CF9383EE95E03E
:102230009F938F930E94015380910001909101011F
:10224000A0910201B0910301BC01CD01645E7F4FFA
:102250008F4F9F4F54DF0E94DB05182F0E94DB0534
:1022600020E030E0282B1F932F93DF93CF9387EC50
:1022700093E09F938F930E94015364EB73E08AE392
:1022800096E00E942C0264E371E08AE396E00E94EB
:102290002C0263EE75E08AE396E00E942C0264E370
:1022A00071E08AE396E00E942C0267EC73E08AE317
:1022B00096E00E942C0264E371E08AE396E00E94BB
:1022C0002C028DB79EB742960FB6F8949EBF0FBEF4
:1022D0008DBF609100017091010180910201909188
:1022E0000301DF91CF911F9137CF4F925F926F9291
:1022F0007F928F929F92AF92BF92CF92DF92EF9296
:10230000FF928090000190900101A0900201B09096
:102310000301C12CD12C7601240135012AEA420E99
:102320002AE0521E611C711C84E5880E85E0981E0F
:10233000A11CB11C8091D5039091D603A091D70325
:10234000B091D803C816D906EA06FB0608F04CC0BF
:102350008EB180588EB9C301B201D1DE8AEA90E015
:10236000B9DEC501B401CBDE85E590E0B3DEC30183
:10237000B201C5DE80E890E0ADDEC301B201BFDE90
:102380008AEA90E0A7DEC501B401B9DE85E590E0F8
:10239000A1DE8091000190910101A0910201B09114
:1023A0000301BC01CD016C0D7D1D8E1D9F1DA7DE9F
:1023B00080E390E08FDE8091000190910101A09177
:1023C0000201B0910301BC01CD016C0D7D1D8E1D7C
:1023D0009F1D95DE0E94DB058F679F6F019659F761
:1023E00082E0E80EF11CA6CF7798FF90EF90DF9087
:1023F000CF90BF90AF909F908F907F906F905F90A5
:102400004F900895CF93DF93809100019091010147
:10241000A0910201B0910301BC01CD016655754F39
:102420008F4F9F4F6CDE8AEA90E054DE809100016E
:1024300090910101A0910201B0910301BC01CD0175
:102440006C5A7A4F8F4F9F4F5ADE85E590E042DEFF
:102450008091000190910101A0910201B0910301CE
:10246000BC01CD016655754F8F4F9F4F48DE80E808
:1024700090E030DE8091000190910101A091020175
:10248000B0910301BC01CD016655754F8F4F9F4F31
:1024900036DE8AEA90E01EDE809100019091010113
:1024A000A0910201B0910301BC01CD016C5A7A4F99
:1024B0008F4F9F4F24DE85E590E00CDE8091000178
:1024C00090910101A0910201B0910301BC01CD01E5
:1024D0006655754F8F4F9F4F12DE80E190E0FADD19
:1024E00068EE73E080E090E00E94774D609100011B
:1024F00070910101809102019091030100DE0E9420
:10250000DB05EC01CF67DF6F2196B1F08EB180580B
:102510008EB960910001709101018091020190914A
:102520000301EDDD0E94DB05EC0164EF71E080E06A
:1025300090E00E94774DE6CF7798DF91CF91089594
:10254000CF92DF92EF92FF926B017C0160E070E02E
:1025500081E098E0D4DDC701BDDDC601FF90EF90BA
:10256000DF90CF90B7CD60E070E080E092EDE8DFE3
:1025700065E070E080E090E00E94774D60E070E000
:1025800080E092EDDDDF65E070E080E090E00E94A9
:10259000774D60E070E080E091EED2DF65E070E0C2
:1025A00080E090E00C94774DDF92EF92FF920F93D2
:1025B0001F93CF93DF93CDB7DEB768970FB6F8942C
:1025C000DEBF0FBECDBFD82E88E0E2E1F1E0DE0134
:1025D000519601900D928A95E1F788E0EAE1F1E0E9
:1025E000DE01199601900D928A95E1F788E0E2E20A
:1025F000F1E0DE01119601900D928A95E1F760E01D
:1026000070E080E091EE9CDF61E070E080E090E0BF
:102610000E94774D60E070E080E098E070DD09EDA9
:1026200013E078010E94DB05D7019C9311968C93EF
:10263000B2E0EB0EF11CE1EEEE16E3E0FE0691F7E0
:10264000F2E0DF1210C0FE0171969E01275E3F4F3F
:1026500080E04191D8019D918D01491381E0E217FD
:10266000F307B9F729C0B1E0DB1225C08091280239
:1026700081110FC0FE0139969E012F5E3F4F41919F
:10268000D8019D918D01491381E0E217F307B9F755
:1026900013C0813081F4FE0131969E01275F3F4FC8
:1026A00080E04191D8019D918D01491381E0E217AD
:1026B000F307B9F701C080E068960FB6F894DEBF63
:1026C0000FBECDBFDF91CF911F910F91FF90EF9083
:1026D000DF900895CF92DF92EF92FF9244DF8FE771
:1026E000C82ED12CE12C8BE4F82EC701B60128DFCF
:1026F0006AE070E080E090E00E94774D60E070E07A
:1027000080E098E71DDF6AE070E080E090E00E94E2
:10271000774D60E070E080E092ED12DF809104017F
:1027200043DF882339F061E070E080E090E00E94B0
:10273000774DF4CF80E8C80ED11CE11CF11C8FE767
:10274000C81684E0D806E1048BE4F80671F6FF9021
:10275000EF90DF90CF9008954F925F926F927F92AB
:102760008F929F92AF92BF92CF92DF92EF92FF92A1
:102770000F931F93CF93DF93C82F109229021092CB
:102780002A0210922B0210922C02823031F400E8BF
:1027900010E090E4492E512C05C000E012E0412CDD
:1027A00082E0582E60E070E080E090EFC9DEC090DB
:1027B000BD03D090BE03E090BF03F090C0032C2F68
:1027C00030E040E050E060E070E082E090E00E94A5
:1027D0007D5249015A01052C000C6608770880914A
:1027E000BD039091BE03A091BF03B091C003880DBB
:1027F000991DAA1DBB1DC816D906EA06FB06A0F541
:10280000C701B6017CDCC9EDD3E00E94DB059883EB
:1028100089832296CE01895D934080179107ACF39E
:102820004091290250912A0260912B0270912C0252
:10283000E9EDF3E081918F3F21F04F5F5F4F6F4FE4
:102840007F4FCF01895D9340801791079CF34093A0
:10285000290250932A0260932B0270932C02C40C1D
:10286000D51CE61CF71CBBCF6091290270912A028F
:1028700080912B0290912C02DF91CF911F910F91AB
:10288000FF90EF90DF90CF90BF90AF909F908F9090
:102890007F906F905F904F9008950F931F93CF9309
:1028A000DF9360E070E080E091EE4ADE6AE070E085
:1028B00080E090E00E94774D60E070E080E098E07A
:1028C0001EDC09ED13E0E8010E94DB059883898393
:1028D000229683E0C13ED807B9F78091E0038E319C
:1028E00021F482E0809304011BC08D3131F481E03A
:1028F000809304011092280213C0813F61F0F80117
:1029000061918F018AE396E00E944C02F3E0013E60
:102910001F07A9F705C081E0809304018093280276
:10292000DF91CF911F910F910895809100019091B7
:102930000101A0910201B0910301BC01CD016655D6
:1029400075458F4F9F4FDBDB8AEA9AEAC3DB8091A4
:10295000000190910101A0910201B0910301BC011D
:10296000CD016C5A7A4A8F4F9F4FC9DB85E595E5BB
:10297000B1DB8091000190910101A0910201B09121
:102980000301BC01CD01665575458F4F9F4FB7DBE5
:1029900080EF90EF9FDB64E670E080E090E00C94C5
:1029A000774D8091000190910101A0910201B091B9
:1029B0000301BC01CD01665575458F4F9F4F9FDBCD
:1029C0008AEA9AEA87DB8091000190910101A09147
:1029D0000201B0910301BC01CD016C5A7A4A8F4FBC
:1029E0009F4F8DDB85E595E575DB8091000190912A
:1029F0000101A0910201B0910301BC01CD01665516
:102A000075458F4F9F4F7BDB80E990E963DB6091D9
:102A100000017091010180910201909103016FDB2F
:102A20000E94DB050E94DB059F938F938FE291E06C
:102A30009F938F9383EE95E09F938F930E94015312
:102A400063EE75E08AE396E00E942C0264E371E095
:102A50008AE396E00E942C020F900F900F900F9047
:102A60000F900F9062CF8091000190910101A09191
:102A70000201B0910301BC01CD01665575458F4F30
:102A80009F4F3DDB8AEA9AEA25DB80910001909115
:102A90000101A0910201B0910301BC01CD016C5A6A
:102AA0007A4A8F4F9F4F2BDB85E595E513DB8091AD
:102AB000000190910101A0910201B0910301BC01BC
:102AC000CD01665575458F4F9F4F19DB80E890E823
:102AD00001DB8091000190910101A0910201B09170
:102AE0000301BC01CD01665575458F4F9F4F07DB34
:102AF0008AEA9AEAEFDA8091000190910101A091AF
:102B00000201B0910301BC01CD016C5A7A4A8F4F8A
:102B10009F4FF5DA85E595E5DDDA8091000190912A
:102B20000101A0910201B0910301BC01CD016655E4
:102B300075458F4F9F4FE3DA80E190E1CBDA64E196
:102B400070E080E090E00C94774D0F931F93CF934B
:102B5000DF934AEA50E065E575E080E090E068DAEE
:102B600045E550E06AEA72E080E090E061DA40E931
:102B700050E065E575E080E090E05ADA0000000082
:102B8000000060E070E0CB017FDA082F61E070E0C8
:102B900080E090E079DA182F6EE070E080E090E05D
:102BA00073DAD82F6FE070E080E090E06DDAC82F24
:102BB00068EE73E080E090E00E94774D602F8AE33A
:102BC00096E00E944C02612F8AE396E00E944C023C
:102BD0006D2F8AE396E00E944C026C2F8AE396E008
:102BE0000E944C0240EF50E065E575E080E090E027
:102BF0001FDA000000000000DF91CF911F910F91BC
:102C000008954AEA50E065E575E080E090E010DA6A
:102C100045E550E06AEA72E080E090E009DA40E8D9
:102C200050E065E575E080E090E002DA4AEA50E0C5
:102C300065E575E080E090E0FBD945E550E06AEAA3
:102C400072E080E090E0F4D940E150E065E575E0A5
:102C500080E090E0EDD960E070E0CB0115DA8F679D
:102C60009F6F019651F08EB180588EB968EC70E07C
:102C700080E090E00E94774DEECF77980895CF9353
:102C8000DF9368ED70E080E090E0FED981349245FA
:102C900041F469ED70E080E090E0F6D98032984F21
:102CA00009F1109209021092080210920A02109281
:102CB0000B0210920C0210920D0240910A025091E8
:102CC0000B0260910C0270910D0220E08AE396E005
:102CD0000E94504864E371E08AE396E0DF91CF916F
:102CE0000C942C026AED70E080E090E0CDD9EC010C
:102CF0006BED70E080E090E0C7D9AC01CE01A0E0C0
:102D0000B0E0DC019927882760E070E0842B952BE8
:102D1000A62BB72B8093120290931302A093140258
:102D2000B09315026CED70E080E090E0ADD9EC015D
:102D30006DED70E080E090E0A7D9AC01CE01A0E09D
:102D4000B0E0DC019927882760E070E0842B952BA8
:102D5000A62BB72B80930E0290930F02A093100224
:102D6000B09311024091120250911302609114022B
:102D7000709115024130510520E26207710519F486
:102D800021E030E008C0411551056042710509F0AD
:102D900094CF22E030E030930902209308028F5F45
:102DA0009F4FAF41B109B695A795979587958093A9
:102DB0000A0290930B02A0930C02B0930D0280E0E4
:102DC00090E0A0E1B0E08093120290931302A093F0
:102DD0001402B093150271CFCF93C82F22D9C5B971
:102DE0007598000000000000000000000000759AC7
:102DF000000000000000000000000000CF9115C995
:102E000068ED70E080E090E03FD98134924541F474
:102E100069ED70E080E090E037D98032984FF9F0AA
:102E2000109209021092080210920A0210920B02EC
:102E300010920C0210920D0240910A0250910B0266
:102E400060910C0270910D0220E08AE396E00E94EE
:102E5000504864E371E08AE396E00C942C028FEF13
:102E60009FEFA0E2B0E080930E0290930F02A09338
:102E70001002B093110281E090E0909309028093D8
:102E8000080280E090E8A0E0B0E080930A0290930E
:102E90000B02A0930C02B0930D0280E090E0A0E141
:102EA000B0E08093120290931302A0931402B093A7
:102EB0001502C2CF0F931F93CF93DF9362ED70E0A3
:102EC00080E090E0E1D8EC0163ED70E080E090E01C
:102ED000DBD8AE0160E070E0BA01552744278C01D1
:102EE00020E030E0402B512B622B732B4F5F5F4F64
:102EF0006F4F7F4F20E08AE396E00E94504864E3E2
:102F000071E08AE396E0DF91CF911F910F910C94CD
:102F10002C02CF93DF93CDB7DEB727970FB6F89487
:102F2000DEBF0FBECDBF28E730E04EE66AE376E0B5
:102F3000CE0101960E94F848CE0101960E94E9490F
:102F40006093D5037093D6038093D7039093D803EF
:102F5000CE0101960E942E4927960FB6F894DEBF47
:102F60000FBECDBFDF91CF910895CF92DF92EF9248
:102F7000FF92CFDF6AE070E080E090E00E94774D42
:102F8000C12CD12C76018091D5039091D603A091CC
:102F9000D703B091D803B695A79597958795C8168E
:102FA000D906EA06FB06B0F58EB180588EB94AEA1A
:102FB00050E065E575E080E090E03AD845E550E006
:102FC0006AEA72E080E090E033D840E850E065E5DE
:102FD00075E080E090E02CD84AEA50E065E575E0C5
:102FE00080E090E025D845E550E06AEA72E080E0B4
:102FF00090E01ED840E350E0C701B60119D8C701E0
:10300000B60142D88F679F6F0196C9F78FEFE81A14
:10301000F80AB9CF7798FF90EF90DF90CF9008959E
:103020008FEF8AB980BB84B991B19F6091B992B199
:10303000966092B992B1967F92B98DB9779817B888
:1030400008950F931F936BB9072F182F292F33273C
:1030500001BBAA27BB2785B948B9000000000000C2
:1030600000001298000000000000000000000000B6
:10307000129A0000000000000000000000001F91F4
:103080000F9108950F931F936BB9072F182F292FB6
:10309000332701BBAA27BB2785B900000000000029
:1030A0000000119800000000000000000000000077
:1030B00086B1119A0000000000000000000000002E
:1030C0001F910F91089585B96BB971BB11980000DC
:1030D000000086B1119A0000000000000895FF92E0
:1030E0000F931F93CF93DF93779ACFEFC7B94AEA35
:1030F0006AEA7AE080E090E0A4DF45E565E575E006
:1031000080E090E09EDF40E96AEA7AE080E090E0CB
:1031100098DF17B860E070E0CB01B4DFF82E62E012
:1031200070E080E090E0AEDF082F6CE170E080E0BE
:1031300090E0A8DF182F6EE170E080E090E0A2DF61
:10314000D82F68EE73E080E090E00E94774D6F2DFD
:103150008AE396E00E944C02602F8AE396E00E9488
:103160004C02612F8AE396E00E944C026D2F8AE3A5
:1031700096E00E944C02C7B940EF6AEA7AE080E02C
:1031800090E05FDF7798DF91CF911F910F91FF90D3
:1031900008958FEF87B94AEA6AEA7AE080E090E022
:1031A00050DF45E565E575E080E090E04ADF40E806
:1031B0006AEA7AE080E090E044DF4AEA6AEA7AE08C
:1031C00080E090E03EDF45E565E575E080E090E079
:1031D00038DF40E16AEA7AE080E090E032DF17B859
:1031E00060E070E0CB014EDF87FD0AC08EB18058F1
:1031F0008EB968EC70E080E090E00E94774DF0CFEF
:103200000895CF92DF92EF92FF92CF9382DE6AE031
:1032100070E080E090E00E94774DC12CD12C7601C7
:10322000CFEF8091D5039091D603A091D703B091B1
:10323000D803C816D906EA06FB0680F58EB1805879
:103240008EB9C7B94AEA6AEA7AE080E090E0F9DE2E
:1032500045E565E575E080E090E0F3DE40E86AEA88
:103260007AE080E090E0EDDE4AEA6AEA7AE080E027
:1032700090E0E7DE45E565E575E080E090E0E1DEC1
:1032800040E3C701B601DDDE17B8C701B601FADEBB
:1032900087FFFBCF82E0E80EF11CC3CF7798CF9178
:1032A000FF90EF90DF90CF9008950E94AC066AE007
:1032B00070E080E090E00E94774D6091D9057091B8
:1032C000DA058091DB059091DC05DCDE682F8AE36E
:1032D00096E00C944C028FEF81B984B98DB98AB114
:1032E00083608AB98BB183608BB9759A749877982B
:1032F00017B808950F931F9362B9072F182F292F1E
:10330000332705B9AA27BB278EB948B900000000AA
:103310005898000000000000000000000000589ACB
:103320000000000000000000000000001F910F914D
:1033300008950F931F9362B9072F182F292F332752
:1033400005B9AA27BB278EB90000000059980000D4
:103350000000000000000000000086B1599A000043
:10336000000000000000000000001F910F91089570
:10337000FF920F931F93CF93DF93779ACFEFC7B945
:1033800045E562EA72E888E090E0B4DF4AEA60E589
:103390007DE181E090E0AEDF49E062EA72E888E03A
:1033A00090E0A8DF17B860E070E0CB01C2DFF82E34
:1033B00060E070E088E090E0BCDF082F60E070E93A
:1033C00081E090E0B6DF182F60E070E989E090E0DE
:1033D000B0DFD82F68EE73E080E090E00E94774D78
:1033E0006F2D8AE396E00E944C02602F8AE396E0FC
:1033F0000E944C02612F8AE396E00E944C026D2FDE
:103400008AE396E00E944C02C7B94FE062EA72E894
:1034100088E090E06FDF7798DF91CF911F910F9157
:10342000FF9008958FEF87B945E562EA72E888E07A
:1034300090E060DF4AEA60E57DE181E090E05ADFFC
:1034400041E062EA72E888E090E054DF45E562EA34
:1034500072E888E090E04EDF4AEA60E57DE181E0D5
:1034600090E048DF48E062EA72E888E090E042DFFE
:1034700017B860E070E0CB015CDF80FD0AC08EB160
:1034800080588EB968EC70E080E090E00E94774D43
:10349000F0CF08950E94AC066AE070E080E090E012
:1034A0000E94774D0E943B076AE070E080E090E068
:1034B0000E94774D8FEF87B96091D9057091DA0539
:1034C0008091DB059091DC054091DD0513DF17B895
:1034D000089520E04FE16CE180EF91E00E945247B7
:1034E00020E042E26CE188ED91E00E94524720E04A
:1034F00045E26CE180EC91E00C94524780EC91E065
:103500000E94084888ED91E00E94084880EF91E011
:103510000C9408488F929F92AF92BF92CF92DF9205
:10352000EF92FF92CF93DF930E94AC06C12CD12C77
:1035300076018091D9059091DA05A091DB05B091D3
:10354000DC05C816D906EA06FB06E8F4779AC9ED49
:10355000D3E0460157018AE396E00E94FA4F89932F
:10356000482FC501B4010E9403038FEF881A980AFF
:10357000A80AB80A85E0C93DD80769F782E0D80EE5
:10358000E11CF11CD6CF7798DF91CF91FF90EF909F
:10359000DF90CF90BF90AF909F908F9008950F9342
:1035A0001F93CF9364E670E080E090E00E94774D37
:1035B000779A11B884E391E00E9497038FEF81B965
:1035C0008091D0039091D10305972CF461E080E0C5
:1035D00090E60E94AD036AE080E090E00E94AD03B7
:1035E000C0E08C2F90E02091C5033091C603821774
:1035F0009307ECF46C2F80E090E40E94AD0300E0B0
:1036000010EA8091C1039091C2038017910768F07E
:103610008AE396E00E94FA4F8093D903682FC8018D
:103620000E94BF030F5F1F4FECCFCF5FDACF60E088
:1036300080E090E00E94AD0311B87798CF911F9180
:103640000F910895DF92EF92FF920F931F93CF9304
:10365000DF935FDC6AE070E080E090E00E94774DED
:103660006091D5038FEF81B9779A80E090E20E9454
:10367000AD0360E080E090E40E94AD0300E010E460
:10368000DD24DA94C9EDD3E0C801895D93407C0163
:103690008AE396E00E94FA4F88836AEA8AEA9AE00F
:1036A0000E94AD0365E585E595E00E94AD0360EA03
:1036B0008AEA9AE00E94AD036881C7018C0F9D1FC2
:1036C0000E94AD0311B88EB1897F8EB9999180B1F6
:1036D000892787FDFCCF8EB186608EB9D1B895E081
:1036E000C93DD907A9F61E5F011580E8180751F6F4
:1036F00011B87798DF91CF911F910F91FF90EF90C4
:10370000DF900895DF92EF92FF920F931F93CF9374
:10371000DF93FFDB6AE070E080E090E00E94774D8D
:103720006091D5038FEF81B9779A80E090E20E9493
:10373000AD0360E080E090E40E94AD036AEA8AEAAB
:103740009AE00E94AD0365E585E595E00E94AD0332
:1037500060E28AEA9AE00E94AD0300E010E4DD2412
:10376000DA94C9EDD3E0C801895D93407C018AE316
:1037700096E00E94FA4F888360EA8AEA9AE00E9403
:10378000AD036881C7018C0F9D1F0E94AD0311B866
:103790008EB1897F8EB9999180B1892787FDFCCF41
:1037A0008EB186608EB9D1B895E0C93DD907F9F6DA
:1037B0001E5F011580E81807A1F660E985E595E030
:1037C0000E94AD0360E08AEA9AE00E94AD0311B85E
:1037D0007798DF91CF911F910F91FF90EF90DF903D
:1037E00008954F925F926F927F928F929F92AF92C5
:1037F000BF92CF92DF92EF92FF920F931F93CF93DE
:10380000DF93CDB7DEB72A970FB6F894DEBF0FBEB1
:10381000CDBF0E94AC066AE070E080E090E00E94BC
:10382000774D8090000190900101A0900201B0902E
:103830000301D501C4018655954FAF4FBF4F898312
:103840009A83AB83BC83BC01CD010E947F108AEABE
:1038500090E00E946A10D501C4018C5A9A4FAF4F74
:10386000BF4F8D839E83AF83B887BC01CD010E947B
:103870007F1085E590E00E946A1069817A818B81D2
:103880009C810E947F1080E290E00E946A10C12C0F
:10389000D12C76018091D9059091DA05A091DB05B4
:1038A000B091DC05C816D906EA06FB0608F0AEC0E2
:1038B0008EB180588EB9D701C601A170BB27892B64
:1038C0008A2B8B2B31F46AE070E080E090E00E945C
:1038D000774D812C912C5401412C512C32018AE3DB
:1038E00096E00E94FA4F89878093D9038AE396E095
:1038F0000E94FA4F8093DA03198500E0D801A82BC3
:10390000BA87A9876D817E818F8198850E947F10FB
:1039100080EA90E00E946A1080910001909101017C
:10392000A0910201B09103018C0D9D1DAE1DBF1D24
:10393000880D991DAA1DBB1DBC01CD01640D751D0F
:10394000861D971D0E947F1089859A850E946A10A6
:103950008091000190910101A0910201B0910301B9
:103960008C0D9D1DAE1DBF1D880D991DAA1DBB1D73
:10397000BC01CD01640D751D861D971D0E947F1031
:103980000E94DB0529853A852F673F6F3A87298793
:103990008F679F6FA985BA858A179B07D9F0809199
:1039A000000190910101A0910201B09103018C0DE1
:1039B0009D1DAE1DBF1D880D991DAA1DBB1DBC01FF
:1039C000CD01640D751D861D971D0E947F100E94FC
:1039D000DB05DECFB2E04B0E511C611C711C4114A3
:1039E00022E052066104710409F079CF32E0930EAF
:1039F000A11CB11C811480E89806A104B10409F04F
:103A00006BCF90E8D90EE11CF11C44CF7798698107
:103A10007A818B819C810E947F1080E990E00E94D6
:103A20006A106D817E818F8198850E947F1080E071
:103A300090E02A960FB6F894DEBF0FBECDBFDF919F
:103A4000CF911F910F91FF90EF90DF90CF90BF909B
:103A5000AF909F908F907F906F905F904F900C945D
:103A60006A100F931F93CF93DF9300D0CDB7DEB7CB
:103A700085E08A8380916F03898309ED13E08AE3EF
:103A800096E00E94FA4FF80181938F01F3E0013E26
:103A90001F07A9F7F89461E0CE0102960E94230562
:103AA00061E0CE0101960E94230568E089ED93E074
:103AB0000E9423050E948D0578940F900F90DF914E
:103AC000CF911F910F910895AF92BF92CF92DF9245
:103AD000EF92FF920F931F93CF93DF93D0E010E00C
:103AE00039EDA32E35E0B32E412F50E060E070E0B9
:103AF00080916F0390917003A0917103B091720354
:103B000026E0B695A795979587952A95D1F74817FA
:103B100059076A077B0788F589EDE82E83E0F82EC0
:103B200067018AE396E00E94FA4FF60181936F01E4
:103B3000AE16BF06B1F7F894C0E080E995E60E94A2
:103B4000480685E00E9458068D2F8C0F0E9458066B
:103B5000670108E0F60181916F010E94580601504B
:103B6000C9F70E947906CF5FF8E0EF0EF11CC03470
:103B700021F778941F5FD05CB7CFDF91CF911F9171
:103B80000F91FF90EF90DF90CF90BF90AF9008958E
:103B9000BF92CF92DF92EF92FF920F931F93CF933A
:103BA000DF93C090BD03D090BE03E090BF03F090C0
:103BB000C0038091BD039091BE03A091BF03B0915B
:103BC000C0039058AF4FBF4FC816D906EA06FB0690
:103BD00018F5C701B6010E947F10C9EDD3E08AE352
:103BE00096E00E94FA4FB82E88838AE396E00E94FE
:103BF000FA4F89831B2D00E09801282BC9010E94F0
:103C00006A10229634E0C931D30749F780E4C80E20
:103C1000D11CE11CF11CCDCFDF91CF911F910F91F1
:103C2000FF90EF90DF90CF90BF9008954F925F92FA
:103C30006F927F929F92AF92BF92CF92DF92EF925C
:103C4000FF920F931F93CF93DF930E946A1380918B
:103C500004010E94AC13672B682B692B61F067E3AA
:103C600071E08AE396E00E942C026EE371E08AE341
:103C700096E00E942C020E94B312C12CD12C760136
:103C80002601370110E08EB180588EB960E070E0F7
:103C900080E094EB0E94A01261E070E080E090E090
:103CA0000E94774D60E070E080E098E00E947F1015
:103CB000C9EDD3E000E08AE396E00E94FA4F982E27
:103CC00088838AE396E00E94FA4F8983B92CA12C5D
:103CD0009501282BC9010E946A100E5F22960038B8
:103CE00051F761E070E080E090E00E94774DC30101
:103CF000B201956A0E94A01261E070E080E090E05D
:103D00000E94774D60E070E080E092ED0E94A0128A
:103D1000809104010E94D412882339F061E070E0A0
:103D200080E090E00E94774DF3CF1F5F3FEF431A92
:103D3000530A630A730A103809F0A5CF64E170E0F2
:103D400080E090E00E94774D80E8C80ED11CE11C15
:103D5000F11CC11424E0D206E104F10409F090CF73
:103D60007798DF91CF911F910F91FF90EF90DF90A7
:103D7000CF90BF90AF909F907F906F905F904F904B
:103D800008953F924F925F926F927F928F929F928F
:103D9000AF92BF92CF92DF92EF92FF920F931F9359
:103DA000CF93DF93B6D86AE070E080E090E00E94A5
:103DB000774DC12CD12C76018091D5039091D603FB
:103DC000A091D703B091D803B695A79597958795FD
:103DD000C816D906EA06FB0608F093C0D701C6014B
:103DE0009370AA27BB27892B8A2B8B2B19F48EB1B2
:103DF00080588EB98091000190910101A09102013B
:103E0000B0910301BC01CD01665575458F4F9F4FA1
:103E10000E947F108AEA9AEA0E946A10809100014B
:103E200090910101A0910201B0910301BC01CD016B
:103E30006C5A7A4A8F4F9F4F0E947F1085E595E517
:103E40000E946A108091000190910101A0910201ED
:103E5000B0910301BC01CD01665575458F4F9F4F51
:103E60000E947F1080EA90EA0E946A1026013701C2
:103E7000440C551C661C771CC9EDD3E0812C912C99
:103E800054018091000190910101A0910201B09133
:103E90000301A054BF4F840D951DA61DB71DBC0185
:103EA000CD01680D791D8A1D9B1D0E947F108AE33C
:103EB00096E00E94FA4F382E88838AE396E00E94AB
:103EC000FA4F8983132D00E09801282BC9010E9425
:103ED0006A1032E0830E911CA11CB11C2296811441
:103EE00081E09806A104B10461F66EE170E080E023
:103EF00090E00E94774D20E8C20ED11CE11CF11C1D
:103F00005BCF779861E08AE396E0DF91CF911F91D4
:103F10000F91FF90EF90DF90CF90BF90AF909F9068
:103F20008F907F906F905F904F903F900C944C02D9
:103F30008AE396E00E94FA4F8093D40308952F926B
:103F40003F924F925F926F927F928F929F92AF9229
:103F5000BF92CF92DF92EF92FF920F931F93CF9376
:103F6000DF93CDB7DEB760970FB6F894DEBF0FBE14
:103F7000CDBF0DB71EB718870F83809000019090BA
:103F80000101A0900201B0900301D2DF6AE070E06D
:103F900080E090E00E94774D0E94AC066AE070E0FD
:103FA00080E090E00E94774D0E943B076AE070E05D
:103FB00080E090E00E94774DC090D905D090DA055E
:103FC000E090DB05F090DC05C501B4016655754F46
:103FD0008F4F9F4F69877A878B879C87D501C40154
:103FE0008C5A9A4FAF4FBF4F8D879E87AF87B88B44
:103FF0004091D9055091DA056091DB057091DC059F
:104000008091DD059091DE05A091DF05B091E0057E
:10401000840F951FA61FB71FC816D906EA06FB0610
:1040200008F056C18EB180588EB9812C912C540164
:10403000212C312C0DB71EB71E830D8369857A851F
:104040008B859C850E947F108AEA90E00E946A100E
:104050006D857E858F8598890E947F1085E590E02B
:104060000E946A102101032C000C660877088091D9
:10407000000190910101A0910201B09103018C0D0A
:104080009D1DAE1DBF1D880D991DAA1DBB1DBC0128
:10409000CD01640D751D861D971D0E947F1085E260
:1040A00090E00E946A108091000190910101A0911E
:1040B0000201B09103018C0D9D1DAE1DBF1D880D29
:1040C000991DAA1DBB1DBC01CD01640D751D861D6A
:1040D000971D0E947F108091D403869590E00197F0
:1040E0000E946A108091D4032DB73EB7281B310976
:1040F0000FB6F8943EBF0FBE2DBF0DB71EB70F5FB2
:104100001F4F1C830B8300E010E04091D40350E06C
:104110000417150714F010E00DC0401B510B6B8104
:104120007C81600F711F8AE396E00E948E51080F18
:10413000191FEBCF4091D4038091000190910101B0
:10414000A0910201B0910301141748F5EB81FC81A5
:10415000E10FF11D41812081022E000C330B322F23
:104160002227B901642B7A8369838C0D9D1DAE1DB6
:10417000BF1D880D991DAA1DBB1D840D951DA61D73
:10418000B71DBC01CD01610F711D811D911D0E94E4
:104190007F1089819A810E946A101E5FCBCF8C0D9F
:1041A0009D1DAE1DBF1D880D991DAA1DBB1D840D33
:1041B000951DA61DB71D642F70E062507109AB01FB
:1041C000770F660B770B8C019D01040F151F261FBF
:1041D000371FC901B8010E947F1089E290E00E9458
:1041E0006A106091D40370E062507109AB01770FDF
:1041F000660B770B8091000190910101A091020163
:10420000B0910301840F951FA61FB71F8C0D9D1D34
:10421000AE1DBF1D880D991DAA1DBB1DBC01CD0182
:10422000640D751D861D971D0E947F100E94DB0581
:1042300009811A810F671F6F8F679F6F8017910722
:1042400041F16091D40370E062507109AB01770FC6
:10425000660B770B8091000190910101A091020102
:10426000B0910301840F951FA61FB71F8C0D9D1DD4
:10427000AE1DBF1D880D991DAA1DBB1DBC01CD0122
:10428000640D751D861D971D0E947F100E94DB0521
:10429000D3CF0D811E810FB6F8941EBF0FBE0DBF88
:1042A0008091D403280E311C211410E431060CF443
:1042B000C1CE20E4920EA11CB11C8114910432E005
:1042C000A306B10409F0B4CE62E0E60EF11C90CE74
:1042D00077980F8118850FB6F8941EBF0FBE0DBFDB
:1042E00060960FB6F894DEBF0FBECDBFDF91CF91C1
:1042F0001F910F91FF90EF90DF90CF90BF90AF9004
:104300009F908F907F906F905F904F903F902F90F5
:1043100008958F929F92AF92BF92CF92DF92EF92C9
:10432000FF921F93CF93DF930E94A7078FEF8AB965
:10433000C12CD12C76011FEFD701C6019770AA2797
:10434000BB27892B8A2B8B2B19F48EB180588EB901
:10435000C9EDD3E0460157018AE396E00E94FA4F87
:1043600088834AEA65E575E580E090E00E943D08B3
:1043700045E56AEA7AE280E090E00E943D0840EA82
:1043800065E575E580E090E00E943D084881C50143
:10439000B4010E943D081AB87498999189B189278F
:1043A00087FDFCCF749A1AB98FEF881A980AA80A69
:1043B000B80A85E0C93DD80779F682E0D80EE11C3D
:1043C000F11CC11480E8D806E104F10409F0B4CF6F
:1043D0000E94A307C12CD12C76011FEFD701C60183
:1043E0009770AA27BB27892B8A2B8B2B19F48EB1A8
:1043F00080588EB9C9EDD3E0460157018AE396E0B3
:104400000E94FA4F88834AEA65E575E580E090E00E
:104410000E94DF0745E56AEA7AE280E090E00E94C8
:10442000DF0740EA65E575E580E090E00E94DF0780
:104430004881C501B4010E94DF071AB88D987298AF
:10444000999189B1892787FDFCCF729A8D9A1AB903
:104450008FEF881A980AA80AB80A85E0C93DD807DC
:1044600069F682E0D80EE11CF11CC11480E2D80686
:10447000E104F10409F0B2CF7798DF91CF911F9159
:10448000FF90EF90DF90CF90BF90AF909F908F9074
:1044900008954F925F926F927F928F929F92AF9208
:1044A000BF92CF92DF92EF92FF920F931F93CF9321
:1044B000DF930E94A7078FEF8AB9812C912C5401BA
:1044C00009ED15E0DD24DA94D501C4019770AA271F
:1044D000BB27892B8A2B8B2B19F48EB180588EB970
:1044E00089EDE82E85E0F82EC9EDD3E024013501F1
:1044F0008AE396E00E94FA4F88834AEA65E575E50B
:1045000080E090E00E94AC0745E56AEA7AE280E04C
:1045100090E00E94AC0740EA65E575E580E090E038
:104520000E94AC074881C301B2010E94AC071AB8CF
:104530007498999189B1892787FF03C00000000012
:10454000F9CF749ADAB88FEF481A580A680A780ACD
:104550000C171D0769F692E0990EA11CB11C81147D
:10456000E0E89E06A104B10409F0AECF0E94A307C3
:10457000C0E0D0E077247A94CE010E948809812C93
:10458000912C5401D501C4019770AA27BB27892B10
:104590008A2B8B2B19F48EB180588EB909ED13E05C
:1045A000C401895D93406C018AE396E00E94FA4F52
:1045B000F801808382E090E00E94880982E090E028
:1045C0000E94880982E090E00E94880900000000B3
:1045D0006AEA85E595E10E94860881E090E00E9404
:1045E000880981E090E00E94880981E090E00E94C3
:1045F00088090000000065E58AEA9AE00E948608C2
:1046000082E090E00E94880982E090E00E948809A0
:1046100082E090E00E9488090000000060EA85E5E1
:1046200095E10E948608CE010E948809CE010E9471
:104630008809CE010E94880900000000F80160810D
:10464000C601800F911F0E9486081AB872988D9833
:10465000F80191918F0189B1892787FF03C000007C
:104660000000F9CF729A7AB8E016F10609F09CCFF3
:10467000F2E09F0EA11CB11C811480E29806A104F7
:10468000B10409F07FCF2196C830D10509F074CF6D
:104690007798DF91CF911F910F91FF90EF90DF906E
:1046A000CF90BF90AF909F908F907F906F905F90D2
:1046B0004F9008957F928F929F92AF92BF92CF9228
:1046C000DF92EF92FF920F931F93CF93DF938FEFC1
:1046D0008AB94698C0E0D0E077247A94CE010E944F
:1046E0008809C12CD12C7601D701C6019770AA2761
:1046F000BB27892B8A2B8B2B19F48EB180588EB94E
:1047000009ED13E0460157018AE396E00E94FA4F53
:10471000F80180834AEA65E575E580E090E00E9453
:10472000AC07469880E090E00E94880980E090E025
:104730000E94880980E090E00E948809469845E53B
:104740006AEA7AE280E090E00E94AC0740EA65E520
:1047500075E580E090E00E94AC074698CE010E948B
:104760008809CE010E948809CE010E9488094698D6
:10477000F8014081C501B4010E94AC071AB87498D1
:10478000F80191918F0189B1892787FDFCCF749A37
:104790007AB8FFEF8F1A9F0AAF0ABF0A84E0093187
:1047A000180709F0B1CFE0E4CE0ED11CE11CF11CDA
:1047B000C114F0E4DF06E104F10409F095CF80E0D4
:1047C00090E00E94880980E090E00E94880980E0E3
:1047D00090E00E9488092196C031D10509F07ECF72
:1047E0007798DF91CF911F910F91FF90EF90DF901D
:1047F000CF90BF90AF909F908F907F9008957F92C1
:104800008F929F92AF92BF92CF92DF92EF92FF92E0
:104810000F931F93CF93DF938FEF8AB9C0E0D0E05F
:1048200077247A94CE010E948809C12CD12C76017C
:10483000D701C6019770AA27BB27892B8A2B8B2B00
:1048400019F48EB180588EB909ED13E04601570175
:104850008AE396E00E94FA4FF80180834AEA65E510
:1048600075E580E090E00E94AC0745E56AEA7AE2EF
:1048700080E090E00E94AC0740EA65E575E580E0E5
:1048800090E00E94AC07CE010E948809CE010E94F0
:104890008809CE010E948809F8014081C501B40150
:1048A0000E94AC071AB87498F80191918F0189B1F0
:1048B000892787FDFCCF749A7AB8FFEF8F1A9F0A79
:1048C000AF0ABF0A85E0093D180711F6E2E0DE0EE7
:1048D000E11CF11CC114F0E8DF06E104F10409F069
:1048E000A7CF2196C830D10509F09CCFDF91CF9199
:1048F0001F910F91FF90EF90DF90CF90BF90AF90FE
:104900009F908F907F9008957F928F929F92AF9209
:10491000BF92CF92DF92EF92FF920F931F93CF93AC
:10492000DF938FEF8AB90E94230F6AE070E080E086
:1049300090E00E94774D00E010E077247A94809117
:10494000260290912702081719070CF05AC0402F31
:10495000440F60E070EE80E090E00E944709C12CB7
:10496000D12C7601D701C6019770AA27BB27892BC6
:104970008A2B8B2B19F48EB180588EB9C9EDD3E0F8
:10498000460157018AE396E00E94FA4F88834AEA7B
:1049900065E575E580E090E00E943D0845E56AEA3E
:1049A0007AE280E090E00E943D0840EA65E575E526
:1049B00080E090E00E943D084881C501B4010E945A
:1049C0003D081AB87498999189B1892787FDFCCF61
:1049D000749A7AB88FEF881A980AA80AB80A85E0FC
:1049E000C93DD80779F682E0D80EE11CF11CC1144C
:1049F00080E8D806E104F10409F0B4CF0F5F1F4F3F
:104A00009ECF7798DF91CF911F910F91FF90EF90FC
:104A1000DF90CF90BF90AF909F908F907F90089540
:104A20009F92AF92BF92CF92DF92EF92FF920F933D
:104A30001F93CF93DF930E94A30710E00FEF9924F9
:104A40009A949AB8C12CD12C7601D701C6019770DF
:104A5000AA27BB27892B8A2B8B2B19F48EB1805860
:104A60008EB9C9EDD3E0C601895D93405C0142E097
:104A700060E070EA80E090E00E9447098AE396E0F7
:104A80000E94FA4F88836AEA85E595E10E948608CC
:104A900065E58AEA9AE00E94860860EA85E595E184
:104AA0000E948608412F60E070EA80E090E00E945A
:104AB00047096881C5018C0F9D1F0E9486081AB89E
:104AC0008D987298999189B1892787FDFCCF729A48
:104AD0008D9A0AB995E0C93DD90749F682E0D80E0A
:104AE000E11CF11CC11490E1D906E104F10409F0C4
:104AF000ACCF1F5F103209F0A4CF7798DF91CF9130
:104B00001F910F91FF90EF90DF90CF90BF90AF90EB
:104B10009F9008954F925F926F927F928F929F9293
:104B2000AF92BF92CF92DF92EF92FF920F931F93BB
:104B3000CF93DF930E94A7078FEF8AB90E94230FBC
:104B40006AE070E080E090E00E94774DC0E0D0E045
:104B50008CE3982E88248A948091260290912702D3
:104B6000C817D9070CF06DC046E060E070E880E03F
:104B700090E00E94AA084C2F61E070E880E090E08D
:104B80000E94AA0840E060E070E880E090E00E94A7
:104B9000AA08C12CD12C7601D701C6019770AA278B
:104BA000BB27892B8A2B8B2B19F48EB180588EB999
:104BB00009ED13E0260137018AE396E00E94FA4FDF
:104BC0005801F80181938F014AEA65E575E580E0B7
:104BD00090E00E943D0845E56AEA7AE280E090E0D4
:104BE0000E943D0840EA65E575E580E090E00E949E
:104BF0003D08F5014081C301B2010E943D08892DA5
:104C000081500000E9F78AB840E060E070E880E099
:104C100090E00E94AA08FFEF4F1A5F0A6F0A7F0A0E
:104C200085E0093D180741F6E2E0DE0EE11CF11CCB
:104C3000C114F0E2DF06E104F10409F0ADCF2196E2
:104C40008BCF7798DF91CF911F910F91FF90EF90CD
:104C5000DF90CF90BF90AF909F908F907F906F909C
:104C60005F904F9008957F928F929F92AF92BF92E4
:104C7000CF92DF92EF92FF920F931F93CF93DF9328
:104C80000E94A7078FEF8AB90E94230F6AE070E0A5
:104C900080E090E00E94774D00E010E077247A9465
:104CA0008091260290912702081719070CF06EC018
:104CB00046E060E070E880E090E00E94AA08402FA3
:104CC00061E070E880E090E00E94AA0840E060E0C7
:104CD00070E880E090E00E94AA08C12CD12C7601F7
:104CE000D701C6019770AA27BB27892B8A2B8B2B4C
:104CF00019F48EB180588EB9C9EDD3E04601570141
:104D00008AE396E00E94FA4F88834AEA6AEA7AE0E8
:104D100080E090E00E943D0845E565E575E080E0B3
:104D200090E00E943D0840EA6AEA7AE080E090E084
:104D30000E943D084881C501B4010E943D081AB88F
:104D40007498999189B1892787FDFCCF749A7AB8B4
:104D500040E060E070E880E090E00E94AA088FEFF9
:104D6000881A980AA80AB80A85E0C93DD80741F60A
:104D700082E0D80EE11CF11CC11480E2D806E104E7
:104D8000F10409F0ADCF0F5F1F4F8ACF7798DF9105
:104D9000CF911F910F91FF90EF90DF90CF90BF9038
:104DA000AF909F908F907F9008958F929F92AF9237
:104DB000BF92CF92DF92EF92FF920F931F93CF9308
:104DC000DF930E94A307C0E0DFEF40E060E070E8FF
:104DD00080E090E00E94AA084C2F440F61E070E848
:104DE00080E090E00E94AA0841E060E070E880E086
:104DF00090E00E94AA0841E04C0F440F61E070E887
:104E000080E090E00E94AA08DAB9C12CD12C76018A
:104E1000D701C6019770AA27BB27892B8A2B8B2B1A
:104E200019F48EB180588EB909ED13E0460157018F
:104E30008AE396E00E94FA4FF80180834AEA65E52A
:104E400075E180E090E00E94DF0745E56AEA7AE1DB
:104E500080E090E00E94DF0740EA65E575E180E0D0
:104E600090E00E94DF07F8014081C501B4010E9473
:104E7000DF071AB88D987298F80191918F0189B166
:104E8000892787FDFCCF729A8D9ADAB9FFEF8F1AC6
:104E90009F0AAF0ABF0A85E0093D180749F6E2E01C
:104EA000DE0EE11CF11CC114F0E1DF06E104F104A7
:104EB00009F0AECFCE5FC03809F087CF7798DF9189
:104EC000CF911F910F91FF90EF90DF90CF90BF9007
:104ED000AF909F908F9008957F928F929F92AF9204
:104EE000BF92CF92DF92EF92FF920F931F93CF93D7
:104EF000DF930E94A7078FEF8AB90E94230F6AE011
:104F000070E080E090E00E94774D00E010E07724B0
:104F10007A948091260290912702081719070CF0C5
:104F20005BC0402F60E070EA80E090E00E943D08A6
:104F3000C12CD12C7601D701C6019770AA27BB27B7
:104F4000892B8A2B8B2B19F48EB180588EB9C9ED21
:104F5000D3E0460157018AE396E00E94FA4F888326
:104F600075984AEA65E575E580E090E00E943D08A5
:104F700045E56AEA7AE280E090E00E943D0840EA76
:104F800065E575E580E090E00E943D08759A4881EE
:104F9000C501B4010E943D081AB87498999189B16D
:104FA000892787FDFCCF749A7AB88FEF881A980A00
:104FB000A80AB80A85E0C93DD80769F682E0D80E8C
:104FC000E11CF11CC11480E2D806E104F10409F0EF
:104FD000B2CF0F5F1F4F9DCF7798DF91CF911F9179
:104FE0000F91FF90EF90DF90CF90BF90AF909F9088
:104FF0008F907F9008957F928F929F92AF92BF92F1
:10500000CF92DF92EF92FF920F931F93CF93DF9394
:105010000E94A7078FEF8AB90E94230F6AE070E011
:1050200080E090E00E94774D00E010E077247A94D1
:105030008091260290912702081719070CF05BC097
:10504000402F60E070EA80E090E00E943D08C12CB3
:10505000D12C7601D701C6019770AA27BB27892BCF
:105060008A2B8B2B19F48EB180588EB9C9EDD3E001
:10507000460157018AE396E00E94FA4F88837598AB
:105080004AEA65E575E580E090E00E943D0845E567
:105090006AEA7AE280E090E00E943D0840EA65E535
:1050A00075E580E090E00E943D08759A4881C50151
:1050B000B4010E943D081AB87498999189B1892762
:1050C00087FDFCCF749A7AB88FEF881A980AA80ADD
:1050D000B80A85E0C93DD80769F682E0D80EE11C20
:1050E000F11CC11480E4D806E104F10409F0B2CF48
:1050F0000F5F1F4F9DCF7798DF91CF911F910F9139
:10510000FF90EF90DF90CF90BF90AF909F908F90E7
:105110007F9008959F92AF92BF92CF92DF92EF92CD
:10512000FF920F931F93CF93DF93759A10E00FEFC9
:1051300099249A949AB8C12CD12C7601D701C60132
:105140009770AA27BB27892B8A2B8B2B19F48EB13A
:1051500080588EB9C9EDD3E0C601895D93405C01EA
:105160008AE396E00E94FA4F888342E060E070EBA9
:1051700080E090E00E943D0842E060E070EC80E05A
:1051800090E00E943D086AEA85E595E10E94860864
:1051900065E58AEA9AE00E94860860EA85E595E17D
:1051A0000E948608412F60E070EB80E090E00E9452
:1051B0003D08412F60E070EC80E090E00E943D08E7
:1051C0006881C5018C0F9D1F0E9486081AB88D98B2
:1051D0007298999189B1892787FDFCCF729A8D9A2F
:1051E0000AB995E0C93DD90709F0BACF82E0D80ED7
:1051F000E11CF11CC11490E1D906E104F10409F0AD
:105200009DCF1F5F103209F095CF759A7798DF9187
:10521000CF911F910F91FF90EF90DF90CF90BF90B3
:10522000AF909F900895779A0E94A7078FEF8AB951
:105230000E94AC060E944B0F0E94770F0E94A30FA2
:105240000E94CF0F8AE396E00E94FA4F8093D90321
:105250006091220270912302809124029091250294
:105260004AEA0E943D0860911E0270911F028091DF
:1052700020029091210245E50E943D0860912202A2
:1052800070912302809124029091250240EA0E94AD
:105290003D0860911A0270911B0280911C0290914E
:1052A0001D02409116020E943D086091D90570913F
:1052B000DA058091DB059091DC054091D9030E94CD
:1052C0003D081AB874989091D90389B1892787FD50
:1052D000FCCF749A8FEF8AB9779808957F928F9256
:1052E0009F92AF92BF92CF92DF92EF92FF920F9375
:1052F0001F93CF93DF938FEF8AB90E94230F6AE049
:1053000070E080E090E00E94774DC0E0D0E077242C
:105310007A948091260290912702C817D9070CF041
:1053200061C0CE010E948809C12CD12C7601D70121
:10533000C6019770AA27BB27892B8A2B8B2B19F4C0
:105340008EB180588EB909ED13E0460157018AE30A
:1053500096E00E94FA4FF80180834AEA65E575E518
:1053600080E090E00E94AC0745E56AEA7AE280E0DE
:1053700090E00E94AC0740EA65E575E580E090E0CA
:105380000E94AC07CE010E948809CE010E948809C4
:10539000CE010E948809F8014081C501B4010E9434
:1053A000AC071AB87498F80191918F0189B18927D7
:1053B00087FDFCCF749A7AB8FFEF8F1A9F0AAF0A65
:1053C000BF0A85E0093D180711F6E2E0DE0EE11C98
:1053D000F11CC114F0E8DF06E104F10409F0A7CFE5
:1053E000219697CFDF91CF911F910F91FF90EF9072
:1053F000DF90CF90BF90AF909F908F907F90089557
:105400009F92AF92BF92CF92DF92EF92FF920F9353
:105410001F93CF93DF938FEF8AB90E94230F6AE027
:1054200070E080E090E00E94774DC0E0D0E09924E9
:105430009A948091260290912702C817D9070CF000
:1054400085C0CE010E948809CE010E948809CE0144
:105450000E948809C12CD12C7601D701C601977012
:10546000AA27BB27892B8A2B8B2B19F48EB1805846
:105470008EB909ED13E0C601895D93405C018AE3B2
:1054800096E00E94FA4FF801808382E090E00E944B
:10549000880982E090E00E94880982E090E00E9402
:1054A00088096AEA85E595E10E94860881E090E036
:1054B0000E94880981E090E00E94880981E090E0E4
:1054C0000E94880965E58AEA9AE00E94860882E0DF
:1054D00090E00E94880982E090E00E94880982E0C2
:1054E00090E00E94880960EA85E595E10E948608BF
:1054F000CE010E948809CE010E948809CE010E9437
:105500008809F8016081C501800F911F0E948608FB
:105510001AB872988D98F80191918F0189B18927F5
:1055200087FDFCCF729A9AB8F5E0093D1F0709F094
:10553000A6CF82E0D80EE11CF11CC11490E2D9067E
:10554000E104F10409F089CF219673CF7798DF91B8
:10555000CF911F910F91FF90EF90DF90CF90BF9070
:10556000AF909F9008957F928F929F92AF92BF923B
:10557000CF92DF92EF92FF920F931F93CF93DF931F
:105580000E94230F6AE070E080E090E00E94774D77
:105590008FEF8AB94698C0E0D0E077247A94809162
:1055A000260290912702C817D9070CF07EC0CE01C1
:1055B0000E948809C12CD12C7601D701C6019770B1
:1055C000AA27BB27892B8A2B8B2B19F48EB18058E5
:1055D0008EB909ED13E0460157018AE396E00E9477
:1055E000FA4FF80180834AEA65E575E580E090E0CE
:1055F0000E94AC07469880E090E00E94880980E015
:1056000090E00E94880980E090E00E948809469816
:1056100045E56AEA7AE280E090E00E94AC0740EA61
:1056200065E575E580E090E00E94AC074698CE0104
:105630000E948809CE010E948809CE010E94880933
:105640004698F8014081C501B4010E94AC071AB820
:105650007498F80191918F0189B1892787FDFCCF5A
:10566000749A7AB8FFEF8F1A9F0AAF0ABF0A85E0D3
:10567000093D180709F0B1CFE2E0DE0EE11CF11C94
:10568000C114F0E4DF06E104F10409F096CF80E0F4
:1056900090E00E94880980E090E00E94880980E004
:1056A00090E00E94880921967ACF7798DF91CF9178
:1056B0001F910F91FF90EF90DF90CF90BF90AF9030
:1056C0009F908F907F9008959F92AF92BF92CF92BC
:1056D000DF92EF92FF920F931F93CF93DF930E947D
:1056E000230F6AE070E080E090E00E94774D8FEF3A
:1056F0008AB9C0E0D0E099249A94809126029091D2
:105700002702C817D9070CF085C0CE010E9488096E
:10571000CE010E948809CE010E948809C12CD12C9B
:105720007601D701C6019770AA27BB27892B8A2B40
:105730008B2B19F48EB180588EB909ED13E0C60198
:10574000895D93405C018AE396E00E94FA4FF8017C
:10575000808382E090E00E94880982E090E00E94CD
:10576000880982E090E00E9488096AEA85E595E16F
:105770000E94860881E090E00E94880981E090E024
:105780000E94880981E090E00E94880965E58AEA24
:105790009AE00E94860882E090E00E94880982E0F8
:1057A00090E00E94880982E090E00E94880960EA07
:1057B00085E595E10E948608CE010E948809CE0108
:1057C0000E948809CE010E948809F8016081C50104
:1057D000800F911F0E9486081AB872988D98F80160
:1057E00091918F0189B1892787FDFCCF729A9AB870
:1057F000F5E0093D1F0709F0A6CF82E0D80EE11CB5
:10580000F11CC11490E2D906E104F10409F089CF3A
:10581000219673CF7798DF91CF911F910F91FF90D1
:10582000EF90DF90CF90BF90AF909F9008958F92B0
:105830009F92AF92BF92CF92DF92EF92FF921F930F
:10584000CF93DF938FEF8AB9C12CD12C76011FEF54
:10585000D701C6019770AA27BB27892B8A2B8B2BD0
:1058600019F48EB180588EB9C9EDD3E046015701C5
:105870008AE396E00E94FA4F88834AEA6AEA7AE06D
:1058800080E090E00E94AC0745E565E575E080E0CA
:1058900090E00E94AC0740EA6AEA7AE080E090E09B
:1058A0000E94AC074881C501B4010E94AC071AB838
:1058B0007498999189B1892787FDFCCF749A1AB998
:1058C0008FEF881A980AA80AB80A85E0C93DD80758
:1058D00079F682E0D80EE11CF11CC11480E8D806EC
:1058E000E104F10409F0B4CF1AB87798DF91CF91B1
:1058F0001F91FF90EF90DF90CF90BF90AF909F905F
:105900008F9008958F929F92AF92BF92CF92DF9225
:10591000EF92FF921F93CF93DF938FEF8AB90E948C
:10592000A307C12CD12C76011FEFD701C6019770B8
:10593000AA27BB27892B8A2B8B2B19F48EB1805871
:105940008EB9C9EDD3E0460157018AE396E00E9483
:10595000FA4F88834AEA6AEA7AE080E090E00E949F
:10596000DF0745E565E575E080E090E00E94DF0730
:1059700040EA6AEA7AE080E090E00E94DF0748812E
:10598000C501B4010E94DF071AB88D9872989991E9
:1059900089B1892787FDFCCF729A8D9A1AB98FEF4A
:1059A000881A980AA80AB80A85E0C93DD80769F696
:1059B00082E0D80EE11CF11CC11480E2D806E1049B
:1059C000F10409F0B2CF7798DF91CF911F91FF904A
:1059D000EF90DF90CF90BF90AF909F908F90089501
:1059E0008F929F92AF92BF92CF92DF92EF92FF92EF
:1059F0000F931F93CF93DF930E94A307C0E0DFEFC5
:105A000040E060E070E880E090E00E94AA084C2F3F
:105A1000440F61E070E880E090E00E94AA0841E055
:105A200060E070E880E090E00E94AA0841E04C0F3E
:105A3000440F61E070E880E090E00E94AA08DAB9C3
:105A4000C12CD12C7601D701C6019770AA27BB279C
:105A5000892B8A2B8B2B19F48EB180588EB909EDC6
:105A600013E0460157018AE396E00E94FA4FF801DD
:105A700080834AEA6AEA7AE180E090E00E94DF07E8
:105A800045E565E575E180E090E00E94DF0740EACA
:105A90006AEA7AE180E090E00E94DF07F801408145
:105AA000C501B4010E94DF071AB88D987298F801F9
:105AB00091918F0189B1892787FDFCCF729A8D9AC8
:105AC000DAB9FFEF8F1A9F0AAF0ABF0A85E0093DD6
:105AD000180749F6E2E0DE0EE11CF11CC114F0E10A
