:1000000000C2000026C2000024C2000022C200007C
:1000100020C200001EC200001CC200001AC2000064
:1000200018C200000C94134F0C9403560C947C5689
:1000300010C200000EC200000CC200000AC2000084
:1000400008C2000006C2000004C2000002C2000094
:1000500000C20000FEC10000FCC100000C9460550D
:10006000F8C10000F6C10000F4C10000F2C10000B8
:10007000F0C10000EEC10000ECC10000EAC10000C8
:10008000E8C10000E6C10000E4C10000E2C10000D8
:10009000E0C10000DEC10000A449CE49BE4DDE49EA
:1000A000DC49D849D649DA49BF49C149C749B649A7
:1000B000474ABE4DBD49BE49E0495E4A774AEE49CE
:1000C000F849BE4DBE4DBE4D7F4A324AEA49EC4921
:1000D000154ABE4D914A934AE64AE84AEF4AF74A22
:1000E000F94A004B024B044B064B0E4B104B184B7E
:1000F000BE4DBE4DBE4DBE4DF04CF24C0A4D024DB4
:10010000F94C204D0C4D0E4D104D124D1E4D284DED
:10011000304D384D3A4DBE4D204B2A4B394B414B5B
:10012000494B504B674B714B804B8A4B994BA34BC0
:10013000AB4BB34BBC4BC44B264BCC4B044C054C8C
:10014000094C104C184C2A4C2C4C2E4CBE4DBE4D1C
:10015000BE4DBE4DBE4DBE4DD34BD74BE34BEA4BD0
:10016000DB4BDF4BF14BF34BF54BF74BF94BFB4BB9
:10017000FD4BFF4B014C024C384C3A4C424C4A4C24
:100180004C4C544C564C5D4C6E4C784C824C8B4CC9
:10019000954C9C4CA34CAA4CB34CB54CB74CB94CA9
:1001A000BC4CC34CD34CD54CD64CD84CD94CE94C58
:1001B000BE4DBE4DBE4DBE4D3C4D3E4D454D4D4DD3
:1001C0004F4D514D534D554D574DBE4DBE4DBE4DEE
:1001D000BE4DBE4DBE4DBE4D5F4D664D6E4D704D1C
:1001E000724D744D764D7E4D804D824D8A4D8E4DB3
:1001F000954DBE4DBE4DBE4D954A984A9B4A9C4A70
:10020000AC4AAE4AC34ACB4AD54AD74ADE4ABE4D6B
:10021000BE4DBE4DBE4DBE4DA14DA34DAA4DB14DDF
:10022000B34DB54DBC4D00C20100010005000500F5
:10023000030000E1000001000F000F000D00009618
:100240000000020019001A001700127A00000700CF
:10025000200021001D00807000000B0023002300FF
:100260002000004B000014003700370034004038F5
:1002700000001E004B004B004800802500003200AB
:10028000720072007000C01200006E00E900E90008
:10029000E60060090000E500D801D801D501B004EE
:1002A0000000D301B403B403B10358020000B40347
:1002B0006707670762072C0100006707DD0EDD0E88
:1002C000DA0E0129022904290829102920294029A8
:1002D0008029012C022C012602260426082610263D
:1002E000202640268026402C802C01230223042334
:1002F00008231023202340238023012002200420F0
:1003000008201020202040208020102C202C012F9D
:10031000022F042F082F102F202F402F802F7EFE1A
:100320007EFD7EFB7EF77EEF7EDF7EBF7E7F00015F
:100330000000DF0312000200009C034300030000E2
:10034000980304010309047E0318020309046603E9
:10035000160303090458030C0C0331003200330068
:100360003400350000001603550053004200200001
:10037000530065007200690061006C000000180302
:100380005400650065006E0073007900640075001C
:1003900069006E006F0000000403090409024300B5
:1003A000020100C03209040000010202010005241C
:1003B00000100105240100010424020605240600A2
:1003C000010705820308004009040100020A000039
:1003D00000070503024000000705840240000012E8
:1003E00001000202000020C0168304000101020384
:1003F000010001C10201803601813600161D555AE7
:100400002B1D11241FBECFEFD0E1DEBFCDBF11E009
:10041000A0E0B1E0E6E0FCEB02C005900D92A63C46
:10042000B107D9F726E0A6ECB1E001C01D92AC34CB
:10043000B207E1F711E0C0E0D2E004C02197FE016D
:100440000E94BA5ACE3FD107C9F70E941D520C94A0
:10045000F75DD6CDFB0101900020E9F73197AF01A0
:10046000461B570BDC01ED91FC910280F381E02DDE
:1004700009940F931F93CF93DF93EC01EBDF8C0173
:10048000CE010E945F50800F911FDF91CF911F918D
:100490000F910895CF93DF931F92CDB7DEB7698395
:1004A000DC01ED91FC910280F381E02D41E050E010
:1004B000BE016F5F7F4F09950F90DF91CF91089537
:1004C00040E052EC61E070E080E496E00E945D590B
:1004D00081E885BF80E885BF11B814B817B81AB88D
:1004E0001DB810BA8DB184688DB97298779A68EC8E
:1004F00070E080E090E00E94A055779868EC70E092
:1005000080E090E00E94A055779A68EC70E080E06F
:1005100090E00E94A055779808958FEF84B987B92D
:1005200081B98DB18F608DB98EB18F608EB964EF56
:1005300071E080E090E00C94A0550F931F932FEF93
:1005400024B927B921B9DC01CB01B695A7959795B8
:10055000879585B9092F1A2F2B2F332708B9CD017D
:10056000AA27BB2782B9729815B818B814B817B85B
:100570007198000000000000000026B183B1719A5C
:10058000729A90E0922B1F910F9108950F931F93F1
:100590002FEF24B927B921B9DC01CB01B695A79576
:1005A0009795879585B9092F1A2F2B2F332708B9CF
:1005B000CD01AA27BB2782B972980000000045B977
:1005C00058B9709800000000709A729A1F910F91AC
:1005D00008952FEF24B927B911B865B9BB27A92F02
:1005E000982F872F88B97198739800000000000039
:1005F0000000000000000000000080B1739A719AB2
:1006000008952FEF24B927B921B965B9BB27A92FC0
:10061000982F872F88B942B9000000000000000021
:1006200000000000000000007098739800000000B7
:1006300000000000000000000000000000000000BA
:10064000739A709A00000000000000000000000093
:100650000000000008950F931F93CF93DF934AEAA1
:1006600050E06AEA7AE080E090E090DF45E550E013
:1006700065E575E080E090E089DF40E950E06AEAF6
:100680007AE080E090E082DF00000000000060E09F
:1006900070E0CB0152DF082F62E070E080E090E074
:1006A0004CDF182F6CE170E080E090E046DFD82F3F
:1006B0006EE170E080E090E040DFC82F68EE73E00C
:1006C00080E090E00E94A055602F80E496E0E2DE9A
:1006D000612F80E496E0DEDE6D2F80E496E0DADEC6
:1006E0006C2F80E496E0D6DE40EF50E06AEA7AE0D4
:1006F00080E090E04BDF000000000000DF91CF9130
:100700001F910F91089541E050E061157105C9F006
:10071000615071099A01062E02C0220F331F0A94FC
:10072000E2F728233923062E02C0369527950A942E
:10073000E2F7232B11F0289A01C028987098709A3C
:10074000E4CF08958F929F92BF92CF92DF92EF9263
:10075000FF920F931F93CF93DF937B012DB12760FF
:100760002DB9209A0F9A2EB127602EB9289A179A80
:10077000000000000FED13E0EC016C0180E4C80EF6
:10078000D11CCC15DD0508F039C07298289A7098F4
:10079000709A28987098709AE4E0EE16F10419F4B3
:1007A00066E070E002C06EE070E0CE01ACDF0000F9
:1007B00000000000000000000000000000004801F0
:1007C000B12CF40181914F0168E070E090E09BDF73
:1007D000B394F8E0BF12F5CF28987098709A729A87
:1007E00020988EB1897F8EB98EB186608EB9189BA4
:1007F000F8CF209A2196085F1F4FC3CFDF91CF918A
:100800001F910F91FF90EF90DF90CF90BF909F903E
:100810008F9008956F927F928F929F92AF92BF9226
:10082000CF92DF92EF92FF920F931F93CF93DF93BC
:10083000CDB7DEB7C154D1090FB6F894DEBF0FBEF5
:10084000CDBF6B012DB127602DB9209A0F9A2EB123
:1008500027602EB9289A179A000000008C01E12C1D
:10086000F12C5C0150E4A50EB11C4E0171E4870E21
:10087000911C0A151B0508F070C07298289A709890
:10088000709A7098709A84E0C816D10419F466E0E2
:1008900070E002C06EE070E0C80135DF2898709803
:1008A000709A729A00000000000000000000000032
:1008B000000000002098729884E07198719A81502D
:1008C000E1F7FE013196DF017198719A83B1817071
:1008D0008D938A169B06C1F7729A289A209A60E037
:1008E000970121523C4F862F869586958695D90192
:1008F000A80FB11D408190E8499FA001112481817A
:1009000070E4879FC0011124842B9781892B62801A
:1009100090E2699E300111248629638050E1659E32
:10092000300111248629448178E0479FA0011124D9
:10093000482B858154E0859FC0011124842B96812A
:10094000990F892B8C93685F3896603461F60F5F3E
:100950001F4F78E0E70EF11C8CCFCF5BDF4F0FB657
:10096000F894DEBF0FBECDBFDF91CF911F910F91E5
:10097000FF90EF90DF90CF90BF90AF909F908F90BF
:100980007F906F90089565B9BB27A92F982F872F67
:1009900088B9000000000000000080B100000000E5
:1009A00000000000089565B9BB27A92F982F872F55
:1009B00088B942B9000000000000000070980000F3
:1009C000000000000000709A00000000000000001D
:1009D0000895CF938EB187608EB98FEF84B987B9B0
:1009E00081B973984AEA65E575E580E090E0DBDF60
:1009F00045E56AEA7AE280E090E0D5DF40E965E526
:100A000075E580E090E0CFDF11B87198000000003C
:100A1000000061E070E080E090E0B5DFC82F60E0AA
:100A200070E0CB01B0DF1F92CF931F928F938AE2C9
:100A300091E09F938F9389EE95E09F938F930E940F
:100A40001F5B739A8DB79EB708960FB6F8949EBF3A
:100A50000FBE8DBF69EE75E080E496E0CF9109CDC1
:100A60008EB187608EB98FEF84B987B981B97398D9
:100A70004AEA65E575E580E090E095DF45E56AEADC
:100A80007AE280E090E08FDF40EF65E575E580E099
:100A900090E089DF40EF65E575E580E090E083DF79
:100AA000739A64E670E080E090E00C94A0558EB1FB
:100AB00087608EB98FEF84B987B981B973984AEA94
:100AC00065E575E580E090E06EDF45E56AEA7AE28B
:100AD00080E090E068DF40E865E575E580E090E063
:100AE00062DF4AEA65E575E580E090E05CDF45E5B8
:100AF0006AEA7AE280E090E056DF40E165E575E57C
:100B000080E090E050DF739A64EF71E080E090E065
:100B10000C94A055CF93C82F8EB187608EB98FEFFC
:100B200084B987B981B973984AEA65E575E580E0CB
:100B300090E039DF45E56AEA7AE280E090E033DF71
:100B400040EB65E575E580E090E02DDF4C2F60E03F
:100B500070E0CB0128DF739ACF91089511B8719896
:100B600081529C4FFC01808190B19813FDCF719A06
:100B70008FEF81B90895739A8FEF84B987B98DB1DA
:100B80008F608DB98EB187608EB9739A11B860E9A4
:100B900071E080E090E00C94A05585B998B9000010
:100BA0000000000000008EB1897F8EB900000000B7
:100BB0000000000080B19EB196609EB90000000068
:100BC00000000000089585B998B962B900000000DE
:100BD0000000000070980000000000000000709A03
:100BE0000000000000000000089585B998B962B9BE
:100BF000729A0000000000000000729800007098D7
:100C00000000000000000000709A0000729A0000CE
:100C1000000000000000089587E491E0BEDF90E04E
:100C20009093D7038093D60388E491E0B6DF90E0F9
:100C3000A0E0B0E08093D2039093D303A093D403B9
:100C4000B093D50389E491E0A8DF90E09093D903B5
:100C50008093D80322E030E03093CA032093C90385
:100C60004091D2035091D3036091D4037091D50386
:100C7000411551056105710549F002C0220F331F6E
:100C80004A95E2F73093CA032093C9031092CC032C
:100C90001092CB036091D6037091D7036630710533
:100CA00031F421E030E03093CC032093CB03823049
:100CB000910539F421E030E03093CC032093CB034D
:100CC00019C08330910519F424E030E00BC0843062
:100CD000910519F420E130E005C08530910551F40B
:100CE00028E030E03093CC032093CB0366307105CD
:100CF00091F403C06630710531F42FEF31EA30937F
:100D0000C8032093C7038130910519F48FEF97EA48
:100D100004C0029734F08FEF9FEB9093C803809349
:100D2000C70380E496E0B6DB6091D20380E496E0EE
:100D3000B1DB6091D80380E496E0ACCBFF920F93D7
:100D40001F93CF93DF93CFEFC1B960E080E090E3D2
:100D50003ADF64E670E080E090E00E94A05560E039
:100D600080E090E230DF64E670E080E090E00E9496
:100D7000A0556AEA8AEA9AE026DF65E585E595E00E
:100D800022DF60E98AEA9AE01EDF0000000000002E
:100D900011B880E090E001DFF82E82E090E0FDDE07
:100DA000082F8CE190E0F9DE182F8EE190E0F5DE5F
:100DB000D82F6F2D80E496E06DDB602F80E496E005
:100DC00069DB612F80E496E065DB6D2F80E496E0BF
:100DD00061DBC1B960EF85E595E0DF91CF911F91AF
:100DE0000F91FF90F0CE8FEF81B960E080E090E34B
:100DF000EADE64E670E080E090E00E94A05560E0EA
:100E000080E090E2E0DE64E670E080E090E00E9446
:100E1000A0556AEA8AEA9AE0D6DE65E585E595E0BE
:100E2000D2DE60E88AEA9AE0CEDE6AEA8AEA9AE0EE
:100E3000CADE65E585E595E0C6DE60E18AEA9AE00E
:100E4000C2DE11B880E090E0A8DE87FD0AC08EB156
:100E500080588EB964EF71E080E090E00E94A05568
:100E6000F1CF779808958FEF84B915B887B918B87E
:100E700081B1836081B981B1886181B90E9882B1F5
:100E8000836082B91398149A0D9A159A0A9880E093
:100E900090E0A0E0B8E08093C3039093C403A093D4
:100EA000C503B093C6036CE271E080E090E00C945F
:100EB000A055FC0128E00A9A808190E0880F892FD4
:100EC000881F990B892B09F425C000000000000041
:100ED000000000000A980000000000000000000070
:100EE0000000000000000000000000000000000002
:100EF00000000000000000000000000000000000F2
:100F000000000000000000000000000000000000E1
:100F1000000025C0000000000000000000000000EC
:100F200000000000000000000000000000000000C1
:100F300000000000000000000000000000000000B1
:100F400000000000000000000000000000000000A1
:100F50000000000000000000000000000A9821507E
:100F600069F0000000000000000000000000000028
:100F7000000000008081880F80839DCF615011F0B8
:100F8000319698CF089500000000000000000A9AF2
:100F90000000000000000000000000000000000051
:100FA0000000000000000000000000000A98089502
:100FB0009C01E4E7F2E08FE3029B03C08150E1F77C
:100FC0000895000000000000000000000000000084
:100FD0000000000000000000000000000000000011
:100FE0000000000000000000000000000000000001
:100FF000000000000000000000000000000080B1C0
:10100000847081932150310929F09FE30299D3CF55
:101010009150E1F708958FEF84B915B887B918B8E2
:10102000089511980000000000000000000026B1A3
:1010300083B1119A000090E0922B08950F931F93B3
:10104000CF93DF93CDB7DEB72B970FB6F894DEBF03
:101050000FBECDBFF89494E09B878A8761E0CE01F4
:101060000B9627DF61E0CE010A9623DF8CDF80E458
:1010700090E09EDF7894E4E7F2E080E090E061E0C9
:1010800070E02781298326812A8325812B8324816F
:101090002C8323812D8322812E8321812F83208104
:1010A0002887DE01119620E030E040E05D91552375
:1010B00039F08B01022E01C0000F0A94EAF7402B91
:1010C0002F5F3F4F2830310589F7DC0123E0B695CB
:1010D000A7952A95E1F7AD5CBD4F4C9308963896DD
:1010E0008034910571F62B960FB6F894DEBF0FBED3
:1010F000CDBFDF91CF911F910F910895BC01660F75
:10110000771F20E030E040E22617370731F092B138
:10111000942792B92F5F3F4FF7CF0895CF93DF9376
:10112000D82FC8E00A9A8D2F90E0880F892F881F4A
:10113000990B892B39F082E090E0E0DF0A9886E095
:1011400090E006C086E090E0D9DF0A9882E090E067
:10115000D5DFDD0FC15031F7DF91CF9108950A9AA5
:1011600082E090E0CBDF0A9884E090E0C7CF0F9355
:101170001F93CF9309E713E0C0E4029B04C081E012
:1011800090E0BCDFFACF83E090E0B8DF80B182FB73
:10119000882780F9F80181938F01029904C081E0CA
:1011A00090E0ACDFFACFC15041F7CF911F910F9182
:1011B00008950D9A159A0A98779A80E593EC9EDF28
:1011C00077980895CF93DF93CDB7DEB727970FB603
:1011D000F894DEBF0FBECDBF28E730E04EE660E4F6
:1011E00076E0CE0101960E942151CE0101960E9427
:1011F00012526093DF057093E0058093E1059093B0
:10120000E205CE0101960E94575127960FB6F89439
:10121000DEBF0FBECDBFDF91CF9108958F929F9219
:10122000AF92BF92CF92DF92EF92FF92CBDF6AE054
:1012300070E080E090E00E94A0558090DF059090E3
:10124000E005A090E105B090E20521E0821A910846
:10125000A108B108C12CD12C7601C814D904EA0424
:10126000FB04B0F54AEA50E06AEA7AE080E090E0F8
:101270008DD945E550E065E575E080E090E086D9E0
:1012800040E850E06AEA7AE080E090E07FD94AEAFC
:1012900050E06AEA7AE080E090E078D945E550E0F5
:1012A00065E575E080E090E071D940E350E0C7016A
:1012B000B6016CD9C701B60140D98F679F6F0196FF
:1012C000C9F78EB180588EB982E0E80EF11CC5CF07
:1012D000FF90EF90DF90CF90BF90AF909F908F9056
:1012E0000895CF93DF93CDB7DEB727970FB6F89465
:1012F000DEBF0FBECDBF28E730E04EE660E476E00B
:10130000CE0101960E942151CE0101960E941252F7
:101310006093E3057093E4058093E5059093E605FB
:10132000CE0101960E94575127960FB6F894DEBF62
:101330000FBECDBFDF91CF910895CF93DF93CDB78F
:10134000DEB727970FB6F894DEBF0FBECDBF28E7F4
:1013500030E04EE660E476E0CE0101960E94215135
:10136000CE0101960E94125260937503709376032A
:101370008093770390937803CE0101960E94575192
:1013800027960FB6F894DEBF0FBECDBFDF91CF9189
:1013900008958FEF84B987B981B980BB8DB18F6D06
:1013A0008DB98EB18F648EB96D9A749A77981AB888
:1013B00008958EB182658EB908958EB18C608EB914
:1013C0008D9A089565B9BB27A92F982F872F88B9C3
:1013D000749A4BB9000000000000000000007698ED
:1013E00000000000000000000000769A00000000ED
:1013F000000000000000089565B9BB27A92F982FB1
:10140000872F88B9000000000000000000007498D9
:101410000000000000000000000089B1749A000084
:101420000000000000000000089562B9BB27A92F4A
:10143000982F872F81BB8D984BB9729A00000000BE
:101440000000000000007398000000000000000091
:101450000000739A8D9A0000000000000000000058
:10146000089562B9BB27A92F982F872F81BB8D982C
:10147000739A000000000000000000007298000055
:10148000000000000000000089B1729A8D9A0000EF
:1014900000000000000000000895709A00000000A5
:1014A0000000000000000000000000007098000034
:1014B0000000000000000000000000000000749A1E
:1014C00008950F931F931AB865B9072F182F292F66
:1014D000332708B9000000000000000000000000F1
:1014E00000000000611570488105910508F07498AE
:1014F000709A0000000000000000000000000000E2
:101500000000000089B100000000000000000000A1
:101510000000000000007098749A000000000000B5
:10152000000000000000000000009FEF9AB91F912A
:101530000F9108950F931F931AB8719A65B9072FE9
:10154000182F292F332708B9709A61157048810523
:10155000910508F0749882E081500000E9F789B1A4
:101560001F910F910895CF92DF92EF92FF92CF9348
:101570006B017C01C42F91DFC5B8BB27AF2D9E2D19
:101580008D2D88B971988FEF8AB9CBB90000000012
:10159000000000000000769800000000000000003D
:1015A0000000769A00000000000000000000C11456
:1015B00080E8D806E104F10408F07498709A0000FD
:1015C00000000000000000007098749A719A65DFB6
:1015D0001AB8CF91FF90EF90DF90CF9008950F93BE
:1015E0001F937098749A71982FEF2AB94BB965B907
:1015F000072F182F292F332708B9709A61157048C3
:101600008105910508F0749882E0982F91500000B0
:10161000E9F7709881500000E9F7749A719A1AB846
:10162000709A1F910F91089565B9BB27A92F982F24
:10163000872F88B971988FEF8AB94BB9749A709ACD
:10164000000000000000000000000000000000009A
:1016500000007098749A719A1AB8089582B991BB73
:101660008D98000000000000000000008FEF8AB994
:101670006BB900000000000000000000729A00003A
:10168000000000000000000073980000000000004F
:1016900000000000739A8D9A1AB8089582B991BB20
:1016A000739A000000000000000000007298000023
:1016B000000000000000000000000000000000002A
:1016C000000089B1000000000000000000000000E0
:1016D0000000000000000000729A8D9A00000000D7
:1016E0000000000000000895CF92DF92EF92FF9279
:1016F000CF936B017C01C42FD0DEC5B8CD2CDE2C7E
:10170000EF2CFF24C8B871988FEF8AB9CBB97498C1
:10171000709A00000000000000007098749A719A9E
:101720001AB8CF91FF90EF90DF90CF90B6CE40E403
:1017300061E070EA80E090E0D7DF40E060E070EACE
:1017400080E090E0D1DF40E060E070E880E090E091
:10175000CBDF40E061E070E880E090E0C5DF41E091
:1017600060E070E880E090E0BFDF42E061E070E8B8
:1017700080E090E0B9DF42E060E070E880E090E077
:10178000B3DF45E161E070E880E090E0ADDF43E089
:1017900060E070E880E090E0A7DF45E161E070E89C
:1017A00080E090E0A1DF44E060E070E880E090E05D
:1017B0009BDF4AE061E070E880E090E095DF45E083
:1017C00060E070E880E090E08FDF4AE061E070E880
:1017D00080E090E089DF46E060E070E880E090E043
:1017E00083DF40E061E070E880E090E07DDF47E08B
:1017F00060E070E880E090E077DF41E061E070E871
:1018000080E090E071DF40E060E070E880E090E030
:101810006BCF43DE40E860E070E880E090E0A3DE5C
:101820003CCECF92DF92EF92FF921F93CF93DF9344
:101830006B017C01142FC5E0D0E0C701B60141DE89
:10184000412FC701B6018FDE16952197B1F7DF91C1
:10185000CF911F91FF90EF90DF90CF90089560E0BF
:1018600070E880E090E02DDE40E860E070E880E025
:1018700090E079DE40E160E070E880E090E0D1DF68
:1018800040E160E070EE80E090E0CBDF42E160E0BC
:1018900070EA80E090E0C5DF45E160E070EC80E058
:1018A00090E0BFCF9FEF9AB90000000000008BB915
:1018B0000000000000007198000000000000749A11
:1018C0000000000000007498000000000000719A01
:1018D0000000000000009AB90895CF93DF93CFEF86
:1018E000CAB94AEA65E575E580E090E06BDD45E55B
:1018F0006AEA7AE280E090E065DD40E965E575E559
:1019000080E090E05FDD0000000000001AB860E0B9
:1019100070E0CB0171DD61E070E080E090E06CDDB3
:10192000D82F68EE73E080E090E00E94A0556D2F04
:1019300080E496E00E944A02CAB94AEA65E575E584
:1019400080E090E03FDD45E56AEA7AE280E090E001
:1019500039DD40EF65E575E580E090E033DD0000BE
:10196000000000001AB8DF91CF910895CF93DF9364
:1019700080E090E097DF80E090E094DF80E090E00E
:1019800091DFCFEFCAB9469A4AEA65E575E580E08E
:1019900090E018DD469845E56AEA7AE280E090E05A
:1019A00011DD469A40E965E575E580E090E00ADDE5
:1019B0000000000000001AB860E070E0CB011CDD00
:1019C00061E070E080E090E017DDD82F68EE73E012
:1019D00080E090E00E94A0556D2F80E496E00E9488
:1019E0004A02CAB9469A4AEA65E575E580E090E0A0
:1019F000E9DC469845E56AEA7AE280E090E0E2DCDC
:101A0000469A40EF65E575E580E090E0DBDC00009C
:101A1000000000001AB8DF91CF910895CF93DF93B3
:101A2000CFEFCAB940E160E070E880E090E0F9DE15
:101A300040E160E070EE80E090E0F3DE40E160E0E5
:101A400070E880E090E0EDDE4AEA65E575E580E06B
:101A500090E089DD45E56AEA7AE280E090E083DDA6
:101A600040E965E575E580E090E07DDD000000007F
:101A700000001AB860E070E0CB01BEDC61E070E00D
:101A800080E090E0B9DCD82F68EE73E080E090E071
:101A90000E94A0556D2F80E496E00E944A02CAB9C8
:101AA0004AEA65E575E580E090E05DDD45E56AEAD6
:101AB0007AE280E090E057DD40EF65E575E580E093
:101AC00090E051DD0000000000001AB8DF91CF91D6
:101AD0000895CF93DF93CFEFCAB929DE4AEA65E5CF
:101AE00075E580E090E03FDD45E56AEA7AE280E076
:101AF00090E039DD40E965E575E580E090E033DDB3
:101B00000000000000001AB860E070E0CB0174DC57
:101B100061E070E080E090E06FDCD82F68EE73E069
:101B200080E090E00E94A0556D2F80E496E00E9436
:101B30004A02CAB94AEA65E575E580E090E013DD3E
:101B400045E56AEA7AE280E090E00DDD40EF65E588
:101B500075E580E090E007DD0000000000001AB8A5
:101B6000DF91CF910895CF93DF93CFEFCAB9DFDD37
:101B70004AEA6AEA7AE080E090E0F5DC45E565E56E
:101B800075E080E090E0EFDC40E96AEA7AE080E02E
:101B900090E0E9DC0000000000001AB860E070E0AE
:101BA000CB012ADC62E070E080E090E025DCD82FF9
:101BB00068EE73E080E090E00E94A0556D2F80E415
:101BC00096E00E944A02CAB94AEA6AEA7AE080E0EC
:101BD00090E0C9DC45E565E575E080E090E0C3DCB8
:101BE00040EF6AEA7AE080E090E0BDDC00000000AF
:101BF00000001AB8DF91CF910895DFDB8FEF8AB92B
:101C00004AEA65E575E580E090E0DCDB45E56AEAF7
:101C10007AE280E090E0D6DB40E865E575E580E0BB
:101C200090E0D0DB4AEA65E575E580E090E0CADB4C
:101C300045E56AEA7AE280E090E0C4DB40E165E5F0
:101C400075E580E090E0BEDB64E670E080E090E067
:101C50000E94A0551AB860E070E0CB01CDDB87FD93
:101C60000AC08EB180588EB964EF71E080E090E0D8
:101C70000E94A055F0CF7798089580E090E012DEA2
:101C800080E090E00FDE80E090E00CDE8FEF8AB91C
:101C9000469A4AEA65E575E580E090E093DB469870
:101CA00045E56AEA7AE280E090E08CDB469A40E81B
:101CB00065E575E580E090E085DB469A4AEA65E5F2
:101CC00075E580E090E07EDB469845E56AEA7AE2D9
:101CD00080E090E077DB469A40E165E575E580E0DD
:101CE00090E070DB64E670E080E090E00E94A05538
:101CF0001AB860E070E0CB017FDB87FD0AC08EB1CF
:101D000080588EB964EF71E080E090E00E94A055A9
:101D1000F0CF089552DB8FEF8AB94AEA65E575E5A1
:101D200080E090E020DC45E56AEA7AE280E090E03D
:101D30001ADC40E865E575E580E090E014DC4AEAED
:101D400065E575E580E090E00EDC45E56AEA7AE25B
:101D500080E090E008DC40E165E575E580E090E03A
:101D600002DC64E670E080E090E00E94A0551AB8C2
:101D700060E070E0CB0140DB87FD0AC08EB1805887
:101D80008EB964EF71E080E090E00E94A055F0CF42
:101D9000779808950EDB8FEF8AB94AEA65E575E515
:101DA00080E090E042DB45E56AEA7AE280E090E09C
:101DB0003CDB40E865E575E580E090E036DB4AEA2B
:101DC00065E575E580E090E030DB45E56AEA7AE2BA
:101DD00080E090E02ADB40E165E575E580E090E099
:101DE00024DB64E670E080E090E00E94A0551AB821
:101DF00060E070E0CB0135DB87FD0AC08EB1805812
:101E00008EB964EF71E080E090E00E94A055F0CFC1
:101E100077980895D2DA8FEF8AB946E060E070E8EB
:101E200080E090E061DC40E061E070E880E090E01C
:101E30005BDC47E060E070E880E090E055DC41E08A
:101E400061E070E880E090E04FDC4AEA65E575E526
:101E500080E090E088DB45E56AEA7AE280E090E0A5
:101E600082DB40E865E575E580E090E07CDB4AEAEE
:101E700065E575E580E090E076DB45E56AEA7AE2C3
:101E800080E090E070DB40E165E575E580E090E0A2
:101E90006ADB64E670E080E090E00E94A0551AB82A
:101EA00060E070E0CB01A8DA87FD0AC08EB18058EF
:101EB0008EB964EF71E080E090E00E94A055F0CF11
:101EC00040E060E070E880E090E00EDC77980895F4
:101ED00074DA8FEF8AB946E060E070E880E090E065
:101EE00003DC40E061E070E880E090E0FDDB47E08B
:101EF00060E070E880E090E0F7DB41E061E070E8EE
:101F000080E090E0F1DB4AEA6AEA7AE080E090E083
:101F10002ADB45E565E575E080E090E024DB40E8FC
:101F20006AEA7AE080E090E01EDB4AEA6AEA7AE058
:101F300080E090E018DB45E565E575E080E090E045
:101F400012DB40E16AEA7AE080E090E00CDB64E6D4
:101F500070E080E090E00E94A0551AB860E070E068
:101F6000CB014ADA87FD0AC08EB180588EB964EF82
:101F700071E080E090E00E94A055F0CF40E060E08A
:101F800070E880E090E0B0DB7798089512DA8FEF88
:101F90008AB94AEA65E575E180E090E046DA45E510
:101FA0006AEA7AE180E090E040DA40E865E575E1D0
:101FB00080E090E03ADA4AEA65E575E180E090E099
:101FC00034DA45E56AEA7AE180E090E02EDA40E131
:101FD00065E575E180E090E028DA64E670E080E095
:101FE00090E00E94A0551AB860E070E0CB0139DAA9
:101FF00087FD0AC08EB180588EB964EF71E080E031
:1020000090E00E94A055F0CF77980895D2D98FEF35
:102010008AB9759A6AEA85E595E120DB65E58AEA81
:102020009AE01CDB60E885E595E118DB6AEA85E566
:1020300095E114DB65E58AEA9AE010DB60E185E56D
:1020400095E10CDB64E670E080E090E00E94A05532
:10205000759A1AB880E090E021DB87FD0AC08EB146
:1020600080588EB964EF71E080E090E00E94A05546
:10207000F1CF779808958FEF8AB99BD982E090E0ED
:1020800011DC82E090E00EDC82E090E00BDC6AEA9A
:1020900085E595E1E3DA81E090E004DC81E090E021
:1020A00001DC81E090E0FEDB65E58AEA9AE0D6DAC1
:1020B00082E090E0F7DB82E090E0F4DB82E090E009
:1020C000F1DB60E885E595E1C9DA82E090E0EADBE2
:1020D00082E090E0E7DB82E090E0E4DB6AEA85E51D
:1020E00095E1BCDA81E090E0DDDB81E090E0DADBD5
:1020F00081E090E0D7DB65E58AEA9AE0AFDA82E03A
:1021000090E0D0DB82E090E0CDDB82E090E0CADBC3
:1021100060E185E595E1A2DA80E090E0C3DB80E054
:1021200090E0C0DB80E090E0BDDB64E670E080E042
:1021300090E00E94A0553DD91AB860E070E0CB0154
:1021400090D987FD0AC08EB180588EB964EF71E0D6
:1021500080E090E00E94A055F0CF779808958FEF2F
:102160008AB94AEA6AEA7AE080E090E02BD945E54C
:1021700065E575E080E090E025D940E86AEA7AE01C
:1021800080E090E01FD94AEA6AEA7AE080E090E0D5
:1021900019D945E565E575E080E090E013D940E1A7
:1021A0006AEA7AE080E090E00DD91AB860E070E069
:1021B000CB0122D987FD0AC08EB180588EB968EC58
:1021C00070E080E090E00E94A055F0CF0895CF939A
:1021D000DF93779ACFEFCAB94AEA6AEA7AE080E0F9
:1021E00090E0F0D845E565E575E080E090E0EAD85C
:1021F00040E96AEA7AE080E090E0E4D81AB862E068
:1022000070E080E090E0F8D8D82F68EE73E080E0CE
:1022100090E00E94A0556D2F80E496E00E944A0253
:10222000CAB940EF6AEA7AE080E090E0CBD87798CC
:10223000DF91CF910895BDD88FEF8AB94AEA6AEA53
:102240007AE180E090E0F1D845E565E575E180E070
:1022500090E0EBD840E86AEA7AE180E090E0E5D8E7
:102260004AEA6AEA7AE180E090E0DFD845E565E590
:1022700075E180E090E0D9D840E16AEA7AE180E057
:1022800090E0D3D81AB860E070E0CB01EAD887FDBF
:102290000AC08EB180588EB968EC70E080E090E0A2
:1022A0000E94A055F0CF7798089583D88FEF8AB910
:1022B0004AEA6AEA7AE180E090E0B7D845E565E568
:1022C00075E180E090E0B1D840E86AEA7AE180E028
:1022D00090E0ABD84AEA6AEA7AE180E090E0A5D8DB
:1022E00045E565E575E180E090E09FD840E16AEA68
:1022F0007AE180E090E099D864E670E080E090E0D8
:102300000E94A0551AB860E070E0CB01AAD887FD02
:102310000AC08EB180588EB964EF71E080E090E021
:102320000E94A055F0CF77980895CF93DF93CDB753
:10233000DEB727970FB6F894DEBF0FBECDBF28E7F4
:1023400030E04EE660E476E0CE0101960E94215135
:10235000CE0101960E9412527093E8056093E70542
:10236000CE0101960E94575127960FB6F894DEBF12
:102370000FBECDBFDF91CF910895CF93DF93CDB73F
:10238000DEB727970FB6F894DEBF0FBECDBF28E7A4
:1023900030E04EE660E476E0CE0101960E942151E5
:1023A000CE0101960E94125270932D0260932C026E
:1023B000CE0101960E94575127960FB6F894DEBFC2
:1023C0000FBECDBFDF91CF910895CF93DF93CDB7EF
:1023D000DEB727970FB6F894DEBF0FBECDBF28E754
:1023E00030E04EE660E476E0CE0101960E94215195
:1023F000CE0101960E941252609328027093290226
:1024000080932A0290932B02CE0101960E9457518D
:1024100027960FB6F894DEBF0FBECDBFDF91CF91E8
:102420000895CF93DF93CDB7DEB727970FB6F89413
:10243000DEBF0FBECDBF28E730E04EE660E476E0B9
:10244000CE0101960E942151CE0101960E941252A6
:1024500060932402709325028093260290932702B2
:10246000CE0101960E94575127960FB6F894DEBF11
:102470000FBECDBFDF91CF910895CF93DF93CDB73E
:10248000DEB727970FB6F894DEBF0FBECDBF28E7A3
:1024900030E04EE660E476E0CE0101960E942151E4
:1024A000CE0101960E941252609320027093210285
:1024B0008093220290932302CE0101960E945751ED
:1024C00027960FB6F894DEBF0FBECDBFDF91CF9138
:1024D0000895CF93DF93CDB7DEB727970FB6F89463
:1024E000DEBF0FBECDBF28E730E04EE660E476E009
:1024F000CE0101960E942151CE0101960E941252F6
:1025000060931C0270931D0280931E0290931F0221
:10251000CE0101960E94575127960FB6F894DEBF60
:102520000FBECDBFDF91CF9108958FEF8AB980BBE9
:1025300081B98DB18D638DB9699A689814B817B84F
:102540008EB18C638EB97198759A68EC70E080E0FA
:1025500090E00C94A0558FEF84B987B9089514B812
:1025600017B80895CF92DF92EF92FF92CF93DF9347
:102570006B017C01D42FC52FEEDFCBB8BB27AF2D6D
:102580009E2D8D2D81BB6701EE24FF24C2B8D5B9E5
:10259000C8B90000739800007498000000000000A3
:1025A00000000000749A0000739A00000000DF91A0
:1025B000CF91FF90EF90DF90CF90D1CFCF92DF926D
:1025C000EF92FF926B017C01CADFCBB8BB27AF2D26
:1025D0009E2D8D2D81BB6701EE24FF24C2B8000023
:1025E00073987298000000000000000000000000D6
:1025F00026B183B1729A739A000090E0922BFF90FB
:10260000EF90DF90CF900895CF93DF93D82FC92F0D
:102610000E940B08D5B9C8B900001098000000004E
:10262000000000000000109A00000000DF91CF9130
:1026300096CFCF92DF92EF92FF926B017C010E94C6
:102640000B08C701AA27BB2722B1236022B9139A1E
:102650000000149A85B9892F992788B90000149829
:10266000C5B8CD2CDD24C8B80000000013980000C8
:10267000000000000000000000000000000000005A
:102680000000FF90EF90DF90CF9069CFD2DF80EF16
:1026900090E0BADF64E670E080E090E00C94A05532
:1026A0001F93CF93DF931092BF031092C003109239
:1026B000C1031092C2038091000190910101A09189
:1026C0000201B0910301BC01CD016655754F8F4FDA
:1026D0009F4FAFDF8AEA90E097DF809100019091F1
:1026E0000101A0910201B0910301BC01CD016C5A1E
:1026F0007A4F8F4F9F4F9DDF85E590E085DF80917A
:10270000000190910101A0910201B0910301BC016F
:10271000CD016655754F8F4F9F4F8BDF80E990E05D
:1027200073DF60910001709101018091020190912D
:1027300003017FDF0E9411089F938F938EE291E047
:102740009F938F938AEB93E09F938F930E941F5BDD
:102750000E9411089F938F93C3E3D1E0DF93CF933F
:1027600089EE95E09F938F930E941F5B80910001FB
:1027700090910101A0910201B0910301BC01CD0132
:10278000645E7F4F8F4F9F4F54DF0E941108182FB8
:102790000E94110820E030E0282B1F932F93DF9335
:1027A000CF938DEC93E09F938F930E941F5B6AEB16
:1027B00073E080E496E00E942A0268E371E080E41E
:1027C00096E00E942A0269EE75E080E496E00E949D
:1027D0002A0268E371E080E496E00E942A026DEC30
:1027E00073E080E496E00E942A0268E371E080E4EE
:1027F00096E00E942A028DB79EB742960FB6F894D3
:102800009EBF0FBE8DBF609100017091010180914C
:10281000020190910301DF91CF911F9137CF4F9229
:102820005F926F927F928F929F92AF92BF92CF9260
:10283000DF92EF92FF928090000190900101A090B2
:102840000201B0900301C12CD12C76012401350185
:102850002AEA420E2AE0521E611C711C84E5880E91
:1028600085E0981EA11CB11C8091DB039091DC03D4
:10287000A091DD03B091DE03C816D906EA06FB0677
:1028800008F04CC08EB180588EB9C301B201D1DEC0
:102890008AEA90E0B9DEC501B401CBDE85E590E0BF
:1028A000B3DEC301B201C5DE80E890E0ADDEC30156
:1028B000B201BFDE8AEA90E0A7DEC501B401B9DE4D
:1028C00085E590E0A1DE8091000190910101A09149
:1028D0000201B0910301BC01CD016C0D7D1D8E1D67
:1028E0009F1DA7DE80E390E08FDE80910001909134
:1028F0000101A0910201B0910301BC01CD016C0D59
:102900007D1D8E1D9F1D95DE0E9411088F679F6F94
:10291000019659F782E0E80EF11CA6CF7798FF9058
:10292000EF90DF90CF90BF90AF909F908F907F906F
:102930006F905F904F900895CF93DF938091000147
:1029400090910101A0910201B0910301BC01CD0160
:102950006655754F8F4F9F4F6CDE8AEA90E054DECC
:102960008091000190910101A0910201B0910301B9
:10297000BC01CD016C5A7A4F8F4F9F4F5ADE85E5CF
:1029800090E042DE8091000190910101A09102014E
:10299000B0910301BC01CD016655754F8F4F9F4F1C
:1029A00048DE80E890E030DE8091000190910101E6
:1029B000A0910201B0910301BC01CD016655754F94
:1029C0008F4F9F4F36DE8AEA90E01EDE8091000135
:1029D00090910101A0910201B0910301BC01CD01D0
:1029E0006C5A7A4F8F4F9F4F24DE85E590E00CDEC6
:1029F0008091000190910101A0910201B091030129
:102A0000BC01CD016655754F8F4F9F4F12DE80E19F
:102A100090E0FADD68EE73E080E090E00E94A0555F
:102A20006091000170910101809102019091030178
:102A300000DE0E941108EC01CF67DF6F2196B1F034
:102A40008EB180588EB96091000170910101809122
:102A5000020190910301EDDD0E941108EC0164EF89
:102A600071E080E090E00E94A055E6CF7798DF917A
:102A7000CF910895CF92DF92EF92FF926B017C018C
:102A800060E070E081E098E0D4DDC701BDDDC60103
:102A9000FF90EF90DF90CF90B7CD60E070E080E0E6
:102AA00092EDE8DF65E070E080E090E00E94A055E4
:102AB00060E070E080E092EDDDDF65E070E080E0F6
:102AC00090E00E94A05560E070E080E091EED2DFDF
:102AD00065E070E080E090E00C94A055DF92EF920A
:102AE000FF920F931F93CF93DF93CDB7DEB7689715
:102AF0000FB6F894DEBF0FBECDBFD82E88E0E2E15E
:102B0000F1E0DE01519601900D928A95E1F788E09F
:102B1000EAE1F1E0DE01199601900D928A95E1F764
:102B200088E0E2E2F1E0DE01119601900D928A95D3
:102B3000E1F760E070E080E091EE9CDF61E070E042
:102B400080E090E00E94A05560E070E080E098E0B6
:102B500070DD0FED13E078010E941108D7019C93FE
:102B600011968C93B2E0EB0EF11CE7EEEE16E3E06B
:102B7000FE0691F7F2E0DF1210C0FE0171969E0191
:102B8000275E3F4F80E04191D8019D918D0149130F
:102B900081E0E217F307B9F729C0B1E0DB1225C0E5
:102BA00080912E0281110FC0FE0139969E012F5E89
:102BB0003F4F4191D8019D918D01491381E0E2176A
:102BC000F307B9F713C0813081F4FE0131969E01FD
:102BD000275F3F4F80E04191D8019D918D014913BE
:102BE00081E0E217F307B9F701C080E068960FB6FD
:102BF000F894DEBF0FBECDBFDF91CF911F910F9133
:102C0000FF90EF90DF900895CF92DF92EF92FF92C6
:102C100044DF8FE7C82ED12CE12C8BE4F82EC701BE
:102C2000B60128DF6AE070E080E090E00E94A055E5
:102C300060E070E080E098E71DDF6AE070E080E02F
:102C400090E00E94A05560E070E080E092ED12DF1D
:102C50008091040143DF882339F061E070E080E077
:102C600090E00E94A055F4CF80E8C80ED11CE11C72
:102C7000F11C8FE7C81684E0D806E1048BE4F8065F
:102C800071F6FF90EF90DF90CF9008954F925F9292
:102C90006F927F928F929F92AF92BF92CF92DF926C
:102CA000EF92FF920F931F93CF93DF93C82F109251
:102CB0002F021092300210923102109232028230B2
:102CC00031F400E810E090E4492E512C05C000E0FA
:102CD00012E0412C82E0582E60E070E080E090EF3E
:102CE000C9DEC090C303D090C403E090C503F09048
:102CF000C6032C2F30E040E050E060E070E082E05E
:102D000090E00E949E5A49015A01052C000C660869
:102D100077088091C3039091C403A091C503B0913B
:102D2000C603880D991DAA1DBB1DC816D906EA0643
:102D3000FB06A0F5C701B6017CDCCFEDD3E00E9415
:102D40001108988389832296CE018F5D9340801766
:102D50009107ACF340912F02509130026091310203
:102D600070913202EFEDF3E081918F3F21F04F5FE0
:102D70005F4F6F4F7F4FCF018F5D9340801791075B
:102D80009CF340932F025093300260933102709372
:102D90003202C40CD51CE61CF71CBBCF60912F027D
:102DA000709130028091310290913202DF91CF9187
:102DB0001F910F91FF90EF90DF90CF90BF90AF9059
:102DC0009F908F907F906F905F904F9008950F939A
:102DD0001F93CF93DF9360E070E080E091EE4ADED6
:102DE0006AE070E080E090E00E94A05560E070E052
:102DF00080E098E01EDC0FED13E0E8010E9411086E
:102E000098838983229683E0C73ED807B9F78091DB
:102E1000E6038E3121F482E0809304011BC08D31E2
:102E200031F481E08093040110922E0213C0813F9F
:102E300061F0F80161918F0180E496E00E944A02FE
:102E4000F3E0073E1F07A9F705C081E08093040166
:102E500080932E02DF91CF911F910F910895809161
:102E6000000190910101A0910201B0910301BC0108
:102E7000CD01665575458F4F9F4FDBDB8AEA9AEA95
:102E8000C3DB8091000190910101A0910201B091FA
:102E90000301BC01CD016C5A7A4A8F4F9F4FC9DBA9
:102EA00085E595E5B1DB8091000190910101A0914C
:102EB0000201B0910301BC01CD01665575458F4FEC
:102EC0009F4FB7DB80EF90EF9FDB64E670E080E020
:102ED00090E00C94A0558091000190910101A09187
:102EE0000201B0910301BC01CD01665575458F4FBC
:102EF0009F4F9FDB8AEA9AEA87DB809100019091DD
:102F00000101A0910201B0910301BC01CD016C5AF5
:102F10007A4A8F4F9F4F8DDB85E595E575DB809174
:102F2000000190910101A0910201B0910301BC0147
:102F3000CD01665575458F4F9F4F7BDB80E990E94A
:102F400063DB609100017091010180910201909119
:102F500003016FDB0E9411080E9411089F938F9359
:102F600083E391E09F938F9389EE95E09F938F93F6
:102F70000E941F5B69EE75E080E496E00E942A02E1
:102F800068E371E080E496E00E942A020F900F90BF
:102F90000F900F900F900F9062CF80910001909151
:102FA0000101A0910201B0910301BC01CD01665560
:102FB00075458F4F9F4F3DDB8AEA9AEA25DB80916A
:102FC000000190910101A0910201B0910301BC01A7
:102FD000CD016C5A7A4A8F4F9F4F2BDB85E595E5E3
:102FE00013DB8091000190910101A0910201B09149
:102FF0000301BC01CD01665575458F4F9F4F19DB0D
:1030000080E890E801DB8091000190910101A0919E
:103010000201B0910301BC01CD01665575458F4F8A
:103020009F4F07DB8AEA9AEAEFDA809100019091DC
:103030000101A0910201B0910301BC01CD016C5AC4
:103040007A4A8F4F9F4FF5DA85E595E5DDDA809175
:10305000000190910101A0910201B0910301BC0116
:10306000CD01665575458F4F9F4FE3DA80E190E1C2
:10307000CBDA64E170E080E090E00C94A0550F930F
:103080001F93CF93DF934AEA50E065E575E080E057
:1030900090E068DA45E550E06AEA72E080E090E0AE
:1030A00061DA40E950E065E575E080E090E05ADAE9
:1030B00000000000000060E070E0CB017FDA082F24
:1030C00061E070E080E090E079DA182F6EE070E067
:1030D00080E090E073DAD82F6FE070E080E090E05D
:1030E0006DDAC82F68EE73E080E090E00E94A05592
:1030F000602F80E496E00E944A02612F80E496E00F
:103100000E944A026D2F80E496E00E944A026C2FD2
:1031100080E496E00E944A0240EF50E065E575E0E9
:1031200080E090E01FDA000000000000DF91CF9106
:103130001F910F9108954AEA50E065E575E080E03F
:1031400090E010DA45E550E06AEA72E080E090E055
:1031500009DA40E850E065E575E080E090E002DAE9
:103160004AEA50E065E575E080E090E0FBD945E58E
:1031700050E06AEA72E080E090E0F4D940E150E08B
:1031800065E575E080E090E0EDD960E070E0CB01AE
:1031900015DA8F679F6F019651F08EB180588EB906
:1031A00068EC70E080E090E00E94A055EECF779848
:1031B0000895CF93DF9368ED70E080E090E0FED952
:1031C0008134924541F469ED70E080E090E0F6D9F9
:1031D0008032984F09F110920F0210920E02109255
:1031E00010021092110210921202109213024091DA
:1031F000100250911102609112027091130220E0AE
:1032000080E496E00E94795068E371E080E496E003
:10321000DF91CF910C942A026AED70E080E090E09B
:10322000CDD9EC016BED70E080E090E0C7D9AC0146
:10323000CE01A0E0B0E0DC019927882760E070E0D3
:10324000842B952BA62BB72B8093180290931902F1
:10325000A0931A02B0931B026CED70E080E090E046
:10326000ADD9EC016DED70E080E090E0A7D9AC0144
:10327000CE01A0E0B0E0DC019927882760E070E093
:10328000842B952BA62BB72B8093140290931502B9
:10329000A0931602B09317024091180250911902A0
:1032A00060911A0270911B024130510520E26207C1
:1032B000710519F421E030E008C041155105604264
:1032C000710509F094CF22E030E030930F02209393
:1032D0000E028F5F9F4FAF41B109B695A7959795A5
:1032E00087958093100290931102A0931202B093DD
:1032F000130280E090E0A0E1B0E080931802909388
:103300001902A0931A02B0931B0271CFCF93C82F5A
:1033100022D9C5B975980000000000000000000027
:103320000000759A0000000000000000000000008E
:10333000CF9115C968ED70E080E090E03FD981340D
:10334000924541F469ED70E080E090E037D9803239
:10335000984FF9F010920F0210920E021092100284
:103360001092110210921202109213024091100258
:1033700050911102609112027091130220E080E4DA
:1033800096E00E94795068E371E080E496E00C9446
:103390002A028FEF9FEFA0E2B0E080931402909397
:1033A0001502A0931602B093170281E090E090936B
:1033B0000F0280930E0280E090E8A0E0B0E08093DE
:1033C000100290931102A0931202B093130280E0B6
:1033D00090E0A0E1B0E08093180290931902A093CE
:1033E0001A02B0931B02C2CF0F931F93CF93DF93A8
:1033F00062ED70E080E090E0E1D8EC0163ED70E018
:1034000080E090E0DBD8AE0160E070E0BA015527C3
:1034100044278C0120E030E0402B512B622B732B92
:103420004F5F5F4F6F4F7F4F20E080E496E00E9438
:10343000795068E371E080E496E0DF91CF911F91CD
:103440000F910C942A02CF93DF93CDB7DEB7279765
:103450000FB6F894DEBF0FBECDBF28E730E04EE6D2
:1034600060E476E0CE0101960E942151CE010196E2
:103470000E9412526093DB037093DC038093DD03A0
:103480009093DE03CE0101960E94575127960FB606
:10349000F894DEBF0FBECDBFDF91CF910895CF92DC
:1034A000DF92EF92FF92CFDF6AE070E080E090E081
:1034B0000E94A055C12CD12C76018091DB03909104
:1034C000DC03A091DD03B091DE03B695A795979537
:1034D0008795C816D906EA06FB06B0F58EB1805866
:1034E0008EB94AEA50E065E575E080E090E03AD8B0
:1034F00045E550E06AEA72E080E090E033D840E8C9
:1035000050E065E575E080E090E02CD84AEA50E0B4
:1035100065E575E080E090E025D845E550E06AEA91
:1035200072E080E090E01ED840E350E0C701B601B1
:1035300019D8C701B60142D88F679F6F0196C9F7A6
:103540008FEFE81AF80AB9CF7798FF90EF90DF90E5
:10355000CF9008958FEF8AB980BB84B991B19F60F5
:1035600091B992B1966092B992B1967F92B98DB9A4
:10357000779817B808950F931F936BB9072F182FDB
:10358000292F332701BBAA27BB2785B948B90000DB
:103590000000000000001298000000000000000081
:1035A00000000000129A000000000000000000006F
:1035B00000001F910F9108950F931F936BB9072F70
:1035C000182F292F332701BBAA27BB2785B9000055
:1035D0000000000000001198000000000000000042
:1035E0000000000086B1119A0000000000000000F9
:1035F000000000001F910F91089585B96BB971BB50
:1036000011980000000086B1119A0000000000002F
:103610000895FF920F931F93CF93DF93779ACFEF85
:10362000C7B94AEA6AEA7AE080E090E0A4DF45E5BB
:1036300065E575E080E090E09EDF40E96AEA7AE0C7
:1036400080E090E098DF17B860E070E0CB01B4DF75
:10365000F82E62E070E080E090E0AEDF082F6CE1D1
:1036600070E080E090E0A8DF182F6EE170E080E06D
:1036700090E0A2DFD82F68EE73E080E090E00E9437
:10368000A0556F2D80E496E00E944A02602F80E4EE
:1036900096E00E944A02612F80E496E00E944A026E
:1036A0006D2F80E496E00E944A02C7B940EF6AEAB3
:1036B0007AE080E090E05FDF7798DF91CF911F9113
:1036C0000F91FF9008958FEF87B94AEA6AEA7AE08E
:1036D00080E090E050DF45E565E575E080E090E052
:1036E0004ADF40E86AEA7AE080E090E044DF4AEAB4
:1036F0006AEA7AE080E090E03EDF45E565E575E066
:1037000080E090E038DF40E16AEA7AE080E090E033
:1037100032DF17B860E070E0CB014EDF87FD0AC0F2
:103720008EB180588EB968EC70E080E090E00E9425
:10373000A055F0CF0895CF92DF92EF92FF92CF93F2
:1037400082DE6AE070E080E090E00E94A055C12C2B
:10375000D12C7601CFEF8091DB039091DC03A09117
:10376000DD03B091DE03C816D906EA06FB0680F534
:103770008EB180588EB9C7B94AEA6AEA7AE080E029
:1037800090E0F9DE45E565E575E080E090E0F3DE88
:1037900040E86AEA7AE080E090E0EDDE4AEA6AEA30
:1037A0007AE080E090E0E7DE45E565E575E080E001
:1037B00090E0E1DE40E3C701B601DDDE17B8C701E6
:1037C000B601FADE87FFFBCF82E0E80EF11CC3CF23
:1037D0007798CF91FF90EF90DF90CF9008950E945F
:1037E000E2086AE070E080E090E00E94A0556091FD
:1037F000DF057091E0058091E1059091E205DCDE46
:10380000682F80E496E00C944A028FEF81B984B966
:103810008DB98AB183608AB98BB183608BB9759A8F
:103820007498779817B808950F931F9362B9072F6C
:10383000182F292F332705B9AA27BB278EB948B9D6
:103840000000000058980000000000000000000088
:103850000000589A00000000000000000000000076
:103860001F910F9108950F931F9362B9072F182F7F
:10387000292F332705B9AA27BB278EB900000000DE
:10388000599800000000000000000000000086B110
:10389000599A0000000000000000000000001F9185
:1038A0000F910895FF920F931F93CF93DF93779A11
:1038B000CFEFC7B945E562EA72E888E090E0B4DF8F
:1038C0004AEA60E57DE181E090E0AEDF49E062EA4E
:1038D00072E888E090E0A8DF17B860E070E0CB0104
:1038E000C2DFF82E60E070E088E090E0BCDF082FD7
:1038F00060E070E981E090E0B6DF182F60E070E9E9
:1039000089E090E0B0DFD82F68EE73E080E090E0CF
:103910000E94A0556F2D80E496E00E944A02602F1D
:1039200080E496E00E944A02612F80E496E00E94C3
:103930004A026D2F80E496E00E944A02C7B94FE028
:1039400062EA72E888E090E06FDF7798DF91CF91CC
:103950001F910F91FF9008951F93CF93DF938FEFE7
:1039600087B945E562EA72E888E090E05DDF4AEAFF
:1039700060E57DE181E090E057DF41E062EA72E8D6
:1039800088E090E051DF45E562EA72E888E090E087
:103990004BDF4AEA60E57DE181E090E045DF48E009
:1039A00062EA72E888E090E03FDF17B860E070E01C
:1039B000CB0159DFD82FC0E011E0D7FD14C0CC23D4
:1039C00029F060E070E080E890E003C060E070E023
:1039D000CB0149DFD82F68EC70E080E090E00E94D6
:1039E000A055C127EACFDF91CF911F9108950E9482
:1039F000E2086AE070E080E090E00E94A0550E943A
:103A000071096AE070E080E090E00E94A0558FEFBD
:103A100087B96091DF057091E0058091E105909193
:103A2000E2054091E30500DF17B8089520E04FE17B
:103A30006CE186EF91E00E947B4F20E042E26CE176
:103A40008EED91E00E947B4F20E045E26CE186EC38
:103A500091E00C947B4F86EC91E00E9431508EED0A
:103A600091E00E94315086EF91E00C9431508F929A
:103A70009F92AF92BF92CF92DF92EF92FF92CF933D
:103A8000DF930E94E208C12CD12C76018091DF05E2
:103A90009091E005A091E105B091E205C816D90624
:103AA000EA06FB06E8F4779ACFEDD3E0460157012A
:103AB00080E496E00E941B588993482FC501B40109
:103AC0000E9401038FEF881A980AA80AB80A85E0B5
:103AD000CF3DD80769F782E0D80EE11CF11CD6CFA4
:103AE0007798DF91CF91FF90EF90DF90CF90BF90CC
:103AF000AF909F908F900895EF92FF920F931F9336
:103B0000CF93DF930E94E208779AC0E0D0E030E9DB
:103B1000E32EFF24F394AE0160E070E08091DF05B6
:103B20009091E005A091E105B091E20524E0880FB5
:103B3000991FAA1FBB1F2A95D1F7481759076A0773
:103B40007B07E0F40FED13E080E496E00E941B5841
:103B5000F80181938F01F5E00F3D1F07A9F7F89455
:103B60006091DF057091E005CE010E94A203789478
:103B7000C7010197F1F7C05CDF4FCDCF7798DF9198
:103B8000CF911F910F91FF90EF9008954F925F9208
:103B90006F927F92AF92BF92CF92DF92EF92FF929D
:103BA0000F931F93CF93DF930E94E2080E94710945
:103BB0008EB187608EB98FEF84B987B981B9739858
:103BC000779AC090DF05D090E005E090E105F09095
:103BD000E2054091DF055091E0056091E1057091AB
:103BE000E2058091E3059091E405A091E505B0918F
:103BF000E605840F951FA61FB71FC816D906EA064B
:103C0000FB06D8F50FED13E026013701C0E0D0E048
:103C100080E496E00E941B585801F80181938F01BF
:103C20004AEA65E575E580E090E00E94D30445E549
:103C30006AEA7AE280E090E00E94D30440EA65E517
:103C400075E580E090E00E94D304F5014081C30156
:103C5000B2010E94D304CE010E94AE052196FFEF6F
:103C60004F1A5F0A6F0A7F0AC11582E0D80781F6F2
:103C7000E2E0DE0EE11CF11CACCF739A7798DF9185
:103C8000CF911F910F91FF90EF90DF90CF90BF9059
:103C9000AF907F906F905F904F9008950F931F9318
:103CA000CF9364E670E080E090E00E94A055779AA0
:103CB00011B884E391E00E94CD058FEF81B9809126
:103CC000D6039091D70305972CF461E080E090E64D
:103CD0000E94E3056AE080E090E00E94E305C0E016
:103CE0008C2F90E02091CB033091CC038217930767
:103CF000ECF46C2F80E090E40E94E30500E010EA11
:103D00008091C7039091C8038017910768F080E401
:103D100096E00E941B588093DF03682FC8010E9421
:103D2000F5050F5F1F4FECCFCF5FDACF60E080E08B
:103D300090E00E94E30511B87798CF911F910F9101
:103D40000895DF92EF92FF920F931F93CF93DF932B
:103D50007ADB6AE070E080E090E00E94A05560911C
:103D6000DB038FEF81B9779A80E090E20E94E30550
:103D700060E080E090E40E94E30500E010E4DD24D0
:103D8000DA94CFEDD3E0C8018F5D93407C0180E4ED
:103D900096E00E941B5888836AEA8AEA9AE00E94A9
:103DA000E30565E585E595E00E94E30560EA8AEABA
:103DB0009AE00E94E3056881C7018C0F9D1F0E9455
:103DC000E30511B88EB1897F8EB9999180B18927A9
:103DD00087FDFCCF8EB186608EB9D1B895E0CF3D1E
:103DE000D907A9F61E5F011580E8180751F611B82A
:103DF0007798DF91CF911F910F91FF90EF90DF9017
:103E00000895DF92EF92FF920F931F93CF93DF936A
:103E10001ADB6AE070E080E090E00E94A0556091BB
:103E2000DB038FEF81B9779A80E090E20E94E3058F
:103E300060E080E090E40E94E3056AEA8AEA9AE0A2
:103E40000E94E30565E585E595E00E94E30560E2F3
:103E50008AEA9AE00E94E30500E010E4DD24DA94A7
:103E6000CFEDD3E0C8018F5D93407C0180E496E004
:103E70000E941B58888360EA8AEA9AE00E94E30560
:103E80006881C7018C0F9D1F0E94E30511B88EB198
:103E9000897F8EB9999180B1892787FDFCCF8EB13A
:103EA00086608EB9D1B895E0CF3DD907F9F61E5F8F
:103EB000011580E81807A1F660E985E595E00E9404
:103EC000E30560E08AEA9AE00E94E30511B877987A
:103ED000DF91CF911F910F91FF90EF90DF900895A8
:103EE0004F925F926F927F928F929F92AF92BF920A
:103EF000CF92DF92EF92FF920F931F93CF93DF93B6
:103F0000CDB7DEB72A970FB6F894DEBF0FBECDBF90
:103F10000E94E2086AE070E080E090E00E94A05514
:103F20008090000190900101A0900201B0900301E7
:103F3000D501C4018655954FAF4FBF4F89839A83F2
:103F4000AB83BC83BC01CD010E9419138AEA90E0C7
:103F50000E940413D501C4018C5A9A4FAF4FBF4F32
:103F60008D839E83AF83B887BC01CD010E94191356
:103F700085E590E00E94041369817A818B819C81A0
:103F80000E94191380E290E00E940413C12CD12CEE
:103F900076018091DF059091E005A091E105B09157
:103FA000E205C816D906EA06FB0608F0AEC08EB1D7
:103FB00080588EB9D701C601A170BB27892B8A2BE7
:103FC0008B2B31F46AE070E080E090E00E94A05515
:103FD000812C912C5401412C512C320180E496E02B
:103FE0000E941B5889878093DF0380E496E00E943B
:103FF0001B588093E003198500E0D801A82BBA87ED
:10400000A9876D817E818F8198850E94191380EA2E
:1040100090E00E9404138091000190910101A09111
:104020000201B09103018C0D9D1DAE1DBF1D880DB9
:10403000991DAA1DBB1DBC01CD01640D751D861DFA
:10404000971D0E94191389859A850E9404138091F7
:10405000000190910101A0910201B09103018C0D2A
:104060009D1DAE1DBF1D880D991DAA1DBB1DBC0148
:10407000CD01640D751D861D971D0E9419130E94A8
:10408000110829853A852F673F6F3A8729878F67FF
:104090009F6FA985BA858A179B07D9F08091000187
:1040A00090910101A0910201B09103018C0D9D1D21
:1040B000AE1DBF1D880D991DAA1DBB1DBC01CD01E4
:1040C000640D751D861D971D0E9419130E9411080D
:1040D000DECFB2E04B0E511C611C711C411422E07A
:1040E00052066104710409F079CF32E0930EA11CED
:1040F000B11C811480E89806A104B10409F06BCFCB
:1041000090E8D90EE11CF11C44CF779869817A813F
:104110008B819C810E94191380E990E00E94041316
:104120006D817E818F8198850E94191380E090E0D7
:104130002A960FB6F894DEBF0FBECDBFDF91CF91A8
:104140001F910F91FF90EF90DF90CF90BF90AF90B5
:104150009F908F907F906F905F904F900C9404137E
:104160000F931F93CF93DF9300D0CDB7DEB785E0D9
:104170008A838091750389830FED13E080E496E0D4
:104180000E941B58F80181938F01F3E0073E1F073F
:10419000A9F7F89461E0CE0102960E94590761E008
:1041A000CE0101960E94590768E08FED93E00E94CE
:1041B00059070E94C30778940F900F90DF91CF9119
:1041C0001F910F910895AF92BF92CF92DF92EF921D
:1041D000FF920F931F93CF93DF93D0E010E03FED5A
:1041E000A32E35E0B32E412F50E060E070E08091C7
:1041F000750390917603A0917703B091780326E040
:10420000B695A795979587952A95D1F74817590799
:104210006A077B0788F58FEDE82E83E0F82E6701AB
:1042200080E496E00E941B58F60181936F01AE1660
:10423000BF06B1F7F894C0E080E995E60E947E08D9
:1042400085E00E948E088D2F8C0F0E948E086701DA
:1042500008E0F60181916F010E948E080150C9F7B4
:104260000E94AF08CF5FF8E0EF0EF11CC03421F7D9
:1042700078941F5FD05CB7CFDF91CF911F910F91E2
:10428000FF90EF90DF90CF90BF90AF900895BF92D6
:10429000CF92DF92EF92FF920F931F93CF93DF9312
:1042A000C090C303D090C403E090C503F090C60350
:1042B0008091C3039091C403A091C503B091C6033C
:1042C0009058AF4FBF4FC816D906EA06FB0618F53F
:1042D000C701B6010E941913CFEDD3E080E496E048
:1042E0000E941B58B82E888380E496E00E941B58D9
:1042F00089831B2D00E09801282BC9010E9404131B
:10430000229634E0CF31D30749F780E4C80ED11CA0
:10431000E11CF11CCDCFDF91CF911F910F91FF9048
:10432000EF90DF90CF90BF9008954F925F926F9281
:104330007F929F92AF92BF92CF92DF92EF92FF92C5
:104340000F931F93CF93DF930E9404168091040173
:104350000E944616672B682B692B61F06BE371E0B6
:1043600080E496E00E942A0262E471E080E496E034
:104370000E942A020E944D15C12CD12C76012601E3
:10438000370110E08EB180588EB960E070E080E0B7
:1043900094EB0E943A1561E070E080E090E00E94AA
:1043A000A05560E070E080E098E00E941913CFED26
:1043B000D3E000E080E496E00E941B58982E8883AA
:1043C00080E496E00E941B588983B92CA12C9501AA
:1043D000282BC9010E9404130E5F2296003851F762
:1043E00061E070E080E090E00E94A055C301B2015E
:1043F000956A0E943A1561E070E080E090E00E94CA
:10440000A05560E070E080E092ED0E943A15809146
:1044100004010E946E15882339F061E070E080E0AD
:1044200090E00E94A055F3CF1F5F3FEF431A530A5D
:10443000630A730A103809F0A5CF64E170E080E0E8
:1044400090E00E94A05580E8C80ED11CE11CF11C30
:10445000C11424E0D206E104F10409F090CF77986A
:10446000DF91CF911F910F91FF90EF90DF90CF9050
:10447000BF90AF909F907F906F905F904F90089506
:104480003F924F925F926F927F928F929F92AF92E4
:10449000BF92CF92DF92EF92FF920F931F93CF9331
:1044A000DF930E94231A6AE070E080E090E00E94AF
:1044B000A055C12CD12C76018091DB039091DC03B7
:1044C000A091DD03B091DE03B695A79597958795EA
:1044D000C816D906EA06FB0608F093C0D701C60144
:1044E0009370AA27BB27892B8A2B8B2B19F48EB1AB
:1044F00080588EB98091000190910101A091020134
:10450000B0910301BC01CD01665575458F4F9F4F9A
:104510000E9419138AEA9AEA0E940413809100010A
:1045200090910101A0910201B0910301BC01CD0164
:104530006C5A7A4A8F4F9F4F0E94191385E595E573
:104540000E9404138091000190910101A091020149
:10455000B0910301BC01CD01665575458F4F9F4F4A
:104560000E94191380EA90EA0E9404132601370181
:10457000440C551C661C771CCFEDD3E0812C912C8C
:1045800054018091000190910101A0910201B0912C
:104590000301A054BF4F840D951DA61DB71DBC017E
:1045A000CD01680D791D8A1D9B1D0E94191380E4A1
:1045B00096E00E941B58382E888380E496E00E9483
:1045C0001B588983132D00E09801282BC9010E94F4
:1045D000041332E0830E911CA11CB11C229681149D
:1045E00081E09806A104B10461F66EE170E080E01C
:1045F00090E00E94A05520E8C20ED11CE11CF11CE5
:104600005BCF779861E080E496E0DF91CF911F91D6
:104610000F91FF90EF90DF90CF90BF90AF909F9061
:104620008F907F906F905F904F903F900C944A02D4
:1046300080E496E00E941B588093DA0308952F923D
:104640003F924F925F926F927F928F929F92AF9222
:10465000BF92CF92DF92EF92FF920F931F93CF936F
:10466000DF93CDB7DEB760970FB6F894DEBF0FBE0D
:10467000CDBF0DB71EB718870F83809000019090B3
:104680000101A0900201B0900301D2DF6AE070E066
:1046900080E090E00E94A0550E94E2086AE070E08D
:1046A00080E090E00E94A0550E9471096AE070E0ED
:1046B00080E090E00E94A055C090DF05D090E0051A
:1046C000E090E105F090E205C501B4016655754F33
:1046D0008F4F9F4F69877A878B879C87D501C4014D
:1046E0008C5A9A4FAF4FBF4F8D879E87AF87B88B3D
:1046F0004091DF055091E0056091E1057091E20580
:104700008091E3059091E405A091E505B091E6055F
:10471000840F951FA61FB71FC816D906EA06FB0609
:1047200008F056C18EB180588EB9812C912C54015D
:10473000212C312C0DB71EB71E830D8369857A8518
:104740008B859C850E9419138AEA90E00E940413CD
:104750006D857E858F8598890E94191385E590E087
:104760000E9404132101032C000C66087708809135
:10477000000190910101A0910201B09103018C0D03
:104780009D1DAE1DBF1D880D991DAA1DBB1DBC0121
:10479000CD01640D751D861D971D0E94191385E2BC
:1047A00090E00E9404138091000190910101A0917A
:1047B0000201B09103018C0D9D1DAE1DBF1D880D22
:1047C000991DAA1DBB1DBC01CD01640D751D861D63
:1047D000971D0E9419138091DA03869590E0019746
:1047E0000E9404138091DA032DB73EB7281B3109CC
:1047F0000FB6F8943EBF0FBE2DBF0DB71EB70F5FAB
:104800001F4F1C830B8300E010E04091DA0350E05F
:104810000417150714F010E00DC0401B510B6B81FD
:104820007C81600F711F80E496E00E94AF59080FF1
:10483000191FEBCF4091DA038091000190910101A3
:10484000A0910201B0910301141748F5EB81FC819E
:10485000E10FF11D41812081022E000C330B322F1C
:104860002227B901642B7A8369838C0D9D1DAE1DAF
:10487000BF1D880D991DAA1DBB1D840D951DA61D6C
:10488000B71DBC01CD01610F711D811D911D0E94DD
:10489000191389819A810E9404131E5FCBCF8C0D5E
:1048A0009D1DAE1DBF1D880D991DAA1DBB1D840D2C
:1048B000951DA61DB71D642F70E062507109AB01F4
:1048C000770F660B770B8C019D01040F151F261FB8
:1048D000371FC901B8010E94191389E290E00E94B4
:1048E00004136091DA0370E062507109AB01770F35
:1048F000660B770B8091000190910101A09102015C
:10490000B0910301840F951FA61FB71F8C0D9D1D2D
:10491000AE1DBF1D880D991DAA1DBB1DBC01CD017B
:10492000640D751D861D971D0E9419130E941108A4
:1049300009811A810F671F6F8F679F6F801791071B
:1049400041F16091DA0370E062507109AB01770FB9
:10495000660B770B8091000190910101A0910201FB
:10496000B0910301840F951FA61FB71F8C0D9D1DCD
:10497000AE1DBF1D880D991DAA1DBB1DBC01CD011B
:10498000640D751D861D971D0E9419130E94110844
:10499000D3CF0D811E810FB6F8941EBF0FBE0DBF81
:1049A0008091DA03280E311C211410E431060CF436
:1049B000C1CE20E4920EA11CB11C8114910432E0FE
:1049C000A306B10409F0B4CE62E0E60EF11C90CE6D
:1049D00077980F8118850FB6F8941EBF0FBE0DBFD4
:1049E00060960FB6F894DEBF0FBECDBFDF91CF91BA
:1049F0001F910F91FF90EF90DF90CF90BF90AF90FD
:104A00009F908F907F906F905F904F903F902F90EE
:104A100008952F923F924F925F926F927F928F9262
:104A20009F92AF92BF92CF92DF92EF92FF920F933D
:104A30001F93CF93DF93CDB7DEB728970FB6F894C7
:104A4000DEBF0FBECDBFF4DD6AE070E080E090E035
:104A50000E94A0550E94E2086AE070E080E090E0C9
:104A60000E94A0550E9471096AE070E080E090E029
:104A70000E94A0558090DF059090E005A090E10590
:104A8000B090E205B694A794979487944091DF057F
:104A90005091E0056091E1057091E2058091E30598
:104AA0009091E405A091E505B091E605840F951F6E
:104AB000A61FB71FB695A79597958795881699064F
:104AC000AA06BB0608F0B8C08EB180588EB9412C3A
:104AD000512C320118861F82D501C401840D951D09
:104AE000A61DB71D8B839C83AD83BE834AEA50E02D
:104AF00065E575E080E090E00E94B21245E550E087
:104B00006AEA72E080E090E00E94B212AF81B8855C
:104B10006D01BB0FEE08FF088B819C81AD81BE81CA
:104B2000C80ED91EEA1EFB1E45E250E0C701B601C1
:104B30000E94B2124091DA0350E041505109C7017E
:104B4000B6010E94B212312C6091DA033616E8F4F5
:104B500080E496E00E941B58182F8093DF0380E4C6
:104B600096E00E941B588093E0031A831982098102
:104B70001A81082BC701B601630D711D811D911D9E
:104B8000A8010E94B2123394DFCF70E06150710926
:104B9000CB01770FAA0BBB0BBC01CD016C0D7D1DAA
:104BA0008E1D9F1D49E250E00E94B2126091DA030F
:104BB00070E061507109CB01770FAA0BBB0BBC01F0
:104BC000CD016C0D7D1D8E1D9F1D0E94DE121801F2
:104BD000AFE72A2A33243A948F679F6F6091DA03F4
:104BE0008215930581F070E061507109CB01770F58
:104BF000AA0BBB0BBC01CD016C0D7D1D8E1D9F1D35
:104C00000E94DE12E9CF8F819885860F911D9887CB
:104C10008F83811590420CF469CFB0E25B0E611C6A
:104C2000711C4114510421E06206710409F052CF55
:104C30008FEFA81AB80A2ACF779828960FB6F8945B
:104C4000DEBF0FBECDBFDF91CF911F910F91FF90BF
:104C5000EF90DF90CF90BF90AF909F908F907F901C
:104C60006F905F904F903F902F9008956F927F923A
:104C70008F929F92AF92BF92CF92DF92EF92FF926C
:104C80000F931F93CF93DF930E94E2086AE070E0D6
:104C900080E090E00E94A055C12CD12C760180913B
:104CA000DF059091E005A091E105B091E205B69590
:104CB000A79597958795C816D906EA06FB0608F0CA
:104CC0005FC0D701C6019770AA27BB27892B8A2B03
:104CD0008B2B19F48EB180588EB94601570100E232
:104CE00010E080E496E00E941B58C82F8093DF03F9
:104CF00080E496E00E941B588093E0037C2E612C98
:104D0000E301C82B4AEA50E065E575E080E090E0F9
:104D10000E94B21245E550E06AEA72E080E090E05D
:104D20000E94B21240EA50E065E575E080E090E054
:104D30000E94B212AE01C501B4010E94B212C501B7
:104D4000B4010E94DE12CF67DF6F8F679F6F8C17F1
:104D50009D0729F0C501B4010E94DE12F6CF015073
:104D600011098FEF881A980AA80AB80A01151105C7
:104D700009F0B7CF80E2C80ED11CE11CF11C8FCF27
:104D80007798DF91CF911F910F91FF90EF90DF9077
:104D9000CF90BF90AF909F908F907F906F9008952D
:104DA000CF92DF92EF92FF9280910E0290910F02CC
:104DB00081309105A1F5C0901802D0901902E090C1
:104DC0001A02F0901B024091180250911902609152
:104DD0001A0270911B028091100290911102A09111
:104DE0001202B0911302840F951FA61FB71FC81699
:104DF000D906EA06FB0608F047C080E496E00E9468
:104E00001B588093DF03AC015527C701B6010E94F0
:104E1000B2128FEFC81AD80AE80AF80AD4CF02975C
:104E200099F5C0901802D0901902E0901A02F09003
:104E30001B02409118025091190260911A02709160
:104E40001B028091100290911102A0911202B09168
:104E50001302840F951FA61FB71FC816D906EA06AE
:104E6000FB0690F480E496E00E941B581092DF034A
:104E700040E050E0C701B6010E94B2128FEFC81A9D
:104E8000D80AE80AF80AD5CFFF90EF90DF90CF90CC
:104E90000895CF92DF92EF92FF92C12CD12C80E146
:104EA000E82EF12C80E496E00E941B588093DF03EB
:104EB000AC015527C701B6010E94B2128FEFC81A84
:104EC000D80AE80AF80A8FEFC8168FE7D80680E1FB
:104ED000E806F10439F7FF90EF90DF90CF90089546
:104EE0008F929F92AF92BF92CF92DF92EF92FF92FA
:104EF0001F93CF93DF930E94E2086AE070E080E0A6
:104F000090E00E94A0550E9471096AE070E080E084
:104F100090E00E94A0558FEF87B9C090DF05D09038
:104F2000E005E090E105F090E2051FEF4091DF051C
:104F30005091E0056091E1057091E2058091E305F3
:104F40009091E405A091E505B091E605840F951FC9
:104F5000A61FB71FC816D906EA06FB0608F046C00A
:104F6000D701C6019F70AA27BB27892B8A2B8B2BC1
:104F700019F48EB180588EB9CFEDD3E046015701B8
:104F800080E496E00E941B5888834AEA6AEA7AE045
:104F900080E090E00E94BB1A45E565E575E080E0A1
:104FA00090E00E94BB1A40EA6AEA7AE080E090E072
:104FB0000E94BB1A4881C501B4010E94BB1A17B8F0
:104FC0001198999186B1892787FDFCCF119A17B95D
:104FD0008FEF881A980AA80AB80A85E0CF3DD8074B
:104FE00079F682E0D80EE11CF11CA0CF17B87798B3
:104FF000DF91CF911F91FF90EF90DF90CF90BF9006
:10500000AF909F908F9008958F929F92AF92BF9292
:10501000CF92DF92EF92FF921F93CF93DF930E9484
:10502000E2086AE070E080E090E00E94A0550E94F3
:1050300071096AE070E080E090E00E94A0558FEF77
:1050400087B94AEA6AEA7AE080E090E00E94BB1AF7
:1050500045E565E575E080E090E00E94BB1A40E21E
:105060006AEA7AE080E090E00E94BB1AC090DF0517
:10507000D090E005E090E105F090E2051FEF40914F
:10508000DF055091E0056091E1057091E2058091A6
:10509000E3059091E405A091E505B091E605840F44
:1050A000951FA61FB71FC816D906EA06FB06C0F54E
:1050B000D701C6019F70AA27BB27892B8A2B8B2B70
:1050C00019F48EB180588EB9CFEDD3E04601570167
:1050D00080E496E00E941B58888340EA6AEA7AE0FE
:1050E00080E090E00E94BB1A4881C501B4010E9493
:1050F000BB1A17B81198999186B1892787FDFCCF03
:10510000119A17B98FEF881A980AA80AB80A85E089
:10511000CF3DD807E9F682E0D80EE11CF11CAFCFF5
:1051200040E965E575E080E090E00E94BB1A40E050
:105130006AEA7AE080E090E00E94BB1A17B877989C
:10514000DF91CF911F91FF90EF90DF90CF90BF90B4
:10515000AF909F908F9008952F923F924F925F92C1
:105160006F927F928F929F92AF92BF92CF92DF9277
:10517000EF92FF920F931F93CF93DF9300D000D055
:1051800000D0CDB7DEB754DA6AE070E080E090E09E
:105190000E94A0550E94E2086AE070E080E090E082
:1051A0000E94A0550E9471096AE070E080E090E0E2
:1051B0000E94A0558FEF87B9C090DF05D090E00521
:1051C000E090E105F090E20588EE282E83E0382E8D
:1051D0000FEF4091DF055091E0056091E10570917E
:1051E000E2058091E3059091E405A091E505B09179
:1051F000E605840F951FA61FB71FC816D906EA0635
:10520000FB0608F073C08EB180588EB9812C912CAA
:1052100054011E821D82D701C601880D991DAA1D49
:10522000BB1D89839A83AB83BC834AEA6AEA7AE02E
:1052300080E090E00E94BB1A45E565E575E080E0FE
:1052400090E00E94BB1A45E2C701B6010E94BB1A5A
:105250004091DA034150C701B6010E94BB1A10E029
:10526000AD81BE812D01BB0F6608770889819A81C7
:10527000AB81BC81480E591E6A1E7B1E8091DA03E9
:10528000181778F480E496E00E941B58482FC30159
:10529000B201610F711D811D911D0E94BB1A1F5F1C
:1052A000EDCF49E2C701B6010E94BB1A17B8C10190
:1052B0000197F1F707B98091DA03AD81BE81A80F9C
:1052C000B11DBE83AD83A115B0440CF4AECF30E464
:1052D000930EA11CB11C8114910482E0A806B104B4
:1052E00009F097CF92E0E90EF11C73CF77982696DC
:1052F0000FB6F894DEBF0FBECDBFDF91CF911F91E7
:105300000F91FF90EF90DF90CF90BF90AF909F9064
:105310008F907F906F905F904F903F902F90089567
:105320008F929F92AF92BF92CF92DF92EF92FF92B5
:10533000CF93DF930E94E2086AE070E080E090E0A3
:105340000E94A0550E94E5116AE070E080E090E0C4
:105350000E94A0558FEF87B9C090DF05D090E0057F
:10536000E090E105F090E2058091280290912902F9
:10537000A0912A02B0912B02C816D906EA06FB06B4
:10538000E8F4779ACFEDD3E04601570180E496E048
:105390000E941B588993482FC501B4010E94BB1A73
:1053A0008FEF881A980AA80AB80A85E0CF3DD80777
:1053B00069F782E0D80EE11CF11CD6CF7798DF9117
:1053C000CF91FF90EF90DF90CF90BF90AF909F90E4
:1053D0008F9008953F924F925F926F927F928F923B
:1053E0009F92AF92BF92CF92DF92EF92FF920F9374
:1053F0001F93CF93DF93CDB7DEB72A970FB6F894FC
:10540000DEBF0FBECDBF0E94E2086AE070E080E020
:1054100090E00E94A0550E9471096AE070E080E06F
:1054200090E00E94A0558FEF87B9C090DF05D09023
:10543000E005E090E105F090E2051A861986332434
:105440003A944091DF055091E0056091E10570913B
:10545000E2058091E3059091E405A091E505B09106
:10546000E605840F951FA61FB71FC816D906EA06C2
:10547000FB0608F0C3C029853A852115384044F061
:1054800012EA412E12E8512E18E8612E712C07C045
:10549000B2EA4B2EB2E85B2EB8E06B2E712C8985F8
:1054A0009A85811598404CF020E53DE141E850E0B7
:1054B00029833A834B835C8308C080E59DE1A1E0AA
:1054C000B0E089839A83AB83BC83A985BA85A11593
:1054D000B8402CF080E090E0A0E8B0E003C080E0AD
:1054E00090E0DC010FED13E0812C912C5401A70119
:1054F0009601280F391F4A1F5B1F2D833E834F8360
:10550000588780E496E00E941B58A82FA795AA27E9
:10551000A795AC014270552725E0440F551F2A95E9
:10552000E1F74A2BDC01A470BB2733E0AA0FBB1FB5
:105530003A95E1F74A2BFC01E870FF27EE0FFF1FB9
:105540004E2BBC016071772775956795242F262B0C
:10555000AC0140725527F3E055954795FA95E1F770
:10556000422B9C0120743327A5E035952795AA95F9
:10557000E1F7242B881F8827881F822BD8018C9362
:1055800045E5C301B2010E94141C4AEA69817A818F
:105590008B819C810E94141C45E0C301B2010E94D2
:1055A000141CF80140816D817E818F819885680D82
:1055B000791D8A1D9B1D0E94141C17B85998D8018B
:1055C0009D918D0186B1892787FDFCCF599A37B807
:1055D000BFEF8B1A9B0AAB0ABB0A8114E2E09E065E
:1055E000A104B10409F08DCF29853A853E5F3A8741
:1055F000298732E0D30EE11CF11C23CF17B877982E
:105600002A960FB6F894DEBF0FBECDBFDF91CF91C3
:105610001F910F91FF90EF90DF90CF90BF90AF90D0
:105620009F908F907F906F905F904F903F900895E4
:105630003F924F925F926F927F928F929F92AF9222
:10564000BF92CF92DF92EF92FF920F931F93CF936F
:10565000DF93CDB7DEB72A970FB6F894DEBF0FBE43
:10566000CDBF0E94E2086AE070E080E090E00E9416
:10567000A0550E9471096AE070E080E090E00E940D
:10568000A0558FEF87B9C090DF05D090E005E0907E
:10569000E105F090E2051A86198633243A94409188
:1056A000DF055091E0056091E1057091E205809180
:1056B000E3059091E405A091E505B091E605840F1E
:1056C000951FA61FB71FC816D906EA06FB0608F0E5
:1056D00089C029853A852115384044F092EA492E3F
:1056E00092E8592E98E8692E712C07C082EA482E5C
:1056F00082E8582E88E0682E712C89859A8581155C
:1057000098404CF020E53DE141E850E029833A83A0
:105710004B835C8308C080E59DE1A1E0B0E0898314
:105720009A83AB83BC83A985BA85A115B8402CF0B8
:1057300080E090E0A0E8B0E003C080E090E0DC0111
:105740000FED13E0812C912C5401A7019601280F35
:10575000391F4A1F5B1F2D833E834F83588780E488
:1057600096E00E941B58D8018C9345E5C301B20115
:105770000E94141C4AEA69817A818B819C810E9473
:10578000141C45E0C301B2010E94141CF8014081C1
:105790006D817E818F819885680D791D8A1D9B1D85
:1057A0000E94141C17B85998D8019D918D0186B19B
:1057B000892787FDFCCF599A37B8BFEF8B1A9B0A10
:1057C000AB0ABB0A8114E2E09E06A104B10439F6DB
:1057D00029853A853E5F3A87298732E0D30EE11C5E
:1057E000F11C5DCF17B877982A960FB6F894DEBFF4
:1057F0000FBECDBFDF91CF911F910F91FF90EF9022
:10580000DF90CF90BF90AF909F908F907F906F90E0
:105810005F904F903F9008958F929F92AF92BF926A
:10582000CF92DF92EF92FF92CF93DF930E94E20834
:10583000C090DF05D090E005E090E105F090E20532
:105840008091DF059091E005A091E105B091E2051E
:105850009E5FAF4FBF4FC816D906EA06FB0620F57C
:105860008EB180588EB9CFEDD3E046015701C50106
:10587000B4010E949D028883998382E0880E911C66
:10588000A11CB11C229685E0CF3DD80781F740E0EE
:1058900052E06FED73E080E496E00E945D5882E094
:1058A000D80EE11CF11CCCCF7798DF91CF91FF90FF
:1058B000EF90DF90CF90BF90AF909F908F90089522
:1058C0008F929F92AF92BF92CF92DF92EF92FF9210
:1058D000CF93DF930E94E208C090DF05D090E005EF
:1058E000E090E105F090E2058091DF059091E00500
:1058F000A091E105B091E2059E5FAF4FBF4FC81682
:10590000D906EA06FB06F8F4CFEDD3E046015701CD
:10591000C501B4010E94E90289938FEF881A980AA1
:10592000A80AB80A85E0CF3DD80791F740E052E0D9
:105930006FED73E080E496E00E945D5882E0D80E3F
:10594000E11CF11CD1CF7798DF91CF91FF90EF90C0
:10595000DF90CF90BF90AF909F908F9008950F935E
:105960001F93CF93DF930E94E208779AC0E0D0E0C4
:1059700000E911E0AE0160E070E08091DF059091F8
:10598000E005A091E105B091E20524E0880F991FA0
:10599000AA1FBB1F2A95D1F7481759076A077B072B
:1059A000B8F4F8946091DF057091E005CE010E9493
:1059B0000A04789440E052E06FED73E080E496E0F2
:1059C0000E945D58C8010197F1F7C05CDF4FD2CF4C
:1059D0007798DF91CF911F910F9108958F929F92A9
:1059E000AF92BF92CF92DF92EF92FF92CF93DF936D
:1059F0000E94E2088EB185608EB98FEF84B987B9B5
:105A000015B818B811B873987198C090DF05D09088
:105A1000E005E090E105F090E2058091DF059091CE
:105A2000E005A091E105B091E2059E5FAF4FBF4F49
:105A3000C816D906EA06FB06F8F4CFEDD3E0460116
:105A40005701C501B4010E94C30489938FEF881ADE
:105A5000980AA80AB80A85E0CF3DD80791F740E038
:105A600052E06FED73E080E496E00E945D5882E0C2
:105A7000D80EE11CF11CD1CF739A7798DF91CF91AA
:105A8000FF90EF90DF90CF90BF90AF909F908F905E
:105A90000895CF92DF92EF92FF920F931F93CF93CF
:105AA000DF930E94E2086AE070E080E090E00E94EC
:105AB000A0550E9471096AE070E080E090E00E94C9
:105AC000A055C090E305D090E405E090E505F09086
:105AD000E6058FEF81B98091D6039091D7030597A2
