:1000000016C200003CC200003AC2000038C2000024
:1000100036C2000034C2000032C2000030C200000C
:100020002EC200000C941E570C940E5E0C94875E3A
:1000300026C2000024C2000022C2000020C200002C
:100040001EC200001CC200001AC2000018C200003C
:1000500016C2000014C2000012C200000C946B5DB6
:100060000EC200000CC200000AC2000008C200005C
:1000700006C2000004C2000002C2000000C200006C
:10008000FEC10000FCC10000FAC10000F8C1000080
:10009000F6C10000F4C1000022514C51C9555C5119
:1000A0005A515651545158513D513F514551345177
:1000B000C551C9553B513C515E51DC51F5516C5114
:1000C0007651C955C955C955FD51B05168516A514C
:1000D0009351C9550F521152645266526D52755266
:1000E00077527E528052825284528C528E52965255
:1000F000C955C955C955C955FB54FD5415550D551C
:1001000004552B55175519551B551D552955335554
:100110003B5543554555C9559E52A852B752BF52FB
:10012000C752CE52E552EF52FE5208531753215395
:10013000295331533A534253A4524A53835385535C
:10014000895390539853BE53C053C253C955C95590
:10015000C955C955C955C95551535553615368536C
:1001600059535D536F537153735375537753795389
:100170007B537D537F538153CC53CE53D653DE53A1
:10018000E053E853EA53F25303540D5417542054E8
:100190002A5432543A5442544B544D544F545154AF
:1001A00054545B546B546D546F5471547254825454
:1001B0008A548C5493549A54475549555055585520
:1001C0005A555C555E5560556255C955C955C95556
:1001D000C955C955C955C9556A55715579557B5584
:1001E0007D557F55815589558B558D55955599551B
:1001F000A055C955C955C9551352165219521A520C
:100200002A522C5241524952535255525C52C955AE
:10021000C955C955C955C955AC55AE55B555BC5547
:10022000BE55C055C755C955C955C955C955C955F4
:10023000C955C955C955C955C955C955C9559C54FC
:10024000A354BB54C254C454CB54E254EB54ED54A5
:10025000F45400C20100010005000500030000E1A4
:10026000000001000F000F000D00009600000200CA
:1002700019001A001700127A000007002000210060
:100280001D00807000000B00230023002000004BA5
:1002900000001400370037003400403800001E0012
:1002A0004B004B00480080250000320072007200B5
:1002B0007000C01200006E00E900E900E60060096D
:1002C0000000E500D801D801D501B0040000D30139
:1002D000B403B403B10358020000B403670767070F
:1002E00062072C0100006707DD0EDD0EDA0E012922
:1002F0000229042908291029202940298029012CB4
:10030000022C012602260426082610262026402636
:100310008026402C802C0123022304230823102351
:1003200020234023802301200220042008201020C5
:10033000202040208020102C202C012F022F042F61
:10034000082F102F202F402F802F7EFE7EFD7EFB5A
:100350007EF77EEF7EDF7EBF7E7F000100000B0414
:100360001200020000C8034300030000C40304019C
:10037000030904AA031802030904920316030309DC
:100380000484030C0C0331003200330034003500C8
:100390000000160355005300420020005300650082
:1003A0007200690061006C000000180354006500D1
:1003B00065006E00730079006400750069006E00CE
:1003C0006F0000000403090409024300020100C099
:1003D0003209040000010202010005240010010599
:1003E00024010001042402060524060001070582F9
:1003F0000308004009040100020A00000007050389
:1004000002400000070584024000001201000202C1
:10041000000020C01683040001010203010001C195
:1004200002018036018136000B20606220201124F9
:100430001FBECFEFD0E1DEBFCDBF12E0A0E0B1E044
:10044000ECE1FCEC02C005900D92AC35B107D9F798
:1004500026E0ACE5B2E001C01D92AA3EB207E1F78A
:1004600012E0C6E1D2E004C02197FE010E94C562FD
:10047000C431D107C9F70E94285A0C940266C0CD36
:10048000FB0101900020E9F73197AF01461B570BA4
:10049000DC01ED91FC910280F381E02D0994F0CF15
:1004A0000F931F93CF93DF93EC01EADF8C01CE0112
:1004B0000E946A58800F911FDF91CF911F910F9179
:1004C0000895CF93DF931F92CDB7DEB76983DC0128
:1004D000ED91FC910280F381E02D41E050E0BE01FE
:1004E0006F5F7F4F09950F90DF91CF910895CF9364
:1004F000DF93CDB7DEB727970FB6F894DEBF0FBEF8
:10050000CDBF28E730E04EE66EED76E0CE010196F5
:100510000E942C59CE0101960E941D5A60937404CA
:10052000709375048093760490937704CE010196BE
:100530000E94625927960FB6F894DEBF0FBECDBF5A
:10054000DF91CF91089540E052EC61E070E08EEDD4
:1005500096E00E94686181E885BF80E885BF11B898
:1005600014B817B81AB81DB810BA8DB184688DB90F
:100570007298779A68EC70E080E090E00E94AB5D42
:10058000779868EC70E080E090E00E94AB5D779A2D
:1005900068EC70E080E090E00E94AB5D7798089591
:1005A0008FEF84B987B981B98DB18F608DB98EB164
:1005B0008F608EB964EF71E080E090E00C94AB5DE9
:1005C0000F931F932FEF24B927B921B9DC01CB0179
:1005D000B695A7959795879585B9092F1A2F2B2F33
:1005E000332708B9CD01AA27BB2782B9729815B85D
:1005F00018B814B817B87198000000000000000087
:1006000026B183B1719A729A90E0922B1F910F914B
:1006100008950F931F932FEF24B927B921B9DC0157
:10062000CB01B695A7959795879585B9092F1A2F70
:100630002B2F332708B9CD01AA27BB2782B972987F
:100640000000000045B958B9709800000000709A89
:10065000729A1F910F9108952FEF24B927B911B8FD
:1006600065B9BB27A92F982F872F88B971987398E0
:10067000000000000000000000000000000000007A
:1006800080B1739A719A08952FEF24B927B921B9CF
:1006900065B9BB27A92F982F872F88B942B90000C9
:1006A0000000000000000000000000000000709842
:1006B000739800000000000000000000000000002F
:1006C000000000000000739A709A00000000000013
:1006D0000000000000000000000008950F931F9329
:1006E000CF93DF934AEA50E06AEA7AE080E090E054
:1006F00090DF45E550E065E575E080E090E089DF5A
:1007000040E950E06AEA7AE080E090E082DF0000B1
:100710000000000060E070E0CB0152DF082F62E0D3
:1007200070E080E090E04CDF182F6CE170E080E03A
:1007300090E046DFD82F6EE170E080E090E040DF8F
:10074000C82F68EE73E080E090E00E94AB5D602F00
:100750008EED96E0B6DE612F8EED96E0B2DE6D2F67
:100760008EED96E0AEDE6C2F8EED96E0AADE40EFC9
:1007700050E06AEA7AE080E090E04BDF00000000A1
:100780000000DF91CF911F910F91089541E050E05B
:1007900061157105C9F0615071099A01062E02C0F8
:1007A000220F331F0A94E2F728233923062E02C0B2
:1007B000369527950A94E2F7232B11F0289A01C069
:1007C00028987098709AE4CF08958F929F92BF9264
:1007D000CF92DF92EF92FF920F931F93CF93DF930D
:1007E0007B012DB127602DB9209A0F9A2EB1276079
:1007F0002EB9289A179A000000000DE714E0EC01CA
:100800006C0180E4C80ED11CCC15DD0508F039C0A0
:100810007298289A7098709A28987098709AE4E064
:10082000EE16F10419F466E070E002C06EE070E0CC
:10083000CE01ACDF0000000000000000000000005E
:10084000000000004801B12CF40181914F0168E0E3
:1008500070E090E09BDFB394F8E0BF12F5CF2898EA
:100860007098709A729A20988EB1897F8EB98EB1E5
:1008700086608EB9189BF8CF209A2196085F1F4F8B
:10088000C3CFDF91CF911F910F91FF90EF90DF9039
:10089000CF90BF909F908F9008956F927F928F928C
:1008A0009F92AF92BF92CF92DF92EF92FF920F93FF
:1008B0001F93CF93DF93CDB7DEB7C154D1090FB6E5
:1008C000F894DEBF0FBECDBF6B012DB127602DB9EF
:1008D000209A0F9A2EB127602EB9289A179A0000F5
:1008E00000008C01E12CF12C5C0150E4A50EB11C40
:1008F0004E0171E4870E911C0A151B0508F070C0AB
:100900007298289A7098709A7098709A84E0C816B5
:10091000D10419F466E070E002C06EE070E0C80136
:1009200035DF28987098709A729A000000000000D5
:10093000000000000000000000002098729884E091
:100940007198719A8150E1F7FE013196DF0171983B
:10095000719A83B181708D938A169B06C1F7729A42
:10096000289A209A60E0970123583B4F862F86955E
:1009700086958695D901A80FB11D408190E8499FC1
:10098000A0011124818170E4879FC0011124842B70
:100990009781892B628090E2699E3001112486291B
:1009A000638050E1659E300111248629448178E0FE
:1009B000479FA0011124482B858154E0859FC001E9
:1009C0001124842B9681990F892B8C93685F38961C
:1009D000603461F60F5F1F4F78E0E70EF11C8CCF9B
:1009E000CF5BDF4F0FB6F894DEBF0FBECDBFDF91F8
:1009F000CF911F910F91FF90EF90DF90CF90BF901C
:100A0000AF909F908F907F906F90089565B9BB27AE
:100A1000A92F982F872F88B9000000000000000040
:100A200080B10000000000000000089565B9BB27F8
:100A3000A92F982F872F88B942B900000000000025
:100A4000000070980000000000000000709A000094
:100A50000000000000000895CF938EB187608EB92A
:100A60008FEF84B987B981B973984AEA65E575E56E
:100A700080E090E0DBDF45E56AEA7AE280E090E042
:100A8000D5DF40E965E575E580E090E0CFDF11B89E
:100A9000719800000000000061E070E080E090E0EC
:100AA000B5DFC82F60E070E0CB01B0DF1F92CF93BD
:100AB0001F928F938AE291E09F938F9387E896E04D
:100AC0009F938F930E942A63739A8DB79EB708965F
:100AD0000FB6F8949EBF0FBE8DBF67E876E08EED2F
:100AE00096E0CF91DDCC8EB187608EB98FEF84B95F
:100AF00087B981B973984AEA65E575E580E090E0C9
:100B000095DF45E56AEA7AE280E090E08FDF40EF2A
:100B100065E575E580E090E089DF40EF65E575E526
:100B200080E090E083DF739A64E670E080E090E01C
:100B30000C94AB5D8EB187608EB98FEF84B987B9A5
:100B400081B973984AEA65E575E580E090E06EDF6B
:100B500045E56AEA7AE280E090E068DF40E865E532
:100B600075E580E090E062DF4AEA65E575E580E0E2
:100B700090E05CDF45E56AEA7AE280E090E056DFEB
:100B800040E165E575E580E090E050DF739A64EF41
:100B900071E080E090E00C94AB5DCF93C82F8EB1F4
:100BA00087608EB98FEF84B987B981B973984AEAA3
:100BB00065E575E580E090E039DF45E56AEA7AE2CF
:100BC00080E090E033DF40EB65E575E580E090E0A4
:100BD0002DDF4C2F60E070E0CB0128DF739ACF91BE
:100BE000089511B8719883589B4FFC01808190B192
:100BF0009813FDCF719A8FEF81B908956B9A73980E
:100C000061E070E080E090E00E94AB5D8FEF84B91E
:100C100087B98DB187618DB98EB187608EB9739AAE
:100C2000749811B860E971E080E090E00C94AB5DDD
:100C300085B998B900000000000000008EB1897EDF
:100C40008EB900000000000000000000000000005D
:100C50000000000000000000000080B19EB196601E
:100C60009EB900000000000000000000000000002D
:100C700000000000000000000000089585B998B948
:100C800062B9000000000000000070980000000041
:100C900000000000709A00000000000000000895AD
:100CA00085B998B962B9729A00000000000000008E
:100CB00000000000000000007298749A000000001C
:100CC000000000000000709800000000000000001C
:100CD0000000000000000000000000000000000014
:100CE0000000000000000000709A0000729A7498E2
:100CF0000000000000000000089587E491E098DF04
:100D000090E090936D0480936C0488E491E090DF10
:100D100090E0A0E0B0E08093680490936904A09311
:100D20006A04B0936B0489E491E082DF90E09093D1
:100D30006F0480936E0422E030E0309360042093CF
:100D40005F04409168045091690460916A04709155
:100D50006B04411551056105710549F002C0220F70
:100D6000331F4A95E2F73093600420935F0410929A
:100D700062041092610460916C0470916D0466309D
:100D8000710531F421E030E0309362042093610476
:100D90008230910539F421E030E0309362042093F1
:100DA000610419C08330910519F424E030E00BC0D0
:100DB0008430910519F420E130E005C085309105BB
:100DC00051F428E030E030936204209361046630EF
:100DD000710591F403C06630710531F42FEF31EAEB
:100DE00030935E0420935D048130910519F48FEFF8
:100DF00097EA04C0029734F08FEF9FEB90935E0464
:100E000080935D048EED96E05CDB609168048EED6E
:100E100096E057DB60916E048EED96E052CBFF9228
:100E20000F931F93CF93DF93CFEFC1B960E080E0C2
:100E300090E324DF64E670E080E090E00E94AB5D28
:100E400060E080E090E21ADF64E670E080E090E02D
:100E50000E94AB5D6AEA8AEA9AE010DF65E585E503
:100E600095E00CDF60E98AEA9AE008DF0000000004
:100E7000000011B880E090E0DBDEF82E82E090E028
:100E8000D7DE082F8CE190E0D3DE182F8EE190E0C2
:100E9000CFDED82F6F2D8EED96E013DB602F8EED19
:100EA00096E00FDB612F8EED96E00BDB6D2F8EED64
:100EB00096E007DBC1B960EF85E595E0DF91CF9162
:100EC0001F910F91FF90DACE8FEF81B960E080E043
:100ED00090E3D4DE64E670E080E090E00E94AB5DD9
:100EE00060E080E090E2CADE64E670E080E090E0DE
:100EF0000E94AB5D6AEA8AEA9AE0C0DE65E585E5B4
:100F000095E0BCDE60E88AEA9AE0B8DE6AEA8AEA3E
:100F10009AE0B4DE65E585E595E0B0DE60E18AEA59
:100F20009AE0ACDE11B880E090E082DE87FD0AC076
:100F30008EB180588EB964EF71E080E090E00E943D
:100F4000AB5DF1CF779808958FEF84B915B887B965
:100F500018B881B1836081B981B1886181B90E9877
:100F600082B1836082B91398149A0D9A159A0A98DF
:100F700080E090E0A0E0B8E08093590490935A0498
:100F8000A0935B04B0935C046CE271E080E090E0BD
:100F90000C94AB5DFC0128E00A9A808190E0880FF8
:100FA000892F881F990B892B09F425C000000000A8
:100FB0000000000000000A9800000000000000008F
:100FC0000000000000000000000000000000000021
:100FD0000000000000000000000000000000000011
:100FE0000000000000000000000000000000000001
:100FF0000000000025C0000000000000000000000C
:1010000000000000000000000000000000000000E0
:1010100000000000000000000000000000000000D0
:1010200000000000000000000000000000000000C0
:1010300000000000000000000000000000000A980E
:10104000215069F0000000000000000000000000D6
:101050000000000000008081880F80839DCF6150D8
:1010600011F0319698CF08950000000000000000B4
:101070000A9A0000000000000000000000000000CC
:1010800000000000000000000000000000000A98BE
:1010900008959C01EAE0F3E08FE3029B03C08150D6
:1010A000E1F70895000000000000000000000000CB
:1010B0000000000000000000000000000000000030
:1010C0000000000000000000000000000000000020
:1010D0000000000000000000000000000000000010
:1010E00080B1847081932150310929F09FE30299E6
:1010F000D3CF9150E1F708958FEF84B915B887B930
:1011000018B80895119800000000000000000000C9
:1011100026B183B1119A000090E0922B08950F93AD
:101120001F93CF93DF93CDB7DEB72B970FB6F8940D
:10113000DEBF0FBECDBFF89494E09B878A8761E045
:10114000CE010B9627DF61E0CE010A9623DF8CDF0C
:1011500080E490E09EDF7894EAE0F3E080E090E0C5
:1011600061E070E02781298326812A8325812B83F2
:1011700024812C8323812D8322812E8321812F831F
:1011800020812887DE01119620E030E040E05D916B
:10119000552339F08B01022E01C0000F0A94EAF7A3
:1011A000402B2F5F3F4F2830310589F7DC0123E0CA
:1011B000B695A7952A95E1F7A753BD4F4C9308968E
:1011C00038968034910571F62B960FB6F894DEBFF1
:1011D0000FBECDBFDF91CF911F910F910895BC013C
:1011E000660F771F20E030E040E22617370731F026
:1011F00092B1942792B92F5F3F4FF7CF0895CF93C5
:10120000DF93D82FC8E00A9A8D2F90E0880F892F9E
:10121000881F990B892B39F082E090E0E0DF0A9873
:1012200086E090E006C086E090E0D9DF0A9882E090
:1012300090E0D5DFDD0FC15031F7DF91CF910895F8
:101240000A9A82E090E0CBDF0A9884E090E0C7CF72
:101250000F931F93CF930FE014E0C0E4029B04C0F0
:1012600081E090E0BCDFFACF83E090E0B8DF80B1AE
:1012700082FB882780F9F80181938F01029904C0CD
:1012800081E090E0ACDFFACFC15041F7CF911F91E0
:101290000F9108950D9A159A0A98779A80E593EC24
:1012A0009EDF77980895CF93DF93CDB7DEB727976A
:1012B0000FB6F894DEBF0FBECDBF28E730E04EE694
:1012C0006EED76E0CE0101960E942C59CE0101967A
:1012D0000E941D5A60937D0670937E0680937F0660
:1012E00090938006CE0101960E94625927960FB610
:1012F000F894DEBF0FBECDBFDF91CF9108958F92DE
:101300009F92AF92BF92CF92DF92EF92FF92CBDF8C
:101310006AE070E080E090E00E94AB5D80907D0626
:1013200090907E06A0907F06B090800621E0821A01
:101330009108A108B108C12CD12C7601C814D90498
:10134000EA04FB04B0F54AEA50E06AEA7AE080E099
:1013500090E05FD945E550E065E575E080E090E01C
:1013600058D940E850E06AEA7AE080E090E051D94C
:101370004AEA50E06AEA7AE080E090E04AD945E53E
:1013800050E065E575E080E090E043D940E350E04F
:10139000C701B6013ED9C701B60112D98F679F6F49
:1013A0000196C9F78EB180588EB982E0E80EF11C23
:1013B000C5CFFF90EF90DF90CF90BF90AF909F9000
:1013C0008F900895CF93DF93CDB7DEB727970FB6F1
:1013D000F894DEBF0FBECDBF28E730E04EE66EEDDD
:1013E00076E0CE0101960E942C59CE0101960E9412
:1013F0001D5A6093810670938206809383069093B2
:101400008406CE0101960E94625927960FB6F89481
:10141000DEBF0FBECDBFDF91CF910895CF93DF9395
:10142000CDB7DEB727970FB6F894DEBF0FBECDBF9E
:1014300028E730E04EE66EED76E0CE0101960E94A0
:101440002C59CE0101960E941D5A60930B04709393
:101450000C0480930D0490930E04CE0101960E941B
:10146000625927960FB6F894DEBF0FBECDBFDF914D
:10147000CF910895CF93CFEFC4B9C7B915B818B8B5
:10148000C1B912B8C0BB80E281BBCDB98EE78EB9BD
:101490001BB81AB8719A729A739A749A8D9A12B884
:1014A00081B3807E81BB1BB81AB86AE070E080E02F
:1014B00090E00E94AB5D8D98CAB912B881B3807E6E
:1014C00081BB80EF8BB9739884E081500000E9F70D
:1014D000739A1AB81BB88D9A6AE070E080E090E0C9
:1014E000CF910C94AB5D8EB182658EB908958EB1AB
:1014F0008C608EB98D9A08951BB81AB8089565B995
:10150000BB27A92F982F872F88B9749A4BB9000051
:1015100000000000000000007698000000000000BD
:1015200000000000769A00000000000000000000AB
:10153000089565B9BB27A92F982F872F88B9000078
:10154000000000000000000074980000000000008F
:101550000000000089B1749A000000000000000043
:101560000000089562B9BB27A92F982F872F81BB50
:101570008D984BB9729A0000000000000000000036
:101580007398000000000000000000000000000050
:10159000000000000000000000000000000000004B
:1015A000000000000000000000000000000000003B
:1015B000000000000000000000000000000000002B
:1015C000000000000000000000000000000000001B
:1015D000000000000000000000000000000000000B
:1015E000000000000000739A8D9A000000000000C7
:1015F00000000000089562B9BB27A92F982F872FFC
:1016000081BB8D98739A000000000000000000006C
:1016100072980000000000000000000000000000C0
:1016200000000000000000000000000000000000BA
:1016300000000000000000000000000000000000AA
:10164000000000000000000000000000000000009A
:10165000000000000000000000000000000000008A
:1016600000000000000000000000000089B1729A34
:101670008D9A000000000000000000000895709A9C
:10168000000000000000000000000000000000005A
:101690007098000000000000000000000000000042
:1016A0000000749A0895CF92DF92EF92FF926B013F
:1016B0007C0122DFC5B8BB27AF2D9E2D8D2D88B9AB
:1016C000000000000000000000000000000000001A
:1016D000C11480E8D806E104F10408F07498709A07
:1016E00000000000000000000000000000000000FA
:1016F000000089B1000000000000000000000000B0
:10170000000000007098749A0000000000000000C3
:1017100000000000000000009FEF9AB9FF90EF90DA
:10172000DF90CF900895CF92DF92EF92FF926B01FE
:101730007C01E2DE719AC5B8BB27AF2D9E2D8D2DA1
:1017400088B9709AC11480E8D806E104F10408F061
:10175000749882E081500000E9F789B1FF90EF9022
:10176000DF90CF900895CF92DF92EF92FF92CF93C8
:101770006B017C01C42F83DFC5B8BB27AF2D9E2D25
:101780008D2D88B971988FEF8AB9CBB9709A000006
:10179000000000000000000076980000000000003B
:1017A00000000000769A0000000000000000000029
:1017B000C11480E8D806E104F10408F0749882E0CE
:1017C000982F91500000E9F7000000000000000091
:1017D0000000709881500000E9F7749A719A4FDF09
:1017E000CF91FF90EF90DF90CF9086CE0F931F9315
:1017F0002FEF2AB965B9072F182F292F332708B9DA
:10180000749A719822E0322F31500000E9F74BB9F9
:1018100021500000E9F7611570488105910508F035
:101820007498709A82E0982F91500000E9F77098B0
:10183000982F91500000E9F7749A81500000E9F761
:10184000719A1F910F9158CE0F931F937098749AAD
:1018500071982FEF2AB94BB965B9072F182F292F87
:10186000332708B9709A611570488105910508F011
:10187000749882E0982F91500000E9F77098815099
:101880000000E9F7749A719A37DE709A1F910F91F0
:10189000089565B9BB27A92F982F872F88B971980C
:1018A0008FEF8AB94BB9749A709A0000000000005B
:1018B0000000000000000000000000007098749A12
:1018C000719A1ACE82B991BB8D9800000000000079
:1018D000000000008FEF8AB96BB900000000000023
:1018E00000000000729A00000000000000000000EC
:1018F000739800000000000000000000739A8D9AA9
:10190000FBCD82B991BB739A00000000000000007B
:1019100000007298000000000000000000000000BD
:10192000000000000000000089B10000000000007D
:101930000000000000000000000000000000729A9B
:101940008D9A000000000000000000000895CF9272
:10195000DF92EF92FF92CF936B017C01C42F8FDE59
:10196000C5B8CD2CDE2CEF2CFF24C8B871988FEFB2
:101970008AB9CBB97498709A00000000000000008A
:101980007098749A719AB8DDCF91FF90EF90DF90C4
:10199000CF9075CE40E461E070EA80E090E0D7DF60
:1019A00040E060E070EA80E090E0D1DF40E060E09D
:1019B00070E880E090E0CBDF40E061E070E880E03C
:1019C00090E0C5DF41E060E070E880E090E0BFDFDC
:1019D00042E061E070E880E090E0B9DF42E060E082
:1019E00070E880E090E0B3DF45E161E070E880E01E
:1019F00090E0ADDF43E060E070E880E090E0A7DFDA
:101A000045E161E070E880E090E0A1DF44E060E063
:101A100070E880E090E09BDF4AE061E070E880E001
:101A200090E095DF45E060E070E880E090E08FDFD7
:101A30004AE061E070E880E090E089DF46E060E045
:101A400070E880E090E083DF40E061E070E880E0F3
:101A500090E07DDF47E060E070E880E090E077DFD5
:101A600041E061E070E880E090E071DF40E060E03C
:101A700070E880E090E06BCF02DE40E860E070E864
:101A800080E090E070DEFBCDCF92DF92EF92FF928C
:101A90001F93CF93DF936B017C01142FC5E0D0E03F
:101AA000C701B60100DE412FC701B6015CDE169505
:101AB0002197B1F7DF91CF911F91FF90EF90DF90C9
:101AC000CF90089560E070E880E090E0ECDD40E8C1
:101AD00060E070E880E090E046DE40E160E070E8C1
:101AE00080E090E0D1DF40E160E070EE80E090E0E7
:101AF000CBDF42E160E070EA80E090E0C5DF45E1E5
:101B000060E070EC80E090E0BFCF9FEF9AB90000FA
:101B1000000000008BB90000000000007198000078
:101B200000000000749A000000000000749800009B
:101B300000000000719A0000000000009AB90895AA
:101B4000CF93DF93CFEFCAB94AEA65E575E580E048
:101B500090E0D5DC45E56AEA7AE280E090E0CFDC0F
:101B600040E965E575E580E090E0C9DC0000000033
:101B70000000C2DC60E070E0CB01DBDC61E070E023
:101B800080E090E0D6DCD82F68EE73E080E090E053
:101B90000E94AB5D6D2F8EED96E00E946102CAB986
:101BA0004AEA65E575E580E090E0A9DC45E56AEA8A
:101BB0007AE280E090E0A3DC40EF65E575E580E047
:101BC00090E09DDC000000000000DF91CF9194CCFC
:101BD000CF93DF9380E090E098DF80E090E095DFA6
:101BE00080E090E092DFCFEFCAB9469A4AEA65E515
:101BF00075E580E090E083DC469845E56AEA7AE2A4
:101C000080E090E07CDC469A40E965E575E580E09F
:101C100090E075DC0000000000006EDC60E070E029
:101C2000CB0187DC61E070E080E090E082DCD82FBF
:101C300068EE73E080E090E00E94AB5D6D2F8EED6A
:101C400096E00E946102CAB9469A4AEA65E575E5DE
:101C500080E090E054DC469845E56AEA7AE280E06C
:101C600090E04DDC469A40EF65E575E580E090E058
:101C700046DC000000000000DF91CF913DCCCF9307
:101C8000DF93CFEFCAB940E160E070E880E090E018
:101C9000FBDE40E160E070EE80E090E0F5DE40E1E8
:101CA00060E070E880E090E0EFDE4AEA65E575E527
:101CB00080E090E058DD45E56AEA7AE280E090E075
:101CC00052DD40E965E575E580E090E04CDD00001F
:101CD0000000000011DC60E070E0CB012ADC61E074
:101CE00070E080E090E025DCD82F68EE73E080E0C3
:101CF00090E00E94AB5D6D2F8EED96E00E94610238
:101D0000CAB94AEA65E575E580E090E02CDD45E575
:101D10006AEA7AE280E090E026DD40EF65E575E56D
:101D200080E090E020DD000000000000DF91CF9116
:101D3000E3CBCF93DF93CFEFCAB92CDE4AEA65E558
:101D400075E580E090E00FDD45E56AEA7AE280E043
:101D500090E009DD40E965E575E580E090E003DDB0
:101D6000000000000000C8DB60E070E0CB01E1DBB8
:101D700061E070E080E090E0DCDBD82F68EE73E09B
:101D800080E090E00E94AB5D6D2F8EED96E00E94AA
:101D90006102CAB94AEA65E575E580E090E0E3DCF6
:101DA00045E56AEA7AE280E090E0DDDC40EF65E557
:101DB00075E580E090E0D7DC000000000000DF91D6
:101DC000CF919ACBCF93DF93CFEFCAB9E3DD4AEA45
:101DD0006AEA7AE080E090E0C6DC45E565E575E01A
:101DE00080E090E0C0DC40E96AEA7AE080E090E0E0
:101DF000BADC0000000000007FDB60E070E0CB0197
:101E000098DB62E070E080E090E093DBD82F68EE32
:101E100073E080E090E00E94AB5D6D2F8EED96E068
:101E20000E946102CAB94AEA6AEA7AE080E090E078
:101E30009ADC45E565E575E080E090E094DC40EFF4
:101E40006AEA7AE080E090E08EDC000000000000AA
:101E5000DF91CF9151CB4BDB8FEF8AB94AEA65E531
:101E600075E580E090E04BDB45E56AEA7AE280E0E8
:101E700090E045DB40E865E575E580E090E03FDB1C
:101E80004AEA65E575E580E090E039DB45E56AEA18
:101E90007AE280E090E033DB40E165E575E580E0E3
:101EA00090E02DDB64E670E080E090E00E94AB5DA6
:101EB00023DB60E070E0CB013CDB87FD0AC08EB124
:101EC00080588EB964EF71E080E090E00E94AB5DD5
:101ED000F0CF7798089580E090E017DE80E090E002
:101EE00014DE80E090E011DE8FEF8AB9469A4AEA6C
:101EF00065E575E580E090E002DB469845E56AEA35
:101F00007AE280E090E0FBDA469A40E865E575E524
:101F100080E090E0F4DA469A4AEA65E575E580E00B
:101F200090E0EDDA469845E56AEA7AE280E090E0F2
:101F3000E6DA469A40E165E575E580E090E0DFDAB3
:101F400064E670E080E090E00E94AB5DD5DA60E08E
:101F500070E0CB01EEDA87FD0AC08EB180588EB9F1
:101F600064EF71E080E090E00E94AB5DF0CF0895F7
:101F7000BEDA8FEF8AB94AEA65E575E580E090E060
:101F8000F2DB45E56AEA7AE280E090E0ECDB40E8EB
:101F900065E575E580E090E0E6DB4AEA65E575E534
:101FA00080E090E0E0DB45E56AEA7AE280E090E0FC
:101FB000DADB40E165E575E580E090E0D4DB64E6DE
:101FC00070E080E090E00E94AB5D96DA60E070E047
:101FD000CB01AFDA87FD0AC08EB180588EB964EFAD
:101FE00071E080E090E00E94AB5DF0CF77980895BB
:101FF0007EDA8FEF8AB946E060E070E880E090E03A
:10200000A6DC40E061E070E880E090E0A0DC47E022
:1020100060E070E880E090E09ADC41E061E070E828
:1020200080E090E094DC4AEA65E575E580E090E0C8
:102030009ADB45E56AEA7AE280E090E094DB40E8EA
:1020400065E575E580E090E08EDB4AEA65E575E5DB
:1020500080E090E088DB45E56AEA7AE280E090E0A3
:1020600082DB40E165E575E580E090E07CDB64E6DD
:1020700070E080E090E00E94AB5D3EDA60E070E0EE
:10208000CB0157DA87FD0AC08EB180588EB964EF54
:1020900071E080E090E00E94AB5DF0CF40E060E056
:1020A00070E880E090E053DC7798089520DA8FEFB5
:1020B0008AB946E060E070E880E090E048DC40E00B
:1020C00061E070E880E090E042DC47E060E070E8CA
:1020D00080E090E03CDC41E061E070E880E090E08E
:1020E00036DC4AEA6AEA7AE080E090E03CDB45E5EB
:1020F00065E575E080E090E036DB40E86AEA7AE08A
:1021000080E090E030DB4AEA6AEA7AE080E090E042
:102110002ADB45E565E575E080E090E024DB40E101
:102120006AEA7AE080E090E01EDB64E670E080E03E
:1021300090E00E94AB5DE0D960E070E0CB01F9D99E
:1021400087FD0AC08EB180588EB964EF71E080E0DF
:1021500090E00E94AB5DF0CF40E060E070E880E08E
:1021600090E0F5DB77980895BED98FEF8AB94AEAF7
:1021700065E575E180E090E0F5D945E56AEA7AE148
:1021800080E090E0EFD940E865E575E180E090E01F
:10219000E9D94AEA65E575E180E090E0E3D945E5F3
:1021A0006AEA7AE180E090E0DDD940E165E575E139
:1021B00080E090E0D7D964E670E080E090E00E9493
:1021C000AB5D9AD960E070E0CB0115DA87FD0AC0FB
:1021D0008EB180588EB964EF71E080E090E00E948B
:1021E000AB5DF0CF779808957ED98FEF8AB9759A55
:1021F0006AEA85E595E166DB65E58AEA9AE062DBF5
:1022000060E885E595E15EDB6AEA85E595E15ADB04
:1022100065E58AEA9AE056DB60E185E595E152DB07
:1022200064E670E080E090E00E94AB5D759A64D94E
:1022300080E090E066DB87FD0AC08EB180588EB9E1
:1022400064EF71E080E090E00E94AB5DF1CF7798A1
:1022500008958FEF8AB947D982E090E056DC82E09A
:1022600090E053DC82E090E050DC6AEA85E595E19D
:1022700029DB81E090E049DC81E090E046DC81E010
:1022800090E043DC65E58AEA9AE01CDB82E090E0BE
:102290003CDC82E090E039DC82E090E036DC60E813
:1022A00085E595E10FDB82E090E02FDC82E090E0B5
:1022B0002CDC82E090E029DC6AEA85E595E102DB2E
:1022C00081E090E022DC81E090E01FDC81E090E0A2
:1022D0001CDC65E58AEA9AE0F5DA82E090E015DC3C
:1022E00082E090E012DC82E090E00FDC60E185E5C6
:1022F00095E1E8DA80E090E008DC80E090E005DC41
:1023000080E090E002DC64E670E080E090E00E9413
:10231000AB5DE9D8F1D860E070E0CB016CD987FD06
:102320000AC08EB180588EB964EF71E080E090E011
:102330000E94AB5DF0CF779808958FEF8AB94AEA93
:102340006AEA7AE080E090E0DAD845E565E575E094
:1023500080E090E0D4D840E86AEA7AE080E090E05B
:10236000CED84AEA6AEA7AE080E090E0C8D845E54B
:1023700065E575E080E090E0C2D840E16AEA7AE085
:1023800080E090E0BCD8B8D860E070E0CB01D1D854
:1023900087FD0AC08EB180588EB968EC70E080E08D
:1023A00090E00E94AB5DF0CF0895CF93DF93779AD2
:1023B000CFEFCAB94AEA6AEA7AE080E090E09FD8B3
:1023C00045E565E575E080E090E099D840E96AEA86
:1023D0007AE080E090E093D88FD862E070E080E00F
:1023E00090E0A7D8D82F68EE73E080E090E00E94DC
:1023F000AB5D6D2F8EED96E00E946102CAB940EF91
:102400006AEA7AE080E090E07AD87798DF91CF911D
:10241000089569D88FEF8AB94AEA6AEA7AE180E0DA
:1024200090E0A0D845E565E575E180E090E09AD8B8
:1024300040E86AEA7AE180E090E094D84AEA6AEA01
:102440007AE180E090E08ED845E565E575E180E0D1
:1024500090E088D840E16AEA7AE180E090E082D8B2
:102460004BD860E070E0CB01C6D887FD0AC08EB1C2
:1024700080588EB968EC70E080E090E00E94AB5D1F
:10248000F0CF779808952FD88FEF8AB94AEA6AEA91
:102490007AE180E090E066D845E565E575E180E0A9
:1024A00090E060D840E86AEA7AE180E090E05AD8AB
:1024B0004AEA6AEA7AE180E090E054D845E565E5C9
:1024C00075E180E090E04ED840E16AEA7AE180E090
:1024D00090E048D864E670E080E090E00E94AB5D58
:1024E0000BD860E070E0CB0186D887FD0AC08EB1C2
:1024F00080588EB964EF71E080E090E00E94AB5D9F
:10250000F0CF77980895CF9341E060E070EC80E0E1
:1025100090E06CD94AEA6AEA7AE880E090E066D90D
:1025200040E060E070EC80E090E060D945E565E572
:1025300075E880E090E05AD941E060E070EC80E01E
:1025400090E054D940E96AEA7AE880E090E04ED918
:1025500000000000000060E070E880E090E0A3D898
:1025600062E070E880E090E09ED8C82F68EE73E0EB
:1025700080E090E00E94AB5D6C2F8EED96E00E94B3
:10258000610240EF60E070E880E090E02FD9000049
:1025900000000000CF91089541E060E070EC80E021
:1025A00090E024D94AEA6AEA7AE880E090E01ED90D
:1025B00040E060E070EC80E090E018D945E565E52A
:1025C00075E880E090E012D941E060E070EC80E0D6
:1025D00090E00CD940E86AEA7AE880E090E006D919
:1025E00041E060E070EC80E090E000D94AEA6AEAFD
:1025F0007AE880E090E0FAD840E060E070EC80E0BB
:1026000090E0F4D845E565E575E880E090E0EED827
:1026100041E060E070EC80E090E0E8D840E16AEAF8
:102620007AE880E090E0E2D864E670E080E090E054
:102630000E94AB5D60E070E880E090E034D887FDF8
:1026400008C08EB180588EB964EF71E080E090E0F0
:10265000EFCF0895CF93DF93CDB7DEB727970FB6AF
:10266000F894DEBF0FBECDBF28E730E04EE66EED3A
:1026700076E0CE0101960E942C59CE0101960E946F
:102680001D5A7093860660938506CE0101960E94BE
:10269000625927960FB6F894DEBF0FBECDBFDF910B
:1026A000CF910895CF93DF93CDB7DEB727970FB6BD
:1026B000F894DEBF0FBECDBF28E730E04EE66EEDEA
:1026C00076E0CE0101960E942C59CE0101960E941F
:1026D0001D5A7093C3026093C202CE0101960E94FC
:1026E000625927960FB6F894DEBF0FBECDBFDF91BB
:1026F000CF910895CF93DF93CDB7DEB727970FB66D
:10270000F894DEBF0FBECDBF28E730E04EE66EED99
:1027100076E0CE0101960E942C59CE0101960E94CE
:102720001D5A6093BE027093BF028093C0029093C3
:10273000C102CE0101960E94625927960FB6F89405
:10274000DEBF0FBECDBFDF91CF910895CF93DF9352
:10275000CDB7DEB727970FB6F894DEBF0FBECDBF5B
:1027600028E730E04EE66EED76E0CE0101960E945D
:102770002C59CE0101960E941D5A6093BA027093A3
:10278000BB028093BC029093BD02CE0101960E94D1
:10279000625927960FB6F894DEBF0FBECDBFDF910A
:1027A000CF910895CF93DF93CDB7DEB727970FB6BC
:1027B000F894DEBF0FBECDBF28E730E04EE66EEDE9
:1027C00076E0CE0101960E942C59CE0101960E941E
:1027D0001D5A6093B6027093B7028093B80290932B
:1027E000B902CE0101960E94625927960FB6F8945D
:1027F000DEBF0FBECDBFDF91CF910895CF93DF93A2
:10280000CDB7DEB727970FB6F894DEBF0FBECDBFAA
:1028100028E730E04EE66EED76E0CE0101960E94AC
:102820002C59CE0101960E941D5A6093B2027093FA
:10283000B3028093B4029093B502CE0101960E9438
:10284000625927960FB6F894DEBF0FBECDBFDF9159
:10285000CF9108958D9A749A65B9BB27A92F982FA7
:10286000872F88B98FEF8AB94BB9719882E0815070
:102870000000E9F7719A0C947C0ACF92DF92EF92F4
:10288000FF926B017C018D9A719A0E947C0AC5B8F7
:10289000BB27AF2D9E2D8D2D88B9C11480E8D80699
:1028A000E104F10408F0749892E0892F815000004F
:1028B000E9F789B191500000E9F7749AFF90EF9021
:1028C000DF90CF900895CF934AEA65E575E580E003
:1028D00090E0C0DF45E56AEA7AE280E090E0BADFA6
:1028E00040E965E575E580E090E0B4DF82E0815085
:1028F0000000E9F760E070E880E090E0BEDF61E0B2
:1029000070E880E090E0B9DFC82F68EE73E080E007
:1029100090E00E94AB5D6C2F8EED96E00E9461020C
:1029200040EF65E575E580E090E0CF9193CF4AEA0E
:102930006AEA7AE080E090E08DDF45E565E575E0E4
:1029400080E090E087DF40E86AEA7AE080E090E0AB
:1029500081DF4AEA6AEA7AE080E090E07BDF45E5E1
:1029600065E575E080E090E075DF40E16AEA7AE0D5
:1029700080E090E06FDF64E670E080E090E00E942D
:10298000AB5D60E070E880E090E077DF87FD08C035
:102990008EB180588EB964EF71E080E090E0EFCFA7
:1029A000779808950E94730A8FEF8AB94AEA65E51D
:1029B00075E580E090E00E94B20A45E56AEA7AE2B5
:1029C00080E090E00E94B20A40E865E575E580E0AD
:1029D00090E00E94B20A4AEA65E575E580E090E081
:1029E0000E94B20A45E56AEA7AE280E090E00E943D
:1029F000B20A40E165E575E580E090E00E94B20A28
:102A000064E670E080E090E00E94AB5D0E947C0A8A
:102A100060E070E0CB010E94FB0A87FD0AC08EB126
:102A200080588EB964EF71E080E090E00E94AB5D69
:102A3000EFCF779808954AEA65E575E580E090E084
:102A400009DF45E56AEA7AE280E090E003DF40E8EA
:102A500065E575E580E090E0FDDE4AEA65E575E54F
:102A600080E090E0F7DE45E56AEA7AE280E090E017
:102A7000F1DE40E165E575E580E090E0EBDE64E6DF
:102A800070E080E090E00E94AB5D60E070E880E084
:102A900090E0F3DE87FD08C08EB180588EB964EFF8
:102AA00071E080E090E0EFCF77980895CF934AEA05
:102AB0006AEA7AE080E090E0CDDE45E565E575E024
:102AC00080E090E0C7DE40E96AEA7AE080E090E0EA
:102AD000C1DE82E081500000E9F760E070E880E04C
:102AE00090E0CBDE62E070E880E090E0C6DEC82FC8
:102AF00068EE73E080E090E00E94AB5D6C2F8EED9D
:102B000096E00E94610240EF6AEA7AE080E090E09D
:102B1000CF91A0CE8FEF8AB980BB81B98DB18D6383
:102B20008DB9699A689814B817B88EB18C638EB94C
:102B30007198759A68EC70E080E090E00C94AB5D61
:102B40008FEF84B987B9089514B817B80895CF9254
:102B5000DF92EF92FF92CF93DF936B017C01D42F32
:102B6000C52FEEDFCBB8BB27AF2D9E2D8D2D81BBA2
:102B70006701EE24FF24C2B8D5B9C8B90000739824
:102B80000000749800000000000000000000749A2B
:102B90000000739A00000000DF91CF91FF90EF904A
:102BA000DF90CF90D1CFCF92DF92EF92FF926B0167
:102BB0007C01CADFCBB8BB27AF2D9E2D8D2D81BBED
:102BC0006701EE24FF24C2B80000739872980000D9
:102BD0000000000000000000000026B183B1729ADE
:102BE000739A000090E0922BFF90EF90DF90CF90CF
:102BF0000895CF93DF93D82FC92F0E947C08D5B9B1
:102C0000C8B900001098000000000000000000009B
:102C1000109A00000000DF91CF9196CFCF92DF9203
:102C2000EF92FF926B017C010E947C08C701AA27EA
:102C3000BB2722B1236022B9139A0000149A85B9E8
:102C4000892F992788B900001498C5B8CD2CDD24A8
:102C5000C8B8000000001398000000000000000049
:102C6000000000000000000000000000FF90EF9056
:102C7000DF90CF9069CFD2DF80EF90E0BADF64E6DB
:102C800070E080E090E00C94AB5D1F93CF93DF93F6
:102C90001092550410925604109257041092580442
:102CA0008091000190910101A0910201B091030176
:102CB000BC01CD016655754F8F4F9F4FAFDF8AEA3C
:102CC00090E097DF8091000190910101A0910201B5
:102CD000B0910301BC01CD016C5A7A4F8F4F9F4FC9
:102CE0009DDF85E590E085DF8091000190910101F5
:102CF000A0910201B0910301BC01CD016655754F51
:102D00008F4F9F4F8BDF80E990E073DF6091000170
:102D10007091010180910201909103017FDF0E9477
:102D200082089F938F938EE291E09F938F9380E52B
:102D300094E09F938F930E942A630E9482089F933E
:102D40008F93C3E3D1E0DF93CF9387E896E09F931F
:102D50008F930E942A638091000190910101A091BC
:102D60000201B0910301BC01CD01645E7F4F8F4F22
:102D70009F4F54DF0E948208182F0E94820820E093
:102D800030E0282B1F932F93DF93CF9383E694E0BB
:102D90009F938F930E942A6360E574E08EED96E026
:102DA0000E94400268E371E08EED96E00E944002CE
:102DB00067E876E08EED96E00E94400268E371E0FD
:102DC0008EED96E00E94400263E674E08EED96E0A0
:102DD0000E94400268E371E08EED96E00E9440029E
:102DE0008DB79EB742960FB6F8949EBF0FBE8DBFAB
:102DF00060910001709101018091020190910301A5
:102E0000DF91CF911F9137CF4F925F926F927F9258
:102E10008F929F92AF92BF92CF92DF92EF92FF92EA
:102E20008090000190900101A0900201B0900301F8
:102E3000C12CD12C7601240135012AEA420E2AE068
:102E4000521E611C711C84E5880E85E0981EA11C31
:102E5000B11C8091790490917A04A0917B04B09187
:102E60007C04C816D906EA06FB0608F04CC08EB1F1
:102E700080588EB9C301B201D1DE8AEA90E0B9DE92
:102E8000C501B401CBDE85E590E0B3DEC301B2013C
:102E9000C5DE80E890E0ADDEC301B201BFDE8AEAA4
:102EA00090E0A7DEC501B401B9DE85E590E0A1DEC2
:102EB0008091000190910101A0910201B091030164
:102EC000BC01CD016C0D7D1D8E1D9F1DA7DE80E315
:102ED00090E08FDE8091000190910101A0910201AC
:102EE000B0910301BC01CD016C0D7D1D8E1D9F1D98
:102EF00095DE0E9482088F679F6F019659F782E0E6
:102F0000E80EF11CA6CF7798FF90EF90DF90CF905E
:102F1000BF90AF909F908F907F906F905F904F90F9
:102F20000895CF93DF938091000190910101A091CA
:102F30000201B0910301BC01CD016655754F8F4F61
:102F40009F4F6CDE8AEA90E054DE80910001909100
:102F50000101A0910201B0910301BC01CD016C5AA5
:102F60007A4F8F4F9F4F5ADE85E590E042DE809189
:102F7000000190910101A0910201B0910301BC01F7
:102F8000CD016655754F8F4F9F4F48DE80E890E02A
:102F900030DE8091000190910101A0910201B09179
:102FA0000301BC01CD016655754F8F4F9F4F36DE33
:102FB0008AEA90E01EDE8091000190910101A091CB
:102FC0000201B0910301BC01CD016C5A7A4F8F4FC1
:102FD0009F4F24DE85E590E00CDE8091000190910A
:102FE0000101A0910201B0910301BC01CD01665520
:102FF000754F8F4F9F4F12DE80E190E0FADD68EE53
:1030000073E080E090E00E94AB5D60910001709100
:103010000101809102019091030100DE0E9482086B
:10302000EC01CF67DF6F2196B1F08EB180588EB979
:103030006091000170910101809102019091030162
:10304000EDDD0E948208EC0164EF71E080E090E029
:103050000E94AB5DE6CF7798DF91CF910895CF9234
:10306000DF92EF92FF926B017C0160E070E081E003
:1030700098E0D4DDC701BDDDC601FF90EF90DF9081
:10308000CF90B7CD60E070E080E092EDE8DF65E0E2
:1030900070E080E090E00E94AB5D60E070E080E076
:1030A00092EDDDDF65E070E080E090E00E94AB5DD6
:1030B00060E070E080E091EED2DF65E070E080E0FB
:1030C00090E00C94AB5DDF92EF92FF920F931F9311
:1030D000CF93DF93CDB7DEB768970FB6F894DEBF16
:1030E0000FBECDBFD82E88E0E2E1F1E0DE015196BF
:1030F00001900D928A95E1F788E0EAE1F1E0DE01C6
:10310000199601900D928A95E1F788E0E2E2F1E0EC
:10311000DE01119601900D928A95E1F760E070E072
:1031200080E091EE9CDF61E070E080E090E00E9442
:10313000AB5D60E070E080E098E070DD0DE714E0EA
:1031400078010E948208D7019C9311968C93B2E07B
:10315000EB0EF11CE5E8EE16E4E0FE0691F7F2E076
:10316000DF1210C0FE0171969E01275E3F4F80E086
:103170004191D8019D918D01491381E0E217F30738
:10318000B9F729C0B1E0DB1225C08091C4028111DA
:103190000FC0FE0139969E012F5E3F4F4191D8012D
:1031A0009D918D01491381E0E217F307B9F713C030
:1031B000813081F4FE0131969E01275F3F4F80E010
:1031C0004191D8019D918D01491381E0E217F307E8
:1031D000B9F701C080E068960FB6F894DEBF0FBE65
:1031E000CDBFDF91CF911F910F91FF90EF90DF90B6
:1031F0000895CF92DF92EF92FF9244DF8FE7C82EBF
:10320000D12CE12C8BE4F82EC701B60128DF6AE04F
:1032100070E080E090E00E94AB5D60E070E080E0F4
:1032200098E71DDF6AE070E080E090E00E94AB5D0F
:1032300060E070E080E092ED12DF8091040143DFF6
:10324000882339F061E070E080E090E00E94AB5D9F
:10325000F4CF80E8C80ED11CE11CF11C8FE7C81622
:1032600084E0D806E1048BE4F80671F6FF90EF9055
:10327000DF90CF9008954F925F926F927F928F92DE
:103280009F92AF92BF92CF92DF92EF92FF920F93F5
:103290001F93CF93DF93C82F1092C5021092C602DE
:1032A0001092C7021092C802823031F400E810E098
:1032B00090E4492E512C05C000E012E0412C82E040
:1032C000582E60E070E080E090EFC9DEC0905904B5
:1032D000D0905A04E0905B04F0905C042C2F30E016
:1032E00040E050E060E070E082E090E00E94A9627F
:1032F00049015A01052C000C660877088091590491
:1033000090915A04A0915B04B0915C04880D991DC2
:10331000AA1DBB1DC816D906EA06FB06A0F5C70103
:10332000B6017CDCCDE7D4E00E94820898838983D3
:103330002296CE018D57944080179107ACF34091AF
:10334000C5025091C6026091C7027091C802EDE7B4
:10335000F4E081918F3F21F04F5F5F4F6F4F7F4FC0
:10336000CF018D579440801791079CF34093C5027D
:103370005093C6026093C7027093C802C40CD51C58
:10338000E61CF71CBBCF6091C5027091C60280910C
:10339000C7029091C802DF91CF911F910F91FF90CA
:1033A000EF90DF90CF90BF90AF909F908F907F90E5
:1033B0006F905F904F9008950F931F93CF93DF937B
:1033C00060E070E080E091EE4ADE6AE070E080E06C
:1033D00090E00E94AB5D60E070E080E098E01EDC71
:1033E0000DE714E0E8010E94820898838983229601
:1033F00084E0C538D807B9F7809184048E3121F470
:1034000082E0809304011BC08D3131F481E0809310
:1034100004011092C40213C0813F61F0F801619170
:103420008F018EED96E00E946102F4E005381F07DF
:10343000A9F705C081E0809304018093C402DF9165
:10344000CF911F910F9108958091000190910101FA
:10345000A0910201B0910301BC01CD0166557545F3
:103460008F4F9F4FDBDB8AEA9AEAC3DB8091000132
:1034700090910101A0910201B0910301BC01CD0125
:103480006C5A7A4A8F4F9F4FC9DB85E595E5B1DBD2
:103490008091000190910101A0910201B09103017E
:1034A000BC01CD01665575458F4F9F4FB7DB80EF4F
:1034B00090EF9FDB64E670E080E090E00C94AB5D01
:1034C0008091000190910101A0910201B09103014E
:1034D000BC01CD01665575458F4F9F4F9FDB8AEA32
:1034E0009AEA87DB8091000190910101A09102018D
:1034F000B0910301BC01CD016C5A7A4A8F4F9F4FA6
:103500008DDB85E595E575DB8091000190910101EA
:10351000A0910201B0910301BC01CD016655754532
:103520008F4F9F4F7BDB80E990E963DB6091000167
:103530007091010180910201909103016FDB0E9463
:1035400082080E9482089F938F9383E391E09F9368
:103550008F9387E896E09F938F930E942A6367E892
:1035600076E08EED96E00E94400268E371E08EED19
:1035700096E00E9440020F900F900F900F900F90D6
:103580000F9062CF8091000190910101A091020102
:10359000B0910301BC01CD01665575458F4F9F4F1A
:1035A0003DDB8AEA9AEA25DB8091000190910101D6
:1035B000A0910201B0910301BC01CD016C5A7A4A7D
:1035C0008F4F9F4F2BDB85E595E513DB8091000145
:1035D00090910101A0910201B0910301BC01CD01C4
:1035E000665575458F4F9F4F19DB80E890E801DBEA
:1035F0008091000190910101A0910201B09103011D
:10360000BC01CD01665575458F4F9F4F07DB8AEA98
:103610009AEAEFDA8091000190910101A0910201F4
:10362000B0910301BC01CD016C5A7A4A8F4F9F4F74
:10363000F5DA85E595E5DDDA8091000190910101EB
:10364000A0910201B0910301BC01CD016655754501
:103650008F4F9F4FE3DA80E190E1CBDA64E170E0D5
:1036600080E090E00C94AB5D0F931F93CF93DF93BA
:103670004AEA50E065E575E080E090E068DA45E50B
:1036800050E06AEA72E080E090E061DA40E950E000
:1036900065E575E080E090E05ADA00000000000087
:1036A00060E070E0CB017FDA082F61E070E080E03D
:1036B00090E079DA182F6EE070E080E090E073DA45
:1036C000D82F6FE070E080E090E06DDAC82F68EEF0
:1036D00073E080E090E00E94AB5D602F8EED96E09D
:1036E0000E946102612F8EED96E00E9461026D2FB3
:1036F0008EED96E00E9461026C2F8EED96E00E94A6
:10370000610240EF50E065E575E080E090E01FDA8F
:10371000000000000000DF91CF911F910F910895EC
:103720004AEA50E065E575E080E090E010DA45E5B2
:1037300050E06AEA72E080E090E009DA40E850E0A8
:1037400065E575E080E090E002DA4AEA50E065E580
:1037500075E080E090E0FBD945E550E06AEA72E070
:1037600080E090E0F4D940E150E065E575E080E06C
:1037700090E0EDD960E070E0CB0115DA8F679F6FC4
:10378000019651F08EB180588EB968EC70E080E0FF
:1037900090E00E94AB5DEECF77980895CF93DF93D2
:1037A00068ED70E080E090E0FED98134924541F40C
:1037B00069ED70E080E090E0F6D98032984F09F131
:1037C0001092A5021092A4021092A6021092A702D3
:1037D0001092A8021092A9024091A6025091A7024D
:1037E0006091A8027091A90220E08EED96E00E94FF
:1037F000845868E371E08EED96E0DF91CF910C94F0
:1038000040026AED70E080E090E0CDD9EC016BED14
:1038100070E080E090E0C7D9AC01CE01A0E0B0E05C
:10382000DC019927882760E070E0842B952BA62B7C
:10383000B72B8093AE029093AF02A093B002B093E7
:10384000B1026CED70E080E090E0ADD9EC016DED7F
:1038500070E080E090E0A7D9AC01CE01A0E0B0E03C
:10386000DC019927882760E070E0842B952BA62B3C
:10387000B72B8093AA029093AB02A093AC02B093B3
:10388000AD024091AE025091AF026091B0027091D2
:10389000B1024130510520E26207710519F421E0BF
:1038A00030E008C0411551056042710509F094CF20
:1038B00022E030E03093A5022093A4028F5F9F4F57
:1038C000AF41B109B695A795979587958093A602C4
:1038D0009093A702A093A802B093A90280E090E081
:1038E000A0E1B0E08093AE029093AF02A093B0024B
:1038F000B093B10271CFCF93C82F22D9C5B97598B3
:10390000000000000000000000000000759A0000A8
:1039100000000000000000000000CF9115C968ED14
:1039200070E080E090E03FD98134924541F469ED48
:1039300070E080E090E037D98032984FF9F0109233
:10394000A5021092A4021092A6021092A702109251
:10395000A8021092A9024091A6025091A70260917C
:10396000A8027091A90220E08EED96E00E94845892
:1039700068E371E08EED96E00C9440028FEF9FEFCC
:10398000A0E2B0E08093AA029093AB02A093AC02B5
:10399000B093AD0281E090E09093A5028093A402E1
:1039A00080E090E8A0E0B0E08093A6029093A702A8
:1039B000A093A802B093A90280E090E0A0E1B0E05B
:1039C0008093AE029093AF02A093B002B093B10285
:1039D000C2CF0F931F93CF93DF9362ED70E080E02F
:1039E00090E0E1D8EC0163ED70E080E090E0DBD89E
:1039F000AE0160E070E0BA01552744278C0120E059
:103A000030E0402B512B622B732B4F5F5F4F6F4F7A
:103A10007F4F20E08EED96E00E94845868E371E0CD
:103A20008EED96E0DF91CF911F910F910C944002A3
:103A3000CF93DF93CDB7DEB727970FB6F894DEBFED
:103A40000FBECDBF28E730E04EE66EED76E0CE014A
:103A500001960E942C59CE0101960E941D5A609336
:103A6000790470937A0480937B0490937C04CE0154
:103A700001960E94625927960FB6F894DEBF0FBEDA
:103A8000CDBFDF91CF910895CF92DF92EF92FF9259
:103A9000CFDF6AE070E080E090E00E94AB5DC12C77
:103AA000D12C76018091790490917A04A0917B04C5
:103AB000B0917C04B695A79597958795C816D906B9
:103AC000EA06FB06B0F58EB180588EB94AEA50E09E
:103AD00065E575E080E090E03AD845E550E06AEAB7
:103AE00072E080E090E033D840E850E065E575E0B2
:103AF00080E090E02CD84AEA50E065E575E080E08F
:103B000090E025D845E550E06AEA72E080E090E078
:103B10001ED840E350E0C701B60119D8C701B6016D
:103B200042D88F679F6F0196C9F78FEFE81AF80A9E
:103B3000B9CF7798FF90EF90DF90CF9008958FEFF7
:103B40008AB980BB84B991B19F6091B992B19660F6
:103B500092B992B1967F92B98DB9779817B80895B6
:103B60000F931F936BB9072F182F292F332701BBF2
:103B7000AA27BB2785B948B9000000000000000053
:103B80001298000000000000000000000000129ADF
:103B90000000000000000000000000001F910F91D5
:103BA00008950F931F936BB9072F182F292F3327D1
:103BB00001BBAA27BB2785B9000000000000000058
:103BC000119800000000000000000000000086B115
:103BD000119A0000000000000000000000001F918A
:103BE0000F91089585B96BB971BB11980000000061
:103BF00086B1119A0000000000000895FF920F9313
:103C00001F93CF93DF93779ACFEFC7B94AEA6AEA57
:103C10007AE080E090E0A4DF45E565E575E080E0CE
:103C200090E09EDF40E96AEA7AE080E090E098DF89
:103C300017B860E070E0CB01B4DFF82E62E070E00E
:103C400080E090E0AEDF082F6CE170E080E090E073
:103C5000A8DF182F6EE170E080E090E0A2DFD82F9F
:103C600068EE73E080E090E00E94AB5D6F2D8EED1A
:103C700096E00E946102602F8EED96E00E94610244
:103C8000612F8EED96E00E9461026D2F8EED96E021
:103C90000E946102C7B940EF6AEA7AE080E090E0F2
:103CA0005FDF7798DF91CF911F910F91FF9008957B
:103CB0008FEF87B94AEA6AEA7AE080E090E050DF65
:103CC00045E565E575E080E090E04ADF40E86AEAB6
:103CD0007AE080E090E044DF4AEA6AEA7AE080E055
:103CE00090E03EDF45E565E575E080E090E038DF97
:103CF00040E16AEA7AE080E090E032DF17B860E005
:103D000070E0CB014EDF87FD0AC08EB180588EB9BE
:103D100068EC70E080E090E00E94AB5DF0CF089529
:103D2000CF92DF92EF92FF92CF9382DE6AE070E053
:103D300080E090E00E94AB5DC12CD12C7601CFEFEA
:103D40008091790490917A04A0917B04B0917C04D5
:103D5000C816D906EA06FB0680F58EB180588EB9E2
:103D6000C7B94AEA6AEA7AE080E090E0F9DE45E520
:103D700065E575E080E090E0F3DE40E86AEA7AE02D
:103D800080E090E0EDDE4AEA6AEA7AE080E090E0E6
:103D9000E7DE45E565E575E080E090E0E1DE40E3E3
:103DA000C701B601DDDE17B8C701B601FADE87FF2D
:103DB000FBCF82E0E80EF11CC3CF7798CF91FF9044
:103DC000EF90DF90CF9008950E9453096AE070E071
:103DD00080E090E00E94AB5D60917D0670917E0670
:103DE00080917F0690918006DCDE682F8EED96E054
:103DF0000C9461028FEF81B984B98DB98AB1836067
:103E00008AB98BB183608BB9759A7498779817B813
:103E100008950F931F9362B9072F182F292F332767
:103E200005B9AA27BB278EB948B9000000005898E9
:103E3000000000000000000000000000589A000090
:103E4000000000000000000000001F910F91089585
:103E50000F931F9362B9072F182F292F332705B906
:103E6000AA27BB278EB90000000059980000000067
:103E7000000000000000000086B1599A0000000018
:103E800000000000000000001F910F910895FF92B4
:103E90000F931F93CF93DF93779ACFEFC7B945E581
:103EA00062EA72E888E090E0B4DF4AEA60E57DE12A
:103EB00081E090E0AEDF49E062EA72E888E090E0FD
:103EC000A8DF17B860E070E0CB01C2DFF82E60E039
:103ED00070E088E090E0BCDF082F60E070E981E0EE
:103EE00090E0B6DF182F60E070E989E090E0B0DF85
:103EF000D82F68EE73E080E090E00E94AB5D6F2DFC
:103F00008EED96E00E946102602F8EED96E00E9499
:103F10006102612F8EED96E00E9461026D2F8EEDA1
:103F200096E00E946102C7B94FE062EA72E888E059
:103F300090E06FDF7798DF91CF911F910F91FF9005
:103F400008951F93CF93DF938FEF87B945E562EA1A
:103F500072E888E090E05DDF4AEA60E57DE181E0BB
:103F600090E057DF41E062EA72E888E090E051DFDC
:103F700045E562EA72E888E090E04BDF4AEA60E5F6
:103F80007DE181E090E045DF48E062EA72E888E0A8
:103F900090E03FDF17B860E070E0CB0159DFD82F29
:103FA000C0E011E0D7FD14C0CC2329F060E070E040
:103FB00080E890E003C060E070E0CB0149DFD82FDB
:103FC00068EC70E080E090E00E94AB5DC127EACF32
:103FD000DF91CF911F9108950E9453096AE070E02C
:103FE00080E090E00E94AB5D0E94E2096AE070E030
:103FF00080E090E00E94AB5D8FEF87B960917D0615
:1040000070917E0680917F06909180064091810696
:1040100000DF17B8089520E04FE16CE18CE892E0F2
:104020000E94865720E042E26CE184E792E00E9421
:10403000865720E045E26CE18CE592E00C948657CF
:104040008CE592E00E943C5884E792E00E943C5844
:104050008CE892E00C943C588F929F92AF92BF9262
:10406000CF92DF92EF92FF92CF93DF930E9453099A
:10407000C12CD12C760180917D0690917E06A09175
:104080007F06B0918006C816D906EA06FB06E8F45A
:10409000779ACDE7D4E0460157018EED96E00E9475
:1040A00026608993482FC501B4010E9444038FEF15
:1040B000881A980AA80AB80A86E0CD37D80769F79F
:1040C00082E0D80EE11CF11CD6CF7798DF91CF911A
:1040D000FF90EF90DF90CF90BF90AF909F908F9028
:1040E0000895EF92FF920F931F93CF93DF930E9457
:1040F0005309779AC0E0D0E030E9E32EFF24F3942F
:10410000AE0160E070E080917D0690917E06A09106
:104110007F06B091800624E0880F991FAA1FBB1F5D
:104120002A95D1F7481759076A077B07E0F40DE78E
:1041300014E08EED96E00E942660F80181938F01D5
:10414000F6E00D371F07A9F7F89460917D0670918E
:104150007E06CE010E94E5037894C7010197F1F72E
:10416000C05CDF4FCDCF7798DF91CF911F910F913A
:10417000FF90EF9008954F925F926F927F92AF926F
:10418000BF92CF92DF92EF92FF920F931F93CF9344
:10419000DF930E9453090E94E2098EB187608EB9B5
:1041A0008FEF84B987B981B97398779AC0907D06EB
:1041B000D0907E06E0907F06F090800640917D06CC
:1041C00050917E0660917F067091800680918106F5
:1041D00090918206A0918306B0918406840F951F6A
:1041E000A61FB71FC816D906EA06FB06D8F50DE7C5
:1041F00014E026013701C0E0D0E08EED96E00E9489
:1042000026605801F80181938F014AEA65E575E55A
:1042100080E090E00E94160545E56AEA7AE280E0D7
:1042200090E00E94160540EA65E575E580E090E0C3
:104230000E941605F5014081C301B2010E941605D6
:10424000CE010E94F1052196FFEF4F1A5F0A6F0A17
:104250007F0AC11582E0D80781F6E2E0DE0EE11C9C
:10426000F11CACCF739A7798DF91CF911F910F918A
:10427000FF90EF90DF90CF90BF90AF907F906F90C6
:104280005F904F9008950F931F93CF9364E670E073
:1042900080E090E00E94AB5D779A11B884E391E0F2
:1042A0000E9418068FEF81B980916C0490916D0483
:1042B00005972CF461E080E090E60E943E066AE0FB
:1042C00080E090E00E943E06C0E08C2F90E02091BC
:1042D00061043091620482179307ECF46C2F80E044
:1042E00090E40E943E0600E010EA80915D04909107
:1042F0005E048017910768F08EED96E00E942660BC
:1043000080937D04682FC8010E9450060F5F1F4FE5
:10431000ECCFCF5FDACF60E080E090E00E943E0615
:1043200011B87798CF911F910F910895DF92EF9276
:10433000FF920F931F93CF93DF937ADB6AE070E0D5
:1043400080E090E00E94AB5D609179048FEF81B9CD
:10435000779A80E090E20E943E0660E080E090E480
:104360000E943E0600E010E4DD24DA94CDE7D4E0BC
:10437000C8018D5794407C018EED96E00E94266026
:1043800088836AEA8AEA9AE00E943E0665E585E546
:1043900095E00E943E0660EA8AEA9AE00E943E06A4
:1043A0006881C7018C0F9D1F0E943E0611B88EB117
:1043B000897F8EB9999180B1892787FDFCCF8EB115
:1043C00086608EB9D1B896E0CD37D907A9F61E5FC1
:1043D000011580E8180751F611B87798DF91CF9151
:1043E0001F910F91FF90EF90DF900895CF92DF9291
:1043F000EF92FF920F931F93CF93DF9319DB6AE045
:1044000070E080E090E00E94AB5DC0907904D090B5
:104410007A04E0907B04F0907C048FEF81B9779A66
:104420006C2D80E090E20E943E06C11481E0D80627
:1044300029F461E080E090E30E943E0660E080E0C5
:1044400090E40E943E066AEA8AEA9AE00E943E06EA
:1044500065E585E595E00E943E0660E28AEA9AE01D
:104460000E943E0600E010E4DD24DA94CDE7D4E0BB
:10447000C8018D5794407C018EED96E00E94266025
:10448000888360EA8AEA9AE00E943E066881C70152
:104490008C0F9D1F0E943E0611B88EB1897F8EB988
:1044A000999180B1892787FDFCCF8EB186608EB946
:1044B000D1B896E0CD37D907F9F61E5F011580E82F
:1044C0001807A1F660E985E595E00E943E0660E0E8
:1044D0008AEA9AE00E943E0611B87798DF91CF9160
:1044E0001F910F91FF90EF90DF90CF9008954F9222
:1044F0005F926F927F928F929F92AF92BF92CF9274
:10450000DF92EF92FF920F931F93CF93DF93CDB77C
:10451000DEB72A970FB6F894DEBF0FBECDBF0E945C
:1045200053096AE070E080E090E00E94AB5D80900B
:10453000000190900101A0900201B0900301D5010B
:10454000C4018655954FAF4FBF4F89839A83AB8384
:10455000BC83BC01CD010E940E168AEA90E00E9445
:10456000F915D501C4018C5A9A4FAF4FBF4F8D83B7
:104570009E83AF83B887BC01CD010E940E1685E5EE
:1045800090E00E94F91569817A818B819C810E945B
:104590000E1680E290E00E94F915C12CD12C760114
:1045A00080917D0690917E06A0917F06B091800655
:1045B000C816D906EA06FB0608F0AEC08EB18058D0
:1045C0008EB9D701C601A170BB27892B8A2B8B2BF3
:1045D00031F46AE070E080E090E00E94AB5D812CF5
:1045E000912C5401412C512C32018EED96E00E9409
:1045F0002660898780937D048EED96E00E94266078
:1046000080937E04198500E0D801A82BBA87A9877A
:104610006D817E818F8198850E940E1680EA90E0E0
:104620000E94F9158091000190910101A091020171
:10463000B09103018C0D9D1DAE1DBF1D880D991DF0
:10464000AA1DBB1DBC01CD01640D751D861D971DE6
:104650000E940E1689859A850E94F91580910001A5
:1046600090910101A0910201B09103018C0D9D1D5B
:10467000AE1DBF1D880D991DAA1DBB1DBC01CD011E
:10468000640D751D861D971D0E940E160E948208DE
:1046900029853A852F673F6F3A8729878F679F6FF4
:1046A000A985BA858A179B07D9F08091000190915E
:1046B0000101A0910201B09103018C0D9D1DAE1D61
:1046C000BF1D880D991DAA1DBB1DBC01CD01640D28
:1046D000751D861D971D0E940E160E948208DECF52
:1046E000B2E04B0E511C611C711C411422E05206B9
:1046F0006104710409F079CF32E0930EA11CB11C62
:10470000811480E89806A104B10409F06BCF90E809
:10471000D90EE11CF11C44CF779869817A818B8195
:104720009C810E940E1680E990E00E94F9156D812F
:104730007E818F8198850E940E1680E090E02A96F7
:104740000FB6F894DEBF0FBECDBFDF91CF911F91A2
:104750000F91FF90EF90DF90CF90BF90AF909F9020
:104760008F907F906F905F904F900C94F9150F93FE
:104770001F93CF93DF9300D0CDB7DEB785E08A8358
:1047800080910B0489830DE714E08EED96E00E9482
:104790002660F80181938F01F4E005381F07A9F71F
:1047A000F89461E0CE0102960E94CA0761E0CE0152
:1047B00001960E94CA0768E08DE794E00E94CA074C
:1047C0000E94340878940F900F90DF91CF911F9141
:1047D0000F910895AF92BF92CF92DF92EF92FF9226
:1047E0000F931F93CF93DF93D0E010E03DE7A32E0C
:1047F00036E0B32E412F50E060E070E080910B0472
:1048000090910C04A0910D04B0910E0426E0B69591
:10481000A795979587952A95D1F7481759076A075D
:104820007B0788F58DE7E82E84E0F82E67018EED92
:1048300096E00E942660F60181936F01AE16BF06D6
:10484000B1F7F894C0E080E995E60E94EF0885E0B2
:104850000E94FF088D2F8C0F0E94FF08670108E05F
:10486000F60181916F010E94FF080150C9F70E9473
:104870002009CF5FF8E0EF0EF11CC03421F77894E7
:104880001F5FD05CB7CFDF91CF911F910F91FF9049
:10489000EF90DF90CF90BF90AF900895BF92CF92EE
:1048A000DF92EF92FF920F931F93CF93DF93C0900D
:1048B0005904D0905A04E0905B04F0905C0480911D
:1048C000590490915A04A0915B04B0915C049058F3
:1048D000AF4FBF4FC816D906EA06FB0618F5C70149
:1048E000B6010E940E16CDE7D4E08EED96E00E9450
:1048F0002660B82E88838EED96E00E94266089831C
:104900001B2D00E09801282BC9010E94F915229661
:1049100034E0CD3BD30749F780E4C80ED11CE11C3D
:10492000F11CCDCFDF91CF911F910F91FF90EF90B0
:10493000DF90CF90BF9008954F925F926F927F92D9
:104940009F92AF92BF92CF92DF92EF92FF920F931E
:104950001F93CF93DF930E94F918809104010E9466
:104960003B19672B682B692B61F06BE371E08EEDCF
:1049700096E00E944F0262E471E08EED96E00E94A4
:104980004F020E944218C12CD12C7601260137011A
:1049900010E08EB180588EB960E070E080E094EB5A
:1049A0000E942F1861E070E080E090E00E94AB5D13
:1049B00060E070E080E098E00E940E16CDE7D4E061
:1049C00000E08EED96E00E942660982E88838EEDA2
:1049D00096E00E9426608983B92CA12C9501282B92
:1049E000C9010E94F9150E5F2296003851F761E067
:1049F00070E080E090E00E94AB5DC301B201956A77
:104A00000E942F1861E070E080E090E00E94AB5DB2
:104A100060E070E080E092ED0E942F188091040128
:104A20000E946318882339F061E070E080E090E034
:104A30000E94AB5DF3CF1F5F3FEF431A530A630A37
:104A4000730A103809F0A5CF64E170E080E090E0CF
:104A50000E94AB5D80E8C80ED11CE11CF11CC114A2
:104A600024E0D206E104F10409F090CF7798DF91B9
:104A7000CF911F910F91FF90EF90DF90CF90BF905B
:104A8000AF909F907F906F905F904F9008953F926E
:104A90004F925F926F927F928F929F92AF92BF924E
:104AA000CF92DF92EF92FF920F931F93CF93DF93FA
:104AB0000E94181D6AE070E080E090E00E94AB5D0B
:104AC000C12CD12C76018091790490917A04A09127
:104AD0007B04B0917C04B695A79597958795C816E9
:104AE000D906EA06FB0608F093C0D701C601937009
:104AF000AA27BB27892B8A2B8B2B19F48EB18058C0
:104B00008EB98091000190910101A0910201B091B4
:104B10000301BC01CD01665575458F4F9F4F0E9423
:104B20000E168AEA9AEA0E94F91580910001909186
:104B30000101A0910201B0910301BC01CD016C5AA9
:104B40007A4A8F4F9F4F0E940E1685E595E50E9489
:104B5000F9158091000190910101A0910201B0919D
:104B60000301BC01CD01665575458F4F9F4F0E94D3
:104B70000E1680EA90EA0E94F91526013701440CCE
:104B8000551C661C771CCDE7D4E0812C912C540178
:104B90008091000190910101A0910201B091030167
:104BA000A054BF4F840D951DA61DB71DBC01CD019E
:104BB000680D791D8A1D9B1D0E940E168EED96E0D4
:104BC0000E942660382E88838EED96E00E94266033
:104BD0008983132D00E09801282BC9010E94F91543
:104BE00032E0830E911CA11CB11C2296811481E03D
:104BF0009806A104B10461F66EE170E080E090E0F7
:104C00000E94AB5D20E8C20ED11CE11CF11C5BCF01
:104C1000779861E08EED96E0DF91CF911F910F9133
:104C2000FF90EF90DF90CF90BF90AF909F908F90CC
:104C30007F906F905F904F903F900C9461028EED4B
:104C400096E00E9426608093780408952F923F9208
:104C50004F925F926F927F928F929F92AF92BF928C
:104C6000CF92DF92EF92FF920F931F93CF93DF9338
:104C7000CDB7DEB760970FB6F894DEBF0FBECDBFDD
:104C80000DB71EB718870F83809000019090010127
:104C9000A0900201B0900301D2DF6AE070E080E0F2
:104CA00090E00E94AB5D0E9453096AE070E080E0F2
:104CB00090E00E94AB5D0E94E2096AE070E080E053
:104CC00090E00E94AB5DC0907D06D0907E06E090A3
:104CD0007F06F0908006C501B4016655754F8F4F71
:104CE0009F4F69877A878B879C87D501C4018C5A2F
:104CF0009A4FAF4FBF4F8D879E87AF87B88B40913C
:104D00007D0650917E0660917F06709180068091AD
:104D1000810690918206A0918306B0918406840F4B
:104D2000951FA61FB71FC816D906EA06FB0608F08E
:104D300056C18EB180588EB9812C912C5401212CF2
:104D4000312C0DB71EB71E830D8369857A858B853F
:104D50009C850E940E168AEA90E00E94F9156D85E6
:104D60007E858F8598890E940E1685E590E00E94C9
:104D7000F9152101032C000C6608770880910001C9
:104D800090910101A0910201B09103018C0D9D1D34
:104D9000AE1DBF1D880D991DAA1DBB1DBC01CD01F7
:104DA000640D751D861D971D0E940E1685E290E00C
:104DB0000E94F9158091000190910101A0910201DA
:104DC000B09103018C0D9D1DAE1DBF1D880D991D59
:104DD000AA1DBB1DBC01CD01640D751D861D971D4F
:104DE0000E940E1680917804869590E001970E94AB
:104DF000F915809178042DB73EB7281B31090FB6FD
:104E0000F8943EBF0FBE2DBF0DB71EB70F5F1F4FEB
:104E10001C830B8300E010E04091780450E00417FD
:104E2000150714F010E00DC0401B510B6B817C8105
:104E3000600F711F8EED96E00E94BA61080F191F76
:104E4000EBCF409178048091000190910101A091F5
:104E50000201B0910301141748F5EB81FC81E10FC9
:104E6000F11D41812081022E000C330B322F2227AD
:104E7000B901642B7A8369838C0D9D1DAE1DBF1D06
:104E8000880D991DAA1DBB1D840D951DA61DB71D5E
:104E9000BC01CD01610F711D811D911D0E940E1677
:104EA00089819A810E94F9151E5FCBCF8C0D9D1DC3
:104EB000AE1DBF1D880D991DAA1DBB1D840D951D1E
:104EC000A61DB71D642F70E062507109AB01770F0A
:104ED000660B770B8C019D01040F151F261F371FD2
:104EE000C901B8010E940E1689E290E00E94F915EE
:104EF0006091780470E062507109AB01770F660B26
:104F0000770B8091000190910101A0910201B09175
:104F10000301840F951FA61FB71F8C0D9D1DAE1D8D
:104F2000BF1D880D991DAA1DBB1DBC01CD01640DBF
:104F3000751D861D971D0E940E160E94820809810C
:104F40001A810F671F6F8F679F6F8017910741F15D
:104F50006091780470E062507109AB01770F660BC5
:104F6000770B8091000190910101A0910201B09115
:104F70000301840F951FA61FB71F8C0D9D1DAE1D2D
:104F8000BF1D880D991DAA1DBB1DBC01CD01640D5F
:104F9000751D861D971D0E940E160E948208D3CF94
:104FA0000D811E810FB6F8941EBF0FBE0DBF8091FC
:104FB0007804280E311C211410E431060CF4C1CE03
:104FC00020E4920EA11CB11C8114910432E0A306CE
:104FD000B10409F0B4CE62E0E60EF11C90CE7798F1
:104FE0000F8118850FB6F8941EBF0FBE0DBF6096D7
:104FF0000FB6F894DEBF0FBECDBFDF91CF911F91EA
:105000000F91FF90EF90DF90CF90BF90AF909F9067
:105010008F907F906F905F904F903F902F9008956A
:105020002F923F924F925F926F927F928F929F92B8
:10503000AF92BF92CF92DF92EF92FF920F931F93A6
:10504000CF93DF93CDB7DEB728970FB6F894DEBFC6
:105050000FBECDBFF4DD6AE070E080E090E00E941A
:10506000AB5D0E9453096AE070E080E090E00E942E
:10507000AB5D0E94E2096AE070E080E090E00E948F
:10508000AB5D80907D0690907E06A0907F06B090EC
:105090008006B694A7949794879440917D0650918A
:1050A0007E0660917F0670918006809181069091C6
:1050B0008206A0918306B0918406840F951FA61FD7
:1050C000B71FB695A7959795879588169906AA064E
:1050D000BB0608F0B8C08EB180588EB9412C512C57
:1050E000320118861F82D501C401840D951DA61DAD
:1050F000B71D8B839C83AD83BE834AEA50E065E590
:1051000075E080E090E00E94A71545E550E06AEA6E
:1051100072E080E090E00E94A715AF81B8856D0134
:10512000BB0FEE08FF088B819C81AD81BE81C80E4C
:10513000D91EEA1EFB1E45E250E0C701B6010E94DF
:10514000A7154091780450E041505109C701B601BC
:105150000E94A715312C609178043616E8F48EED84
:1051600096E00E942660182F80937D048EED96E0D5
:105170000E94266080937E041A83198209811A8115
:10518000082BC701B601630D711D811D911DA8017A
:105190000E94A7153394DFCF70E061507109CB01F5
:1051A000770FAA0BBB0BBC01CD016C0D7D1D8E1DB5
:1051B0009F1D49E250E00E94A7156091780470E0BD
:1051C00061507109CB01770FAA0BBB0BBC01CD015C
:1051D0006C0D7D1D8E1D9F1D0E94D3151801AFE71C
:1051E0002A2A33243A948F679F6F6091780482153E
:1051F000930581F070E061507109CB01770FAA0B24
:10520000BB0BBC01CD016C0D7D1D8E1D9F1D0E9431
:10521000D315E9CF8F819885860F911D98878F834D
:10522000811590420CF469CFB0E25B0E611C711CD9
:105230004114510421E06206710409F052CF8FEF4E
:10524000A81AB80A2ACF779828960FB6F894DEBF26
:105250000FBECDBFDF91CF911F910F91FF90EF90C7
:10526000DF90CF90BF90AF909F908F907F906F9086
:105270005F904F903F902F9008956F927F928F9202
:105280009F92AF92BF92CF92DF92EF92FF920F93D5
:105290001F93CF93DF930E9453096AE070E080E090
:1052A00090E00E94AB5DC12CD12C760180917D06EF
:1052B00090917E06A0917F06B0918006B695A79545
:1052C00097958795C816D906EA06FB0608F05FC0D1
:1052D000D701C6019770AA27BB27892B8A2B8B2B56
:1052E00019F48EB180588EB94601570100E210E0E2
:1052F0008EED96E00E942660C82F80937D048EED8F
:1053000096E00E94266080937E047C2E612CE3014F
:10531000C82B4AEA50E065E575E080E090E00E9425
:10532000A71545E550E06AEA72E080E090E00E944F
:10533000A71540EA50E065E575E080E090E00E9446
:10534000A715AE01C501B4010E94A715C501B4019E
:105350000E94D315CF67DF6F8F679F6F8C179D07F4
:1053600029F0C501B4010E94D315F6CF01501109EF
:105370008FEF881A980AA80AB80A0115110509F0D2
:10538000B7CF80E2C80ED11CE11CF11C8FCF7798FB
:10539000DF91CF911F910F91FF90EF90DF90CF9011
:1053A000BF90AF909F908F907F906F900895CF9215
:1053B000DF92EF92FF928091A4029091A50281303A
:1053C0009105A1F5C090AE02D090AF02E090B0027E
:1053D000F090B1024091AE025091AF026091B002E4
:1053E0007091B1028091A6029091A702A091A802AB
:1053F000B091A902840F951FA61FB71FC816D90622
:10540000EA06FB0608F047C08EED96E00E94266093
:1054100080937D04AC015527C701B6010E94A715F2
:105420008FEFC81AD80AE80AF80AD4CF029799F57C
:10543000C090AE02D090AF02E090B002F090B10206
:105440004091AE025091AF026091B0027091B102F2
:105450008091A6029091A702A091A802B091A90202
:10546000840F951FA61FB71FC816D906EA06FB06AC
:1054700090F48EED96E00E94266010927D0440E04C
:1054800050E0C701B6010E94A7158FEFC81AD80ACD
:10549000E80AF80AD5CFFF90EF90DF90CF900895FB
:1054A000CF92DF92EF92FF92C12CD12C80E1E82EB7
:1054B000F12C8EED96E00E94266080937D04AC0175
:1054C0005527C701B6010E94A7158FEFC81AD80A41
:1054D000E80AF80A8FEFC8168FE7D80680E1E806D9
:1054E000F10439F7FF90EF90DF90CF9008958F92FD
:1054F0009F92AF92BF92CF92DF92EF92FF921F9353
:10550000CF93DF930E9453096AE070E080E090E05F
:105510000E94AB5D0E94E2096AE070E080E090E0EA
:105520000E94AB5D8FEF87B9C0907D06D0907E065C
:10553000E0907F06F09080061FEF40917D0650912D
:105540007E0660917F067091800680918106909121
:105550008206A0918306B0918406840F951FA61F32
:10556000B71FC816D906EA06FB0608F046C0D701E1
:10557000C6019F70AA27BB27892B8A2B8B2B19F476
:105580008EB180588EB9CDE7D4E0460157018EED3B
:1055900096E00E94266088834AEA6AEA7AE080E020
:1055A00090E00E94B01D45E565E575E080E090E083
:1055B0000E94B01D40EA6AEA7AE080E090E00E9432
:1055C000B01D4881C501B4010E94B01D17B81198E3
:1055D000999186B1892787FDFCCF119A17B98FEF72
:1055E000881A980AA80AB80A86E0CD37D80779F64B
:1055F00082E0D80EE11CF11CA0CF17B87798DF919C
:10560000CF911F91FF90EF90DF90CF90BF90AF9020
:105610009F908F9008958F929F92AF92BF92CF925A
:10562000DF92EF92FF921F93CF93DF930E94530973
:105630006AE070E080E090E00E94AB5D0E94E209C9
:105640006AE070E080E090E00E94AB5D8FEF87B988
:105650004AEA6AEA7AE080E090E00E94B01D45E5FF
:1056600065E575E080E090E00E94B01D40E26AEAE6
:105670007AE080E090E00E94B01DC0907D06D0905E
:105680007E06E0907F06F09080061FEF40917D0639
:1056900050917E0660917F06709180068091810610
:1056A00090918206A0918306B0918406840F951F85
:1056B000A61FB71FC816D906EA06FB06C0F5D70114
:1056C000C6019F70AA27BB27892B8A2B8B2B19F425
:1056D0008EB180588EB9CDE7D4E0460157018EEDEA
:1056E00096E00E942660888340EA6AEA7AE080E0D9
:1056F00090E00E94B01D4881C501B4010E94B01D18
:1057000017B81198999186B1892787FDFCCF119A16
:1057100017B98FEF881A980AA80AB80A86E0CD3719
:10572000D807E9F682E0D80EE11CF11CAFCF40E9C2
:1057300065E575E080E090E00E94B01D40E06AEA17
:105740007AE080E090E00E94B01D17B87798DF9172
:10575000CF911F91FF90EF90DF90CF90BF90AF90CF
:105760009F908F9008952F923F924F925F926F92E9
:105770007F928F929F92AF92BF92CF92DF92EF92E1
:10578000FF920F931F93CF93DF9300D000D000D0F0
:10579000CDB7DEB754DA6AE070E080E090E00E94B6
:1057A000AB5D0E9453096AE070E080E090E00E94E7
:1057B000AB5D0E94E2096AE070E080E090E00E9448
:1057C000AB5D8FEF87B9C0907D06D0907E06E090EC
:1057D0007F06F090800688EE282E83E0382E0FEFAB
:1057E00040917D0650917E0660917F067091800603
:1057F0008091810690918206A0918306B0918406E3
:10580000840F951FA61FB71FC816D906EA06FB0608
:1058100008F073C08EB180588EB9812C912C540140
:105820001E821D82D701C601880D991DAA1DBB1DB0
:1058300089839A83AB83BC834AEA6AEA7AE080E090
:1058400090E00E94B01D45E565E575E080E090E0E0
:105850000E94B01D45E2C701B6010E94B01D4091F3
:1058600078044150C701B6010E94B01D10E0AD811F
:10587000BE812D01BB0F6608770889819A81AB81B3
:10588000BC81480E591E6A1E7B1E80917804181731
:1058900078F48EED96E00E942660482FC301B20195
:1058A000610F711D811D911D0E94B01D1F5FEDCF05
:1058B00049E2C701B6010E94B01D17B8C1010197A6
:1058C000F1F707B980917804AD81BE81A80FB11DB1
:1058D000BE83AD83A115B0440CF4AECF30E4930E7B
:1058E000A11CB11C8114910482E0A806B10409F046
:1058F00097CF92E0E90EF11C73CF779826960FB6FA
:10590000F894DEBF0FBECDBFDF91CF911F910F91F5
:10591000FF90EF90DF90CF90BF90AF909F908F90CF
:105920007F906F905F904F903F902F9008958F924F
:105930009F92AF92BF92CF92DF92EF92FF92CF935E
:10594000DF930E9453096AE070E080E090E00E94DB
:10595000AB5D0E947A136AE070E080E090E00E9404
:10596000AB5D8FEF87B9C0907D06D0907E06E0904A
:105970007F06F09080068091BE029091BF02A091B8
:10598000C002B091C102C816D906EA06FB06E8F4C7
:10599000779ACDE7D4E0460157018EED96E00E945C
:1059A00026608993482FC501B4010E94B01D8FEF76
:1059B000881A980AA80AB80A86E0CD37D80769F786
:1059C00082E0D80EE11CF11CD6CF7798DF91CF9101
:1059D000FF90EF90DF90CF90BF90AF909F908F900F
:1059E00008953F924F925F926F927F928F929F9213
:1059F000AF92BF92CF92DF92EF92FF920F931F93DD
:105A0000CF93DF93CDB7DEB72A970FB6F894DEBFFA
:105A10000FBECDBF0E9453096AE070E080E090E0C5
:105A20000E94AB5D0E94E2096AE070E080E090E0D5
:105A30000E94AB5D8FEF87B9C0907D06D0907E0647
:105A4000E0907F06F09080061A86198633243A94F7
:105A500040917D0650917E0660917F067091800690
:105A60008091810690918206A0918306B091840670
:105A7000840F951FA61FB71FC816D906EA06FB0696
:105A800008F0C3C029853A852115384044F012EA50
:105A9000412E12E8512E18E8612E712C07C0B2EA8F
:105AA0004B2EB2E85B2EB8E06B2E712C89859A855F
:105AB000811598404CF020E53DE141E850E0298314
:105AC0003A834B835C8308C080E59DE1A1E0B0E0B0
:105AD00089839A83AB83BC83A985BA85A115B84015
