:10000000E6C000000EC100000CC100000AC10000E3
:1000100008C1000006C1000004C1000002C10000C8
:1000200000C10000FEC000000C94E7140C9464159D
:10003000F8C00000F6C00000F4C00000F2C00000EC
:10004000F0C00000EEC00000ECC00000EAC00000FC
:10005000E8C00000E6C00000E4C000000C944414B6
:10006000E0C00000DEC00000DCC00000DAC000001C
:10007000D8C00000D6C00000D4C00000D2C000002C
:10008000D0C00000CEC00000CCC00000CAC000003C
:10009000C8C00000C6C00000B70FD40F0E108410F7
:1000A0008410841084108410C90F33103910841008
:1000B0004810841084108410D00F69107E10D90F5E
:1000C000E10F11101A102D1057104010D70FD80F34
:1000D00084100D1066106710841084108410841032
:1000E0008410841084108410841084108410841070
:1000F0008410841084108410F50F84100510000102
:100100000000AF0112000200006C01430003000078
:10011000680104010309044E0118020309043601B1
:10012000160303090428010C0C03310032003300CC
:100130003400350000001603550053004200200033
:10014000530065007200690061006C000000180334
:100150005400650065006E0073007900640075004E
:1001600069006E006F0000000403090409024300E7
:10017000020100C03209040000010202010005244E
:1001800000100105240100010424020605240600D4
:10019000010705820308004009040100020A00006B
:1001A000000705030240000007058402400000121A
:1001B00001000202000020C0168304720201020343
:1001C000010001C10201803601813600B1181124FD
:1001D0001FBECFEFD0E2DEBFCDBF13E0A0E0B1E0A5
:1001E000E8E6F8E300E00BBF02C007900D92A434EC
:1001F000B107D9F727E0A4E4B3E001C01D92AC3009
:10020000B207E1F710E0C7EED0E004C02197FE018D
:100210000E940319C63ED107C9F70E94D4110C945D
:10022000321CEECEFB0101900020E9F73197AF01BF
:10023000461B570BDC01ED91FC910280F381E02D10
:100240000994F0CF0F931F93CF93DF93EC01EADF74
:100250008C01CE010E948510800F911FDF91CF91FC
:100260001F910F910895CF93DF931F92CDB7DEB703
:100270006983DC01ED91FC910280F381E02D41E086
:1002800050E0BE016F5F7F4F09950F90DF91CF91D6
:10029000089540E052EC61E070E080E097E00E9459
:1002A000491811B814B817B81AB81DB810BA08957B
:1002B0008FEF8AB91BB887B918B88DB182618DB933
:1002C0008DB180668DB98EB182618EB94598469A9E
:1002D000809A889A81986CE271E080E090E00C94BA
:1002E0008414FC0128E0819A808190E0880F892F96
:1002F000881F990B892B09F425C00000000000001D
:1003000000000000819800000000000000000000D4
:1003100000000000000000000000000000000000DD
:1003200000000000000000000000000000000000CD
:1003300000000000000000000000000000000000BD
:10034000000025C0000000000000000000000000C8
:10035000000000000000000000000000000000009D
:10036000000000000000000000000000000000008D
:10037000000000000000000000000000000000007D
:1003800000000000000000000000000081982150E3
:1003900069F0000000000000000000000000000004
:1003A000000000008081880F80839DCF615011F094
:1003B000319698CF08950000000000000000819A57
:1003C000000000000000000000000000000000002D
:1003D0000000000000000000000000008198089567
:1003E0009C01EAE8F3E08FE3799B03C08150E1F7D9
:1003F0000895000000000000000000000000000060
:1004000000000000000000000000000000000000EC
:1004100000000000000000000000000000000000DC
:1004200000000000000000000000000000008FB18C
:10043000827081932150310929F09FE37999D3CFBC
:100440009150E1F708958FEF8AB91BB887B918B8B2
:10045000089574980000000000000000000026B11C
:1004600089B1749A000090E0922B08950F931F9326
:10047000CF93DF93CDB7DEB72B970FB6F894DEBFDF
:100480000FBECDBFF89494E09B878A8761E0CE01D0
:100490000B9627DF61E0CE010A9623DF8CDF80E434
:1004A00090E09EDF7894EAE8F3E080E090E061E09D
:1004B00070E02781298326812A8325812B8324814B
:1004C0002C8323812D8322812E8321812F832081E0
:1004D0002887DE01119620E030E040E05D91552351
:1004E00039F08B01022E01C0000F0A94EAF7402B6D
:1004F0002F5F3F4F2830310589F7DC0123E0B695A7
:10050000A7952A95E1F7A75BBC4F4C9308963896C0
:100510008034910571F62B960FB6F894DEBF0FBEAE
:10052000CDBFDF91CF911F910F910895BC01660F50
:10053000771F20E030E041E02617370731F091B314
:10054000942791BB2F5F3F4FF7CF0895CF93DF9351
:10055000D82FC8E0819A8D2F90E0880F892F881FAF
:10056000990B892B39F082E090E0E0DF819886E0FA
:1005700090E006C086E090E0D9DF819882E090E0CC
:10058000D5DFDD0FC15031F7DF91CF910895819A0A
:1005900082E090E0CBDF819884E090E0C7CF0F93BA
:1005A0001F93CF930DE814E0C0E4799B04C081E071
:1005B00090E0BCDFFACF83E090E0B8DF8FB18695A2
:1005C0008170F80181938F01799904C081E090E0F6
:1005D000ADDFFACFC15049F7CF911F910F91089528
:1005E000CF93DF93CDB7DEB727970FB6F894DEBF72
:1005F0000FBECDBF28E730E04EE660E077E0CE01E9
:1006000001960E94DB10CE0101960E94CA116093F0
:10061000DB047093DC048093DD049093DE04CE0150
:1006200001960E94111127960FB6F894DEBF0FBEF7
:10063000CDBFDF91CF910895CF93DF93CDB7DEB7D4
:1006400027970FB6F894DEBF0FBECDBF28E730E086
:100650004EE660E077E0CE0101960E94DB10CE010D
:1006600001960E94CA116093E9067093EA0680938E
:10067000EB069093EC06CE0101960E94111127968D
:100680000FB6F894DEBF0FBECDBFDF91CF910895B6
:10069000CF93DF93CDB7DEB727970FB6F894DEBFC1
:1006A0000FBECDBF28E730E04EE660E077E0CE0138
:1006B00001960E94DB10CE0101960E94CA11609340
:1006C000CE047093CF048093D0049093D104CE01D4
:1006D00001960E94111127960FB6F894DEBF0FBE47
:1006E000CDBFDF91CF910895CF93DF93CDB7DEB724
:1006F00027970FB6F894DEBF0FBECDBF28E730E0D6
:100700004EE660E077E0CE0101960E94DB10CE015C
:1007100001960E94CA1170938C0460938B04CE01E1
:1007200001960E94111127960FB6F894DEBF0FBEF6
:10073000CDBFDF91CF9108958FEF80BB81B984B990
:100740008DB183628DB96E981AB817B88EB1826276
:100750008EB9709A6CE271E080E090E00C948414A1
:100760008EEF80BB8FEF81B984B98DB183618DB974
:100770001AB817B88EB183618EB968EC70E080E06A
:1007800090E00C9484140F931F93262F2E7F21BB8F
:10079000072F182F292F332702B9AA27BB2785B97E
:1007A0000000709874980000000000000000000035
:1007B000000000000000000000000000000029B15F
:1007C00086B1709A749A00000000000000000000DA
:1007D000000090E0922B1F910F9108958FEF8AB93E
:1007E00087B908951AB817B80895CF92DF92EF929B
:1007F000FF926B017C01F6DFC1BABB27AF2D9E2DA6
:100800008D2D82B96701EE24FF24C5B800007098D1
:1008100071980000000000000000000026B189B1BE
:10082000719A709A000090E0922BFF90EF90DF9009
:10083000CF900895CF92DF92EF92FF92CF93DF9304
:100840006B017C01D42FC52FC9DFC1BABB27AF2DE7
:100850009E2D8D2D82B96701EE24FF24C5B8DBB92A
:10086000C8B90000709800007598000000000000F2
:1008700000000000759A0000709A00000000DF91EF
:10088000CF91FF90EF90DF90CF90ACCF40EF50E052
:10089000D1DF64E670E080E090E00C9484141F9354
:1008A000CF93DF931092D7041092D8041092D904FA
:1008B0001092DA044AEA50E065E575E080E090E0E5
:1008C000B9DF45E550E06AEA72E080E090E0B2DF2F
:1008D00040E950E065E575E080E090E0ABDF60E086
:1008E00070E0CB0182DF9F938F9382E391E09F932F
:1008F0008F9382ED94E09F938F930E94571960E04D
:1009000070E0CB0172DF9F938F93CBE8D2E0DF934F
:10091000CF938DEE96E09F938F930E9457196EE0D0
:1009200070E080E090E061DF182F6FE070E080E021
:1009300090E05BDF20E030E0282B1F932F93DF93C4
:10094000CF9383EE94E09F938F930E94571962EDAB
:1009500074E080E097E066DC60E972E080E097E0B8
:1009600061DC6DEE76E080E097E05CDC60E972E0EF
:1009700080E097E057DC63EE74E080E097E052DCC3
:1009800060E972E080E097E04DDC8DB79EB742965B
:100990000FB6F8949EBF0FBE8DBF60E070E0CB0134
:1009A000DF91CF911F9172CFCF92DF92EF92FF92A2
:1009B00017DEC12CD12C76018091DB049091DC04F0
:1009C000A091DD04B091DE04B695A7959795879523
:1009D000C816D906EA06FB0698F54AEA50E065E52E
:1009E00075E080E090E026DF45E550E06AEA72E0DD
:1009F00080E090E01FDF40E850E065E575E080E0D2
:100A000090E018DF4AEA50E065E575E080E090E0AC
:100A100011DF45E550E06AEA72E080E090E00ADF2D
:100A200040E350E0C701B60105DFC701B601DDDED6
:100A30008F679F6F0196C9F78FEFE81AF80ABCCF4E
:100A4000FF90EF90DF90CF900895CF93DF93D82F52
:100A5000C92FF9DCDBB9C8B90000719800000000AB
:100A6000000000000000719A00000000DF91CF91AB
:100A7000B9CECF92DF92EF92FF926B017C01E3DC63
:100A8000C701AA27BB272EB122612EB9769A000092
:100A9000759A8BB9892F992788B900007698CBB8B9
:100AA000CD2CDD24C8B800000000759800000000BF
:100AB0000000000000000000000000000000000036
:100AC000FF90EF90DF90CF908DCED3DF80EF90E05E
:100AD000BCDF64E670E080E090E00C9484141F9327
:100AE000CF93DF931092D7041092D8041092D904B8
:100AF0001092DA048091010190910201A09103010A
:100B0000B0910401BC01CD016655754F8F4F9F4FC9
:100B1000B0DF8AEA90E099DF8091010190910201B3
:100B2000A0910301B0910401BC01CD016C5A7A4F30
:100B30008F4F9F4F9EDF85E590E087DF8091010119
:100B400090910201A0910301B0910401BC01CD017B
:100B50006655754F8F4F9F4F8CDF80E990E075DFB2
:100B60006091010170910201809103019091040153
:100B700080DF6FDC9F938F9382E391E09F938F934D
:100B800082ED94E09F938F930E94571962DC9F93AC
:100B90008F93CBE8D2E0DF93CF938DEE96E09F93D7
:100BA0008F930E9457198091010190910201A091A9
:100BB0000301B0910401BC01CD01645E7F4F8F4FF2
:100BC0009F4F57DF46DC182F44DC20E030E0282B15
:100BD0001F932F93DF93CF9383EE94E09F938F9394
:100BE0000E94571962ED74E080E097E01BDB60E93A
:100BF00072E080E097E016DB6DEE76E080E097E053
:100C000011DB60E972E080E097E00CDB63EE74E0FA
:100C100080E097E007DB60E972E080E097E002DBCC
:100C20008DB79EB742960FB6F8949EBF0FBE8DBF8C
:100C30006091010170910201809103019091040182
:100C4000DF91CF911F9141CF4F925F926F927F9230
:100C50008F929F92AF92BF92CF92DF92EF92FF92CC
:100C60008090010190900201A0900301B0900401D6
:100C7000C12CD12C7601240135012AEA420E2AE04A
:100C8000521E611C711C84E5880E85E0981EA11C13
:100C9000B11C8091DB049091DC04A091DD04B09143
:100CA000DE04C816D906EA06FB0608F048C0C301F0
:100CB000B201DFDE8AEA90E0C8DEC501B401D9DE08
:100CC00085E590E0C2DEC301B201D3DE80E890E0AA
:100CD000BCDEC301B201CDDE8AEA90E0B6DEC5011A
:100CE000B401C7DE85E590E0B0DE8091010190910E
:100CF0000201A0910301B0910401BC01CD016C0D72
:100D00007D1D8E1D9F1DB5DE80E390E09EDE8091EF
:100D1000010190910201A0910301B0910401BC0175
:100D2000CD016C0D7D1D8E1D9F1DA3DE92DB8F6797
:100D30009F6F019661F782E0E80EF11CAACFFF9049
:100D4000EF90DF90CF90BF90AF909F908F907F906B
:100D50006F905F904F900895CF92DF92EF92FF9245
:100D60006B017C0160E070E081E098E082DEC70109
:100D70006CDEC601FF90EF90DF90CF9066CE60E012
:100D800070E080E092EDE8DF65E070E080E090E008
:100D90000E94841460E070E080E092EDDDDF65E0A9
:100DA00070E080E090E00E94841460E070E080E0F9
:100DB00091EED2DF65E070E080E090E00C94841466
:100DC000DF92EF92FF920F931F93CF93DF93CDB7F4
:100DD000DEB768970FB6F894DEBF0FBECDBFD82E32
:100DE00088E0E6E1F1E0DE01519601900D928A95EE
:100DF000E1F788E0EEE1F1E0DE01199601900D9255
:100E00008A95E1F788E0E6E2F1E0DE0111960190D3
:100E10000D928A95E1F760E070E080E091EE9CDF52
:100E200061E070E080E090E00E94841460E070E097
:100E300080E098E01EDE09EE14E078010ADBD701BD
:100E40009C9311968C93B2E0EB0EF11CE1EFEE1641
:100E5000E4E0FE0699F7F2E0DF1210C0FE017196A1
:100E60009E01275E3F4F80E04191D8019D918D0109
:100E7000491381E0E217F307B9F729C0B1E0DB12AB
:100E800025C08091440381110FC0FE0139969E0157
:100E90002F5E3F4F4191D8019D918D01491381E013
:100EA000E217F307B9F713C0813081F4FE013196E0
:100EB0009E01275F3F4F80E04191D8019D918D01B8
:100EC000491381E0E217F307B9F701C080E06896A3
:100ED0000FB6F894DEBF0FBECDBFDF91CF911F914B
:100EE0000F91FF90EF90DF900895CF92DF92EF92F5
:100EF000FF9245DF8FE7C82ED12CE12C8BE4F82E32
:100F0000C701B60129DF6AE070E080E090E00E944E
:100F1000841460E070E080E098E71EDF6AE070E033
:100F200080E090E00E94841460E070E080E092ED48
:100F300013DF8091000144DF882339F061E070E025
:100F400080E090E00E948414F4CF80E8C80ED11CA9
:100F5000E11CF11C8FE7C81684E0D806E1048BE49D
:100F6000F80671F6FF90EF90DF90CF9008954F92C2
:100F70005F926F927F928F929F92AF92BF92CF9229
:100F8000DF92EF92FF920F931F93CF93DF93C82FBF
:100F900010924503109246031092470310924803A3
:100FA000823031F400E810E090E4492E512C05C065
:100FB00000E012E0412C82E0582E60E070E080E01A
:100FC00090EFCADEC0900501D0900601E0900701C5
:100FD000F09008012C2F30E040E050E060E070E03D
:100FE00082E090E00E94E71849015A01052C000CAC
:100FF000660877088091050190910601A09107018C
:10100000B0910801880D991DAA1DBB1DC816D906EF
:10101000EA06FB0698F5C701B6012BDDC9EED4E060
:1010200018DA988389832296CE01895E94408017CE
:101030009107B4F3409145035091460360914703F3
:1010400070914803E9EEF4E081918F3F21F04F5F0A
:101050005F4F6F4F7F4FCF01895E9440801791079C
:101060009CF340934503509346036093470370936A
:101070004803C40CD51CE61CF71CBCCF609145038B
:10108000709146038091470390914803DF91CF917F
:101090001F910F91FF90EF90DF90CF90BF90AF9096
:1010A0009F908F907F906F905F904F9008950F93D7
:1010B0001F93CF93DF9360E070E080E091EE4CDE11
:1010C0006AE070E080E090E00E94841460E070E0EC
:1010D00080E098E0CEDC09EE14E0E801BAD998830C
:1010E0008983229684E0C13FD807C1F78091F0043C
:1010F0008E3121F482E0809300011AC08D3131F4E9
:1011000081E0809300011092440312C0813F59F0A6
:10111000F80161918F0180E097E0A5D8F4E0013FEC
:101120001F07B1F705C081E080930001809344035D
:10113000DF91CF911F910F9108950F931F93CF933C
:10114000DF9300D0CDB7DEB785E08A8380918B0432
:10115000898309EE14E080E097E00E940717F80108
:1011600081938F01F4E0013F1F07A9F7F89461E034
:10117000CE010296B6D861E0CE010196B2D868E001
:1011800089EE94E0AED817D978940F900F90DF9144
:10119000CF911F910F910895AF92BF92CF92DF929E
:1011A000EF92FF920F931F93CF93DF93D0E010E065
:1011B00059EEE52E56E0F52E212F30E080918B047C
:1011C00090918C0497FDCF9646E0959587954A952A
:1011D000E1F72817390764F589EEC82E84E0D82E88
:1011E000560180E097E00E940717F50181935F01A7
:1011F000EE16FF06B1F7F894C0E080E995E696D9BF
:1012000085E0A4D98D2F8C0FA1D9560108E0F501F6
:1012100081915F019BD90150D1F7B9D9CF5FF8E037
:10122000CF0ED11CC03449F778941F5FD05CC4CF77
:10123000DF91CF911F910F91FF90EF90DF90CF90B2
:10124000BF90AF900895BF92CF92DF92EF92FF923E
:101250000F931F93CF93DF93C0900501D0900601A9
:10126000E0900701F090080180910501909106013E
:10127000A0910701B09108019058AF4FBF4FC81619
:10128000D906EA06FB0600F5C701B601F2DBC9EE96
:10129000D4E080E097E00E940717B82E888380E0B2
:1012A00097E00E94071789831B2D00E09801282BE7
:1012B000C901CBDB229636E0C93ED30751F782E065
:1012C000D80EE11CF11CD0CFDF91CF911F910F916F
:1012D000FF90EF90DF90CF90BF9008954F925F9274
:1012E0006F927F929F92AF92BF92CF92DF92EF92D6
:1012F000FF920F931F93CF93DF93F7DD809100014F
:1013000036DE672B682B692B61F063E972E080E0C1
:1013100097E00E9421016AE972E080E097E00E9474
:1013200021012DDDC12CD12C76012601370110E0E1
:1013300060E070E080E094EB0FDD61E070E080E061
:1013400090E00E94841460E070E080E098E091DB1F
:10135000C9EED4E000E080E097E00E940717982EE5
:10136000888380E097E00E9407178983B92CA12C1D
:101370009501282BC90169DB0E5F2296003859F7C9
:1013800061E070E080E090E00E948414C301B2014B
:10139000956AE2DC61E070E080E090E00E948414F5
:1013A00060E070E080E092EDD7DC8091000108DD24
:1013B000882339F061E070E080E090E00E948414BE
:1013C000F4CF1F5F3FEF431A530A630A730A1038C2
:1013D00009F0AECF64E170E080E090E00E948414F8
:1013E00080E8C80ED11CE11CF11CC11424E0D20617
:1013F000E104F10409F099CFDF91CF911F910F9192
:10140000FF90EF90DF90CF90BF90AF909F907F9034
:101410006F905F904F90089580E097E00E940717CB
:101420008093E80408952F923F924F925F926F92BB
:101430007F928F929F92AF92BF92CF92DF92EF9264
:10144000FF920F931F93CF93DF93CDB7DEB76197D2
:101450000FB6F894DEBF0FBECDBF80900101909013
:101460000201A0900301B0900401D6DF6AE070E0B1
:1014700080E090E00E948414DFD86AE070E080E0B1
:1014800090E00E94841404D96AE070E080E090E06B
:101490000E948414C090E906D090EA06E090EB0622
:1014A000F090EC06A50194012655354F4F4F5F4F44
:1014B0002B833C834D835E83D501C4018C5A9A4FA4
:1014C000AF4FBF4F8F839887A987BA874091E906AE
:1014D0005091EA066091EB067091EC068091CE0483
:1014E0009091CF04A091D004B091D104840F951FA6
:1014F000A61FB71FC816D906EA06FB0608F02AC1C0
:10150000812C912C540100E010E06B817C818D8155
:101510009E81AFDA8AEA90E098DA6F8178858985D2
:101520009A85A7DA85E590E090DA2801012E000C73
:10153000660877088091010190910201A091030152
:10154000B09104018C0D9D1DAE1DBF1D880D991D10
:10155000AA1DBB1DBC01CD01640D751D861D971D07
:1015600088DA85E290E071DA8091010190910201C0
:10157000A0910301B09104018C0D9D1DAE1DBF1DF6
:10158000880D991DAA1DBB1DBC01CD01640D751DE3
:10159000861D971D6EDA8091E804869590E001978C
:1015A00054DA1B862091E8049B859217A8F580E009
:1015B00097E00E9407178C878093E90480E097E00A
:1015C0000E9407178093EA04AC85AA8319822980B8
:1015D0003A80282A8091010190910201A091030193
:1015E000B09104018C0D9D1DAE1DBF1D880D991D70
:1015F000AA1DBB1D840D951DA61DB71DBC01CD01E7
:101600002B85620F711D811D911D33DAC1011DDA19
:101610003B853E5F3B87C6CF40910101509102015F
:1016200060910301709104014C0D5D1D6E1D7F1DC5
:10163000480D591D6A1D7B1DDB01CA01840D951DD6
:10164000A61DB71D8E879F87A88BB98B822F90E030
:101650000297092E000CAA0BBB0B2E853F854889EB
:101660005989280F391F4A1F5B1FCA01B90101DAC6
:1016700089E290E0EAD94091E80450E042505109F3
:10168000052E000C660B770B8091010190910201F1
:10169000A0910301B0910401840F951FA61FB71FED
:1016A0008C0D9D1DAE1DBF1D880D991DAA1DBB1D56
:1016B000BC01CD01640D751D861D971DDAD90E94F0
:1016C0002902A1014F675F6F5D874C878F679F6F0E
:1016D0004091E804AC85BD858A179B0729F150E04D
:1016E00042505109052E000C660B770B80910101C9
:1016F00090910201A0910301B0910401840F951F04
:10170000A61FB71F8C0D9D1DAE1DBF1D880D991DF9
:10171000AA1DBB1DBC01CD01640D751D861D971D45
:10172000A8D90E942902D2CF040F111D0115B0E4DF
:101730001B070CF4EACE20E4920EA11CB11C81140C
:10174000910432E0A306B10409F0DDCE42E0E40EDC
:10175000F11CBCCE61960FB6F894DEBF0FBECDBFB4
:10176000DF91CF911F910F91FF90EF90DF90CF907D
:10177000BF90AF909F908F907F906F905F904F90B1
:101780003F902F9008952F923F924F925F926F92C9
:101790007F928F929F92AF92BF92CF92DF92EF9201
:1017A000FF920F931F93CF93DF93CDB7DEB72897A8
:1017B0000FB6F894DEBF0FBECDBF2EDE6AE070E03C
:1017C00080E090E00E9484140E941C036AE070E0B4
:1017D00080E090E00E9484140E9448036AE070E078
:1017E00080E090E00E9484148090E9069090EA06E0
:1017F000A090EB06B090EC06B694A79497948794CB
:101800004091E9065091EA066091EB067091EC0672
:101810008091CE049091CF04A091D004B091D104D6
:10182000840F951FA61FB71FB695A7959795879507
:1018300088169906AA06BB0608F0B5C0412C512CA3
:10184000320118861F82D501C401840D951DA61D85
:10185000B71D8B839C83AD83BE834AEA50E065E568
:1018600075E080E090E00E941A0445E550E06AEAE5
:1018700072E080E090E00E941A04AF81B8856D01AB
:10188000BB0FEE08FF088B819C81AD81BE81C80E25
:10189000D91EEA1EFB1E45E250E0C701B6010E94B8
:1018A0001A044091E80450E041505109C701B601C3
:1018B0000E941A04312C6091E8043616E8F480E0A6
:1018C00097E00E940717182F8093E90480E097E0C3
:1018D0000E9407178093EA041A83198209811A81EA
:1018E000082BC701B601630D711D811D911DA80153
:1018F0000E941A043394DFCF70E061507109CB016C
:10190000770FAA0BBB0BBC01CD016C0D7D1D8E1D8D
:101910009F1D49E250E00E941A046091E80470E0C3
:1019200061507109CB01770FAA0BBB0BBC01CD0134
:101930006C0D7D1D8E1D9F1D0E94F5031801AFE7E4
:101940002A2A33243A948F679F6F6091E8048215A6
:10195000930581F070E061507109CB01770FAA0BFC
:10196000BB0BBC01CD016C0D7D1D8E1D9F1D0E940A
:10197000F503E9CF8F819885860F911D98878F8316
:10198000811590420CF469CFB0E25B0E611C711CB2
:101990004114510421E06206710409F052CF8FEF27
:1019A000A81AB80A2DCF28960FB6F894DEBF0FBE3E
:1019B000CDBFDF91CF911F910F91FF90EF90DF90FE
:1019C000CF90BF90AF909F908F907F906F905F90DF
:1019D0004F903F902F900895CF92DF92EF92FF9219
:1019E000CF93DF930E941C03C0900101D0900201AD
:1019F000E0900301F09004018091E9069091EA06DD
:101A0000A091EB06B091EC06C80ED91EEA1EFB1E93
:101A10004091010150910201609103017091040114
:101A20008091E9069091EA06A091EB06B091EC0650
:101A3000840F951FA61FB71F9E5FAF4FBF4FC816DD
:101A4000D906EA06FB0638F5D701C6019F73AA2717
:101A5000BB27892B8A2B8B2B19F48EB180588EB91A
:101A6000C701B60106D8C9EED4E00E9429029883C6
:101A70008983229686E0C93ED807B9F740E052E054
:101A800069EE74E080E097E00E94491782E0D80E8A
:101A9000E11CF11CBDCF7798DF91CF91FF90EF90C3
:101AA000DF90CF900895CF92DF92EF92FF921F9335
:101AB000CF93DF9310E0212F30E080918B04909141
:101AC0008C0497FDCF9646E0959587954A95E1F76A
:101AD000281739076CF5F894690186E0CC0CDD1CF9
:101AE0008A95E1F799EEE92E94E0F92EC0E0D0E076
:101AF000C6018C0F9D1F0E943602E9E4F3E0D70176
:101B000081918D9383E0E135F807D1F7219688E044
:101B1000E80EF11CC034D10559F7789440E052E04A
:101B200069EE74E080E097E00E9449171F5FC3CF21
:101B3000DF91CF911F91FF90EF90DF90CF900895AC
:101B4000CF92DF92EF92FF920F931F93CF93DF9389
:101B500010E000E0202F30E080918B0490918C0405
:101B600097FDCF9646E0959587954A95E1F728171A
:101B700039070CF065C0F894F12EC0E0D0E084E0A5
:101B80000E94A6028F2D0E94A6020E94C7020E94F8
:101B9000CF020E94C702EDE8F4E0E12CAE0147510C
:101BA0005B4F8E2D869586958695DA01A80FB11D1F
:101BB000808160E8869F90011124918160E4969F66
:101BC000C0011124822B2781822B928120E2929FD7
:101BD00060011124282F2C29938130E1939FB001BB
:101BE0001124822F862B948168E0969F9001112406
:101BF000282B958134E0939FC0011124822B96817C
:101C0000990F892B8C9368E0E60E389680E4E812F1
:101C1000C8CF8CE291E00E949602F3942896C115F9
:101C200092E0D90709F0ABCF789440E052E069EE3A
:101C300074E080E097E00E9449170F5F105C8ACF44
:101C4000DF91CF911F910F91FF90EF90DF90CF9098
:101C50000895CF92DF92EF92FF92CF93DF930E948D
:101C60001C03C0900501D0900601E0900701F090A0
:101C700008018091E9069091EA06A091EB06B091E7
:101C8000EC06C80ED91EEA1EFB1E409105015091BC
:101C9000060160910701709108018091E906909119
:101CA000EA06A091EB06B091EC06840F951FA61FE3
:101CB000B71F9E5FAF4FBF4FC816D906EA06FB0697
:101CC00008F5C701B6010E943905C9EED4E00E94AB
:101CD000290298838983229686E0C93ED807B9F7FE
:101CE0006AE070E080E090E00FD640E052E069EEFC
:101CF00074E080E097E00E94491782E0D80EE11C72
:101D0000F11CC3CFDF91CF91FF90EF90DF90CF9088
:101D10000895CF92DF92EF92FF92CF93DF930E94CC
:101D20001C0360E070E080E090EF16D8C0900501E1
:101D3000D0900601E0900701F09008018091E9063B
:101D40009091EA06A091EB06B091EC06C80ED91E60
:101D5000EA1EFB1E409105015091060160910701AA
:101D6000709108018091E9069091EA06A091EB0636
:101D7000B091EC06840F951FA61FB71F805C9F4F84
:101D8000AF4FBF4FC816D906EA06FB06E8F4C701F5
:101D9000B6010E943905C9EED4E00E942902988359
:101DA0008983229685E0C936D807B9F740E850E024
:101DB00069EE74E080E097E00E94491780E4C80E65
:101DC000D11CE11CF11CC6CFDF91CF91FF90EF90A9
:101DD000DF90CF9008958F929F92AF92BF92CF9253
:101DE000DF92EF92FF92CF93DF930E941C03C0908B
:101DF000E906D090EA06E090EB06F090EC06F69447
:101E0000E794D794C7948091E9069091EA06A0914F
:101E1000EB06B091EC069E5FAF4FBF4FB695A7950E
:101E200097958795C816D906EA06FB0608F032C0D2
:101E3000C9EED4E046015701C501B4010E94F50383
:101E4000988389838FEF881A980AA80AB80A22967D
:101E500086E0C93ED80781F70000000000000000BE
:101E60000000000000000000000000000000000072
:101E70000000000000000000000040E052E069EEB9
:101E800074E080E097E00E9449178FEFD81AE80AC3
:101E9000F80AB9CFDF91CF91FF90EF90DF90CF900C
:101EA000BF90AF909F908F9008958F929F92AF9226
:101EB000BF92CF92DF92EF92FF92CF93DF9380E0B9
:101EC00090E0A8E0B0E08093DF049093E004A0935A
:101ED000E104B093E204C12CD12C76018091DF049F
:101EE0009091E004A091E104B091E204B695A79529
:101EF00097958795C816D906EA06FB0600F5C9EE40
:101F0000D4E046015701C501B4010E94C303988380
:101F100089838FEF881A980AA80AB80A229686E061
:101F2000C93ED80781F740E052E069EE74E080E0F6
:101F300097E0AFD78FEFD81AE80AF80ACFCFDF9132
:101F4000CF91FF90EF90DF90CF90BF90AF909F9098
:101F50008F90089580E097E05AD7FC01FF27E33384
:101F6000F10508F0D1C0E45BFF4F0C9403196DEA52
:101F700072E080E097E00E9422016FEC72E080E066
:101F800097E00E94220165EE72E080E097E00C94F9
:101F9000220111B814B817B81AB81DB810BA0895AC
:101FA0000E9458010C946F050E94580119C014CD6D
:101FB00050CE0E94580164EF71E080E090E0A4D41C
:101FC00042C90E94580164EF71E080E090E09CD427
:101FD0000E94740364EF71E080E090E095D4DCD857
:101FE00064EF71E080E090E08FC40E94580164EFDC
:101FF00071E080E090E088D40E94740364EF71E0A7
:1020000080E090E081D49CDDEBCF0E94B00364EFD0
:1020100071E080E090E078D448CFDDCE0E949C0350
:10202000DFCF0E949C0364EF71E080E090E06CD40D
:102030000C944F040E949C0364EF71E080E090E0F8
:1020400063D40E94D40461E080E097E00E943301F1
:1020500064EF71E080E090E004C064E670E080E04E
:1020600090E052D490CB80E88093610010926100A0
:10207000089580E88093610081E080936100089575
:102080000E94740364E670E080E090E03DD455C89F
:102090000E94580164EF71E080E090E035D40E9426
:1020A000740364EF71E080E090E02ED4FCCC0E94D9
:1020B000580164EF71E080E090E026D40E94570858
:1020C00064EF71E080E090E01FD408C922CE0C9448
:1020D000BF060E94580164EF71E080E090E014D4E4
:1020E0000E94F0020E94240661E080E097E00E94D6
:1020F000330164EF71E080E090E004C068EC70E0D0
:1021000080E090E001D48FC90895CF93DF9300D091
:10211000CDB7DEB72DE029832AE02A83DC01ED91DB
:10212000FC910280F381E02D42E050E0BE016F5F40
:102130007F4F09950F900F90DF91CF910895CF9227
:10214000DF92EF92FF92CF93DF93EC010FB6F894FA
:10215000C090F506D090F606E090F706F090F806ED
:102160000FBEE881F9810284F385E02DCE01099547
:1021700097FF1AC00FB6F8948091F5069091F60675
:10218000A091F706B091F8060FBE8C199D09AE0913
:10219000BF094B815C816D817E8184179507A607FD
:1021A000B707F8F28FEF9FEFDF91CF91FF90EF909D
:1021B000DF90CF900895AF92BF92CF92DF92EF92CF
:1021C000FF920F931F93CF93DF93EC015B01042FDA
:1021D000690160E070E08AD0EC80FD80002E000C88
:1021E000110BEC14FD0488F4C501A9DF97FF04C0AE
:1021F00081E0F501878309C0009739F080179107C6
:1022000021F0682FCE01AED0ECCFCE01DF91CF917F
:102210001F910F91FF90EF90DF90CF90BF90AF9004
:102220000895FC01808191815CC10F931F93CF932E
:10223000DF93EC018B016F5F7F4F88819981DAD149
:10224000009731F0998388831B830A8381E001C062
:1022500080E0DF91CF911F910F910895CF93DF938D
:10226000FC01228133812617370758F4EC01DDDFAA
:10227000882341F08C819D81892B19F4E881F981B3
:10228000108281E0DF91CF910895EF92FF920F933A
:102290001F93CF93DF93EC017B018A014115510518
:1022A00031F4E881F981309789F010820FC0BA01CA
:1022B000D5DF2881398181110CC02115310521F02C
:1022C000C9010FD1198218821B821A821D821C82B9
:1022D00005C01D830C83B701C901CDD7CE01DF91A5
:1022E000CF911F910F91FF90EF900895FC01118203
:1022F0001082138212821582148216826115710572
:1023000049F0FB0101900020E9F73197AF01461B2E
:10231000570BBBCF0895EF92FF920F931F93CF936C
:10232000DF93EC017B0141155105A1F08C819D816A
:102330008A01080F191FB801CE0190DF882351F0E0
:10234000288139818C819D81B701820F931F93D79A
:102350001D830C83CE01DF91CF911F910F91FF90D0
:10236000EF9008950F931F93CF93DF9300D0CDB7D5
:10237000DEB78C0169831A8241E050E0BE016F5FD5
:102380007F4FC9DFC8010F900F90DF91CF911F9150
:102390000F910895FC0180819181009709F03CC75D
:1023A00060E070E0CB01089520D20E944901D2DDA7
:1023B000FECF0F931F93CF93DF938230910510F4DC
:1023C00082E090E0E0910A07F0910B0720E030E016
:1023D000A0E0B0E0309719F1408151810281138172
:1023E00048175907C8F08417950769F4109731F01A
:1023F00012960C93129713961C9327C000930A070A
:1024000010930B0722C02115310519F0421753070D
:1024100018F49A01BD01EF01DF01F801DBCF2115AE
:102420003105F9F0281B390B2430310580F48A81FD
:102430009B816115710521F0FB019383828304C0A8
:1024400090930B0780930A07FE01329644C0FE0169
:10245000E20FF31F8193919322503109398328832E
:102460003AC02091F2063091F306232B41F42091DB
:102470000B0130910C013093F3062093F20620916A
:10248000090130910A012115310541F42DB73EB7FC
:1024900040910D0150910E01241B350BE091F20685
:1024A000F091F306E217F307A0F42E1B3F0B281759
:1024B000390778F0AC014E5F5F4F2417350748F0BD
:1024C0004E0F5F1F5093F3064093F2068193919352
:1024D00002C0E0E0F0E0CF01DF91CF911F910F91BA
:1024E0000895CF93DF93009709F481C0FC013297E0
:1024F00013821282A0910A07B0910B07109781F402
:1025000020813181820F931F2091F2063091F306D2
:102510002817390751F5F093F306E093F20667C0E8
:10252000ED0120E030E0CE17DF0740F44A815B8107
:102530009E0141155105F1F0EA01F5CFD383C28325
:1025400040815181840F951FC817D90759F488819C
:102550009981840F951F0296918380838A819B8144
:10256000938382832115310529F4F0930B07E093BF
:102570000A073DC0E901FB83EA8349915991C40FE1
:10258000D51FEC17FD0761F480819181840F951FA1
:102590000296E90199838883828193819B838A8350
:1025A000E0E0F0E012968D919C911397009719F05E
:1025B000FD01DC01F7CF8D919C9111979D012E5F5C
:1025C0003F4F820F931F2091F2063091F306281798
:1025D000390769F4309729F410920B0710920A0713
:1025E00002C013821282B093F306A093F206DF9129
:1025F000CF9108956F927F928F929F92AF92BF92E8
:10260000CF92DF92EF92FF920F931F93CF93DF93BE
:10261000009781F4CB01DF91CF911F910F91FF9033
:10262000EF90DF90CF90BF90AF909F908F907F9072
:102630006F90BFCEFC01E60FF71F9C0122503109BD
:10264000E217F30708F49FC0EC01D9010D911C912A
:10265000119706171707A8F00530110508F491C067
:10266000C80104978617970708F48BC00250110918
:10267000061B170B019311936D937C93CF0131DFF0
:1026800080C05B01A01AB10A4C01800E911EA0917E
:102690000A07B0910B07612C712CE12CF12C1097DB
:1026A00009F446C08D919C911197A815B905B1F513
:1026B0006C0142E0C40ED11CCA14DB0478F14C0159
:1026C0008A189B08640142E0C40ED11C1296BC908B
:1026D00012971396AC91B5E0CB16D10440F0B282BC
:1026E000A38391828082D9016D937C9309C00E5F90
:1026F0001F4F800F911FF90191838083EB2DFA2FDB
:10270000E114F10431F0D7011396FC93EE93129784
:1027100038C0F0930B07E0930A0733C068167906B8
:1027200008F43C017D0112960D90BC91A02DB7CF0D
:102730008091F2069091F30688169906B1F4661618
:10274000770698F48DB79EB740910D0150910E0118
:10275000841B950BE817F907B0F4F093F306E093A8
:10276000F206F901718360830CC0CB0122DE7C018B
:10277000009749F0A801BE0175D5CE01B2DEC701B0
:1027800004C0CE0102C080E090E0DF91CF911F91A4
:102790000F91FF90EF90DF90CF90BF90AF909F9000
:1027A0008F907F906F9008951DBA109268001CBCA6
:1027B00010BE1FBA10927A0010926E0010926F0035
:1027C00010927000109271001092C9001092BC001B
:1027D00011B814B817B81AB81DB810BA12B815B88D
:1027E00018B81BB81EB811BA089581E885BF90E8E3
:1027F00095BFF894E1E6F0E0908381E0808323E0E8
:1028000024BD25BDEEE6F0E0208121602083809389
:10281000800022E0209381008093B0002093B100DB
:10282000809390002093910085E880937A009093A4
:102830007B0010927E00A9D078940895F89484B714
:10284000877F84BF809160008061809360001092D8
:10285000600080E197E20197F1F781E08093E0006A
:1028600080E28093D80080E395E70197F1F79CDF41
:102870000C9400FEFFCFF89497DF80E395E7019773
:10288000F1F70C940000FFCF8F938FB78F93809157
:10289000F4068A5F8D37D0F48093F4068091F506B4
:1028A0008E5F8093F506D8F08091F6068F4F809367
:1028B000F606A8F08091F7068F4F8093F70678F020
:1028C0008091F8068F4F8093F80609C08D5780934A
:1028D000F4068091F5068D5F8093F50628F78091C8
:1028E000F906885F8093F90658F08091FA068F4FB9
:1028F0008093FA0628F08091FB068F4F8093FB06A9
:102900008F918FBF8F911895CF92DF92EF92FF92A8
:102910006B017C0119D09B01C114D104E104F104C5
:1029200071F012D0621B730B683E7340A8F381E014
:10293000C81AD108E108F10828513C4FEDCFFF90AB
:10294000EF90DF90CF9008950FB6F89466B515B26A
:102950007091F9068091FA069091FB060FBE10FE69
:1029600005C06F3F19F0785F8F4F9F4F11240024EF
:10297000660F001C660F001C660F001C702908956E
:102980008091E80080FFFCCF08958091D80087FFF8
:1029900002C085FF1BC081E88093D70080EA809346
:1029A000D80086E189BD09B400FEFDCF80E980939F
:1029B000D8001092E00010920E0710920D071092AE
:1029C0000C071092E1008DE08093E20008951F92C1
:1029D0000F920FB60F9211240BB60F922F933F93C5
:1029E0004F935F936F937F938F939F93AF93BF9317
:1029F000EF93FF939091E1001092E10093FF11C0DB
:102A00001092E90081E08093EB001092EC0082E2EA
:102A10008093ED0088E08093F00010920E071092F2
:102A20000C0792FF1DC080910E078823C9F080918A
:102A3000FF06882359F081508093FF06811106C05C
:102A400084E08093E9008AE38093E8008091FE06A9
:102A5000882331F081508093FE06811101C0EEDEA3
:102A600090FF0CC080E18093E20010920E0781E09D
:102A700080930D0780EA8093D80019BC80910D07E0
:102A8000882379F094FF0DC086E189BD09B400FE6A
:102A9000FDCF80E98093D8008DE08093E200109212
:102AA0000D07FF91EF91BF91AF919F918F917F9112
:102AB0006F915F914F913F912F910F900BBE0F90AF
:102AC0000FBE0F901F9018951F920F920FB60F9286
:102AD00011240BB60F92EF92FF920F931F932F9337
:102AE0003F934F935F936F937F938F939F93AF9396
:102AF000BF93CF93EF93FF931092E9008091E8008A
:102B000083FF31C1C091F1008091F1000091F1008B
:102B10001091F100E090F100F090F1004091F1008F
:102B20005091F10092EF9093E800863009F03FC099
:102B300086E0EEEFF0E0259135910217130711F0D2
:102B4000359615C025913591E216F30611F03396AE
:102B50000EC02591359184914F3F510519F010F029
:102B60004FEF50E0481708F4842F5EEF08C0815003
:102B700011F7F9C0891B5093E8008823A9F09091C0
:102B8000E800492F4570D9F392FDF0C0982F8132AB
:102B900008F090E2492F442369F3F901259120932D
:102BA000F1009F014150F7CF903249F3DFC08530EB
:102BB00041F48EEF8093E800E3DE00680093E300C9
:102BC000D5C0893001F5C111CEC000930E07109217
:102BD0000C071092FF068EEF8093E80081E0E1EC95
:102BE000F1E08093E90095919093EB00992331F007
:102BF00095919093EC0095919093ED008F5F8530C7
:102C000081F78EE1ABC0883049F4C03809F0ABC021
:102C1000B7DE80910E078093F1007EC0813279F497
:102C2000C13A09F0A0C0ACDEEFE0F1E08081809312
:102C3000F100319681E0E631F807C1F76DC08032CE
:102C400009F047C0C13209F08EC08091E80082FFD0
:102C5000FCCFEFE0F1E08091F1008083319681E0DC
:102C6000E631F807C1F78BEF8093E8008EEF809391
:102C7000E80030910F0140911001809111012091E5
:102C8000120190E0A0E0B0E0DC0199278827942BA6
:102C9000832BB22B86389105A105B10521F48FE075
:102CA0008093FE0663C086399105A105B10509F040
:102CB0005DC084E08093E9009FEF8091EE00837017
:102CC00039F09093E8008091E80082FDFCCFF5CFC9
:102CD000D2DD823231F4C13209F045C000930C07D5
:102CE00005C0833229F4C13209F03DC049DE14C069
:102CF000811116C045DEC23851F4E092E90080919E
:102D0000EB0085FB882780F91092E90001C080E084
:102D10008093F1001092F1008EEF8093E80026C0BE
:102D2000982F9D7F9130F9F4C230E9F4012BD9F44A
:102D3000CE2DCF779FEF9C0F9630A8F49EEF909307
:102D4000E800C093E900833071F089E18093EB00E3
:102D500081E090E001C0880FCA95EAF78093EA000D
:102D60001092EA0003C081E28093EB00FF91EF91A3
:102D7000CF91BF91AF919F918F917F916F915F9113
:102D80004F913F912F911F910F91FF90EF900F90D6
:102D90000BBE0F900FBE0F901F901895FC018FB7C0
:102DA000F89490910E07911102C090E010C093E04A
:102DB0009093E9009091F200911109C02091E800F0
:102DC00022FFF3CF25FDF1CF2BE62093E8008FBF44
:102DD0002085318537FD03C09F3F09F09F5F892F14
:102DE00090E00895CF93DF93EC018885998597FF54
:102DF00009C0E881F9810284F385E02DCE010995AF
:102E00009987888788859985DF91CF910895FC01FE
:102E10002085318537FD07C04FEF5FEF5187408731
:102E2000C901992708959FB7F89480910E078823C8
:102E300069F083E08093E9002BE68091E80085FD4E
:102E400009C082FF03C02093E800F7CF9FBF8FEF38
:102E50009FEF08958091F1002091E80025FD03C0C7
:102E60002BE62093E8009FBF90E0089580910E0725
:102E7000882361F08FB7F89494E09093E9009091E3
:102E8000F2008FBF80E4891B90E0089580E090E01D
:102E90000895BF92CF92DF92EF92FF920F931F930C
:102EA000CF93DF937C0180910E07882371F02FB7B9
:102EB000F89484E08093E9008091FD06882369F00E
:102EC0008091E80085FD07C02FBF81E0F701828374
:102ED00000E010E0D3C01092FD0600E010E084E0B6
:102EE000D82E90E4C92EA1EFB0E03AE3B32E33E040
:102EF0004115510509F4C1C08091E400815F9091B2
:102F0000E80095FD16C02FBF9091E400891304C01E
:102F100081E08093FD0605C090910E07911104C0D9
:102F200081E0F7018283AAC02FB7F894D092E9001C
:102F3000E6CF8091F2009C2D981BE92FF0E04E1710
:102F40005F0708F4942FE92FF0E04E1B5F0B0E0F84
:102F50001F1FEB01E0E4E91BE03428F4EE0FFF272C
:102F6000EC54F84E099480C099919C9399919C934C
:102F700099919C9399919C9399919C9399919C93ED
:102F800099919C9399919C9399919C9399919C93DD
:102F900099919C9399919C9399919C9399919C93CD
:102FA00099919C9399919C9399919C9399919C93BD
:102FB00099919C9399919C9399919C9399919C93AD
:102FC00099919C9399919C9399919C9399919C939D
:102FD00099919C9399919C9399919C9399919C938D
:102FE00099919C9399919C9399919C9399919C937D
:102FF00099919C9399919C9399919C9399919C936D
:1030000099919C9399919C9399919C9399919C935C
:1030100099919C9399919C9399919C9399919C934C
:1030200099919C9399919C9399919C9399919C933C
:1030300099919C9399919C9399919C9399919C932C
:1030400099919C9399919C9399919C9399919C931C
:1030500099919C9399919C9399919C9399919C930C
:1030600099919C9399919C93BE018091E80085FF72
:10307000B092E8003093FF063BCF2FBFC801DF912D
:10308000CF911F910F91FF90EF90DF90CF90BF9065
:1030900008952FEF3FEFFC013187208776DC0FB6D4
:1030A000F8948091F5069091F606A091F706B091FC
:1030B000F8060FBE9C0180910E07882329F068EC6A
:1030C00070E080E090E020CC80910D07882309F12A
:1030D0000FB6F8948091F5069091F606A091F70648
:1030E000B091F8060FBEAC0180910D07882389F0DE
:1030F0000FB6F8948091F5069091F606A091F70628
:10310000B091F8060FBE841B950B8B3F910560F3C1
:1031100008950FB6F8948091F5069091F606A09167
:10312000F706B091F8060FBE821B930B853C9940C1
:1031300008F4C1CF08959FB7F89480910E078823B3
:1031400021F08091FF06811102C09FBF089584E0A5
:103150008093E9008AE38093E8001092FF06F5CFA0
:10316000EACFE0E0F7E08AE0DF011D928A95E9F717
:1031700088EE93E0A0E0B0E083839483A583B683D8
:1031800086E393E0918380830895A1E21A2EAA1B1F
:10319000BB1BFD010DC0AA1FBB1FEE1FFF1FA21707
:1031A000B307E407F50720F0A21BB30BE40BF50B04
:1031B000661F771F881F991F1A9469F7609570958D
:1031C000809590959B01AC01BD01CF010895052E1E
:1031D00097FB16F400940FD057FD05D0D6DF07FCFF
:1031E00002D046F408C050954095309521953F4F48
:1031F0004F4F5F4F089590958095709561957F4FE3
:103200008F4F9F4F0895EE0FFF1F0024001C0BBE31
:103210000790F691E02D09941F93FC0199278827C8
:10322000BC01E89411911032E9F3193010F01E300E
:10323000C8F31B3249F01D3241F4689405C022D016
:10324000610F711D811D911D119110531A30B8F33A
:103250003EF490958095709561957F4F8F4F9F4F6D
:103260001F910895FB01DC0102C001900D924150B5
:103270005040D8F70895FB01DC0101900D92002029
:10328000E1F70895592F482F372F262F660F771F04
:10329000881F991F660F771F881F991F620F731F62
:1032A000841F951F660F771F881F991F08950F931E
:1032B0001F93CF93DF93CDB7DEB72E970FB6F89459
:1032C000DEBF0FBECDBF0D891E8986E08C831A83B9
:1032D00009838FEF9FE79E838D83AE01475E5F4F2B
:1032E0006F89788DCE01019610D0EF81F885E00FBF
:1032F000F11F10822E960FB6F894DEBF0FBECDBF21
:10330000DF91CF911F910F9108952F923F924F928D
:103310005F926F927F928F929F92AF92BF92CF9265
:10332000DF92EF92FF920F931F93CF93DF93CDB76E
:10333000DEB72B970FB6F894DEBF0FBECDBF6C0182
:103340007B018A01FC0117821682838181FFBFC144
:10335000CE0101963C01F6019381F70193FD859121
:1033600093FF81917F01882309F4ADC1853239F43F
:1033700093FD859193FF81917F01853221F4B60100
:1033800090E0D6D1E8CF912C212C312CFFE1F31520
:10339000D8F08B3279F038F4803279F08332A1F4AE
:1033A000232D20611DC08D3261F0803369F4232DFF
:1033B000216016C0832D8260382EE32DE4603E2EFE
:1033C0002AC0F32DF8601DC037FC2DC020ED280F5A
:1033D0002A3040F08E32B9F436FC75C1232D2064BA
:1033E000322E19C036FE06C08AE0989E200D1124A8
:1033F000922E11C0EAE02E9E200D1124222EF32DD4
:10340000F0623F2E08C08C3621F4832D8068382E60
:1034100002C0883641F4F70193FD859193FF8191B5
:103420007F018111B3CF982F9F7D9554933028F45D
:103430000C5F1F4F9FE399830DC0833631F08337B4
:1034400071F0833509F055C020C0F801808189836F
:103450000E5F1F4F88248394912C530112C02801C2
:10346000F2E04F0E511CF801A080B18036FE03C07F
:10347000692D70E002C06FEF7FEFC5014ED14C01A6
:103480008201F32DFF773F2E15C0280122E0420E66
:10349000511CF801A080B18036FE03C0692D70E098
:1034A00002C06FEF7FEFC5012DD14C01F32DF06805
:1034B0003F2E820133FC19C0822D90E088169906B8
:1034C000A0F4B60180E290E033D12A94F5CFF50163
:1034D00037FC859137FE81915F01B60190E028D1DC
:1034E00021102A9421E0821A91088114910479F71D
:1034F000E1C0843611F0893639F5F80137FE07C08E
:1035000060817181828193810C5F1F4F08C060814F
:103510007181072E000C880B990B0E5F1F4FF32D46
:10352000FF763F2E97FF09C0909580957095619525
:103530007F4F8F4F9F4FF0683F2E2AE030E0A3016E
:1035400033D1882E861844C0853731F4232D2F7E41
:10355000B22E2AE030E025C0932D997FB92E8F3608
:10356000C1F018F4883579F0AEC0803719F088378B
:1035700021F0A9C0E92FE061BE2EB4FE0DC0FB2DE5
:10358000F460BF2E09C034FE0AC0292F2660B22E77
:1035900006C028E030E005C020E130E002C020E1B4
:1035A00032E0F801B7FE07C06081718182819381AA
:1035B0000C5F1F4F06C06081718180E090E00E5F5C
:1035C0001F4FA301F1D0882E8618FB2DFF773F2EC9
:1035D00036FE0DC0232D2E7FA22E891458F434FE02
:1035E0000BC032FC09C0832D8E7EA82E05C0B82CDE
:1035F000A32C03C0B82C01C0B92CA4FE0FC0FE013F
:10360000E80DF11D8081803321F49A2D997EA92E39
:1036100009C0A2FE06C0B394B39404C08A2D867874
:1036200009F0B394A3FC10C0A0FE06C0B21480F44D
:10363000280C922C9B180DC0B21458F4B60180E2ED
:1036400090E076D0B394F8CFB21418F42B1802C0DF
:10365000982C212CA4FE0FC0B60180E390E068D026
:10366000A2FE16C0A1FC03C088E790E002C088E576
:1036700090E0B6010CC08A2D867851F0A1FE02C000
:103680008BE201C080E2A7FC8DE2B60190E050D051
:10369000891430F4B60180E390E04AD09A94F8CFD0
:1036A0008A94F301E80DF11D8081B60190E040D0CD
:1036B0008110F6CF222009F44ECEB60180E290E0D0
:1036C00037D02A94F7CFF6018681978102C08FEF19
:1036D0009FEF2B960FB6F894DEBF0FBECDBFDF91E4
:1036E000CF911F910F91FF90EF90DF90CF90BF90FF
:1036F000AF909F908F907F906F905F904F903F9092
:103700002F900895FC010590615070400110D8F78A
:10371000809590958E0F9F1F0895FC016150704019
:1037200001900110D8F7809590958E0F9F1F0895F6
:103730000F931F93CF93DF93FB01238121FD03C0E0
:103740008FEF9FEF2CC022FF16C046815781248146
:1037500035814217530744F4A081B1819D012F5F49
:103760003F4F318320838C93268137812F5F3F4FDA
:103770003783268314C08B01EC01FB010084F185A3
:10378000E02D0995892BE1F6D80116968D919C9133
:103790001797019617969C938E931697CE01DF91FB
:1037A000CF911F910F910895FA01AA27283051F166
:1037B000203181F1E8946F936E7F6E5F7F4F8F4F62
:1037C0009F4FAF4FB1E03ED0B4E03CD0670F781FC1
:1037D000891F9A1FA11D680F791F8A1F911DA11DA6
:1037E0006A0F711D811D911DA11D20D009F46894DF
:1037F0003F912AE0269F11243019305D3193DEF687
:10380000CF010895462F4770405D4193B3E00FD03C
:10381000C9F7F6CF462F4F70405D4A3318F0495D27
:1038200031FD4052419302D0A9F7EACFB4E0A6950A
:103830009795879577956795BA95C9F7009761052C
:10384000710508959B01AC010A2E06945795479582
:1038500037952795BA95C9F7620F731F841F951F77
:08386000A01D0895F894FFCFAC
:1038680001000000100000000800000F07800000A1
:10387800E100000000081111800100C2001E1111B2
:10388800800100C2001D11118001003200F12530B5
:103898003258253032580030300047422043617298
:1038A8007420496E666F00526F6D204E616D653AE7
:1038B8002000526F6D20547970653A2000524F4DA8
:1038C800204F4E4C59004D424331004D4243312B5D
:1038D80052414D004D42433200524F4D2B52414D03
:1038E800004D4D4D3031004D4D4D30312B52414D35
:1038F800004D4243332B54494D4552004D4243330A
:103908002B54494D45522B52414D004D42433300F3
:103918004D4243332B52414D004D424334004D42FA
:1039280043342B52414D004D424335004D424335FF
:103938002B52414D004D4243352B52554D424C457B
:10394800004D4243352B52554D424C452B52414D6B
:103958000047616D65626F792043616D6572610032
:103968004E6F7420666F756E6400526F6D205369D8
:103978007A653A200033324B420036344B420031EC
:1039880032384B42003235364B42003531324B42E9
:1039980000344D4200312E314D4200312E324D421D
:1039A80000312E354D42290042616E6B733A20007A
:1039B8005372616D2053697A653A2000353132427D
:1039C800004E6F6E6500436865636B73756D3A20D2
:1039D80000507265737320427574746F6E2E2E2EAC
:1039E8000057686174206E6F773F002530345800A7
:1039F8002F6E004641494C454400466C617368206F
:103A08006973206E6F7420626C616E6B005265740E
:103A1800726F426C61737465722050726F67726165
:103A28006D6D6572202D203173742047656E0046D8
:103A380069726D776172652076657273696F6E2041
:103A4800322E306400526574726F5374616765205A
:103A5800436F6D707574696E67203230313900308C
:103A6800344434004D424D32394630333343002F0D
:103A7800323536003031343100414D323946303339
:103A88003242003031303100533239474C30333212
:103A98004E0000000000330149173617B018CE1643
:043AA8000717F216F4
:00000001FF
