:1000000000C2000028C2000026C2000024C2000076
:1000100022C2000020C200001EC200001CC200005C
:100020001AC200000C940E510C9402580C947F5884
:1000300012C2000010C200000EC200000CC200007C
:100040000AC2000008C2000006C2000004C200008C
:1000500002C2000000C20000FEC100000C945F5705
:10006000FAC10000F8C10000F6C10000F4C10000B0
:10007000F2C10000F0C10000EEC10000ECC10000C0
:10008000EAC10000E8C10000E6C10000E4C10000D0
:10009000E2C10000E0C100008C4BB64BB94FC64B2B
:1000A000C44BC04BBE4BC24BA74BA94BAF4B9E4B57
:1000B0002F4CB94FA54BA64BC84B464C5F4CD64B6B
:1000C000E04BB94FB94FB94F674C1A4CD24BD44B98
:1000D000FD4BB94F794C7B4CCE4CD04CD74CDF4CC0
:1000E000E14CE84CEA4CEC4CEE4CF64CF84C004D34
:1000F000B94FB94FB94FB94FEB4EED4E054FFD4ECD
:10010000F44E1B4F074F094F0B4F0D4F194F234F05
:100110002B4F334F354FB94F084D124D214D294DBF
:10012000314D384D4F4D594D684D724D814D8B4D70
:10013000934D9B4DA44DAC4D0E4DB44DEC4DED4D3E
:10014000F14DF84D004E124E144E164EB94FB94FA8
:10015000B94FB94FB94FB94FBB4DBF4DCB4DD24D34
:10016000C34DC74DD94DDB4DDD4DDF4DE14DE34D69
:10017000E54DE74DE94DEA4D204E224E2A4E324ED6
:10018000344E3C4E3E4E454E564E604E6A4E734E79
:100190007D4E854E8C4E934E9C4E9E4EA04EA24E52
:1001A000A54EAC4EBC4EBE4EBF4EC14EC24ED24E00
:1001B000D94EDB4EE24EE94E374F394F404F484F54
:1001C0004A4F4C4F4E4F504F524FB94FB94FB94F06
:1001D000B94FB94FB94FB94F5A4F614F694F6B4F34
:1001E0006D4F6F4F714F794F7B4F7D4F854F894FCB
:1001F000904FB94FB94FB94F7D4C804C834C844CD4
:10020000944C964CAB4CB34CBD4CBF4CC64CB94F08
:10021000B94FB94FB94FB94F9C4F9E4FA54FAC4FF7
:10022000AE4FB04FB74F00C20100010005000500FE
:10023000030000E1000001000F000F000D00009618
:100240000000020019001A001700127A00000700CF
:10025000200021001D00807000000B0023002300FF
:100260002000004B000014003700370034004038F5
:1002700000001E004B004B004800802500003200AB
:10028000720072007000C01200006E00E900E90008
:10029000E60060090000E500D801D801D501B004EE
:1002A0000000D301B403B403B10358020000B40347
:1002B0006707670762072C0100006707DD0EDD0E88
:1002C000DA0E0129022904290829102920294029A8
:1002D0008029012C022C012602260426082610263D
:1002E000202640268026402C802C01230223042334
:1002F00008231023202340238023012002200420F0
:1003000008201020202040208020102C202C012F9D
:10031000022F042F082F102F202F402F802F7EFE1A
:100320007EFD7EFB7EF77EEF7EDF7EBF7E7F00015F
:100330000000DF0312000200009C034300030000E2
:10034000980304010309047E0318020309046603E9
:10035000160303090458030C0C0331003200330068
:100360003400350000001603550053004200200001
:10037000530065007200690061006C000000180302
:100380005400650065006E0073007900640075001C
:1003900069006E006F0000000403090409024300B5
:1003A000020100C03209040000010202010005241C
:1003B00000100105240100010424020605240600A2
:1003C000010705820308004009040100020A000039
:1003D00000070503024000000705840240000012E8
:1003E00001000202000020C0168304720201020311
:1003F000010001C10201803601813600EF1D5C5C05
:10040000041E11241FBECFEFD0E2DEBFCDBF12E02D
:10041000A0E0B1E0E0E2F0EC00E00BBF02C007902A
:100420000D92AE35B107D9F726E0AEE5B2E001C0D6
:100430001D92A43EB207E1F711E0C0E0D2E004C093
:100440002197FE010E94C15CCE3FD107C9F70E94EF
:100450001C540C940460D4CDFB0101900020E9F7FA
:100460003197AF01461B570BDC01ED91FC910280E7
:10047000F381E02D0994F0CF0F931F93CF93DF9377
:10048000EC01EADF8C01CE010E945E52800F911FC9
:10049000DF91CF911F910F910895CF93DF931F921A
:1004A000CDB7DEB76983DC01ED91FC910280F38169
:1004B000E02D41E050E0BE016F5F7F4F09950F9046
:1004C000DF91CF91089540E052EC61E070E088ED5B
:1004D00096E00E94645B81E885BF80E885BF11B823
:1004E00014B817B81AB81DB810BA8DB184688DB990
:1004F0007298779A68EC70E080E090E00E949F57D5
:10050000779868EC70E080E090E00E949F57779ABF
:1005100068EC70E080E090E00E949F577798089523
:100520008FEF84B987B981B98DB18F608DB98EB1E4
:100530008F608EB964EF71E080E090E00C949F577B
:100540000F931F932FEF24B927B921B9DC01CB01F9
:10055000B695A7959795879585B9092F1A2F2B2FB3
:10056000332708B9CD01AA27BB2782B9729815B8DD
:1005700018B814B817B87198000000000000000007
:1005800026B183B1719A729A90E0922B1F910F91CC
:1005900008950F931F932FEF24B927B921B9DC01D8
:1005A000CB01B695A7959795879585B9092F1A2FF1
:1005B0002B2F332708B9CD01AA27BB2782B9729800
:1005C0000000000045B958B9709800000000709A0A
:1005D000729A1F910F9108952FEF24B927B911B87E
:1005E00065B9BB27A92F982F872F88B97198739861
:1005F00000000000000000000000000000000000FB
:1006000080B1739A719A08952FEF24B927B921B94F
:1006100065B9BB27A92F982F872F88B942B9000049
:1006200000000000000000000000000000007098C2
:1006300073980000000000000000000000000000AF
:10064000000000000000739A709A00000000000093
:100650000000000000000000000008950F931F93A9
:10066000CF93DF934AEA50E06AEA7AE080E090E0D4
:1006700090DF45E550E065E575E080E090E089DFDA
:1006800040E950E06AEA7AE080E090E082DF000032
:100690000000000060E070E0CB0152DF082F62E054
:1006A00070E080E090E04CDF182F6CE170E080E0BB
:1006B00090E046DFD82F6EE170E080E090E040DF10
:1006C000C82F68EE73E080E090E00E949F57602F93
:1006D00088ED96E0E2DE612F88ED96E0DEDE6D2F9C
:1006E00088ED96E0DADE6C2F88ED96E0D6DE40EFFE
:1006F00050E06AEA7AE080E090E04BDF0000000022
:100700000000DF91CF911F910F91089541E050E0DB
:1007100061157105C9F0615071099A01062E02C078
:10072000220F331F0A94E2F728233923062E02C032
:10073000369527950A94E2F7232B11F0289A01C0E9
:1007400028987098709AE4CF08958F929F92BF92E4
:10075000CF92DF92EF92FF920F931F93CF93DF938D
:100760007B012DB127602DB9209A0F9A2EB12760F9
:100770002EB9289A179A0000000007E714E0EC0150
:100780006C0180E4C80ED11CCC15DD0508F039C021
:100790007298289A7098709A28987098709AE4E0E5
:1007A000EE16F10419F466E070E002C06EE070E04D
:1007B000CE01ACDF000000000000000000000000DF
:1007C000000000004801B12CF40181914F0168E064
:1007D00070E090E09BDFB394F8E0BF12F5CF28986B
:1007E0007098709A729A20988EB1897F8EB98EB166
:1007F00086608EB9189BF8CF209A2196085F1F4F0C
:10080000C3CFDF91CF911F910F91FF90EF90DF90B9
:10081000CF90BF909F908F9008956F927F928F920C
:100820009F92AF92BF92CF92DF92EF92FF920F937F
:100830001F93CF93DF93CDB7DEB7C154D1090FB665
:10084000F894DEBF0FBECDBF6B012DB127602DB96F
:10085000209A0F9A2EB127602EB9289A179A000075
:1008600000008C01E12CF12C5C0150E4A50EB11CC0
:100870004E0171E4870E911C0A151B0508F070C02B
:100880007298289A7098709A7098709A84E0C81636
:10089000D10419F466E070E002C06EE070E0C801B7
:1008A00035DF28987098709A729A00000000000056
:1008B000000000000000000000002098729884E012
:1008C0007198719A8150E1F7FE013196DF017198BC
:1008D000719A83B181708D938A169B06C1F7729AC3
:1008E000289A209A60E0970129583B4F862F8695D9
:1008F00086958695D901A80FB11D408190E8499F42
:10090000A0011124818170E4879FC0011124842BF0
:100910009781892B628090E2699E3001112486299B
:10092000638050E1659E300111248629448178E07E
:10093000479FA0011124482B858154E0859FC00169
:100940001124842B9681990F892B8C93685F38969C
:10095000603461F60F5F1F4F78E0E70EF11C8CCF1B
:10096000CF5BDF4F0FB6F894DEBF0FBECDBFDF9178
:10097000CF911F910F91FF90EF90DF90CF90BF909C
:10098000AF909F908F907F906F90089565B9BB272F
:10099000A92F982F872F88B90000000000000000C1
:1009A00080B10000000000000000089565B9BB2779
:1009B000A92F982F872F88B942B9000000000000A6
:1009C000000070980000000000000000709A000015
:1009D0000000000000000895CF938EB187608EB9AB
:1009E0008FEF84B987B981B973984AEA65E575E5EF
:1009F00080E090E0DBDF45E56AEA7AE280E090E0C3
:100A0000D5DF40E965E575E580E090E0CFDF11B81E
:100A1000719800000000000061E070E080E090E06C
:100A2000B5DFC82F60E070E0CB01B0DF1F92CF933D
:100A30001F928F938AE291E09F938F9381E896E0D3
:100A40009F938F930E94295D739A8DB79EB70896E6
:100A50000FB6F8949EBF0FBE8DBF61E876E088EDBB
:100A600096E0CF9109CD8EB187608EB98FEF84B9B2
:100A700087B981B973984AEA65E575E580E090E049
:100A800095DF45E56AEA7AE280E090E08FDF40EFAB
:100A900065E575E580E090E089DF40EF65E575E5A7
:100AA00080E090E083DF739A64E670E080E090E09D
:100AB0000C949F578EB187608EB98FEF84B987B938
:100AC00081B973984AEA65E575E580E090E06EDFEC
:100AD00045E56AEA7AE280E090E068DF40E865E5B3
:100AE00075E580E090E062DF4AEA65E575E580E063
:100AF00090E05CDF45E56AEA7AE280E090E056DF6C
:100B000040E165E575E580E090E050DF739A64EFC1
:100B100071E080E090E00C949F57CF93C82F8EB186
:100B200087608EB98FEF84B987B981B973984AEA23
:100B300065E575E580E090E039DF45E56AEA7AE24F
:100B400080E090E033DF40EB65E575E580E090E024
:100B50002DDF4C2F60E070E0CB0128DF739ACF913E
:100B6000089511B8719889589B4FFC01808190B10C
:100B70009813FDCF719A8FEF81B90895739A8FEF13
:100B800084B987B98DB18F608DB98EB187608EB908
:100B9000739A11B860E971E080E090E00C949F577F
:100BA00085B998B900000000000000008EB1897F6F
:100BB0008EB9000000000000000080B19EB1966078
:100BC0009EB90000000000000000089585B998B9A2
:100BD00062B90000000000000000709800000000F2
:100BE00000000000709A000000000000000008955E
:100BF00085B998B962B9729A00000000000000003F
:100C00007298000070980000000000000000709AC8
:100C10000000729A0000000000000000089587E4C0
:100C200091E0BEDF90E090936F0480936E0488E4BF
:100C300091E0B6DF90E0A0E0B0E080936A0490938A
:100C40006B04A0936C04B0936D0489E491E0A8DF79
:100C500090E0909371048093700422E030E0309330
:100C600062042093610440916A0450916B04609186
:100C70006C0470916D04411551056105710549F0D1
:100C800002C0220F331F4A95E2F73093620420938B
:100C90006104109264041092630460916E04709178
:100CA0006F046630710531F421E030E03093640464
:100CB000209363048230910539F421E030E03093D1
:100CC00064042093630419C08330910519F424E06F
:100CD00030E00BC08430910519F420E130E005C00C
:100CE0008530910551F428E030E03093640420937E
:100CF00063046630710591F403C06630710531F408
:100D00002FEF31EA3093600420935F048130910526
:100D100019F48FEF97EA04C0029734F08FEF9FEB3E
:100D20009093600480935F0488ED96E0B6DB609159
:100D30006A0488ED96E0B1DB6091700488ED96E07E
:100D4000ACCBFF920F931F93CF93DF93CFEFC1B93B
:100D500060E080E090E33ADF64E670E080E090E0FD
:100D60000E949F5760E080E090E230DF64E670E030
:100D700080E090E00E949F576AEA8AEA9AE026DFC4
:100D800065E585E595E022DF60E98AEA9AE01EDF05
:100D900000000000000011B880E090E001DFF82EB4
:100DA00082E090E0FDDE082F8CE190E0F9DE182F64
:100DB0008EE190E0F5DED82F6F2D88ED96E06DDBAB
:100DC000602F88ED96E069DB612F88ED96E065DBAA
:100DD0006D2F88ED96E061DBC1B960EF85E595E0A8
:100DE000DF91CF911F910F91FF90F0CE8FEF81B9DE
:100DF00060E080E090E3EADE64E670E080E090E0AE
:100E00000E949F5760E080E090E2E0DE64E670E0E0
:100E100080E090E00E949F576AEA8AEA9AE0D6DE74
:100E200065E585E595E0D2DE60E88AEA9AE0CEDE07
:100E30006AEA8AEA9AE0CADE65E585E595E0C6DEFB
:100E400060E18AEA9AE0C2DE11B880E090E0A8DEB4
:100E500087FD0AC08EB180588EB964EF71E080E0E2
:100E600090E00E949F57F1CF779808958FEF84B953
:100E700015B887B918B881B1836081B981B188612B
:100E800081B90E9882B1836082B91398149A0D9A31
:100E9000159A0A9880E090E0A0E0B8E080935B04A7
:100EA00090935C04A0935D04B0935E046CE271E0E7
:100EB00080E090E00C949F57FC0128E00A9A808122
:100EC00090E0880F892F881F990B892B09F425C082
:100ED000000000000000000000000A980000000070
:100EE0000000000000000000000000000000000002
:100EF00000000000000000000000000000000000F2
:100F000000000000000000000000000000000000E1
:100F1000000000000000000025C0000000000000EC
:100F200000000000000000000000000000000000C1
:100F300000000000000000000000000000000000B1
:100F400000000000000000000000000000000000A1
:100F50000000000000000000000000000000000091
:100F600000000A98215069F0000000000000000015
:100F7000000000000000000000008081880F8083D6
:100F80009DCF615011F0319698CF08950000000078
:100F9000000000000A9A00000000000000000000AD
:100FA0000000000000000000000000000000000041
:100FB00000000A9808959C01ECE0F3E08FE3029BA7
:100FC00003C08150E1F70895000000000000000018
:100FD0000000000000000000000000000000000011
:100FE0000000000000000000000000000000000001
:100FF00000000000000000000000000000000000F1
:101000000000000080B1847081932150310929F0E3
:101010009FE30299D3CF9150E1F708958FEF84B900
:1010200015B887B918B8089511980000000000009D
:101030000000000026B183B1119A000090E0922BCD
:1010400008950F931F93CF93DF93CDB7DEB72B9700
:101050000FB6F894DEBF0FBECDBFF89494E09B8727
:101060008A8761E0CE010B9627DF61E0CE010A9608
:1010700023DF8CDF80E490E09EDF7894ECE0F3E007
:1010800080E090E061E070E02781298326812A8357
:1010900025812B8324812C8323812D8322812E8300
:1010A00021812F8320812887DE01119620E030E006
:1010B00040E05D91552339F08B01022E01C0000FF5
:1010C0000A94EAF7402B2F5F3F4F2830310589F70C
:1010D000DC0123E0B695A7952A95E1F7A553BD4F0E
:1010E0004C93089638968034910571F62B960FB67E
:1010F000F894DEBF0FBECDBFDF91CF911F910F914E
:101100000895BC01660F771F20E030E040E226170B
:10111000370731F092B1942792B92F5F3F4FF7CF45
:101120000895CF93DF93D82FC8E00A9A8D2F90E0CF
:10113000880F892F881F990B892B39F082E090E066
:10114000E0DF0A9886E090E006C086E090E0D9DF14
:101150000A9882E090E0D5DFDD0FC15031F7DF91D2
:10116000CF9108950A9A82E090E0CBDF0A9884E05C
:1011700090E0C7CF0F931F93CF9301E114E0C0E439
:10118000029B04C081E090E0BCDFFACF83E090E0F6
:10119000B8DF80B182FB882780F9F80181938F0145
:1011A000029904C081E090E0ACDFFACFC15041F772
:1011B000CF911F910F9108950D9A159A0A98779AD9
:1011C00080E593EC9EDF77980895CF93DF93CDB7BA
:1011D000DEB727970FB6F894DEBF0FBECDBF28E766
:1011E00030E04EE668ED76E0CE0101960E94205395
:1011F000CE0101960E941154609377067093780691
:101200008093790690937A06CE0101960E945653F8
:1012100027960FB6F894DEBF0FBECDBFDF91CF91FA
:1012200008958F929F92AF92BF92CF92DF92EF92EA
:10123000FF92CBDF6AE070E080E090E00E949F5771
:101240008090770690907806A0907906B0907A0604
:1012500021E0821A9108A108B108C12CD12C760195
:10126000C814D904EA04FB04B0F54AEA50E06AEA7B
:101270007AE080E090E08DD945E550E065E575E0E5
:1012800080E090E086D940E850E06AEA7AE080E0C9
:1012900090E07FD94AEA50E06AEA7AE080E090E0A4
:1012A00078D945E550E065E575E080E090E071D9DA
:1012B00040E350E0C701B6016CD9C701B60140D97F
:1012C0008F679F6F0196C9F78EB180588EB982E003
:1012D000E80EF11CC5CFFF90EF90DF90CF90BF904C
:1012E000AF909F908F900895CF93DF93CDB7DEB7E7
:1012F00027970FB6F894DEBF0FBECDBF28E730E0CA
:101300004EE668ED76E0CE0101960E942053CE01B4
:1013100001960E94115460937B0670937C06809323
:101320007D0690937E06CE0101960E945653279625
:101330000FB6F894DEBF0FBECDBFDF91CF910895F9
:10134000CF93DF93CDB7DEB727970FB6F894DEBF04
:101350000FBECDBF28E730E04EE668ED76E0CE0167
:1013600001960E942053CE0101960E941154609371
:101370000D0470930E0480930F0490931004CE011B
:1013800001960E94565327960FB6F894DEBF0FBE03
:10139000CDBFDF91CF9108958FEF84B987B981B91F
:1013A00080BB8DB18F6D8DB98EB18F648EB96D9A02
:1013B000749A77981AB808958EB182658EB9089597
:1013C0008EB18C608EB98D9A089565B9BB27A92F0F
:1013D000982F872F88B9749A4BB90000000000003D
:1013E00000000000769800000000000000000000EF
:1013F000769A00000000000000000000089565B922
:10140000BB27A92F982F872F88B900000000000064
:1014100000000000749800000000000000000000C0
:1014200089B1749A000000000000000000000895D7
:1014300062B9BB27A92F982F872F81BB8D984BB9F5
:10144000729A000000000000000000007398000085
:101450000000000000000000739A8D9A0000000058
:10146000000000000000089562B9BB27A92F982F43
:10147000872F81BB8D98739A000000000000000048
:10148000000072980000000000000000000089B118
:10149000729A8D9A0000000000000000000008957C
:1014A000709A000000000000000000000000000032
:1014B0000000709800000000000000000000000024
:1014C00000000000749A08950F931F931AB865B92D
:1014D000072F182F292F332708B90000000000001C
:1014E0000000000000000000000061157048810548
:1014F000910508F07498709A000000000000000048
:101500000000000000000000000089B100000000A1
:101510000000000000000000000000007098749AB5
:1015200000000000000000000000000000000000BB
:101530009FEF9AB91F910F9108950F931F931AB8B7
:10154000719A65B9072F182F292F332708B9709A78
:10155000611570488105910508F0749882E081500A
:101560000000E9F789B11F910F910895CF92DF92A2
:10157000EF92FF92CF936B017C01C42F91DFC5B82E
:10158000BB27AF2D9E2D8D2D88B971988FEF8AB90D
:10159000CBB90000000000000000000076980000B9
:1015A0000000000000000000769A0000000000002B
:1015B00000000000C11480E8D806E104F10408F03E
:1015C0007498709A000000000000000000007098FD
:1015D000749A719A65DF1AB8CF91FF90EF90DF90FF
:1015E000CF9008950F931F932FEF2AB965B9072F56
:1015F000182F292F332708B9749A719822E0322FB7
:1016000031500000E9F74BB921500000E9F76115AE
:1016100070488105910508F07498709A82E0982FBF
:1016200091500000E9F77098982F91500000E9F769
:10163000749A81500000E9F7719A1AB81F910F91BE
:1016400008950F931F937098749A71982FEF2AB989
:101650004BB965B9072F182F292F332708B9709A6E
:10166000611570488105910508F0749882E0982F03
:1016700091500000E9F7709881500000E9F7749AE2
:10168000719A1AB8709A1F910F91089565B9BB2786
:10169000A92F982F872F88B971988FEF8AB94BB9E6
:1016A000749A709A00000000000000000000000022
:1016B0000000000000007098749A719A1AB808959A
:1016C00082B991BB8D98000000000000000000006E
:1016D0008FEF8AB96BB90000000000000000000025
:1016E000729A0000000000000000000073980000E3
:1016F0000000000000000000739A8D9A1AB8089547
:1017000082B991BB739A0000000000000000000045
:1017100072980000000000000000000000000000BF
:1017200000000000000089B100000000000000007F
:10173000000000000000000000000000729A8D9A76
:10174000000000000000000000000895CF92DF922A
:10175000EF92FF92CF936B017C01C42FA1DEC5B83D
:10176000CD2CDE2CEF2CFF24C8B871988FEF8AB9EE
:10177000CBB97498709A00000000000000007098C7
:10178000749A719A1AB8CF91FF90EF90DF90CF9032
:1017900087CE40E461E070EA80E090E0D7DF40E08F
:1017A00060E070EA80E090E0D1DF40E060E070E867
:1017B00080E090E0CBDF40E061E070E880E090E026
:1017C000C5DF41E060E070E880E090E0BFDF42E02C
:1017D00061E070E880E090E0B9DF42E060E070E84E
:1017E00080E090E0B3DF45E161E070E880E090E008
:1017F000ADDF43E060E070E880E090E0A7DF45E126
:1018000061E070E880E090E0A1DF44E060E070E833
:1018100080E090E09BDF4AE061E070E880E090E0EB
:1018200095DF45E060E070E880E090E08FDF4AE01F
:1018300061E070E880E090E089DF46E060E070E819
:1018400080E090E083DF40E061E070E880E090E0DD
:101850007DDF47E060E070E880E090E077DF41E026
:1018600061E070E880E090E071DF40E060E070E807
:1018700080E090E06BCF14DE40E860E070E880E04C
:1018800090E074DE0DCECF92DF92EF92FF921F9325
:10189000CF93DF936B017C01142FC5E0D0E0C7012B
:1018A000B60112DE412FC701B60160DE1695219701
:1018B000B1F7DF91CF911F91FF90EF90DF90CF9024
:1018C000089560E070E880E090E0FEDD40E860E0D0
:1018D00070E880E090E04ADE40E160E070E880E09F
:1018E00090E0D1DF40E160E070EE80E090E0CBDF9F
:1018F00042E160E070EA80E090E0C5DF45E160E051
:1019000070EC80E090E0BFCF9FEF9AB9000000003C
:1019100000008BB90000000000007198000000007A
:101920000000749A0000000000007498000000009D
:101930000000719A0000000000009AB90895CF934A
:10194000DF93CFEFCAB94AEA65E575E580E090E03C
:101950003CDD45E56AEA7AE280E090E036DD40E988
:1019600065E575E580E090E030DD000000000000F6
:101970001AB860E070E0CB0142DD61E070E080E029
:1019800090E03DDDD82F68EE73E080E090E00E94AB
:101990009F576D2F88ED96E00E944D02CAB94AEA22
:1019A00065E575E580E090E010DD45E56AEA7AE2FC
:1019B00080E090E00ADD40EF65E575E580E090E0CD
:1019C00004DD0000000000001AB8DF91CF910895F7
:1019D000CF93DF9380E090E097DF80E090E094DFAA
:1019E00080E090E091DFCFEFCAB9469A4AEA65E518
:1019F00075E580E090E0E9DC469845E56AEA7AE240
:101A000080E090E0E2DC469A40E965E575E580E03B
:101A100090E0DBDC0000000000001AB860E070E03D
:101A2000CB01EDDC61E070E080E090E0E8DCD82FF5
:101A300068EE73E080E090E00E949F576D2F88ED84
:101A400096E00E944D02CAB9469A4AEA65E575E5F4
:101A500080E090E0BADC469845E56AEA7AE280E008
:101A600090E0B3DC469A40EF65E575E580E090E0F4
:101A7000ACDC0000000000001AB8DF91CF9108959F
:101A8000CF93DF93CFEFCAB940E160E070E880E028
:101A900090E0F9DE40E160E070EE80E090E0F3DE9F
:101AA00040E160E070E880E090E0EDDE4AEA65E564
:101AB00075E580E090E05ADD45E56AEA7AE280E08B
:101AC00090E054DD40E965E575E580E090E04EDDAD
:101AD0000000000000001AB860E070E0CB018FDC6D
:101AE00061E070E080E090E08ADCD82F68EE73E07F
:101AF00080E090E00E949F576D2F88ED96E00E9455
:101B00004D02CAB94AEA65E575E580E090E02EDD50
:101B100045E56AEA7AE280E090E028DD40EF65E59D
:101B200075E580E090E022DD0000000000001AB8BA
:101B3000DF91CF910895CF93DF93CFEFCAB929DE1C
:101B40004AEA65E575E580E090E010DD45E56AEA82
:101B50007AE280E090E00ADD40E965E575E580E045
:101B600090E004DD0000000000001AB860E070E0C2
:101B7000CB0145DC61E070E080E090E040DCD82FF4
:101B800068EE73E080E090E00E949F576D2F88ED33
:101B900096E00E944D02CAB94AEA65E575E580E023
:101BA00090E0E4DC45E56AEA7AE280E090E0DEDCA1
:101BB00040EF65E575E580E090E0D8DC00000000CE
:101BC00000001AB8DF91CF910895CF93DF93CFEF44
:101BD000CAB9DFDD4AEA6AEA7AE080E090E0C6DC72
:101BE00045E565E575E080E090E0C0DC40E96AEA43
:101BF0007AE080E090E0BADC0000000000001AB853
:101C000060E070E0CB01FBDB62E070E080E090E040
:101C1000F6DBD82F68EE73E080E090E00E949F57DB
:101C20006D2F88ED96E00E944D02CAB94AEA6AEA31
:101C30007AE080E090E09ADC45E565E575E080E0DB
:101C400090E094DC40EF6AEA7AE080E090E08EDC9D
:101C50000000000000001AB8DF91CF910895B0DBBA
:101C60008FEF8AB94AEA65E575E580E090E0ADDB83
:101C700045E56AEA7AE280E090E0A7DB40E865E5C6
:101C800075E580E090E0A1DB4AEA65E575E580E076
:101C900090E09BDB45E56AEA7AE280E090E095DB44
:101CA00040E165E575E580E090E08FDB64E670E09B
:101CB00080E090E00E949F571AB860E070E0CB018E
:101CC0009EDB87FD0AC08EB180588EB964EF71E04B
:101CD00080E090E00E949F57F0CF7798089580E0D1
:101CE00090E012DE80E090E00FDE80E090E00CDE1D
:101CF0008FEF8AB9469A4AEA65E575E580E090E09B
:101D000064DB469845E56AEA7AE280E090E05DDBD4
:101D1000469A40E865E575E580E090E056DB469A36
:101D20004AEA65E575E580E090E04FDB469845E5D9
:101D30006AEA7AE280E090E048DB469A40E165E5B5
:101D400075E580E090E041DB64E670E080E090E0E3
:101D50000E949F571AB860E070E0CB0150DB87FD0E
:101D60000AC08EB180588EB964EF71E080E090E0D7
:101D70000E949F57F0CF089523DB8FEF8AB94AEA7C
:101D800065E575E580E090E0F1DB45E56AEA7AE239
:101D900080E090E0EBDB40E865E575E580E090E011
:101DA000E5DB4AEA65E575E580E090E0DFDB45E5E7
:101DB0006AEA7AE280E090E0D9DB40E165E575E52A
:101DC00080E090E0D3DB64E670E080E090E00E9489
:101DD0009F571AB860E070E0CB0111DB87FD0AC0A5
:101DE0008EB180588EB964EF71E080E090E00E947F
:101DF0009F57F0CF77980895DFDA8FEF8AB94AEAD4
:101E000065E575E580E090E013DB45E56AEA7AE296
:101E100080E090E00DDB40E865E575E580E090E06E
:101E200007DB4AEA65E575E580E090E001DB45E522
:101E30006AEA7AE280E090E0FBDA40E165E575E588
:101E400080E090E0F5DA64E670E080E090E00E94E7
:101E50009F571AB860E070E0CB0106DB87FD0AC02F
:101E60008EB180588EB964EF71E080E090E00E94FE
:101E70009F57F0CF77980895A3DA8FEF8AB946E09D
:101E800060E070E880E090E061DC40E061E070E8F4
:101E900080E090E05BDC47E060E070E880E090E0AC
:101EA00055DC41E061E070E880E090E04FDC4AEA18
:101EB00065E575E580E090E059DB45E56AEA7AE2A0
:101EC00080E090E053DB40E865E575E580E090E078
:101ED0004DDB4AEA65E575E580E090E047DB45E5E6
:101EE0006AEA7AE280E090E041DB40E165E575E591
:101EF00080E090E03BDB64E670E080E090E00E94F0
:101F00009F571AB860E070E0CB0179DA87FD0AC00C
:101F10008EB180588EB964EF71E080E090E00E944D
:101F20009F57F0CF40E060E070E880E090E00EDC8A
:101F30007798089545DA8FEF8AB946E060E070E857
:101F400080E090E003DC40E061E070E880E090E059
:101F5000FDDB47E060E070E880E090E0F7DB41E027
:101F600061E070E880E090E0F1DB4AEA6AEA7AE05A
:101F700080E090E0FBDA45E565E575E080E090E023
:101F8000F5DA40E86AEA7AE080E090E0EFDA4AEADF
:101F90006AEA7AE080E090E0E9DA45E565E575E037
:101FA00080E090E0E3DA40E16AEA7AE080E090E005
:101FB000DDDA64E670E080E090E00E949F571AB896
:101FC00060E070E0CB011BDA87FD0AC08EB180585B
:101FD0008EB964EF71E080E090E00E949F57F0CFEF
:101FE00040E060E070E880E090E0B0DB7798089532
:101FF000E3D98FEF8AB94AEA65E575E180E090E0C0
:1020000017DA45E56AEA7AE180E090E011DA40E823
:1020100065E575E180E090E00BDA4AEA65E575E197
:1020200080E090E005DA45E56AEA7AE180E090E058
:10203000FFD940E165E575E180E090E0F9D964E61B
:1020400070E080E090E00E949F571AB860E070E076
:10205000CB010ADA87FD0AC08EB180588EB964EFD1
:1020600071E080E090E00E949F57F0CF779808954C
:10207000A3D98FEF8AB9759A6AEA85E595E120DBE5
:1020800065E58AEA9AE01CDB60E885E595E118DB06
:102090006AEA85E595E114DB65E58AEA9AE010DBFA
:1020A00060E185E595E10CDB64E670E080E090E0BE
:1020B0000E949F57759A1AB880E090E021DB87FD57
:1020C0000AC08EB180588EB964EF71E080E090E074
:1020D0000E949F57F1CF779808958FEF8AB96CD9F6
:1020E00082E090E011DC82E090E00EDC82E090E0A3
:1020F0000BDC6AEA85E595E1E3DA81E090E004DC57
:1021000081E090E001DC81E090E0FEDB65E58AEAB9
:102110009AE0D6DA82E090E0F7DB82E090E0F4DB50
:1021200082E090E0F1DB60E885E595E1C9DA82E0E4
:1021300090E0EADB82E090E0E7DB82E090E0E4DB45
:102140006AEA85E595E1BCDA81E090E0DDDB81E0DB
:1021500090E0DADB81E090E0D7DB65E58AEA9AE09F
:10216000AFDA82E090E0D0DB82E090E0CDDB82E08D
:1021700090E0CADB60E185E595E1A2DA80E090E0DD
:10218000C3DB80E090E0C0DB80E090E0BDDB64E694
:1021900070E080E090E00E949F570ED91AB860E08E
:1021A00070E0CB0161D987FD0AC08EB180588EB92D
:1021B00064EF71E080E090E00E949F57F0CF779845
:1021C00008958FEF8AB94AEA6AEA7AE080E090E0FF
:1021D000FCD845E565E575E080E090E0F6D840E89C
:1021E0006AEA7AE080E090E0F0D84AEA6AEA7AE0C7
:1021F00080E090E0EAD845E565E575E080E090E0B4
:10220000E4D840E16AEA7AE080E090E0DED81AB8EB
:1022100060E070E0CB01F3D887FD0AC08EB1805832
:102220008EB968EC70E080E090E00E949F57F0CF9C
:102230000895CF93DF93779ACFEFCAB94AEA6AEA53
:102240007AE080E090E0C1D845E565E575E080E0A2
:1022500090E0BBD840E96AEA7AE080E090E0B5D847
:102260001AB862E070E080E090E0C9D8D82F68EE3C
:1022700073E080E090E00E949F576D2F88ED96E01C
:102280000E944D02CAB940EF6AEA7AE080E090E02D
:102290009CD87798DF91CF9108958ED88FEF8AB927
:1022A0004AEA6AEA7AE180E090E0C2D845E565E56D
:1022B00075E180E090E0BCD840E86AEA7AE180E02D
:1022C00090E0B6D84AEA6AEA7AE180E090E0B0D8D5
:1022D00045E565E575E180E090E0AAD840E16AEA6D
:1022E0007AE180E090E0A4D81AB860E070E0CB0119
:1022F000BBD887FD0AC08EB180588EB968EC70E0FB
:1023000080E090E00E949F57F0CF7798089554D8CE
:102310008FEF8AB94AEA6AEA7AE180E090E088D8E9
:1023200045E565E575E180E090E082D840E86AEA3D
:102330007AE180E090E07CD84AEA6AEA7AE180E0DB
:1023400090E076D845E565E575E180E090E070D8ED
:1023500040E16AEA7AE180E090E06AD864E670E001
:1023600080E090E00E949F571AB860E070E0CB01D7
:102370007BD887FD0AC08EB180588EB964EF71E0BA
:1023800080E090E00E949F57F0CF77980895CF9318
:1023900041E060E070EC80E090E024D94AEA6AEA2B
:1023A0007AE880E090E01ED940E060E070EC80E0E8
:1023B00090E018D945E565E575E880E090E012D930
:1023C00041E060E070EC80E090E00CD940E96AEA1E
:1023D0007AE880E090E006D900000000000060E0AC
:1023E00070E880E090E070D862E070E880E090E013
:1023F0006BD8C82F68EE73E080E090E00E949F5792
:102400006C2F88ED96E00E944D0240EF60E070E88E
:1024100080E090E0E7D8000000000000CF91089530
:1024200041E060E070EC80E090E0DCD84AEA6AEAE3
:102430007AE880E090E0D6D840E060E070EC80E0A0
:1024400090E0D0D845E565E575E880E090E0CAD831
:1024500041E060E070EC80E090E0C4D840E86AEAD7
:102460007AE880E090E0BED841E060E070EC80E087
:1024700090E0B8D84AEA6AEA7AE880E090E0B2D818
:1024800040E060E070EC80E090E0ACD845E565E5C8
:1024900075E880E090E0A6D841E060E070EC80E074
:1024A00090E0A0D840E16AEA7AE880E090E09AD82B
:1024B00064E670E080E090E00E949F5760E070E882
:1024C00080E090E001D887FD08C08EB180588EB9B9
:1024D00064EF71E080E090E0EFCF0895CF93DF9359
:1024E000CDB7DEB727970FB6F894DEBF0FBECDBFCE
:1024F00028E730E04EE668ED76E0CE0101960E94D6
:102500002053CE0101960E9411547093800660936F
:102510007F06CE0101960E94565327960FB6F89477
:10252000DEBF0FBECDBFDF91CF910895CF93DF9374
:10253000CDB7DEB727970FB6F894DEBF0FBECDBF7D
:1025400028E730E04EE668ED76E0CE0101960E9485
:102550002053CE0101960E9411547093C5026093DE
:10256000C402CE0101960E94565327960FB6F894E6
:10257000DEBF0FBECDBFDF91CF910895CF93DF9324
:10258000CDB7DEB727970FB6F894DEBF0FBECDBF2D
:1025900028E730E04EE668ED76E0CE0101960E9435
:1025A0002053CE0101960E9411546093C002709393
:1025B000C1028093C2029093C302CE0101960E9491
:1025C000565327960FB6F894DEBF0FBECDBFDF91EE
:1025D000CF910895CF93DF93CDB7DEB727970FB68E
:1025E000F894DEBF0FBECDBF28E730E04EE668EDC1
:1025F00076E0CE0101960E942053CE0101960E9402
:1026000011546093BC027093BD028093BE029093FC
:10261000BF02CE0101960E94565327960FB6F8943A
:10262000DEBF0FBECDBFDF91CF910895CF93DF9373
:10263000CDB7DEB727970FB6F894DEBF0FBECDBF7C
:1026400028E730E04EE668ED76E0CE0101960E9484
:102650002053CE0101960E9411546093B8027093EA
:10266000B9028093BA029093BB02CE0101960E94F8
:10267000565327960FB6F894DEBF0FBECDBFDF913D
:10268000CF910895CF93DF93CDB7DEB727970FB6DD
:10269000F894DEBF0FBECDBF28E730E04EE668ED10
:1026A00076E0CE0101960E942053CE0101960E9451
:1026B00011546093B4027093B5028093B602909364
:1026C000B702CE0101960E94565327960FB6F89492
:1026D000DEBF0FBECDBFDF91CF9108958FEF8AB9D6
:1026E00080BB81B98DB18D638DB9699A689814B832
:1026F00017B88EB18C638EB97198759A68EC70E0DA
:1027000080E090E00C949F578FEF84B987B90895CB
:1027100014B817B80895CF92DF92EF92FF92CF933B
:10272000DF936B017C01D42FC52FEEDFCBB8BB2725
:10273000AF2D9E2D8D2D81BB6701EE24FF24C2B8E5
:10274000D5B9C8B900007398000074980000000063
:10275000000000000000749A0000739A000000005E
:10276000DF91CF91FF90EF90DF90CF90D1CFCF92BC
:10277000DF92EF92FF926B017C01CADFCBB8BB27DF
:10278000AF2D9E2D8D2D81BB6701EE24FF24C2B895
:102790000000739872980000000000000000000024
:1027A000000026B183B1729A739A000090E0922BD8
:1027B000FF90EF90DF90CF900895CF93DF93D82FC5
:1027C000C92F0E940E08D5B9C8B9000010980000A2
:1027D0000000000000000000109A00000000DF91DF
:1027E000CF9196CFCF92DF92EF92FF926B017C0157
:1027F0000E940E08C701AA27BB2722B1236022B975
:10280000139A0000149A85B9892F992788B9000076
:102810001498C5B8CD2CDD24C8B80000000013986A
:1028200000000000000000000000000000000000A8
:1028300000000000FF90EF90DF90CF9069CFD2DFD3
:1028400080EF90E0BADF64E670E080E090E00C9406
:102850009F571F93CF93DF93109257041092580401
:102860001092590410925A04809100019091010134
:10287000A0910201B0910301BC01CD016655754FD5
:102880008F4F9F4FAFDF8AEA90E097DF8091000182
:1028900090910101A0910201B0910301BC01CD0111
:1028A0006C5A7A4F8F4F9F4F9DDF85E590E085DF13
:1028B0008091000190910101A0910201B09103016A
:1028C000BC01CD016655754F8F4F9F4F8BDF80E95F
:1028D00090E073DF6091000170910101809102012D
:1028E000909103017FDF0E9414089F938F938EE2E3
:1028F00091E09F938F9382E594E09F938F930E9442
:10290000295D0E9414089F938F93C3E3D1E0DF9366
:10291000CF9381E896E09F938F930E94295D8091E9
:10292000000190910101A0910201B0910301BC014D
:10293000CD01645E7F4F8F4F9F4F54DF0E9414087C
:10294000182F0E94140820E030E0282B1F932F93AB
:10295000DF93CF9385E694E09F938F930E94295D48
:1029600062E574E088ED96E00E942C0268E371E075
:1029700088ED96E00E942C0261E876E088ED96E012
:102980000E942C0268E371E088ED96E00E942C0220
:1029900065E674E088ED96E00E942C0268E371E041
:1029A00088ED96E00E942C028DB79EB742960FB636
:1029B000F8949EBF0FBE8DBF609100017091010120
:1029C0008091020190910301DF91CF911F9137CF48
:1029D0004F925F926F927F928F929F92AF92BF922F
:1029E000CF92DF92EF92FF928090000190900101D0
:1029F000A0900201B0900301C12CD12C76012401DA
:102A000035012AEA420E2AE0521E611C711C84E53F
:102A1000880E85E0981EA11CB11C809173049091D2
:102A20007404A0917504B0917604C816D906EA061C
:102A3000FB0608F04CC08EB180588EB9C301B201BC
:102A4000D1DE8AEA90E0B9DEC501B401CBDE85E5CE
:102A500090E0B3DEC301B201C5DE80E890E0ADDEF8
:102A6000C301B201BFDE8AEA90E0A7DEC501B4016E
:102A7000B9DE85E590E0A1DE809100019091010131
:102A8000A0910201B0910301BC01CD016C0D7D1D2F
:102A90008E1D9F1DA7DE80E390E08FDE80910001F8
:102AA00090910101A0910201B0910301BC01CD01FF
:102AB0006C0D7D1D8E1D9F1D95DE0E9414088F6775
:102AC0009F6F019659F782E0E80EF11CA6CF779828
:102AD000FF90EF90DF90CF90BF90AF909F908F903E
:102AE0007F906F905F904F900895CF93DF93809188
:102AF000000190910101A0910201B0910301BC017C
:102B0000CD016655754F8F4F9F4F6CDE8AEA90E07E
:102B100054DE8091000190910101A0910201B091D9
:102B20000301BC01CD016C5A7A4F8F4F9F4F5ADE83
:102B300085E590E042DE8091000190910101A09135
:102B40000201B0910301BC01CD016655754F8F4F55
:102B50009F4F48DE80E890E030DE80910001909148
:102B60000101A0910201B0910301BC01CD016655A4
:102B7000754F8F4F9F4F36DE8AEA90E01EDE8091C0
:102B8000000190910101A0910201B0910301BC01EB
:102B9000CD016C5A7A4F8F4F9F4F24DE85E590E030
:102BA0000CDE8091000190910101A0910201B09191
:102BB0000301BC01CD016655754F8F4F9F4F12DE4B
:102BC00080E190E0FADD68EE73E080E090E00E9442
:102BD0009F576091000170910101809102019091D5
:102BE000030100DE0E941408EC01CF67DF6F21961D
:102BF000B1F08EB180588EB96091000170910101E1
:102C00008091020190910301EDDD0E941408EC0116
:102C100064EF71E080E090E00E949F57E6CF7798E4
:102C2000DF91CF910895CF92DF92EF92FF926B01E7
:102C30007C0160E070E081E098E0D4DDC701BDDD9B
:102C4000C601FF90EF90DF90CF90B7CD60E070E0CD
:102C500080E092EDE8DF65E070E080E090E00E94C7
:102C60009F5760E070E080E092EDDDDF65E070E0AE
:102C700080E090E00E949F5760E070E080E091EE7D
:102C8000D2DF65E070E080E090E00C949F57DF9227
:102C9000EF92FF920F931F93CF93DF93CDB7DEB7E1
:102CA00068970FB6F894DEBF0FBECDBFD82E88E070
:102CB000E2E1F1E0DE01519601900D928A95E1F793
:102CC00088E0EAE1F1E0DE01199601900D928A9523
:102CD000E1F788E0E2E2F1E0DE01119601900D9269
:102CE0008A95E1F760E070E080E091EE9CDF61E0C2
:102CF00070E080E090E00E949F5760E070E080E02C
:102D000098E070DD07E714E078010E941408D7010D
:102D10009C9311968C93B2E0EB0EF11CEFE7EE164C
:102D2000E4E0FE0691F7F2E0DF1210C0FE017196BA
:102D30009E01275E3F4F80E04191D8019D918D011A
:102D4000491381E0E217F307B9F729C0B1E0DB12BC
:102D500025C08091C60281110FC0FE0139969E01E7
:102D60002F5E3F4F4191D8019D918D01491381E024
:102D7000E217F307B9F713C0813081F4FE013196F1
:102D80009E01275F3F4F80E04191D8019D918D01C9
:102D9000491381E0E217F307B9F701C080E06896B4
:102DA0000FB6F894DEBF0FBECDBFDF91CF911F915C
:102DB0000F91FF90EF90DF900895CF92DF92EF9206
:102DC000FF9244DF8FE7C82ED12CE12C8BE4F82E44
:102DD000C701B60128DF6AE070E080E090E00E9461
:102DE0009F5760E070E080E098E71DDF6AE070E0E8
:102DF00080E090E00E949F5760E070E080E092EDFC
:102E000012DF8091040143DF882339F061E070E034
:102E100080E090E00E949F57F4CF80E8C80ED11C5C
:102E2000E11CF11C8FE7C81684E0D806E1048BE4AE
:102E3000F80671F6FF90EF90DF90CF9008954F92D3
:102E40005F926F927F928F929F92AF92BF92CF923A
:102E5000DF92EF92FF920F931F93CF93DF93C82FD0
:102E60001092C7021092C8021092C9021092CA02B0
:102E7000823031F400E810E090E4492E512C05C076
:102E800000E012E0412C82E0582E60E070E080E02B
:102E900090EFC9DEC0905B04D0905C04E0905D04CC
:102EA000F0905E042C2F30E040E050E060E070E0F5
:102EB00082E090E00E94A55C49015A01052C000CBB
:102EC0006608770880915B0490915C04A0915D0492
:102ED000B0915E04880D991DAA1DBB1DC816D906A8
:102EE000EA06FB06A0F5C701B6017CDCC7E7D4E023
:102EF0000E941408988389832296CE0187579440B4
:102F000080179107ACF34091C7025091C8026091BD
:102F1000C9027091CA02E7E7F4E081918F3F21F086
:102F20004F5F5F4F6F4F7F4FCF01875794408017A0
:102F300091079CF34093C7025093C8026093C90263
:102F40007093CA02C40CD51CE61CF71CBBCF609161
:102F5000C7027091C8028091C9029091CA02DF91A4
:102F6000CF911F910F91FF90EF90DF90CF90BF9086
:102F7000AF909F908F907F906F905F904F9008954B
:102F80000F931F93CF93DF9360E070E080E091EEAA
:102F90004ADE6AE070E080E090E00E949F5760E0C7
:102FA00070E080E098E01EDC07E714E0E8010E9492
:102FB000140898838983229684E0CF37D807B9F71D
:102FC00080917E048E3121F482E0809304011BC045
:102FD0008D3131F481E0809304011092C60213C058
:102FE000813F61F0F80161918F0188ED96E00E94C8
:102FF0004D02F4E00F371F07A9F705C081E0809369
:1030000004018093C602DF91CF911F910F91089523
:103010008091000190910101A0910201B091030102
:10302000BC01CD01665575458F4F9F4FDBDB8AEAAA
:103030009AEAC3DB8091000190910101A091020105
:10304000B0910301BC01CD016C5A7A4A8F4F9F4F5A
:10305000C9DB85E595E5B1DB809100019091010127
:10306000A0910201B0910301BC01CD0166557545E7
:103070008F4F9F4FB7DB80EF90EF9FDB64E670E0F0
:1030800080E090E00C949F578091000190910101A5
:10309000A0910201B0910301BC01CD0166557545B7
:1030A0008F4F9F4F9FDB8AEA9AEA87DB809100016E
:1030B00090910101A0910201B0910301BC01CD01E9
:1030C0006C5A7A4A8F4F9F4F8DDB85E595E575DB0E
:1030D0008091000190910101A0910201B091030142
:1030E000BC01CD01665575458F4F9F4F7BDB80E955
:1030F00090E963DB60910001709101018091020110
:10310000909103016FDB0E9414080E9414089F93A2
:103110008F9383E391E09F938F9381E896E09F9351
:103120008F930E94295D61E876E088ED96E00E9429
:103130002C0268E371E088ED96E00E942C020F906B
:103140000F900F900F900F900F9062CF8091000121
:1031500090910101A0910201B0910301BC01CD0148
:10316000665575458F4F9F4F3DDB8AEA9AEA25DB0E
:103170008091000190910101A0910201B0910301A1
:10318000BC01CD016C5A7A4A8F4F9F4F2BDB85E5EE
:1031900095E513DB8091000190910101A09102015E
:1031A000B0910301BC01CD01665575458F4F9F4F0E
:1031B00019DB80E890E801DB80910001909101012A
:1031C000A0910201B0910301BC01CD016655754586
:1031D0008F4F9F4F07DB8AEA9AEAEFDA809100016E
:1031E00090910101A0910201B0910301BC01CD01B8
:1031F0006C5A7A4A8F4F9F4FF5DA85E595E5DDDA0F
:103200008091000190910101A0910201B091030110
:10321000BC01CD01665575458F4F9F4FE3DA80E1C4
:1032200090E1CBDA64E170E080E090E00C949F578D
:103230000F931F93CF93DF934AEA50E065E575E063
:1032400080E090E068DA45E550E06AEA72E080E00C
:1032500090E061DA40E950E065E575E080E090E0FB
:103260005ADA00000000000060E070E0CB017FDA75
:10327000082F61E070E080E090E079DA182F6EE0CE
:1032800070E080E090E073DAD82F6FE070E080E0CB
:1032900090E06DDAC82F68EE73E080E090E00E9465
:1032A0009F57602F88ED96E00E944D02612F88EDB8
:1032B00096E00E944D026D2F88ED96E00E944D022F
:1032C0006C2F88ED96E00E944D0240EF50E065E5DE
:1032D00075E080E090E01FDA000000000000DF9160
:1032E000CF911F910F9108954AEA50E065E575E08E
:1032F00080E090E010DA45E550E06AEA72E080E0B4
:1033000090E009DA40E850E065E575E080E090E0A3
:1033100002DA4AEA50E065E575E080E090E0FBD92A
:1033200045E550E06AEA72E080E090E0F4D940E1DF
:1033300050E065E575E080E090E0EDD960E070E098
:10334000CB0115DA8F679F6F019651F08EB18058CF
:103350008EB968EC70E080E090E00E949F57EECF5D
:1033600077980895CF93DF9368ED70E080E090E068
:10337000FED98134924541F469ED70E080E090E03F
:10338000F6D98032984F09F11092A7021092A60246
:103390001092A8021092A9021092AA021092AB02F7
:1033A0004091A8025091A9026091AA027091AB02CB
:1033B00020E088ED96E00E94785268E371E088EDA5
:1033C00096E0DF91CF910C942C026AED70E080E0E2
:1033D00090E0CDD9EC016BED70E080E090E0C7D9D2
:1033E000AC01CE01A0E0B0E0DC019927882760E0C5
:1033F00070E0842B952BA62BB72B8093B002909373
:10340000B102A093B202B093B3026CED70E080E021
:1034100090E0ADD9EC016DED70E080E090E0A7D9CF
:10342000AC01CE01A0E0B0E0DC019927882760E084
:1034300070E0842B952BA62BB72B8093AC02909336
:10344000AD02A093AE02B093AF024091B002509192
:10345000B1026091B2027091B3024130510520E295
:103460006207710519F421E030E008C041155105EB
:103470006042710509F094CF22E030E03093A7025A
:103480002093A6028F5F9F4FAF41B109B695A795D4
:10349000979587958093A8029093A902A093AA027A
:1034A000B093AB0280E090E0A0E1B0E08093B00286
:1034B0009093B102A093B202B093B30271CFCF93B5
:1034C000C82F22D9C5B9759800000000000000007F
:1034D00000000000759A00000000000000000000DD
:1034E0000000CF9115C968ED70E080E090E03FD911
:1034F0008134924541F469ED70E080E090E037D985
:103500008032984FF9F01092A7021092A602109202
:10351000A8021092A9021092AA021092AB02409146
:10352000A8025091A9026091AA027091AB0220E01A
:1035300088ED96E00E94785268E371E088ED96E0AD
:103540000C942C028FEF9FEFA0E2B0E08093AC02CE
:103550009093AD02A093AE02B093AF0281E090E0F1
:103560009093A7028093A60280E090E8A0E0B0E0EC
:103570008093A8029093A902A093AA02B093AB02F1
:1035800080E090E0A0E1B0E08093B0029093B102BF
:10359000A093B202B093B302C2CF0F931F93CF9305
:1035A000DF9362ED70E080E090E0E1D8EC0163ED44
:1035B00070E080E090E0DBD8AE0160E070E0BA013E
:1035C000552744278C0120E030E0402B512B622B03
:1035D000732B4F5F5F4F6F4F7F4F20E088ED96E07A
:1035E0000E94785268E371E088ED96E0DF91CF9118
:1035F0001F910F910C942C02CF93DF93CDB7DEB7C0
:1036000027970FB6F894DEBF0FBECDBF28E730E096
:103610004EE668ED76E0CE0101960E942053CE0181
:1036200001960E9411546093730470937404809304
:10363000750490937604CE0101960E945653279606
:103640000FB6F894DEBF0FBECDBFDF91CF910895C6
:10365000CF92DF92EF92FF92CFDF6AE070E080E0DE
:1036600090E00E949F57C12CD12C76018091730469
:1036700090917404A0917504B0917604B695A795C5
:1036800097958795C816D906EA06FB06B0F58EB160
:1036900080588EB94AEA50E065E575E080E090E038
:1036A0003AD845E550E06AEA72E080E090E033D82D
:1036B00040E850E065E575E080E090E02CD84AEA0B
:1036C00050E065E575E080E090E025D845E550E004
:1036D0006AEA72E080E090E01ED840E350E0C70163
:1036E000B60119D8C701B60142D88F679F6F0196FE
:1036F000C9F78FEFE81AF80AB9CF7798FF90EF90E3
:10370000DF90CF9008958FEF8AB980BB84B991B1D3
:103710009F6091B992B1966092B992B1967F92B939
:103720008DB9779817B808950F931F936BB9072F2A
:10373000182F292F332701BBAA27BB2785B948B9E2
:1037400000000000000000001298000000000000CF
:10375000000000000000129A0000000000000000BD
:10376000000000001F910F9108950F931F936BB9F4
:10377000072F182F292F332701BBAA27BB2785B96D
:103780000000000000000000119800000000000090
:1037900000000000000086B1119A00000000000047
:1037A0000000000000001F910F91089585B96BB9CA
:1037B00071BB11980000000086B1119A0000000052
:1037C00000000895FF920F931F93CF93DF93779A92
:1037D000CFEFC7B94AEA6AEA7AE080E090E0A4DF76
:1037E00045E565E575E080E090E09EDF40E96AEA46
:1037F0007AE080E090E098DF17B860E070E0CB01FD
:10380000B4DFF82E62E070E080E090E0AEDF082FD9
:103810006CE170E080E090E0A8DF182F6EE170E0CE
:1038200080E090E0A2DFD82F68EE73E080E090E0C7
:103830000E949F576F2D88ED96E00E944D02602FE9
:1038400088ED96E00E944D02612F88ED96E00E947F
:103850004D026D2F88ED96E00E944D02C7B940EFF2
:103860006AEA7AE080E090E05FDF7798DF91CF91BD
:103870001F910F91FF9008958FEF87B94AEA6AEA86
:103880007AE080E090E050DF45E565E575E080E0B6
:1038900090E04ADF40E86AEA7AE080E090E044DFC6
:1038A0004AEA6AEA7AE080E090E03EDF45E565E5D5
:1038B00075E080E090E038DF40E16AEA7AE080E09D
:1038C00090E032DF17B860E070E0CB014EDF87FD9B
:1038D0000AC08EB180588EB968EC70E080E090E04C
:1038E0000E949F57F0CF0895CF92DF92EF92FF9200
:1038F000CF9382DE6AE070E080E090E00E949F5704
:10390000C12CD12C7601CFEF809173049091740477
:10391000A0917504B0917604C816D906EA06FB0694
:1039200080F58EB180588EB9C7B94AEA6AEA7AE062
:1039300080E090E0F9DE45E565E575E080E090E047
:10394000F3DE40E86AEA7AE080E090E0EDDE4AEA01
:103950006AEA7AE080E090E0E7DE45E565E575E05B
:1039600080E090E0E1DE40E3C701B601DDDE17B89C
:10397000C701B601FADE87FFFBCF82E0E80EF11C3B
:10398000C3CF7798CF91FF90EF90DF90CF900895BD
:103990000E94E5086AE070E080E090E00E949F5796
:1039A00060917706709178068091790690917A06F9
:1039B000DCDE682F88ED96E00C944D028FEF81B924
:1039C00084B98DB98AB183608AB98BB183608BB9B0
:1039D000759A7498779817B808950F931F9362B9E2
:1039E000072F182F292F332705B9AA27BB278EB9F0
:1039F00048B90000000058980000000000000000D6
:103A000000000000589A00000000000000000000C4
:103A100000001F910F9108950F931F9362B9072F14
:103A2000182F292F332705B9AA27BB278EB90000E5
:103A30000000599800000000000000000000000095
:103A400086B1599A0000000000000000000000004C
:103A50001F910F910895FF920F931F93CF93DF93C0
:103A6000779ACFEFC7B945E562EA72E888E090E05F
:103A7000B4DF4AEA60E57DE181E090E0AEDF49E055
:103A800062EA72E888E090E0A8DF17B860E070E0D2
:103A9000CB01C2DFF82E60E070E088E090E0BCDF90
:103AA000082F60E070E981E090E0B6DF182F60E059
:103AB00070E989E090E0B0DFD82F68EE73E080E035
:103AC00090E00E949F576F2D88ED96E00E944D0276
:103AD000602F88ED96E00E944D02612F88ED96E000
:103AE0000E944D026D2F88ED96E00E944D02C7B9ED
:103AF0004FE062EA72E888E090E06FDF7798DF914C
:103B0000CF911F910F91FF9008951F93CF93DF9353
:103B10008FEF87B945E562EA72E888E090E05DDF03
:103B20004AEA60E57DE181E090E057DF41E062EA4A
:103B300072E888E090E051DF45E562EA72E888E0EB
:103B400090E04BDF4AEA60E57DE181E090E045DF0F
:103B500048E062EA72E888E090E03FDF17B860E092
:103B600070E0CB0159DFD82FC0E011E0D7FD14C0C1
:103B7000CC2329F060E070E080E890E003C060E0D2
:103B800070E0CB0149DFD82F68EC70E080E090E076
:103B90000E949F57C127EACFDF91CF911F910895CF
:103BA0000E94E5086AE070E080E090E00E949F5784
:103BB0000E9474096AE070E080E090E00E949F57E4
:103BC0008FEF87B9609177067091780680917906BA
:103BD00090917A0640917B0600DF17B8089520E0A7
:103BE0004FE16CE18EE892E00E947A5120E042E2DF
:103BF0006CE186E792E00E947A5120E045E26CE1B8
:103C00008EE592E00C947A518EE592E00E9430525B
:103C100086E792E00E9430528EE892E00C94305297
:103C20008F929F92AF92BF92CF92DF92EF92FF92CC
:103C3000CF93DF930E94E508C12CD12C76018091AF
:103C4000770690917806A0917906B0917A06C81609
:103C5000D906EA06FB06E8F4779AC7E7D4E04601FE
:103C6000570188ED96E00E94225A8993482FC5019A
:103C7000B4010E9404038FEF881A980AA80AB80AB0
:103C800086E0C737D80769F782E0D80EE11CF11C3F
:103C9000D6CF7798DF91CF91FF90EF90DF90CF90C4
:103CA000BF90AF909F908F900895EF92FF920F93E7
:103CB0001F93CF93DF930E94E508779AC0E0D0E08E
:103CC00030E9E32EFF24F394AE0160E070E08091D0
:103CD000770690917806A0917906B0917A0624E053
:103CE000880F991FAA1FBB1F2A95D1F7481759079C
:103CF0006A077B07E0F407E714E088ED96E00E948E
:103D0000225AF80181938F01F6E007371F07A9F7C0
:103D1000F8946091770670917806CE010E94A50311
:103D20007894C7010197F1F7C05CDF4FCDCF77984A
:103D3000DF91CF911F910F91FF90EF9008954F92D7
:103D40005F926F927F92AF92BF92CF92DF92EF928B
:103D5000FF920F931F93CF93DF930E94E5080E9479
:103D600074098EB187608EB98FEF84B987B981B934
:103D70007398779AC0907706D0907806E09079068D
:103D8000F0907A0640917706509178066091790616
:103D900070917A0680917B0690917C06A0917D06B9
:103DA000B0917E06840F951FA61FB71FC816D906AF
:103DB000EA06FB06D8F507E714E026013701C0E064
:103DC000D0E088ED96E00E94225A5801F8018193D4
:103DD0008F014AEA65E575E580E090E00E94D6042F
:103DE00045E56AEA7AE280E090E00E94D60440EA83
:103DF00065E575E580E090E00E94D604F50140811C
:103E0000C301B2010E94D604CE010E94B1052196E1
:103E1000FFEF4F1A5F0A6F0A7F0AC11582E0D807C9
:103E200081F6E2E0DE0EE11CF11CACCF739A7798CC
:103E3000DF91CF911F910F91FF90EF90DF90CF9086
:103E4000BF90AF907F906F905F904F9008950F93C9
:103E50001F93CF9364E670E080E090E00E949F574C
:103E6000779A11B884E391E00E94D0058FEF81B971
:103E700080916E0490916F0405972CF461E080E0CE
:103E800090E60E94E6056AE080E090E00E94E60588
:103E9000C0E08C2F90E0209163043091640482177D
:103EA0009307ECF46C2F80E090E40E94E60500E0BC
:103EB00010EA80915F04909160048017910768F088
:103EC00088ED96E00E94225A80937704682FC801FB
:103ED0000E94F8050F5F1F4FECCFCF5FDACF60E095
:103EE00080E090E00E94E60511B87798CF911F918D
:103EF0000F910895DF92EF92FF920F931F93CF934C
:103F0000DF937ADB6AE070E080E090E00E949F57E8
:103F1000609173048FEF81B9779A80E090E20E94FC
:103F2000E60560E080E090E40E94E60500E010E431
:103F3000DD24DA94C7E7D4E0C801875794407C01B8
:103F400088ED96E00E94225A88836AEA8AEA9AE01B
:103F50000E94E60565E585E595E00E94E60560EAD4
:103F60008AEA9AE00E94E6056881C7018C0F9D1FCE
:103F70000E94E60511B88EB1897F8EB9999180B102
:103F8000892787FDFCCF8EB186608EB9D1B896E0C7
:103F9000C737D907A9F61E5F011580E8180751F643
:103FA00011B87798DF91CF911F910F91FF90EF900B
:103FB000DF900895CF92DF92EF92FF920F931F93BD
:103FC000CF93DF9319DB6AE070E080E090E00E941D
:103FD0009F57C0907304D0907404E0907504F090E3
:103FE00076048FEF81B9779A6C2D80E090E20E9481
:103FF000E605C11481E0D80629F461E080E090E391
:104000000E94E60560E080E090E40E94E6056AEA2E
:104010008AEA9AE00E94E60565E585E595E00E945A
:10402000E60560E28AEA9AE00E94E60500E010E414
:10403000DD24DA94C7E7D4E0C801875794407C01B7
:1040400088ED96E00E94225A888360EA8AEA9AE024
:104050000E94E6056881C7018C0F9D1F0E94E6053E
:1040600011B88EB1897F8EB9999180B1892787FD6A
:10407000FCCF8EB186608EB9D1B896E0C737D9072C
:10408000F9F61E5F011580E81807A1F660E985E5DD
:1040900095E00E94E60560E08AEA9AE00E94E60563
:1040A00011B87798DF91CF911F910F91FF90EF900A
:1040B000DF90CF9008954F925F926F927F928F9290
:1040C0009F92AF92BF92CF92DF92EF92FF920F93A7
:1040D0001F93CF93DF93CDB7DEB72A970FB6F8942F
:1040E000DEBF0FBECDBF0E94E5086AE070E080E051
:1040F00090E00E949F578090000190900101A09055
:104100000201B0900301D501C4018655954FAF4F10
:10411000BF4F89839A83AB83BC83BC01CD010E94CE
:10412000F2138AEA90E00E94DD13D501C4018C5A93
:104130009A4FAF4FBF4F8D839E83AF83B887BC012B
:10414000CD010E94F21385E590E00E94DD136981A4
:104150007A818B819C810E94F21380E290E00E9420
:10416000DD13C12CD12C76018091770690917806D1
:10417000A0917906B0917A06C816D906EA06FB0620
:1041800008F0AEC08EB180588EB9D701C601A170BB
:10419000BB27892B8A2B8B2B31F46AE070E080E0FF
:1041A00090E00E949F57812C912C5401412C512C5E
:1041B000320188ED96E00E94225A89878093770425
:1041C00088ED96E00E94225A80937804198500E0D9
:1041D000D801A82BBA87A9876D817E818F819885A8
:1041E0000E94F21380EA90E00E94DD1380910001AA
:1041F00090910101A0910201B09103018C0D9D1DD0
:10420000AE1DBF1D880D991DAA1DBB1DBC01CD0192
:10421000640D751D861D971D0E94F21389859A8570
:104220000E94DD138091000190910101A091020193
:10423000B09103018C0D9D1DAE1DBF1D880D991DF4
:10424000AA1DBB1DBC01CD01640D751D861D971DEA
:104250000E94F2130E94140829853A852F673F6F48
:104260003A8729878F679F6FA985BA858A179B0729
:10427000D9F08091000190910101A0910201B091CB
:1042800003018C0D9D1DAE1DBF1D880D991DAA1D1E
:10429000BB1DBC01CD01640D751D861D971D0E94BF
:1042A000F2130E941408DECFB2E04B0E511C611CC9
:1042B000711C411422E052066104710409F079CFA7
:1042C00032E0930EA11CB11C811480E89806A10471
:1042D000B10409F06BCF90E8D90EE11CF11C44CF7A
:1042E000779869817A818B819C810E94F21380E9A1
:1042F00090E00E94DD136D817E818F8198850E9400
:10430000F21380E090E02A960FB6F894DEBF0FBE5D
:10431000CDBFDF91CF911F910F91FF90EF90DF9074
:10432000CF90BF90AF909F908F907F906F905F9055
:104330004F900C94DD130F931F93CF93DF9300D016
:10434000CDB7DEB785E08A8380910D04898307E7C6
:1043500014E088ED96E00E94225AF80181938F01C3
:10436000F4E00F371F07A9F7F89461E0CE01029639
:104370000E945C0761E0CE0101960E945C0768E044
:1043800087E794E00E945C070E94C60778940F902C
:104390000F90DF91CF911F910F910895AF92BF922F
:1043A000CF92DF92EF92FF920F931F93CF93DF9301
:1043B000D0E010E037E7A32E36E0B32E412F50E0D7
:1043C00060E070E080910D0490910E04A0910F04C4
:1043D000B091100426E0B695A795979587952A95F4
:1043E000D1F7481759076A077B0788F587E7E82E52
:1043F00084E0F82E670188ED96E00E94225AF601CB
:1044000081936F01AE16BF06B1F7F894C0E080E962
:1044100095E60E94810885E00E9491088D2F8C0FFF
:104420000E949108670108E0F60181916F010E94E6
:1044300091080150C9F70E94B208CF5FF8E0EF0E73
:10444000F11CC03421F778941F5FD05CB7CFDF91A7
:10445000CF911F910F91FF90EF90DF90CF90BF9081
:10446000AF900895BF92CF92DF92EF92FF920F9399
:104470001F93CF93DF93C0905B04D0905C04E090D7
:104480005D04F0905E0480915B0490915C04A091C7
:104490005D04B0915E049058AF4FBF4FC816D90667
:1044A000EA06FB0618F5C701B6010E94F213C7E73A
:1044B000D4E088ED96E00E94225AB82E888388EDD9
:1044C00096E00E94225A89831B2D00E09801282B38
:1044D000C9010E94DD13229634E0C73BD30749F798
:1044E00080E4C80ED11CE11CF11CCDCFDF91CF912F
:1044F0001F910F91FF90EF90DF90CF90BF900895A4
:104500004F925F926F927F929F92AF92BF92CF92A3
:10451000DF92EF92FF920F931F93CF93DF930E944E
:10452000DD16809104010E941F17672B682B692BF1
:1045300061F06BE371E088ED96E00E943B0262E47B
:1045400071E088ED96E00E943B020E942616C12C85
:10455000D12C76012601370110E08EB180588EB93A
:1045600060E070E080E094EB0E94131661E070E080
:1045700080E090E00E949F5760E070E080E098E06B
:104580000E94F213C7E7D4E000E088ED96E00E94B5
:10459000225A982E888388ED96E00E94225A8983B9
:1045A000B92CA12C9501282BC9010E94DD130E5FA7
:1045B0002296003851F761E070E080E090E00E94C0
:1045C0009F57C301B201956A0E94131661E070E023
:1045D00080E090E00E949F5760E070E080E092ED04
:1045E0000E941316809104010E944716882339F017
:1045F00061E070E080E090E00E949F57F3CF1F5F82
:104600003FEF431A530A630A730A103809F0A5CF23
:1046100064E170E080E090E00E949F5780E8C80E5F
:10462000D11CE11CF11CC11424E0D206E104F10408
:1046300009F090CF7798DF91CF911F910F91FF9064
:10464000EF90DF90CF90BF90AF909F907F906F9052
:104650005F904F9008953F924F925F926F927F923A
:104660008F929F92AF92BF92CF92DF92EF92FF9282
:104670000F931F93CF93DF930E94FC1A6AE070E0C0
:1046800080E090E00E949F57C12CD12C7601809150
:10469000730490917404A0917504B0917604B6955A
:1046A000A79597958795C816D906EA06FB0608F0E0
:1046B00093C0D701C6019370AA27BB27892B8A2BE9
:1046C0008B2B19F48EB180588EB980910001909196
:1046D0000101A0910201B0910301BC01CD01665519
:1046E00075458F4F9F4F0E94F2138AEA9AEA0E9403
:1046F000DD138091000190910101A0910201B09120
:104700000301BC01CD016C5A7A4A8F4F9F4F0E9422
:10471000F21385E595E50E94DD13809100019091EB
:104720000101A0910201B0910301BC01CD016655C8
:1047300075458F4F9F4F0E94F21380EA90EA0E94C6
:10474000DD1326013701440C551C661C771CC7E796
:10475000D4E0812C912C54018091000190910101B1
:10476000A0910201B0910301A054BF4F840D951D8B
:10477000A61DB71DBC01CD01680D791D8A1D9B1DAD
:104780000E94F21388ED96E00E94225A382E888308
:1047900088ED96E00E94225A8983132D00E098014B
:1047A000282BC9010E94DD1332E0830E911CA11C4D
:1047B000B11C2296811481E09806A104B10461F62F
:1047C0006EE170E080E090E00E949F5720E8C20E0A
:1047D000D11CE11CF11C5BCF779861E088ED96E07D
:1047E000DF91CF911F910F91FF90EF90DF90CF90CD
:1047F000BF90AF909F908F907F906F905F904F9001
:104800003F900C944D0288ED96E00E94225A8093CE
:10481000720408952F923F924F925F926F927F920F
:104820008F929F92AF92BF92CF92DF92EF92FF92C0
:104830000F931F93CF93DF93CDB7DEB760970FB67B
:10484000F894DEBF0FBECDBF0DB71EB718870F831C
:104850008090000190900101A0900201B0900301AE
:10486000D2DF6AE070E080E090E00E949F570E94F3
:10487000E5086AE070E080E090E00E949F570E94A7
:1048800074096AE070E080E090E00E949F57C09059
:104890007706D0907806E0907906F0907A06C50108
:1048A000B4016655754F8F4F9F4F69877A878B8705
:1048B0009C87D501C4018C5A9A4FAF4FBF4F8D874B
:1048C0009E87AF87B88B40917706509178066091AC
:1048D000790670917A0680917B0690917C06A09172
:1048E0007D06B0917E06840F951FA61FB71FC816C0
:1048F000D906EA06FB0608F056C18EB180588EB97B
:10490000812C912C5401212C312C0DB71EB71E8304
:104910000D8369857A858B859C850E94F2138AEACE
:1049200090E00E94DD136D857E858F8598890E94B9
:10493000F21385E590E00E94DD132101032C000CA9
:10494000660877088091000190910101A091020111
:10495000B09103018C0D9D1DAE1DBF1D880D991DCD
:10496000AA1DBB1DBC01CD01640D751D861D971DC3
:104970000E94F21385E290E00E94DD138091000115
:1049800090910101A0910201B09103018C0D9D1D38
:10499000AE1DBF1D880D991DAA1DBB1DBC01CD01FB
:1049A000640D751D861D971D0E94F213809172047F
:1049B000869590E001970E94DD13809172042DB7D7
:1049C0003EB7281B31090FB6F8943EBF0FBE2DBF6E
:1049D0000DB71EB70F5F1F4F1C830B8300E010E065
:1049E0004091720450E00417150714F010E00DC058
:1049F000401B510B6B817C81600F711F88ED96E02D
:104A00000E94B65B080F191FEBCF40917204809192
:104A1000000190910101A0910201B09103011417CE
:104A200048F5EB81FC81E10FF11D41812081022ECF
:104A3000000C330B322F2227B901642B7A83698350
:104A40008C0D9D1DAE1DBF1D880D991DAA1DBB1D82
:104A5000840D951DA61DB71DBC01CD01610F711DF3
:104A6000811D911D0E94F21389819A810E94DD139C
:104A70001E5FCBCF8C0D9D1DAE1DBF1D880D991DDA
:104A8000AA1DBB1D840D951DA61DB71D642F70E0CA
:104A900062507109AB01770F660B770B8C019D019A
:104AA000040F151F261F371FC901B8010E94F213FA
:104AB00089E290E00E94DD136091720470E0625020
:104AC0007109AB01770F660B770B80910001909114
:104AD0000101A0910201B0910301840F951FA61F4F
:104AE000B71F8C0D9D1DAE1DBF1D880D991DAA1DE4
:104AF000BB1DBC01CD01640D751D861D971D0E9457
:104B0000F2130E94140809811A810F671F6F8F67C3
:104B10009F6F8017910741F16091720470E06250BD
:104B20007109AB01770F660B770B809100019091B3
:104B30000101A0910201B0910301840F951FA61FEE
:104B4000B71F8C0D9D1DAE1DBF1D880D991DAA1D83
:104B5000BB1DBC01CD01640D751D861D971D0E94F6
:104B6000F2130E941408D3CF0D811E810FB6F89462
:104B70001EBF0FBE0DBF80917204280E311C211480
:104B800010E431060CF4C1CE20E4920EA11CB11C3D
:104B90008114910432E0A306B10409F0B4CE62E0BE
:104BA000E60EF11C90CE77980F8118850FB6F89419
:104BB0001EBF0FBE0DBF60960FB6F894DEBF0FBECE
:104BC000CDBFDF91CF911F910F91FF90EF90DF90BC
:104BD000CF90BF90AF909F908F907F906F905F909D
:104BE0004F903F902F9008952F923F924F925F9257
:104BF0006F927F928F929F92AF92BF92CF92DF92ED
:104C0000EF92FF920F931F93CF93DF93CDB7DEB751
:104C100028970FB6F894DEBF0FBECDBFF4DD6AE073
:104C200070E080E090E00E949F570E94E5086AE0F3
:104C300070E080E090E00E949F570E9474096AE053
:104C400070E080E090E00E949F57809077069090FF
:104C50007806A0907906B0907A06B694A7949794B7
:104C6000879440917706509178066091790670910B
:104C70007A0680917B0690917C06A0917D06B0918A
:104C80007E06840F951FA61FB71FB695A79597950B
:104C9000879588169906AA06BB0608F0B8C08EB19B
:104CA00080588EB9412C512C320118861F82D501B3
:104CB000C401840D951DA61DB71D8B839C83AD83F8
:104CC000BE834AEA50E065E575E080E090E00E942E
:104CD0008B1345E550E06AEA72E080E090E00E94C4
:104CE0008B13AF81B8856D01BB0FEE08FF088B8178
:104CF0009C81AD81BE81C80ED91EEA1EFB1E45E215
:104D000050E0C701B6010E948B134091720450E03D
:104D100041505109C701B6010E948B13312C60919B
:104D200072043616E8F488ED96E00E94225A182F95
:104D30008093770488ED96E00E94225A809378044D
:104D40001A83198209811A81082BC701B601630DE4
:104D5000711D811D911DA8010E948B133394DFCF1B
:104D600070E061507109CB01770FAA0BBB0BBC013E
:104D7000CD016C0D7D1D8E1D9F1D49E250E00E94EE
:104D80008B136091720470E061507109CB01770F51
:104D9000AA0BBB0BBC01CD016C0D7D1D8E1D9F1D93
:104DA0000E94B7131801AFE72A2A33243A948F6779
:104DB0009F6F609172048215930581F070E06150DD
:104DC0007109CB01770FAA0BBB0BBC01CD016C0D98
:104DD0007D1D8E1D9F1D0E94B713E9CF8F81988581
:104DE000860F911D98878F83811590420CF469CFAF
:104DF000B0E25B0E611C711C4114510421E062069B
:104E0000710409F052CF8FEFA81AB80A2ACF779809
:104E100028960FB6F894DEBF0FBECDBFDF91CF91BD
:104E20001F910F91FF90EF90DF90CF90BF90AF90C8
:104E30009F908F907F906F905F904F903F902F90BA
:104E400008956F927F928F929F92AF92BF92CF926E
:104E5000DF92EF92FF920F931F93CF93DF930E9405
:104E6000E5086AE070E080E090E00E949F57C12C66
:104E7000D12C76018091770690917806A0917906E1
:104E8000B0917A06B695A79597958795C816D906D5
:104E9000EA06FB0608F05FC0D701C6019770AA2793
:104EA000BB27892B8A2B8B2B19F48EB180588EB996
:104EB0004601570100E210E088ED96E00E94225A78
:104EC000C82F8093770488ED96E00E94225A809341
:104ED00078047C2E612CE301C82B4AEA50E065E59A
:104EE00075E080E090E00E948B1345E550E06AEAAF
:104EF00072E080E090E00E948B1340EA50E065E5AC
:104F000075E080E090E00E948B13AE01C501B40112
:104F10000E948B13C501B4010E94B713CF67DF6FE6
:104F20008F679F6F8C179D0729F0C501B4010E9400
:104F3000B713F6CF015011098FEF881A980AA80A03
:104F4000B80A0115110509F0B7CF80E2C80ED11CCF
:104F5000E11CF11C8FCF7798DF91CF911F910F91BA
:104F6000FF90EF90DF90CF90BF90AF909F908F9089
:104F70007F906F900895CF92DF92EF92FF92809191
:104F8000A6029091A70281309105A1F5C090B002D0
:104F9000D090B102E090B202F090B3024091B00222
:104FA0005091B1026091B2027091B3028091A80257
:104FB0009091A902A091AA02B091AB02840F951F13
:104FC000A61FB71FC816D906EA06FB0608F047C099
:104FD00088ED96E00E94225A80937704AC01552711
:104FE000C701B6010E948B138FEFC81AD80AE80ACE
:104FF000F80AD4CF029799F5C090B002D090B102D0
:10500000E090B202F090B3024091B0025091B10230
:105010006091B2027091B3028091A8029091A902AE
:10502000A091AA02B091AB02840F951FA61FB71FD3
:10503000C816D906EA06FB0690F488ED96E00E94B1
:10504000225A1092770440E050E0C701B6010E9456
:105050008B138FEFC81AD80AE80AF80AD5CFFF9049
:10506000EF90DF90CF900895CF92DF92EF92FF9272
:10507000C12CD12C80E1E82EF12C88ED96E00E9425
:10508000225A80937704AC015527C701B6010E94CC
:105090008B138FEFC81AD80AE80AF80A8FEFC816E0
:1050A0008FE7D80680E1E806F10439F7FF90EF902A
:1050B000DF90CF9008958F929F92AF92BF92CF9240
:1050C000DF92EF92FF921F93CF93DF930E94E50848
:1050D0006AE070E080E090E00E949F570E947409AF
:1050E0006AE070E080E090E00E949F578FEF87B900
:1050F000C0907706D0907806E0907906F0907A0616
:105100001FEF409177065091780660917906709173
:105110007A0680917B0690917C06A0917D06B091E5
:105120007E06840F951FA61FB71FC816D906EA066C
:10513000FB0608F046C0D701C6019F70AA27BB270F
:10514000892B8A2B8B2B19F48EB180588EB9C7E727
:10515000D4E04601570188ED96E00E94225A8883E8
:105160004AEA6AEA7AE080E090E00E94941B45E512
:1051700065E575E080E090E00E94941B40EA6AEAF1
:105180007AE080E090E00E94941B4881C501B40160
:105190000E94941B17B81198999186B1892787FDB1
:1051A000FCCF119A17B98FEF881A980AA80AB80A83
:1051B00086E0C737D80779F682E0D80EE11CF11CEB
:1051C000A0CF17B87798DF91CF911F91FF90EF9004
:1051D000DF90CF90BF90AF909F908F9008958F9267
:1051E0009F92AF92BF92CF92DF92EF92FF921F9366
:1051F000CF93DF930E94E5086AE070E080E090E0E2
:105200000E949F570E9474096AE070E080E090E07D
:105210000E949F578FEF87B94AEA6AEA7AE080E0F6
:1052200090E00E94941B45E565E575E080E090E024
:105230000E94941B40E26AEA7AE080E090E00E94DB
:10524000941BC0907706D0907806E0907906F09095
:105250007A061FEF409177065091780660917906A3
:1052600070917A0680917B0690917C06A0917D06D4
:10527000B0917E06840F951FA61FB71FC816D906CA
:10528000EA06FB06C0F5D701C6019F70AA27BB2717
:10529000892B8A2B8B2B19F48EB180588EB9C7E7D6
:1052A000D4E04601570188ED96E00E94225A888397
:1052B00040EA6AEA7AE080E090E00E94941B48812C
:1052C000C501B4010E94941B17B81198999186B139
:1052D000892787FDFCCF119A17B98FEF881A980A92
:1052E000A80AB80A86E0C737D807E9F682E0D80EE0
:1052F000E11CF11CAFCF40E965E575E080E090E08E
:105300000E94941B40E06AEA7AE080E090E00E940C
:10531000941B17B87798DF91CF911F91FF90EF9072
:10532000DF90CF90BF90AF909F908F9008952F9275
:105330003F924F925F926F927F928F929F92AF9225
:10534000BF92CF92DF92EF92FF920F931F93CF9372
:10535000DF9300D000D000D0CDB7DEB754DA6AE0DA
:1053600070E080E090E00E949F570E94E5086AE0AC
:1053700070E080E090E00E949F570E9474096AE00C
:1053800070E080E090E00E949F578FEF87B9C09057
:105390007706D0907806E0907906F0907A0688EE4D
:1053A000282E83E0382E0FEF409177065091780633
:1053B0006091790670917A0680917B0690917C06C7
:1053C000A0917D06B0917E06840F951FA61FB71F82
:1053D000C816D906EA06FB0608F073C08EB18058DD
:1053E0008EB9812C912C54011E821D82D701C601D9
:1053F000880D991DAA1DBB1D89839A83AB83BC832D
:105400004AEA6AEA7AE080E090E00E94941B45E56F
:1054100065E575E080E090E00E94941B45E2C701DD
:10542000B6010E94941B409172044150C701B6011D
:105430000E94941B10E0AD81BE812D01BB0F660858
:10544000770889819A81AB81BC81480E591E6A1EFA
:105450007B1E80917204181778F488ED96E00E9404
:10546000225A482FC301B201610F711D811D911D88
:105470000E94941B1F5FEDCF49E2C701B6010E9455
:10548000941B17B8C1010197F1F707B98091720415
:10549000AD81BE81A80FB11DBE83AD83A115B044FF
:1054A0000CF4AECF30E4930EA11CB11C8114910416
:1054B00082E0A806B10409F097CF92E0E90EF11C52
:1054C00073CF779826960FB6F894DEBF0FBECDBF88
:1054D000DF91CF911F910F91FF90EF90DF90CF90D0
:1054E000BF90AF909F908F907F906F905F904F9004
:1054F0003F902F9008958F929F92AF92BF92CF923C
:10550000DF92EF92FF92CF93DF930E94E5086AE06B
:1055100070E080E090E00E949F570E94BE126AE017
:1055200070E080E090E00E949F578FEF87B9C090B5
:105530007706D0907806E0907906F0907A06809110
:10554000C0029091C102A091C202B091C302C816DC
:10555000D906EA06FB06E8F4779AC7E7D4E04601E5
:10556000570188ED96E00E94225A8993482FC50181
:10557000B4010E94941B8FEF881A980AA80AB80AEF
:1055800086E0C737D80769F782E0D80EE11CF11C26
:10559000D6CF7798DF91CF91FF90EF90DF90CF90AB
:1055A000BF90AF909F908F9008953F924F925F92DF
:1055B0006F927F928F929F92AF92BF92CF92DF9223
:1055C000EF92FF920F931F93CF93DF93CDB7DEB788
:1055D0002A970FB6F894DEBF0FBECDBF0E94E50834
:1055E0006AE070E080E090E00E949F570E9474099A
:1055F0006AE070E080E090E00E949F578FEF87B9EB
:10560000C0907706D0907806E0907906F0907A0600
:105610001A86198633243A94409177065091780679
:105620006091790670917A0680917B0690917C0654
:10563000A0917D06B0917E06840F951FA61FB71F0F
:10564000C816D906EA06FB0608F0C3C029853A85C4
:105650002115384044F012EA412E12E8512E18E884
:10566000612E712C07C0B2EA4B2EB2E85B2EB8E077
:105670006B2E712C89859A85811598404CF020E518
:105680003DE141E850E029833A834B835C8308C0C5
:1056900080E59DE1A1E0B0E089839A83AB83BC8380
:1056A000A985BA85A115B8402CF080E090E0A0E86B
:1056B000B0E003C080E090E0DC0107E714E0812C5B
:1056C000912C5401A7019601280F391F4A1F5B1F17
:1056D0002D833E834F83588788ED96E00E94225A9F
:1056E000A82FA795AA27A795AC014270552725E0BA
:1056F000440F551F2A95E1F74A2BDC01A470BB2704
:1057000033E0AA0FBB1F3A95E1F74A2BFC01E87082
:10571000FF27EE0FFF1F4E2BBC0160717727759599
:105720006795242F262BAC0140725527F3E0559541
:105730004795FA95E1F7422B9C0120743327A5E0A9
:1057400035952795AA95E1F7242B881F8827881F70
:10575000822BD8018C9345E5C301B2010E94ED1C58
:105760004AEA69817A818B819C810E94ED1C45E027
:10577000C301B2010E94ED1CF80140816D817E8160
:105780008F819885680D791D8A1D9B1D0E94ED1CD7
:1057900017B85998D8019D918D0186B1892787FD49
:1057A000FCCF599A37B8BFEF8B1A9B0AAB0ABB0ADA
:1057B0008114E2E09E06A104B10409F08DCF298591
:1057C0003A853E5F3A87298732E0D30EE11CF11C0F
:1057D00023CF17B877982A960FB6F894DEBF0FBE7E
:1057E000CDBFDF91CF911F910F91FF90EF90DF9090
:1057F000CF90BF90AF909F908F907F906F905F9071
:105800004F903F9008953F924F925F926F927F9298
:105810008F929F92AF92BF92CF92DF92EF92FF92C0
:105820000F931F93CF93DF93CDB7DEB72A970FB6B1
:10583000F894DEBF0FBECDBF0E94E5086AE070E0BD
:1058400080E090E00E949F570E9474096AE070E037
:1058500080E090E00E949F578FEF87B9C090770655
:10586000D0907806E0907906F0907A061A8619862C
:1058700033243A94409177065091780660917906E6
:1058800070917A0680917B0690917C06A0917D06AE
:10589000B0917E06840F951FA61FB71FC816D906A4
:1058A000EA06FB0608F089C029853A8521153840AB
:1058B00044F092EA492E92E8592E98E8692E712C0C
:1058C00007C082EA482E82E8582E88E0682E712CA4
:1058D00089859A85811598404CF020E53DE141E8A5
:1058E00050E029833A834B835C8308C080E59DE1C7
:1058F000A1E0B0E089839A83AB83BC83A985BA8594
:10590000A115B8402CF080E090E0A0E8B0E003C022
:1059100080E090E0DC0107E714E0812C912C540139
:10592000A7019601280F391F4A1F5B1F2D833E8355
:105930004F83588788ED96E00E94225AD8018C93B5
:1059400045E5C301B2010E94ED1C4AEA69817A81F2
:105950008B819C810E94ED1C45E0C301B2010E9435
:10596000ED1CF80140816D817E818F819885680DE5
:10597000791D8A1D9B1D0E94ED1C17B85998D801EE
:105980009D918D0186B1892787FDFCCF599A37B843
:10599000BFEF8B1A9B0AAB0ABB0A8114E2E09E069A
:1059A000A104B10439F629853A853E5F3A872987F3
:1059B00032E0D30EE11CF11C5DCF17B877982A9620
:1059C0000FB6F894DEBF0FBECDBFDF91CF911F9110
:1059D0000F91FF90EF90DF90CF90BF90AF909F908E
:1059E0008F907F906F905F904F903F9008958F922F
:1059F0009F92AF92BF92CF92DF92EF92FF92CF939E
:105A0000DF930E94E508C0907706D0907806E0907A
:105A10007906F0907A068091770690917806A091A9
:105A20007906B0917A069E5FAF4FBF4FC816D90670
:105A3000EA06FB0620F58EB180588EB9C7E7D4E0A0
:105A400046015701C501B4010E94A00288839983D1
:105A500082E0880E911CA11CB11C229686E0C737FB
:105A6000D80781F740E052E067E774E088ED96E000
:105A70000E94645A82E0D80EE11CF11CCCCF7798CA
:105A8000DF91CF91FF90EF90DF90CF90BF90AF90DC
:105A90009F908F9008958F929F92AF92BF92CF92D6
:105AA000DF92EF92FF92CF93DF930E94E508C090C0
:105AB0007706D0907806E0907906F0907A0680918B
:105AC000770690917806A0917906B0917A069E5F4C
:105AD000AF4FBF4FC816D906EA06FB06F8F4C7E772
