:1000000000C2000028C2000026C2000024C2000076
:1000100022C2000020C200001EC200001CC200005C
:100020001AC200000C94303B0C9423420C94A04262
:1000300012C2000010C200000EC200000CC200007C
:100040000AC2000008C2000006C2000004C200008C
:1000500002C2000000C20000FEC100000C948041FA
:10006000FAC10000F8C10000F6C10000F4C10000B0
:10007000F2C10000F0C10000EEC10000ECC10000C0
:10008000EAC10000E8C10000E6C10000E4C10000D0
:10009000E2C10000E0C10000F8362237DB39323718
:1000A00030372C372A372E37133715371B370A3797
:1000B0008637DB391137123734379837B137423743
:1000C0004C37DB39DB39DB39B9377C373E374037E2
:1000D0006437DB39CB37CD37D637D837DF37E7371B
:1000E000E837EF37F137F337F537FD37FE370638A6
:1000F000DB39DB39DB39DB3948394A3962395A397E
:1001000051397639633965396739683974397E39D7
:10011000DB39DB39DB39DB390E38183827382F3833
:1001200037383E3855385F386E38783887389138E8
:100130009938A138AA38B2381438BA38EE38F038BD
:10014000F438FB380339153917391939DB39DB39FC
:10015000DB39DB39DB39DB39C138C538D138D83840
:10016000C938CD38DF38E138E338E538E738E838E2
:10017000E938EA38EB38ED38233925392D39353966
:1001800037393F394039DB39DB39DB39DB39DB39AA
:10019000DB39DB39DB39DB39DB39DB39DB39DB39BF
:1001A000DB39DB39DB39DB39DB39DB39DB39DB39AF
:1001B000DB39DB39DB39DB39863988398F399739D7
:1001C00099399B399D399F39A139DB39DB39DB39C5
:1001D000DB39DB39DB39DB39A939B039B739B93922
:1001E000BB39BD39DB39DB39DB39DB39DB39DB39AD
:1001F000DB39DB39DB39DB39CF37D237D537DB3980
:10020000DB39DB39DB39DB39DB39DB39DB39DB394E
:10021000DB39DB39DB39DB39BF39C139C839CF3993
:10022000D039D239D93900C20100010005000500DA
:10023000030000E1000001000F000F000D00009618
:100240000000020019001A001700127A00000700CF
:10025000200021001D00807000000B0023002300FF
:100260002000004B000014003700370034004038F5
:1002700000001E004B004B004800802500003200AB
:10028000720072007000C01200006E00E900E90008
:10029000E60060090000E500D801D801D501B004EE
:1002A0000000D301B403B403B10358020000B40347
:1002B0006707670762072C0100006707DD0EDD0E88
:1002C000DA0E0129022904290829102920294029A8
:1002D0008029012C022C012602260426082610263D
:1002E000202640268026402C802C01230223042334
:1002F00008231023202340238023012002200420F0
:1003000008201020202040208020102C202C012F9D
:10031000022F042F082F102F202F402F802F7EFE1A
:100320007EFD7EFB7EF77EEF7EDF7EBF7E7F00015F
:100330000000DF0312000200009C034300030000E2
:10034000980304010309047E0318020309046603E9
:10035000160303090458030C0C0331003200330068
:100360003400350000001603550053004200200001
:10037000530065007200690061006C000000180302
:100380005400650065006E0073007900640075001C
:1003900069006E006F0000000403090409024300B5
:1003A000020100C03209040000010202010005241C
:1003B00000100105240100010424020605240600A2
:1003C000010705820308004009040100020A000039
:1003D00000070503024000000705840240000012E8
:1003E00001000202000020C0168304720201020311
:1003F000010001C102018036018136007E17ED4502
:10040000931711241FBECFEFD0E2DEBFCDBF11E0A6
:10041000A0E0B1E0E2E4F3E900E00BBF02C0079026
:100420000D92A43CB107D9F726E0A4ECB1E001C0DD
:100430001D92AA34B207E1F711E0C0E0D2E004C097
:100440002197FE010E945246CE3FD107C9F70E9474
:100450003E3E0C949549D4CDFB0101900020E9F774
:100460003197AF01461B570BDC01ED91FC910280E7
:10047000F381E02D09940F931F93CF93DF93EC0149
:10048000EBDF8C01CE010E94803C800F911FDF9139
:10049000CF911F910F910895CF93DF931F92CDB706
:1004A000DEB76983DC01ED91FC910280F381E02DE0
:1004B00041E050E0BE016F5F7F4F09950F90DF91E3
:1004C000CF91089540E052EC61E070E08EE396E059
:1004D0000E94854511B814B817B81AB81DB810BADB
:1004E0008DB184688DB97298779A64EF71E080E07D
:1004F00090E00E94C041779864EF71E080E090E066
:100500000E94C041779A64EF71E080E090E00E9421
:10051000C041779808958FEF84B987B981B98DB1BB
:100520008F608DB98EB18F608EB964EF71E080E01D
:1005300090E00C94C0410F931F932FEF24B927B97B
:1005400021B9DC01CB01B695A7959795879585B91B
:10055000092F1A2F2B2F332708B9CD01AA27BB2724
:1005600082B9729815B818B814B817B87198000005
:1005700000000000000026B183B1719A729A90E0E9
:10058000922B1F910F9108950F931F932FEF24B972
:1005900027B921B9DC01CB01B695A7959795879529
:1005A00085B9092F1A2F2B2F332708B9CD01AA2778
:1005B000BB2782B972980000000045B958B97098FD
:1005C00000000000709A729A1F910F9108952FEF0A
:1005D00024B927B911B865B9BB27A92F982F872F40
:1005E00088B97198739800000000000000000000B6
:1005F00000000000000080B1739A719A08952FEFF7
:1006000024B927B921B965B9BB27A92F982F872FFE
:1006100088B942B90000000000000000000000009E
:1006200000000000709873980000000000000000B7
:10063000000000000000000000000000739A709AA3
:1006400000000000000000000000000000000000AA
:1006500008950F931F93CF93DF934AEA50E06AEA1D
:100660007AE080E090E090DF45E550E065E575E0F8
:1006700080E090E089DF40E950E06AEA7AE080E0DB
:1006800090E082DF00000000000060E070E0CB013D
:1006900052DF082F62E070E080E090E04CDF182F1E
:1006A0006CE170E080E090E046DFD82F6EE170E012
:1006B00080E090E040DFC82F68EE73E080E090E0DB
:1006C0000E94C041602F8EE396E0E6DE612F8EE34C
:1006D00096E0E2DE6D2F8EE396E0DEDE6C2F8EE399
:1006E00096E0DADE40EF50E06AEA7AE080E090E0FF
:1006F0004BDF000000000000DF91CF911F910F91B0
:100700000895739A8FEF84B987B98DB18F608DB9D1
:100710008EB187608EB9739A11B860E971E080E09C
:1007200090E00C94C04185B998B900000000000029
:1007300000008EB1897F8EB900000000000000002B
:1007400080B19EB196609EB90000000000000000DC
:10075000089585B998B962B9000000000000000052
:1007600070980000000000000000709A0000000077
:1007700000000000089585B998B962B9729A000026
:100780000000000000007298000070980000000057
:1007900000000000709A0000729A00000000000043
:1007A0000000089587E491E0BEDF90E09093D503C8
:1007B0008093D40388E491E0B6DF90E0A0E0B0E05D
:1007C0008093D0039093D103A093D203B093D3032B
:1007D00089E491E0A8DF90E09093D7038093D6035B
:1007E00022E030E03093C8032093C7034091D00348
:1007F0005091D1036091D2037091D30341155105FB
:100800006105710549F002C0220F331F4A95E2F7D6
:100810003093C8032093C7031092CA031092C903F0
:100820006091D4037091D5036630710531F421E0F5
:1008300030E03093CA032093C9038230910539F424
:1008400021E030E03093CA032093C90319C08330FC
:10085000910519F424E030E00BC08430910519F4BF
:1008600020E130E005C08530910551F428E030E00A
:100870003093CA032093C9036630710591F403C015
:100880006630710531F42FEF31EA3093C6032093BF
:10089000C5038130910519F48FEF97EA04C00297E0
:1008A00034F08FEF9FEB9093C6038093C5038EE3E4
:1008B00096E0F2DD6091D0038EE396E0EDDD60918D
:1008C000D6038EE396E0E8CDFF920F931F93CF936C
:1008D000DF93CFEFC1B960E080E090E33ADF64E6F8
:1008E00070E080E090E00E94C04160E080E090E233
:1008F00030DF64E670E080E090E00E94C0416AEA88
:100900008AEA9AE026DF65E585E595E022DF60E981
:100910008AEA9AE01EDF00000000000011B880E0C3
:1009200090E001DFF82E82E090E0FDDE082F8CE100
:1009300090E0F9DE182F8EE190E0F5DED82F6F2DD4
:100940008EE396E0A9DD602F8EE396E0A5DD612FB2
:100950008EE396E0A1DD6D2F8EE396E09DDDC1B9BB
:1009600060EF85E595E0DF91CF911F910F91FF90AA
:10097000F0CE8FEF81B960E080E090E3EADE64E6DC
:1009800070E080E090E00E94C04160E080E090E292
:10099000E0DE64E670E080E090E00E94C0416AEA38
:1009A0008AEA9AE0D6DE65E585E595E0D2DE60E884
:1009B0008AEA9AE0CEDE6AEA8AEA9AE0CADE65E569
:1009C00085E595E0C6DE60E18AEA9AE0C2DE11B80C
:1009D00080E090E0A8DE87FD0AC08EB180588EB915
:1009E00064EF71E080E090E00E94C041F1CF779821
:1009F00008958FEF84B915B887B918B881B18360AD
:100A000081B981B1886181B982B1836082B913985B
:100A1000149A0D9A159A0A9880E090E0A0E0B8E048
:100A20008093C1039093C203A093C303B093C40304
:100A30006CE271E080E090E00C94C041FC0128E0A1
:100A40000A9A808190E0880F892F881F990B892B43
:100A500009F425C0000000000000000000000A9812
:100A60000000000000000000000000000000000086
:100A70000000000000000000000000000000000076
:100A80000000000000000000000000000000000066
:100A900000000000000000000000000025C0000071
:100AA0000000000000000000000000000000000046
:100AB0000000000000000000000000000000000036
:100AC0000000000000000000000000000000000026
:100AD0000000000000000000000000000000000016
:100AE0000000000000000A98215069F0000000009A
:100AF00000000000000000000000000000008081F5
:100B0000880F80839DCF615011F0319698CF089562
:100B100000000000000000000A9A00000000000031
:100B200000000000000000000000000000000000C5
:100B30000000000000000A9808959C01E2E7F2E03E
:100B40008FE3029B03C08150E1F70895000000008D
:100B50000000000000000000000000000000000095
:100B60000000000000000000000000000000000085
:100B70000000000000000000000000000000000075
:100B8000000000000000000080B1847081932150BB
:100B9000310929F09FE30299D3CF9150E1F70895ED
:100BA0008FEF84B915B887B918B808951198000067
:100BB000000000000000000026B183B1119A00007F
:100BC00090E0922B08950F931F93CF93DF93CDB7AF
:100BD000DEB72B970FB6F894DEBF0FBECDBFF894EB
:100BE00094E09B878A8761E0CE010B9627DF61E066
:100BF000CE010A9623DF8CDF80E490E09EDF7894BC
:100C0000E2E7F2E080E090E061E070E02781298394
:100C100026812A8325812B8324812C8323812D8384
:100C200022812E8321812F8320812887DE01119646
:100C300020E030E040E05D91552339F08B01022E39
:100C400001C0000F0A94EAF7402B2F5F3F4F283076
:100C5000310589F7DC0123E0B695A7952A95E1F7E0
:100C6000AF5CBD4F4C93089638968034910571F671
:100C70002B960FB6F894DEBF0FBECDBFDF91CF919C
:100C80001F910F910895BC01660F771F20E030E09F
:100C900040E22617370731F092B1942792B92F5FBF
:100CA0003F4FF7CF0895CF93DF93D82FC8E00A9A2C
:100CB0008D2F90E0880F892F881F990B892B39F091
:100CC00082E090E0E0DF0A9886E090E006C086E0EF
:100CD00090E0D9DF0A9882E090E0D5DFDD0FC150C7
:100CE00031F7DF91CF9108950A9A82E090E0CBDF4F
:100CF0000A9884E090E0C7CF0F931F93CF9307E744
:100D000013E0C0E4029B04C081E090E0BCDFFACFB6
:100D100083E090E0B8DF80B182FB882780F9F8019A
:100D200081938F01029904C081E090E0ACDFFACF9B
:100D3000C15041F7CF911F910F9108950D9A159AC7
:100D40000A98779A80E593EC9EDF77980895CF9381
:100D5000DF93CDB7DEB727970FB6F894DEBF0FBE8F
:100D6000CDBF28E730E04EE66EE376E0CE01019697
:100D70000E94423DCE0101960E94333E6093DD0504
:100D80007093DE058093DF059093E005CE01019618
:100D90000E94783D27960FB6F894DEBF0FBECDBFF8
:100DA000DF91CF9108958F929F92AF92BF92CF9291
:100DB000DF92EF92FF92CBDF6AE070E080E090E09C
:100DC0000E94C0418090DD059090DE05A090DF0577
:100DD000B090E00521E0821A9108A108B108C12C69
:100DE000D12C7601C814D904EA04FB04B0F54AEA10
:100DF00050E06AEA7AE080E090E0C6DB45E550E04A
:100E000065E575E080E090E0BFDB40E850E06AEA2D
:100E10007AE080E090E0B8DB4AEA50E06AEA7AE003
:100E200080E090E0B1DB45E550E065E575E080E00D
:100E300090E0AADB40E350E0C701B601A5DBC701A3
:100E4000B60179DB8F679F6F0196C9F78EB1805825
:100E50008EB982E0E80EF11CC5CFFF90EF90DF90D5
:100E6000CF90BF90AF909F908F900895CF93DF93D6
:100E7000CDB7DEB727970FB6F894DEBF0FBECDBF54
:100E800028E730E04EE66EE376E0CE0101960E9460
:100E9000423DCE0101960E94333E6093E10570937E
:100EA000E2058093E3059093E405CE0101960E944C
:100EB000783D27960FB6F894DEBF0FBECDBFDF9109
:100EC000CF910895CF93DF93CDB7DEB727970FB6B5
:100ED000F894DEBF0FBECDBF28E730E04EE66EE3EC
:100EE00076E0CE0101960E94423DCE0101960E941D
:100EF000333E6093730370937403809375039093F0
:100F00007603CE0101960E94783D27960FB6F8949D
:100F1000DEBF0FBECDBFDF91CF9108958FEF84B9B3
:100F200087B981B980BB8DB18F6D8DB98EB18F645A
:100F30008EB96D9A749A77981AB808958EB18265B1
:100F40008EB908958EB18C608EB98D9A089565B969
:100F5000BB27A92F982F872F88B9749A4BB9000007
:100F60000000000000000000769800000000000073
:100F700000000000769A0000000000000000000061
:100F8000089565B9BB27A92F982F872F88B900002E
:100F90000000000000000000749800000000000045
:100FA0000000000089B1749A0000000000000000F9
:100FB0000000089562B9BB27A92F982F872F81BB06
:100FC0008D984BB9729A00000000000000000000EC
:100FD000739800000000000000000000739A8D9AD2
:100FE00000000000000000000000089562B9BB2767
:100FF000A92F982F872F81BB8D98739A000000002E
:1010000000000000000072980000000000000000D6
:10101000000089B1729A8D9A000000000000000063
:1010200000000895709A0000000000007098000011
:1010300000000000749A08950F931F931AB865B9C1
:10104000072F182F292F332708B9611570488105FC
:10105000910508F07498709A0000000000000000EC
:1010600089B17098749A9FEF9AB91F910F91089562
:101070000F931F9365B9072F182F292F332708B90E
:1010800071982FEF2AB94BB9000000000000000052
:101090000000769800000000000000000000769A32
:1010A000000000000000000000006115704881058C
:1010B000910508F07498709A00000000000000008C
:1010C0007098749A719A1AB81F910F91089565B922
:1010D000BB27A92F982F872F88B971988FEF8AB9CE
:1010E0004BB9749A709A00000000000000000000E4
:1010F00000000000000000007098749A719A1AB8FD
:10110000089582B991BB8D988FEF8AB96BB9729AA5
:10111000000073980000739A8D9A1AB8089582B9E6
:1011200091BB739A0000000000000000000072985C
:101130000000000000000000000089B1729A000069
:1011400000000000000000000895CF92DF92EF92AF
:10115000FF92CF936B017C01C42F64DFC5B8CD2C07
:10116000DE2CEF2CFF24C8B871988FEF8AB9CBB969
:101170007498709A00000000000000007098749A43
:10118000719A1AB8CF91FF90EF90DF90CF904ACF2D
:1011900040E461E070EA80E090E0D7DF40E060E0AA
:1011A00070EA80E090E0D1DF40E060E070E880E04D
:1011B00090E0CBDF40E061E070E880E090E0C5DFE8
:1011C00041E060E070E880E090E0BFDF42E061E095
:1011D00070E880E090E0B9DF42E060E070E880E035
:1011E00090E0B3DF45E161E070E880E090E0ADDFE2
:1011F00043E060E070E880E090E0A7DF45E161E077
:1012000070E880E090E0A1DF44E060E070E880E01A
:1012100090E09BDF4AE061E070E880E090E095DFDD
:1012200045E060E070E880E090E08FDF4AE061E058
:1012300070E880E090E089DF46E060E070E880E000
:1012400090E083DF40E061E070E880E090E07DDFE7
:1012500047E060E070E880E090E077DF41E061E047
:1012600070E880E090E071DF40E060E070E880E0EE
:1012700090E06BCFD7DE40E860E070E880E090E07F
:10128000F7DED0CECF92DF92EF92FF921F93CF93F3
:10129000DF936B017C01142FC5E0D0E0C701B601DC
:1012A000CBDE412FC701B601E3DE16952197B1F7DA
:1012B000DF91CF911F91FF90EF90DF90CF90089535
:1012C00060E070E880E090E0B7DE40E860E070E861
:1012D00080E090E0CDDE40E160E070E880E090E00A
:1012E000D1DF40E160E070EE80E090E0CBDF42E1F2
:1012F00060E070EA80E090E0C5DF45E160E070EC1E
:1013000080E090E0BFCF9FEF9AB98BB97198749A43
:101310007498719A9AB90895CF93DF93CFEFCAB9B1
:101320004AEA65E575E580E090E011DE45E56AEAA8
:101330007AE280E090E00BDE40E965E575E580E06B
:1013400090E005DE0000000000001AB860E070E0E8
:10135000CB0117DE61E070E080E090E012DED82F74
:1013600068EE73E080E090E00E94C0416D2F8EE354
:1013700096E092D8CAB94AEA65E575E580E090E062
:10138000E6DD45E56AEA7AE280E090E0E0DD40EF04
:1013900065E575E580E090E0DADD00000000000022
:1013A0001AB8DF91CF910895CF93DF9380E090E05A
:1013B000AADF80E090E0A7DF80E090E0A4DFCFEF3D
:1013C000CAB9469A4AEA65E575E580E090E0BFDD76
:1013D000469845E56AEA7AE280E090E0B8DD469A10
:1013E00040E965E575E580E090E0B1DD00000000D2
:1013F00000001AB860E070E0CB01C3DD61E070E08E
:1014000080E090E0BEDDD82F68EE73E080E090E0F1
:101410000E94C0416D2F8EE396E03ED8CAB9469A2D
:101420004AEA65E575E580E090E091DD469845E59E
:101430006AEA7AE280E090E08ADD469A40EF65E56C
:1014400075E580E090E083DD0000000000001AB840
:10145000DF91CF910895CF93DF93CFEFCAB940E1E9
:1014600060E070E880E090E00DDF40E160E070EE69
:1014700080E090E007DF40E160E070E880E090E02D
:1014800001DF4AEA65E575E580E090E0F1DD45E5DC
:101490006AEA7AE280E090E0EBDD40E965E575E537
:1014A00080E090E0E5DD0000000000001AB860E098
:1014B00070E0CB0166DD61E070E080E090E061DD2E
:1014C000D82F68EE73E080E090E00E94C0416D2F5D
:1014D0008EE396E00E944C02CAB94AEA65E575E5DA
:1014E00080E090E0C5DD45E56AEA7AE280E090E0E0
:1014F000BFDD40EF65E575E580E090E0B9DD000017
:10150000000000001AB8DF91CF910895CF93DF93C8
:10151000CFEFCAB93DDE4AEA65E575E580E090E0C7
:10152000A7DD45E56AEA7AE280E090E0A1DD40E9E6
:1015300065E575E580E090E09BDD000000000000BF
:101540001AB860E070E0CB011CDD61E070E080E083
:1015500090E017DDD82F68EE73E080E090E00E9405
:10156000C0416D2F8EE396E00E944C02CAB94AEA50
:1015700065E575E580E090E07BDD45E56AEA7AE2C5
:1015800080E090E075DD40EF65E575E580E090E096
:101590006FDD0000000000001AB8DF91CF910895C0
:1015A000CF93DF93CFEFCAB9F3DD4AEA6AEA7AE074
:1015B00080E090E05DDD45E565E575E080E090E088
:1015C00057DD40E96AEA7AE080E090E051DD000012
:1015D000000000001AB860E070E0CB01D2DC62E0ED
:1015E00070E080E090E0CDDCD82F68EE73E080E022
:1015F00090E00E94C0416D2F8EE396E00E944C0265
:10160000CAB94AEA6AEA7AE080E090E031DD45E56D
:1016100065E575E080E090E02BDD40EF6AEA7AE076
:1016200080E090E025DD0000000000001AB8DF91A6
:10163000CF91089587DC8FEF8AB94AEA65E575E5B1
:1016400080E090E084DC45E56AEA7AE280E090E0C0
:101650007EDC40E865E575E580E090E078DC4AEA0C
:1016600065E575E580E090E072DC45E56AEA7AE2DE
:1016700080E090E06CDC40E165E575E580E090E0BD
:1016800066DC64E670E080E090E00E94C0411AB839
:1016900060E070E0CB0175DC87FD0AC08EB1805838
:1016A0008EB964EF71E080E090E00E94C041F0CF1D
:1016B0007798089543DC8FEF8AB94AEA65E575E5C6
:1016C00080E090E077DC45E56AEA7AE280E090E04D
:1016D00071DC40E865E575E580E090E06BDC4AEAA6
:1016E00065E575E580E090E065DC45E56AEA7AE26B
:1016F00080E090E05FDC40E165E575E580E090E04A
:1017000059DC64E670E080E090E00E94C0411AB8C5
:1017100060E070E0CB016ADC87FD0EC08EB18058BE
:101720008EB964EF71E080E090E00E94C04160E01B
:1017300070E0CB0126DCF0CF779808958FEF8AB95F
:10174000FDDB82E090E0DFDD82E090E0DCDD82E046
:1017500090E0D9DD6AEA85E595E1D3DC81E090E0AF
:10176000D2DD81E090E0CFDD81E090E0CCDD65E589
:101770008AEA9AE0C6DC82E090E0C5DD82E090E093
:10178000C2DD82E090E0BFDD60E885E595E1B9DC8F
:1017900082E090E0B8DD82E090E0B5DD82E090E0AC
:1017A000B2DD6AEA85E595E1ACDC81E090E0ABDD95
:1017B00081E090E0A8DD81E090E0A5DD65E58AEAC2
:1017C0009AE09FDC82E090E09EDD82E090E09BDD8D
:1017D00082E090E098DD60E185E595E192DC80E0D3
:1017E00090E091DD80E090E08EDD80E090E08BDDA8
:1017F00064E670E080E090E00E94C0419FDB1AB890
:1018000060E070E0CB01F2DB87FD0AC08EB180584A
:101810008EB964EF71E080E090E00E94C041F0CFAB
:101820007798089580E090E06EDD80E090E06BDDD9
:1018300080E090E068DD8FEF8AB9469A4AEA65E574
:1018400075E580E090E083DB469845E56AEA7AE258
:1018500080E090E07CDB469A40E865E575E580E055
:1018600090E075DB469A4AEA65E575E580E090E030
:101870006EDB469845E56AEA7AE280E090E067DB55
:10188000469A40E165E575E580E090E060DB64E65E
:1018900070E080E090E00E94C0411AB860E070E023
:1018A000CB016FDB87FD0AC08EB180588EB964EF23
:1018B00071E080E090E00E94C041F0CF089542DBEB
:1018C0008FEF8AB94AEA65E575E580E090E0D0DB04
:1018D00045E56AEA7AE280E090E0CADB40E865E547
:1018E00075E580E090E0C4DB4AEA65E575E580E0F7
:1018F00090E0BEDB45E56AEA7AE280E090E0B8DBA2
:1019000040E165E575E580E090E0B2DB64E670E01B
:1019100080E090E00E94C0411AB860E070E0CB0126
:1019200030DB87FD0AC08EB180588EB964EF71E05C
:1019300080E090E00E94C041F0CF77980895FEDAF1
:101940008FEF8AB94AEA65E575E580E090E032DB21
:1019500045E56AEA7AE280E090E02CDB40E865E564
:1019600075E580E090E026DB4AEA65E575E580E014
:1019700090E020DB45E56AEA7AE280E090E01ADB5D
:1019800040E165E575E580E090E014DB64E670E039
:1019900080E090E00E94C0411AB860E070E0CB01A6
:1019A00025DB87FD0AC08EB180588EB964EF71E0E7
:1019B00080E090E00E94C041F0CF77980895C2DAAD
:1019C0008FEF8AB946E060E070E880E090E0BDDB30
:1019D00040E061E070E880E090E0B7DB47E060E085
:1019E00070E880E090E0B1DB41E061E070E880E029
:1019F00090E0ABDB4AEA65E575E580E090E038DB36
:101A000045E56AEA7AE280E090E032DB40E865E5AD
:101A100075E580E090E02CDB4AEA65E575E580E05D
:101A200090E026DB45E56AEA7AE280E090E020DBA0
:101A300040E165E575E580E090E01ADB64E670E082
:101A400080E090E00E94C0411AB860E070E0CB01F5
:101A500098DA87FD0AC08EB180588EB964EF71E0C4
:101A600080E090E00E94C041F0CF40E060E070E88C
:101A700080E090E06ADB7798089564DA8FEF8AB9A6
:101A800046E060E070E880E090E05FDB40E061E02D
:101A900070E880E090E059DB47E060E070E880E0CB
:101AA00090E053DB41E061E070E880E090E04DDBE6
:101AB0004AEA6AEA7AE080E090E0DADA45E565E54C
:101AC00075E080E090E0D4DA40E86AEA7AE080E00D
:101AD00090E0CEDA4AEA6AEA7AE080E090E0C8DA9A
:101AE00045E565E575E080E090E0C2DA40E16AEA4C
:101AF0007AE080E090E0BCDA64E670E080E090E0BC
:101B00000E94C0411AB860E070E0CB013ADA87FD6C
:101B10000AC08EB180588EB964EF71E080E090E029
:101B20000E94C041F0CF40E060E070E880E090E0CB
:101B30000CDB7798089502DA8FEF8AB94AEA65E5F7
:101B400075E180E090E036DA45E56AEA7AE180E026
:101B500090E030DA40E865E575E180E090E02ADA6F
:101B60004AEA65E575E180E090E024DA45E56AEA55
:101B70007AE180E090E01EDA40E165E575E180E021
:101B800090E018DA64E670E080E090E00E94C041E6
:101B90001AB860E070E0CB0129DA87FD0AC08EB187
:101BA00080588EB964EF71E080E090E00E94C041FF
:101BB000F0CF77980895C2D98FEF8AB9759A6AEAFB
:101BC00085E595E19EDA65E58AEA9AE09ADA60E8C9
:101BD00085E595E196DA6AEA85E595E192DA65E5CB
:101BE0008AEA9AE08EDA60E185E595E18ADA64E6D0
:101BF00070E080E090E00E94C041759A1AB880E0E1
:101C000090E08DDA87FD0AC08EB180588EB964EFFE
:101C100071E080E090E00E94C041F1CF7798089594
:101C2000CF93DF93CDB7DEB727970FB6F894DEBF1B
:101C30000FBECDBF28E730E04EE66EE376E0CE0182
:101C400001960E94423DCE0101960E94333E709360
:101C5000E6056093E505CE0101960E94783D279642
:101C60000FB6F894DEBF0FBECDBFDF91CF910895C0
:101C7000CF93DF93CDB7DEB727970FB6F894DEBFCB
:101C80000FBECDBF28E730E04EE66EE376E0CE0132
:101C900001960E94423DCE0101960E94333E709310
:101CA0002B0260932A02CE0101960E94783D27966E
:101CB0000FB6F894DEBF0FBECDBFDF91CF91089570
:101CC000CF93DF93CDB7DEB727970FB6F894DEBF7B
:101CD0000FBECDBF28E730E04EE66EE376E0CE01E2
:101CE00001960E94423DCE0101960E94333E6093D0
:101CF0002602709327028093280290932902CE0136
:101D000001960E94783D27960FB6F894DEBF0FBE6D
:101D1000CDBFDF91CF910895CF93DF93CDB7DEB7DD
:101D200027970FB6F894DEBF0FBECDBF28E730E08F
:101D30004EE66EE376E0CE0101960E94423DCE0172
:101D400001960E94333E6093220270932302809397
:101D5000240290932502CE0101960E94783D279699
:101D60000FB6F894DEBF0FBECDBFDF91CF910895BF
:101D7000CF93DF93CDB7DEB727970FB6F894DEBFCA
:101D80000FBECDBF28E730E04EE66EE376E0CE0131
:101D900001960E94423DCE0101960E94333E60931F
:101DA0001E0270931F028093200290932102CE01A5
:101DB00001960E94783D27960FB6F894DEBF0FBEBD
:101DC000CDBFDF91CF910895CF93DF93CDB7DEB72D
:101DD00027970FB6F894DEBF0FBECDBF28E730E0DF
:101DE0004EE66EE376E0CE0101960E94423DCE01C2
:101DF00001960E94333E60931A0270931B028093F7
:101E00001C0290931D02CE0101960E94783D2796F8
:101E10000FB6F894DEBF0FBECDBFDF91CF9108950E
:101E20008FEF8AB980BB81B98DB18D638DB9699A05
:101E3000689814B817B88EB18C638EB9719868EC35
:101E400070E080E090E00C94C0418FEF84B987B9D6
:101E5000089514B817B80895CF92DF92EF92FF92C9
:101E6000CF93DF936B017C01D42FC52FEEDFCBB86E
:101E7000BB27AF2D9E2D8D2D81BB6701EE24FF2446
:101E8000C2B8D5B9C8B900007398000074980000B2
:101E90000000000000000000749A0000739A000027
:101EA0000000DF91CF91FF90EF90DF90CF90D1CFE6
:101EB000CF92DF92EF92FF926B017C01CADFCBB829
:101EC000BB27AF2D9E2D8D2D81BB6701EE24FF24F6
:101ED000C2B8000073987298000000000000000073
:101EE0000000000026B183B1729A739A000090E05E
:101EF000922BFF90EF90DF90CF900895CF93DF93D8
:101F0000D82FC92F0E94D005D5B9C8B900001098A4
:101F100000000000000000000000109A0000000017
:101F2000DF91CF9196CFCF92DF92EF92FF926B012C
:101F30007C010E94D005C701AA27BB2722B12360DC
:101F400022B9139A0000149A85B9892F992788B964
:101F500000001498C5B8CD2CDD24C8B800000000DE
:101F600013980000000000000000000000000000C6
:101F7000000000000000FF90EF90DF90CF9069CF4D
:101F8000D2DF80EF90E0BADF64E670E080E090E0BE
:101F90000C94C0411F93CF93DF931092BD03109216
:101FA000BE031092BF031092C00380910101909173
:101FB0000201A0910301B0910401BC01CD0166555D
:101FC000754F8F4F9F4FAFDF8AEA90E097DF809188
:101FD000010190910201A0910301B0910401BC01A3
:101FE000CD016C5A7A4F8F4F9F4F9DDF85E590E072
:101FF00085DF8091010190910201A0910301B091D0
:102000000401BC01CD016655754F8F4F9F4F8BDF8B
:1020100080E990E073DF609101017091020180918D
:102020000301909104017FDF0E94D6059F938F9357
:102030008AE291E09F938F9388EB93E09F938F9335
:102040000E94BA460E94D6059F938F93CFE2D1E0BB
:10205000DF93CF9387EE95E09F938F930E94BA46CC
:102060008091010190910201A0910301B0910401BE
:10207000BC01CD01645E7F4F8F4F9F4F54DF0E94A4
:10208000D605182F0E94D60520E030E0282B1F939C
:102090002F93DF93CF938BEC93E09F938F930E94CA
:1020A000BA4668EB73E08EE396E00E942C0264E38C
:1020B00071E08EE396E00E942C0267EE75E08EE3FD
:1020C00096E00E942C0264E371E08EE396E00E94A9
:1020D0002C026BEC73E08EE396E00E942C0264E32A
:1020E00071E08EE396E00E942C028DB79EB7429677
:1020F0000FB6F8949EBF0FBE8DBF60910101709125
:1021000002018091030190910401DF91CF911F9111
:1021100037CF4F925F926F927F928F929F92AF9242
:10212000BF92CF92DF92EF92FF9280900101909048
:102130000201A0900301B0900401C12CD12C7601C2
:10214000240135012AEA420E2AE0521E611C711C4C
:1021500084E5880E85E0981EA11CB11C8091D903EE
:102160009091DA03A091DB03B091DC03C816D90685
:10217000EA06FB0608F04CC08EB180588EB9C30148
:10218000B201D1DE8AEA90E0B9DEC501B401CBDE4E
:1021900085E590E0B3DEC301B201C5DE80E890E0E2
:1021A000ADDEC301B201BFDE8AEA90E0A7DEC50161
:1021B000B401B9DE85E590E0A1DE80910101909146
:1021C0000201A0910301B0910401BC01CD016C0D8D
:1021D0007D1D8E1D9F1DA7DE80E390E08FDE809128
:1021E000010190910201A0910301B0910401BC0191
:1021F000CD016C0D7D1D8E1D9F1D95DE0E94D605A7
:102200008F679F6F019659F782E0E80EF11CA6CF09
:102210007798FF90EF90DF90CF90BF90AF909F9016
:102220008F907F906F905F904F900895CF92DF9244
:10223000EF92FF926B017C0160E070E081E098E03A
:1022400072DEC7015BDEC601FF90EF90DF90CF909A
:1022500055CE60E070E080E092EDE8DF65E070E090
:1022600080E090E00E94C04160E070E080E092ED8C
:10227000DDDF65E070E080E090E00E94C04160E05A
:1022800070E080E091EED2DF65E070E080E090E009
:102290000C94C041DF92EF92FF920F931F93CF9364
:1022A000DF93CDB7DEB768970FB6F894DEBF0FBEE9
:1022B000CDBFD82E88E0E2E1F1E0DE015196019039
:1022C0000D928A95E1F788E0EAE1F1E0DE011996E6
:1022D00001900D928A95E1F788E0E2E2F1E0DE01FB
:1022E000119601900D928A95E1F760E070E080E030
:1022F00091EE9CDF61E070E080E090E00E94C041E0
:1023000060E070E080E098E00EDE0DED13E0780113
:102310000E94D605D7019C9311968C93B2E0EB0EE8
:10232000F11CE5EEEE16E3E0FE0691F7F2E0DF12B7
:1023300010C0FE0171969E01275E3F4F80E04191E3
:10234000D8019D918D01491381E0E217F307B9F798
:1023500029C0B1E0DB1225C080912C0281110FC091
:10236000FE0139969E012F5E3F4F4191D8019D910C
:102370008D01491381E0E217F307B9F713C08130EB
:1023800081F4FE0131969E01275F3F4F80E041912D
:10239000D8019D918D01491381E0E217F307B9F748
:1023A00001C080E068960FB6F894DEBF0FBECDBFC7
:1023B000DF91CF911F910F91FF90EF90DF900895E3
:1023C000CF92DF92EF92FF9244DF8FE7C82ED12C9D
:1023D000E12C8BE4F82EC701B60128DF6AE070E03B
:1023E00080E090E00E94C04160E070E080E098E70B
:1023F0001DDF6AE070E080E090E00E94C04160E094
:1024000070E080E092ED12DF8091000143DF8823CD
:1024100039F061E070E080E090E00E94C041F4CFCC
:1024200080E8C80ED11CE11CF11C8FE7C81684E0BF
:10243000D806E1048BE4F80671F6FF90EF90DF9088
:10244000CF9008954F925F926F927F928F929F925A
:10245000AF92BF92CF92DF92EF92FF920F931F93B2
:10246000CF93DF93C82F10922D0210922E0210925C
:102470002F0210923002823031F400E810E090E434
:10248000492E512C05C000E012E0412C82E0582E6C
:1024900060E070E080E090EFC9DEC090C103D090B2
:1024A000C203E090C303F090C4032C2F30E040E05F
:1024B00050E060E070E082E090E00E943646490122
:1024C0005A01052C000C660877088091C103909191
:1024D000C203A091C303B091C403880D991DAA1D26
:1024E000BB1DC816D906EA06FB06A0F5C701B60152
:1024F0001ADDCDEDD3E00E94D6059883898322961C
:10250000CE018D5D934080179107ACF340912D0271
:1025100050912E0260912F0270913002EDEDF3E0A8
:1025200081918F3F21F04F5F5F4F6F4F7F4FCF0102
:102530008D5D9340801791079CF340932D0250933B
:102540002E0260932F0270933002C40CD51CE61C3F
:10255000F71CBBCF60912D0270912E0280912F024B
:1025600090913002DF91CF911F910F91FF90EF90EA
:10257000DF90CF90BF90AF909F908F907F906F90A3
:102580005F904F9008950F931F93CF93DF9360E078
:1025900070E080E091EE4ADE6AE070E080E090E07A
:1025A0000E94C04160E070E080E098E0BCDC0DED8E
:1025B00013E0E8010E94D60598838983229683E080
:1025C000C53ED807B9F78091E4038E3121F482E04B
:1025D000809300011BC08D3131F481E080930001B4
:1025E00010922C0213C0813F61F0F80161918F01BC
:1025F0008EE396E00E944C02F3E0053E1F07A9F728
:1026000005C081E08093000180932C02DF91CF917F
:102610001F910F9108950F931F93CF93DF934AEA71
:1026200050E065E575E080E090E016DC45E550E0BF
:102630006AEA72E080E090E00FDC40E950E065E596
:1026400075E080E090E008DC00000000000060E041
:1026500070E0CB012DDC082F61E070E080E090E0BD
:1026600027DC182F6EE070E080E090E021DCD82FAE
:102670006FE070E080E090E01BDCC82F68EE73E054
:1026800080E090E00E94C041602F8EE396E00E94BF
:102690004C02612F8EE396E00E944C026D2F8EE378
:1026A00096E00E944C026C2F8EE396E00E944C0252
:1026B00040EF50E065E575E080E090E0CDDB0000A4
:1026C00000000000DF91CF911F910F9108954AEA19
:1026D00050E065E575E080E090E0BEDB45E550E068
:1026E0006AEA72E080E090E0B7DB40E850E065E540
:1026F00075E080E090E0B0DB4AEA50E065E575E027
:1027000080E090E0A9DB45E550E06AEA72E080E015
:1027100090E0A2DB40E150E065E575E080E090E00C
:102720009BDB60E070E0CB01C3DB8F679F6F01969E
:1027300051F08EB180588EB968EC70E080E090E086
:102740000E94C041EECF77980895CF93DF9368ED54
:1027500070E080E090E0ACDB8134924541F469EDBB
:1027600070E080E090E0A4DB8032984F09F1109295
:102770000D0210920C0210920E0210920F02109293
:1027800010021092110240910E0250910F026091BE
:1027900010027091110220E08EE396E00E949A3CB4
:1027A00064E371E08EE396E0DF91CF910C942C020C
:1027B0006AED70E080E090E07BDBEC016BED70E0B7
:1027C00080E090E075DBAC01CE01A0E0B0E0DC0180
:1027D0009927882760E070E0842B952BA62BB72BD8
:1027E0008093160290931702A0931802B0931902D7
:1027F0006CED70E080E090E05BDBEC016DED70E093
:1028000080E090E055DBAC01CE01A0E0B0E0DC015F
:102810009927882760E070E0842B952BA62BB72B97
:102820008093120290931302A0931402B0931502A6
:10283000409116025091170260911802709119028E
:102840004130510520E26207710519F421E030E0C2
:1028500008C0411551056042710509F094CF22E08E
:1028600030E030930D0220930C028F5F9F4FAF41F9
:10287000B109B695A7959795879580930E02909389
:102880000F02A0931002B093110280E090E0A0E14B
:10289000B0E08093160290931702A0931802B093B1
:1028A000190271CFCF93C82FD0DAC8B9759800003C
:1028B00000000000000000000000759A0000000009
:1028C0000000000000000000CF91C3CA0F931F93C7
:1028D000CF93DF9362ED70E080E090E0E9DAEC0105
:1028E00063ED70E080E090E0E3DAAE0160E070E07C
:1028F000BA01552744278C0120E030E0402B512BB2
:10290000622B732B4F5F5F4F6F4F7F4F20E08EE343
:1029100096E00E949A3C64E371E08EE396E0DF91DA
:10292000CF911F910F910C942C02CF93DF93CDB7D1
:10293000DEB727970FB6F894DEBF0FBECDBF28E7EE
:1029400030E04EE66EE376E0CE0101960E94423D15
:10295000CE0101960E94333E6093D9037093DA034F
:102960008093DB039093DC03CE0101960E94783DB7
:1029700027960FB6F894DEBF0FBECDBFDF91CF9183
:102980000895CF92DF92EF92FF92CFDF6AE070E07E
:1029900080E090E00E94C041C12CD12C7601809152
:1029A000D9039091DA03A091DB03B091DC03B695D3
:1029B000A79597958795C816D906EA06FB06B0F540
:1029C0008EB180588EB94AEA50E065E575E080E046
:1029D00090E042DA45E550E06AEA72E080E090E09B
:1029E0003BDA40E850E065E575E080E090E034DAFD
:1029F0004AEA50E065E575E080E090E02DDA45E5D3
:102A000050E06AEA72E080E090E026DA40E350E0CD
:102A1000C701B60121DAC701B6014ADA8F679F6F95
:102A20000196C9F78FEFE81AF80AB9CF7798FF90A7
:102A3000EF90DF90CF9008958FEF8AB980BB84B973
:102A400091B19F6091B992B1966092B992B1967F1F
:102A500092B98DB9779817B808950F931F936BB9F2
:102A6000072F182F292F332701BBAA27BB2785B98A
:102A700048B90000000000000000129800000000AB
:102A80000000000000000000129A0000000000009A
:102A90000000000000001F910F9108950F931F93F5
:102AA0006BB9072F182F292F332701BBAA27BB2764
:102AB00085B900000000000000001198000000002F
:102AC000000000000000000086B1119A0000000024
:102AD00000000000000000001F910F91089585B9CB
:102AE0006BB971BB11980000000086B1119A00000B
:102AF000000000000895FF920F931F93CF93DF9380
:102B0000779ACFEFC7B94AEA6AEA7AE080E090E0C4
:102B1000A4DF45E565E575E080E090E09EDF40E9F3
:102B20006AEA7AE080E090E098DF17B860E070E051
:102B3000CB01B4DFF82E62E070E080E090E0AEDF21
:102B4000082F6CE170E080E090E0A8DF182F6EE1C4
:102B500070E080E090E0A2DFD82F68EE73E080E0C4
:102B600090E00E94C0416F2D8EE396E00E944C02DF
:102B7000602F8EE396E00E944C02612F8EE396E078
:102B80000E944C026D2F8EE396E00E944C02C7B962
:102B900040EF6AEA7AE080E090E05FDF7798DF91CB
:102BA000CF911F910F91FF9008958FEF87B94AEA57
:102BB0006AEA7AE080E090E050DF45E565E575E09F
:102BC00080E090E04ADF40E86AEA7AE080E090E066
:102BD00044DF4AEA6AEA7AE080E090E03EDF45E5D9
:102BE00065E575E080E090E038DF40E16AEA7AE090
:102BF00080E090E032DF17B860E070E0CB014EDF9C
:102C000087FD0AC08EB180588EB968EC70E080E014
:102C100090E00E94C041F0CF0895CF92DF92EF92F2
:102C2000FF92CF9382DE6AE070E080E090E00E9445
:102C3000C041C12CD12C7601CFEF8091D903909166
:102C4000DA03A091DB03B091DC03C816D906EA06CB
:102C5000FB0680F58EB180588EB9C7B94AEA6AEA98
:102C60007AE080E090E0F9DE45E565E575E080E03A
:102C700090E0F3DE40E86AEA7AE080E090E0EDDEA2
:102C80004AEA6AEA7AE080E090E0E7DE45E565E559
:102C900075E080E090E0E1DE40E3C701B601DDDEF3
:102CA00017B8C701B601FADE87FFFBCF82E0E80E56
:102CB000F11CC3CF7798CF91FF90EF90DF90CF902A
:102CC00008950E94A7066AE070E080E090E00E940C
:102CD000C0416091DD057091DE058091DF05909126
:102CE000E005DCDE682F8EE396E00C944C028FEF5B
:102CF00081B984B987B98DB18B628DB98EB18B6082
:102D00008EB975986F9A77981AB808950F931F9394
:102D100062B9072F182F292F332705B98C012227D5
:102D2000332708B9611571058840910510F0759A2F
:102D300001C075984BB900000000709800000000B9
:102D40000000000000000000709A00000000000079
:102D50000000000000001F910F9108950F931F9332
:102D600062B9072F182F292F332705B9AA27BB27A8
:102D700088B9000000007198000000000000000009
:102D80000000000089B1719A0000000000000000FE
:102D9000000000001F910F910895FF920F931F9361
:102DA000CF93DF93779ACFEFCAB94AEA6AEA7AE01B
:102DB00080E090E0ABDF45E565E575E080E090E020
:102DC000A5DF40E96AEA7AE080E090E09FDF1AB888
:102DD00060E070E0CB01C2DFF82E62E070E080E0DE
:102DE00090E0BCDF082F6CE170E080E090E0B6DF9F
:102DF000182F6EE170E080E090E0B0DFD82F68EE31
:102E000073E080E090E00E94C0416F2D8EE396E079
:102E10000E944C02602F8EE396E00E944C02612FCC
:102E20008EE396E00E944C026D2F8EE396E00E94A6
:102E30004C02CAB940EF6AEA7AE080E090E066DFCF
:102E40007798DF91CF911F910F91FF9008958FEFA9
:102E50008AB94AEA6AEA7AE080E090E057DF45E51D
:102E600065E575E080E090E051DF40E86AEA7AE0ED
:102E700080E090E04BDF4AEA6AEA7AE080E090E0A6
:102E800045DF45E565E575E080E090E03FDF40E146
:102E90006AEA7AE080E090E039DF1AB860E070E03A
:102EA000CB015CDF87FD0AC08EB180588EB964EF1C
:102EB00071E080E090E00E94C041F0CF08950E9450
:102EC000A7066AE070E080E090E00E94C0410E94A6
:102ED00036076AE070E080E090E00E94C0418FEF2A
:102EE0008AB96091DD057091DE058091DF059091D2
:102EF000E0054091E1050ADF1AB8089520E04FE1AE
:102F00006CE184EF91E00E949C3B20E042E26CE1A6
:102F10008CED91E00E949C3B20E045E26CE184EC6A
:102F200091E00C949C3B84EC91E00E94523C8CED2F
:102F300091E00E94523C84EF91E00C94523C8F92BD
:102F40009F92AF92BF92CF92DF92EF92FF92CF9378
:102F5000DF930E94A706C12CD12C76018091DD055C
:102F60009091DE05A091DF05B091E005C816D90665
:102F7000EA06FB06E8F4779ACDEDD3E04601570167
:102F80008EE396E00E9443448993482FC501B40123
:102F90000E94FF028FEF881A980AA80AB80A85E0F3
:102FA000CD3DD80769F782E0D80EE11CF11CD6CFE1
:102FB0007798DF91CF91FF90EF90DF90CF90BF9007
:102FC000AF909F908F9008950F931F93CF9364E6D7
:102FD00070E080E090E00E94C041779A11B884E3ED
:102FE00091E00E9493038FEF81B98091D403909177
:102FF000D50305972CF461E080E090E60E94A903D8
:103000006AE080E090E00E94A903C0E08C2F90E08D
:103010002091C9033091CA0382179307ECF46C2FF7
:1030200080E090E40E94A90300E010EA8091C503CB
:103030009091C6038017910768F08EE396E00E9496
:1030400043448093DD03682FC8010E94BB030F5FD8
:103050001F4FECCFCF5FDACF60E080E090E00E94BE
:10306000A90311B87798CF911F910F910895DF921E
:10307000EF92FF920F931F93CF93DF9356DC6AE09A
:1030800070E080E090E00E94C0416091D9038FEF32
:1030900081B9779A80E090E20E94A90360E080E025
:1030A00090E40E94A90300E010E4DD24DA94CDED61
:1030B000D3E0C8018D5D93407C018EE396E00E94D1
:1030C000434488836AEA8AEA9AE00E94A90365E594
:1030D00085E595E00E94A90360EA8AEA9AE00E94E9
:1030E000A9036881C7018C0F9D1F0E94A90311B815
:1030F0008EB1897F8EB9999180B1892787FDFCCFE8
:103100008EB186608EB9D1B895E0CD3DD907A9F6CC
:103110001E5F011580E8180751F611B87798DF9106
:10312000CF911F910F91FF90EF90DF900895DF9264
:10313000EF92FF920F931F93CF93DF93F6DB6AE03A
:1031400070E080E090E00E94C0416091D9038FEF71
:1031500081B9779A80E090E20E94A90360E080E064
:1031600090E40E94A9036AEA8AEA9AE00E94A9030D
:1031700065E585E595E00E94A90360E28AEA9AE0A8
:103180000E94A90300E010E4DD24DA94CDEDD3E041
:10319000C8018D5D93407C018EE396E00E9443441C
:1031A000888360EA8AEA9AE00E94A9036881C701DD
:1031B0008C0F9D1F0E94A90311B88EB1897F8EB913
:1031C000999180B1892787FDFCCF8EB186608EB939
:1031D000D1B895E0CD3DD907F9F61E5F011580E81D
:1031E0001807A1F660E985E595E00E94A90360E073
:1031F0008AEA9AE00E94A90311B87798DF91CF91EB
:103200001F910F91FF90EF90DF9008950F931F9300
:10321000CF93DF9300D0CDB7DEB785E08A8380916E
:10322000730389830DED13E08EE396E00E9443441F
:10323000F80181938F01F3E0053E1F07A9F7F89489
:1032400061E0CE0102960E941E0561E0CE0101966A
:103250000E941E0568E08DED93E00E941E050E940D
:10326000880578940F900F90DF91CF911F910F9167
:103270000895AF92BF92CF92DF92EF92FF920F9399
:103280001F93CF93DF93D0E010E03DEDA32E35E008
:10329000B32E412F50E060E070E080917303909175
:1032A0007403A0917503B091760326E0B695A795B7
:1032B000979587952A95D1F7481759076A077B078D
:1032C00088F58DEDE82E83E0F82E67018EE396E019
:1032D0000E944344F60181936F01AE16BF06B1F719
:1032E000F894C0E080E995E60E94430685E00E94DC
:1032F00053068D2F8C0F0E945306670108E0F601DC
:1033000081916F010E9453060150C9F70E94740613
:10331000CF5FF8E0EF0EF11CC03421F778941F5F07
:10332000D05CB7CFDF91CF911F910F91FF90EF90BD
:10333000DF90CF90BF90AF900895BF92CF92DF9271
:10334000EF92FF920F931F93CF93DF93C090C1032F
:10335000D090C203E090C303F090C4038091C103F6
:103360009091C203A091C303B091C4039058AF4F92
:10337000BF4FC816D906EA06FB0618F5C701B60105
:103380000E94930FCDEDD3E08EE396E00E9443447C
:10339000B82E88838EE396E00E94434489831B2DD8
:1033A00000E09801282BC9010E947E0F229634E08C
:1033B000CD31D30749F780E4C80ED11CE11CF11CC4
:1033C000CDCFDF91CF911F910F91FF90EF90DF90C4
:1033D000CF90BF9008954F925F926F927F929F928D
:1033E000AF92BF92CF92DF92EF92FF920F931F9313
:1033F000CF93DF930E94E0118091000123D8672BC7
:10340000682B692B61F067E371E08EE396E00E9420
:103410002C026EE371E08EE396E00E942C020E9483
:103420002911C12CD12C76012601370110E08EB173
:1034300080588EB960E070E080E094EB0E94161135
:1034400061E070E080E090E00E94C04160E070E0E8
:1034500080E098E00E94930FCDEDD3E000E08EE392
:1034600096E00E944344982E88838EE396E00E9463
:1034700043448983B92CA12C9501282BC9010E94B2
:103480007E0F0E5F2296003851F761E070E080E019
:1034900090E00E94C041C301B201956A0E941611DA
:1034A00061E070E080E090E00E94C04160E070E088
:1034B00080E092ED0E941611809100010E944A1155
:1034C000882339F061E070E080E090E00E94C04124
:1034D000F3CF1F5F3FEF431A530A630A730A103892
:1034E00009F0A5CF64E170E080E090E00E94C04167
:1034F00080E8C80ED11CE11CF11CC11424E0D206E6
:10350000E104F10409F090CF7798DF91CF911F91FA
:103510000F91FF90EF90DF90CF90BF90AF909F9072
:103520007F906F905F904F9008958EE396E00E9499
:1035300043448093D80308952F923F924F925F9215
:103540006F927F928F929F92AF92BF92CF92DF92B3
:10355000EF92FF920F931F93CF93DF93CDB7DEB718
:1035600061970FB6F894DEBF0FBECDBF809001010A
:1035700090900201A0900301B0900401D6DF6AE0B0
:1035800070E080E090E00E94C0410E94A7066AE0DF
:1035900070E080E090E00E94C0410E9436076AE03F
:1035A00070E080E090E00E94C041C090DD05D090C6
:1035B000DE05E090DF05F090E005A50194012655B9
:1035C000354F4F4F5F4F2B833C834D835E83D50137
:1035D000C4018C5A9A4FAF4FBF4F8F839887A987EA
:1035E000BA874091DD055091DE056091DF0570914D
:1035F000E0058091E1059091E205A091E305B0918D
:10360000E405840F951FA61FB71FC816D906EA0642
:10361000FB0608F03BC18EB180588EB9812C912CED
:10362000540100E010E06B817C818D819E810E94BD
:10363000930F8AEA90E00E947E0F6F8178858985DA
:103640009A850E94930F85E590E00E947E0F2801E5
:10365000012E000C6608770880910101909102010B
:10366000A0910301B09104018C0D9D1DAE1DBF1DE5
:10367000880D991DAA1DBB1DBC01CD01640D751DD2
:10368000861D971D0E94930F85E290E00E947E0F99
:103690008091010190910201A0910301B091040178
:1036A0008C0D9D1DAE1DBF1D880D991DAA1DBB1D36
:1036B000BC01CD01640D751D861D971D0E94930FE1
:1036C0008091D803869590E001970E947E0F1B861B
:1036D0002091D8039B859217B8F58EE396E00E945F
:1036E00043448C878093DD038EE396E00E9443443D
:1036F0008093DE03AC85AA83198229803A80282A28
:103700008091010190910201A0910301B091040107
:103710008C0D9D1DAE1DBF1D880D991DAA1DBB1DC5
:10372000840D951DA61DB71DBC01CD012B85620F13
:10373000711D811D911D0E94930FC1010E947E0F7A
:103740003B853E5F3B87C4CF409101015091020110
:1037500060910301709104014C0D5D1D6E1D7F1D74
:10376000480D591D6A1D7B1DDB01CA01840D951D85
:10377000A61DB71D8E879F87A88BB98B822F90E0DF
:103780000297092E000CAA0BBB0B2E853F8548899A
:103790005989280F391F4A1F5B1FCA01B9010E94AE
:1037A000930F89E290E00E947E0F4091D80350E091
:1037B00042505109052E000C660B770B80910101D8
:1037C00090910201A0910301B0910401840F951F13
:1037D000A61FB71F8C0D9D1DAE1DBF1D880D991D09
:1037E000AA1DBB1DBC01CD01640D751D861D971D55
:1037F0000E94930F0E94D605A1014F675F6F5D87FE
:103800004C878F679F6F4091D803AC85BD858A1721
:103810009B0731F150E042505109052E000C660B18
:10382000770B8091010190910201A0910301B09169
:103830000401840F951FA61FB71F8C0D9D1DAE1D83
:10384000BF1D880D991DAA1DBB1DBC01CD01640DB6
:10385000751D861D971D0E94930F0E94D605D1CF1E
:10386000040F111D0115B0E41B070CF4DCCE20E49D
:10387000920EA11CB11C8114910432E0A306B10484
:1038800009F0CFCE42E0E40EF11CABCE7798619602
:103890000FB6F894DEBF0FBECDBFDF91CF911F9161
:1038A0000F91FF90EF90DF90CF90BF90AF909F90DF
:1038B0008F907F906F905F904F903F902F900895E2
:1038C0008F929F92AF92BF92CF92DF92EF92FF9230
:1038D0001F93CF93DF930E94A2078FEF8AB9C12C69
:1038E000D12C76011FEFD701C6019770AA27BB27FD
:1038F000892B8A2B8B2B19F48EB180588EB9CDED84
:10390000D3E0460157018EE396E00E94434488834A
:103910004AEA65E575E580E090E00E94380845E5F3
:103920006AEA7AE280E090E00E94380840EA65E5C1
:1039300075E580E090E00E9438084881C501B40137
:103940000E9438081AB87498999189B1892787FD1F
:10395000FCCF749A1AB98FEF881A980AA80AB80A85
:1039600085E0CD3DD80779F682E0D80EE11CF11C48
:10397000C11480E8D806E104F10409F0B4CF0E9434
:103980009E07C12CD12C76011FEFD701C60197707D
:10399000AA27BB27892B8A2B8B2B19F48EB1805831
:1039A0008EB9CDEDD3E0460157018EE396E00E943B
:1039B000434488834AEA65E575E580E090E00E942B
:1039C000DA0745E56AEA7AE280E090E00E94DA07E9
:1039D00040EA65E575E580E090E00E94DA074881FD
:1039E000C501B4010E94DA071AB88D9872989991AE
:1039F00089B1892787FDFCCF729A8D9A1AB98FEF0A
:103A0000881A980AA80AB80A85E0CD3DD80769F651
:103A100082E0D80EE11CF11CC11480E2D806E1045A
:103A2000F10409F0B2CF7798DF91CF911F91FF9009
:103A3000EF90DF90CF90BF90AF909F908F900895C0
:103A40004F925F926F927F928F929F92AF92BF92AE
:103A5000CF92DF92EF92FF920F931F93CF93DF935A
:103A60000E94A2078FEF8AB9812C912C54010DED91
:103A700015E0DD24DA94D501C4019770AA27BB278D
:103A8000892B8A2B8B2B19F48EB180588EB98DED32
:103A9000E82E85E0F82ECDEDD3E0240135018EE34C
:103AA00096E00E94434488834AEA65E575E580E034
:103AB00090E00E94A70745E56AEA7AE280E090E09C
:103AC0000E94A70740EA65E575E580E090E00E9466
:103AD000A7074881C301B2010E94A7071AB87498CA
:103AE000999189B1892787FDFCCF749ADAB88FEF55
:103AF000481A580A680A780A0C171D0781F692E0DE
:103B0000990EA11CB11C8114E0E89E06A104B10429
:103B100009F0B1CFC0E0D0E077247A94CE010E94C2
:103B20008309812C912C5401D501C4019770AA27D7
:103B3000BB27892B8A2B8B2B19F48EB180588EB919
:103B40000DED13E0C4018D5D93406C018EE396E0B2
:103B50000E944344F801808382E090E00E94830940
:103B600082E090E00E94830982E090E00E94830955
:103B70006AEA85E595E10E94810881E090E00E9473
:103B8000830981E090E00E94830981E090E00E9437
:103B9000830965E58AEA9AE00E94810882E090E064
:103BA0000E94830982E090E00E94830982E090E015
:103BB0000E94830960EA85E595E10E948108CE01B3
:103BC0000E948309CE010E948309CE010E948309CD
:103BD000F8016081C601800F911F0E9481081AB808
:103BE00072988D98F80191918F0189B1892787FD8D
:103BF000FCCF729A7AB8E016F10609F0A7CFF2E08E
:103C00009F0EA11CB11C811480E29806A104B1048E
:103C100009F08ACF2196C830D10509F07FCF779877
:103C2000DF91CF911F910F91FF90EF90DF90CF9098
:103C3000BF90AF909F908F907F906F905F904F90CC
:103C400008957F928F929F92AF92BF92CF92DF9210
:103C5000EF92FF920F931F93CF93DF938FEF8AB969
:103C60004698C0E0D0E077247A94CE010E94830980
:103C7000C12CD12C7601D701C6019770AA27BB278A
:103C8000892B8A2B8B2B19F48EB180588EB90DEDB0
:103C900013E0460157018EE396E00E944344F80189
:103CA00080834AEA65E575E580E090E00E94A70719
:103CB000469880E090E00E94830980E090E00E94B6
:103CC000830980E090E00E948309469845E56AEA0E
:103CD0007AE280E090E00E94A70740EA65E575E59A
:103CE00080E090E00E94A7074698CE010E948309D9
:103CF000CE010E948309CE010E9483094698F801F3
:103D00004081C501B4010E94A7071AB87498F80150
:103D100091918F0189B1892787FDFCCF749A7AB878
:103D2000FFEF8F1A9F0AAF0ABF0A84E00D31180710
:103D300009F0B1CFE0E4CE0ED11CE11CF11CC1149E
:103D4000F0E4DF06E104F10409F095CF80E090E0B3
:103D50000E94830980E090E00E94830980E090E067
:103D60000E9483092196C031D10509F07ECFDF91F1
:103D7000CF911F910F91FF90EF90DF90CF90BF9068
:103D8000AF909F908F907F9008957F928F929F9297
:103D9000AF92BF92CF92DF92EF92FF920F931F9359
:103DA000CF93DF938FEF8AB9C0E0D0E077247A9485
:103DB000CE010E948309C12CD12C7601D701C60106
:103DC0009770AA27BB27892B8A2B8B2B19F48EB1CE
:103DD00080588EB90DED13E0460157018EE396E051
:103DE0000E944344F80180834AEA65E575E580E076
:103DF00090E00E94A70745E56AEA7AE280E090E059
:103E00000E94A70740EA65E575E580E090E00E9422
:103E1000A707CE010E948309CE010E948309CE012B
:103E20000E948309F8014081C501B4010E94A707DF
:103E30001AB87498F80191918F0189B1892787FD8B
:103E4000FCCF749A7AB8FFEF8F1A9F0AAF0ABF0AA5
:103E500085E00D3D180711F6E2E0DE0EE11CF11CD5
:103E6000C114F0E8DF06E104F10409F0A7CF2196C0
:103E7000C830D10509F09CCFDF91CF911F910F91F0
:103E8000FF90EF90DF90CF90BF90AF909F908F907A
:103E90007F9008957F928F929F92AF92BF92CF9220
:103EA000DF92EF92FF920F931F93CF93DF938FEFE9
:103EB0008AB90E94380E6AE070E080E090E00E94CB
:103EC000C04100E010E077247A9480912A0290911A
:103ED0002B02081719070CF05AC0402F440F60E05E
:103EE00070EE80E090E00E944209C12CD12C760156
:103EF000D701C6019770AA27BB27892B8A2B8B2B4A
:103F000019F48EB180588EB9CDEDD3E0460157013A
:103F10008EE396E00E94434488834AEA65E575E5AE
:103F200080E090E00E94380845E56AEA7AE280E0A5
:103F300090E00E94380840EA65E575E580E090E091
:103F40000E9438084881C501B4010E9438081AB897
:103F50007498999189B1892787FDFCCF749A7AB8B2
:103F60008FEF881A980AA80AB80A85E0CD3DD807CD
:103F700079F682E0D80EE11CF11CC11480E8D80665
:103F8000E104F10409F0B4CF0F5F1F4F9ECF779883
:103F9000DF91CF911F910F91FF90EF90DF90CF9025
:103FA000BF90AF909F908F907F9008959F92AF9217
:103FB000BF92CF92DF92EF92FF920F931F93CF9316
:103FC000DF930E949E0710E00FEF99249A949AB80D
:103FD000C12CD12C7601D701C6019770AA27BB2727
:103FE000892B8A2B8B2B19F48EB180588EB9CDED8D
:103FF000D3E0C6018D5D93405C0142E060E070EA71
:1040000080E090E00E9442098EE396E00E944344E3
:1040100088836AEA85E595E10E94810865E58AEA78
:104020009AE00E94810860EA85E595E10E94810896
:10403000412F60E070EA80E090E00E9442096881D0
:10404000C5018C0F9D1F0E9481081AB88D98729827
:10405000999189B1892787FDFCCF729A8D9A0AB907
:1040600095E0CD3DD90749F682E0D80EE11CF11C60
:10407000C11490E1D906E104F10409F0ACCF1F5F4F
:10408000103209F0A4CF7798DF91CF911F910F9153
:10409000FF90EF90DF90CF90BF90AF909F900895EA
:1040A0004F925F926F927F928F929F92AF92BF9248
:1040B000CF92DF92EF92FF920F931F93CF93DF93F4
:1040C0000E94A2078FEF8AB90E94380E6AE070E062
:1040D00080E090E00E94C041C0E0D0E08CE3982EE8
:1040E00088248A9480912A0290912B02C817D907BC
:1040F0000CF06DC046E060E070E880E090E00E9467
:10410000A5084C2F61E070E880E090E00E94A508CF
:1041100040E060E070E880E090E00E94A508C12CDB
:10412000D12C7601D701C6019770AA27BB27892B0E
:104130008A2B8B2B19F48EB180588EB90DED13E0BC
:10414000260137018EE396E00E9443445801F801AE
:1041500081938F014AEA65E575E580E090E00E9471
:10416000380845E56AEA7AE280E090E00E94380883
:1041700040EA65E575E580E090E00E943808F501C9
:104180004081C301B2010E943808892D815000008E
:10419000E9F78AB840E060E070E880E090E00E94D3
:1041A000A508FFEF4F1A5F0A6F0A7F0A85E00D3DF1
:1041B000180741F6E2E0DE0EE11CF11CC114F0E24A
:1041C000DF06E104F10409F0ADCF21968BCF77989B
:1041D000DF91CF911F910F91FF90EF90DF90CF90E3
:1041E000BF90AF909F908F907F906F905F904F9017
:1041F00008957F928F929F92AF92BF92CF92DF925B
:10420000EF92FF920F931F93CF93DF930E94A20729
:104210008FEF8AB90E94380E6AE070E080E090E08B
:104220000E94C04100E010E077247A9480912A0235
:1042300090912B02081719070CF06EC046E060E061
:1042400070E880E090E00E94A508402F61E070E8EF
:1042500080E090E00E94A50840E060E070E880E027
:1042600090E00E94A508C12CD12C7601D701C6018F
:104270009770AA27BB27892B8A2B8B2B19F48EB119
:1042800080588EB9CDEDD3E0460157018EE396E01C
:104290000E94434488834AEA6AEA7AE080E090E038
:1042A0000E94380845E565E575E080E090E00E94F1
:1042B000380840EA6AEA7AE080E090E00E94380834
:1042C0004881C501B4010E9438081AB874989991C0
:1042D00089B1892787FDFCCF749A7AB840E060E005
:1042E00070E880E090E00E94A5088FEF881A980A95
:1042F000A80AB80A85E0CD3DD80741F682E0D80E7D
:10430000E11CF11CC11480E2D806E104F10409F0BB
:10431000ADCF0F5F1F4F8ACF7798DF91CF911F915D
:104320000F91FF90EF90DF90CF90BF90AF909F9054
:104330008F907F9008958F929F92AF92BF92CF926D
:10434000DF92EF92FF920F931F93CF93DF930E9420
:104350009E07C0E0DFEF40E060E070E880E090E0C2
:104360000E94A5084C2F440F61E070E880E090E0C7
:104370000E94A50841E060E070E880E090E00E94C3
:10438000A50841E04C0F440F61E070E880E090E048
:104390000E94A508DAB9C12CD12C7601D701C6013B
:1043A0009770AA27BB27892B8A2B8B2B19F48EB1E8
:1043B00080588EB90DED13E0460157018EE396E06B
:1043C0000E944344F80180834AEA65E575E180E094
:1043D00090E00E94DA0745E56AEA7AE180E090E041
:1043E0000E94DA0740EA65E575E180E090E00E940E
:1043F000DA07F8014081C501B4010E94DA071AB852
:104400008D987298F80191918F0189B1892787FD64
:10441000FCCF729A8D9ADAB9FFEF8F1A9F0AAF0A12
:10442000BF0A85E00D3D180749F6E2E0DE0EE11C0B
:10443000F11CC114F0E1DF06E104F10409F0AECF94
:10444000CE5FC03809F087CF7798DF91CF911F9169
:104450000F91FF90EF90DF90CF90BF90AF909F9023
:104460008F9008957F928F929F92AF92BF92CF923A
:10447000DF92EF92FF920F931F93CF93DF930E94EF
:10448000A2078FEF8AB90E94380E6AE070E080E0E0
:1044900090E00E94C04100E010E077247A9480917F
:1044A0002A0290912B02081719070CF05BC0402FCD
:1044B00060E070EA80E090E00E943808C12CD12CC6
:1044C0007601D701C6019770AA27BB27892B8A2BB3
:1044D0008B2B19F48EB180588EB9CDEDD3E0460107
:1044E00057018EE396E00E944344888375984AEA18
:1044F00065E575E580E090E00E94380845E56AEAE8
:104500007AE280E090E00E94380840EA65E575E5CF
:1045100080E090E00E943808759A4881C501B40196
:104520000E9438081AB87498999189B1892787FD33
:10453000FCCF749A7AB88FEF881A980AA80AB80A3A
:1045400085E0CD3DD80769F682E0D80EE11CF11C6C
:10455000C11480E2D806E104F10409F0B2CF0F5F84
:104560001F4F9DCF7798DF91CF911F910F91FF90B3
:10457000EF90DF90CF90BF90AF909F908F907F9003
:1045800008957F928F929F92AF92BF92CF92DF92C7
:10459000EF92FF920F931F93CF93DF930E94A20796
:1045A0008FEF8AB90E94380E6AE070E080E090E0F8
:1045B0000E94C04100E010E077247A9480912A02A2
:1045C00090912B02081719070CF05BC0402F60E098
:1045D00070EA80E090E00E943808C12CD12C76016E
:1045E000D701C6019770AA27BB27892B8A2B8B2B53
:1045F00019F48EB180588EB9CDEDD3E04601570144
:104600008EE396E00E944344888375984AEA65E504
:1046100075E580E090E00E94380845E56AEA7AE2B4
:1046200080E090E00E94380840EA65E575E580E0AA
:1046300090E00E943808759A4881C501B4010E9433
:1046400038081AB87498999189B1892787FDFCCFE9
:10465000749A7AB88FEF881A980AA80AB80A85E07F
:10466000CD3DD80769F682E0D80EE11CF11CC114DB
:1046700080E4D806E104F10409F0B2CF0F5F1F4FC8
:104680009DCF7798DF91CF911F910F91FF90EF9081
:10469000DF90CF90BF90AF909F908F907F900895C4
:1046A0009F92AF92BF92CF92DF92EF92FF920F93C1
:1046B0001F93CF93DF93759A10E00FEF99249A948C
:1046C0009AB8C12CD12C7601D701C6019770AA27C0
:1046D000BB27892B8A2B8B2B19F48EB180588EB96E
:1046E000CDEDD3E0C6018D5D93405C018EE396E095
:1046F0000E944344888342E060E070EB80E090E0F9
:104700000E94380842E060E070EC80E090E00E9497
:1047100038086AEA85E595E10E94810865E58AEA3C
:104720009AE00E94810860EA85E595E10E9481088F
:10473000412F60E070EB80E090E00E943808412F4C
:1047400060E070EC80E090E00E9438086881C5016C
:104750008C0F9D1F0E9481081AB88D9872989991AC
:1047600089B1892787FDFCCF729A8D9A0AB995E0A5
:10477000CD3DD90709F0BACF82E0D80EE11CF11C7B
:10478000C11490E1D906E104F10409F09DCF1F5F47
:10479000103209F095CF759A7798DF91CF911F91DC
:1047A0000F91FF90EF90DF90CF90BF90AF909F90D0
:1047B0000895779A0E94A2078FEF8AB90E94A706F0
:1047C0000E94600E0E948C0E0E94B80E0E94E40EA1
:1047D0008EE396E00E9443448093DD0360912602BD
:1047E0007091270280912802909129024AEA0E9442
:1047F00038086091220270912302809124029091E6
:10480000250245E50E943808609126027091270232
:10481000809128029091290240EA0E943808609114
:104820001E0270911F0280912002909121024091FE
:104830001A020E9438086091DD057091DE058091B2
:10484000DF059091E0054091DD030E9438081AB819
:1048500074989091DD0389B1892787FDFCCF749A04
:104860008FEF8AB9779808958F929F92AF92BF92F7
:10487000CF92DF92EF92FF92CF93DF9340E060E020
:1048800070EE80E090E00E94420942E060E070EA51
:1048900080E090E00E94420945E060E070EC80E03A
:1048A00090E00E9442096AE070E080E090E00E949F
:1048B000C0418FEF8AB9C12C80E6D82EE12CF12CB3
:1048C000779ACDEDD3E0460157018EE396E00E9442
:1048D00043448993482FC501B4010E9467088FEFB4
:1048E000881A980AA80AB80A85E0CD3DD80769F762
:1048F00082E0D80EE11CF11CC11480E8D806E10466
:10490000F104F1F6779840E160E070EE80E090E02D
:104910000E94420942E160E070EA80E090E00E947B
:10492000420945E160E070EC80E090E0DF91CF91DA
:10493000FF90EF90DF90CF90BF90AF909F908F90BF
:104940000C9442098F929F92AF92BF92CF92DF92C6
:10495000EF92FF92CF93DF9340E861E070EA80E04E
:1049600090E00E94A5086AE070E080E090E00E947C
:10497000C0418FEF8AB9C12C80E6D82EE12CF12CF2
:10498000779ACDEDD3E0460157018EE396E00E9481
:1049900043448993482FC501B4010E9467088FEFF3
:1049A000881A980AA80AB80A85E0CD3DD80769F7A1
:1049B00082E0D80EE11CF11CC11480E8D806E104A5
:1049C000F104F1F6779840E461E070EA80E090E06D
:1049D000DF91CF91FF90EF90DF90CF90BF90AF909D
:1049E0009F908F900C94A5088F929F92AF92BF9248
:1049F000CF92DF92EF92FF92CF93DF930E94A706B0
:104A00006AE070E080E090E00E94C0410E94600E89
:104A10006AE070E080E090E00E94C0418FEF8AB9C8
:104A2000C090DD05D090DE05E090DF05F090E00558
:104A30008091260290912702A0912802B09129022C
:104A4000C816D906EA06FB06E8F4779ACDEDD3E05E
:104A5000460157018EE396E00E9443448993482F14
:104A6000C501B4010E9467088FEF881A980AA80A46
:104A7000B80A85E0CD3DD80769F782E0D80EE11C81
:104A8000F11CD6CF7798DF91CF91FF90EF90DF9018
:104A9000CF90BF90AF909F908F9008952F923F92AC
:104AA0004F925F926F927F928F929F92AF92BF923E
:104AB000CF92DF92EF92FF920F931F93CF93DF93EA
:104AC000CDB7DEB728970FB6F894DEBF0FBECDBFC7
:104AD0000E94951A6AE070E080E090E00E94C04178
:104AE0000E94A7066AE070E080E090E00E94C0416A
:104AF0000E9436076AE070E080E090E00E94C041CA
:104B00008090DD059090DE05A090DF05B090E00577
:104B1000B694A794979487944091DD055091DE0553
:104B20006091DF057091E0058091E1059091E205CB
:104B3000A091E305B091E405840F951FA61FB71F50
:104B4000B695A7959795879588169906AA06BB06E8
:104B500008F0B8C08EB180588EB9412C512C32016A
:104B600018861F82D501C401840D951DA61DB71D91
:104B70008B839C83AD83BE834AEA50E065E575E094
:104B800080E090E00E942C0F45E550E06AEA72E078
:104B900080E090E00E942C0FAF81B8856D01BB0FC3
:104BA000EE08FF088B819C81AD81BE81C80ED91EA5
:104BB000EA1EFB1E45E250E0C701B6010E942C0F21
:104BC0004091D80350E041505109C701B6010E94FD
:104BD0002C0F312C6091D8033616E8F48EE396E062
:104BE0000E944344182F8093DD038EE396E00E94D9
:104BF00043448093DE031A83198209811A81082BAA
:104C0000C701B601630D711D811D911DA8010E9490
:104C10002C0F3394DFCF70E061507109CB01770F17
:104C2000AA0BBB0BBC01CD016C0D7D1D8E1D9F1D04
:104C300049E250E00E942C0F6091D80370E061506F
:104C40007109CB01770FAA0BBB0BBC01CD016C0D19
:104C50007D1D8E1D9F1D0E94580F1801AFE72A2A47
:104C600033243A948F679F6F6091D8038215930520
:104C700081F070E061507109CB01770FAA0BBB0B7B
:104C8000BC01CD016C0D7D1D8E1D9F1D0E94580F16
:104C9000E9CF8F819885860F911D98878F83811525
:104CA00090420CF469CFB0E25B0E611C711C4114A0
:104CB000510421E06206710409F052CF8FEFA81A67
:104CC000B80A2ACF779828960FB6F894DEBF0FBEA1
:104CD000CDBFDF91CF911F910F91FF90EF90DF90AB
:104CE000CF90BF90AF909F908F907F906F905F908C
:104CF0004F903F902F9008956F927F928F929F9246
:104D0000AF92BF92CF92DF92EF92FF920F931F93D9
:104D1000CF93DF93812C912C54018EB180588EB9A2
:104D20007501640100E210E08EE396E00E944344C6
:104D3000C82F8093DD038EE396E00E944344809366
:104D4000DE037C2E612CE301C82B4AEA50E065E5C6
:104D500075E080E090E00E942C0F45E550E06AEAA3
:104D600072E080E090E00E942C0F40EA50E065E5A0
:104D700075E080E090E00E942C0FAE01C701B60103
:104D80000E942C0FC701B6010E94580FCF67DF6F3A
:104D90008F679F6F8C179D0729F0C701B6010E948E
:104DA000580FF6CF015011098FEFC81AD80AE80A38
:104DB000F80A0115110509F0B7CF80E2880E911CA1
:104DC000A11CB11C8114910480E1A806B10409F072
:104DD000A4CF7798DF91CF911F910F91FF90EF9023
:104DE000DF90CF90BF90AF909F908F907F906F900B
:104DF0000895CF92DF92EF92FF920E94250F80914B
:104E00000C0290910D0281309105A1F5C09016021F
:104E1000D0901702E0901802F0901902409116020B
:104E200050911702609118027091190280910E0240
:104E300090910F02A0911002B0911102840F951F62
:104E4000A61FB71FC816D906EA06FB0608F047C01A
:104E50008EE396E00E9443448093DD03AC01552726
:104E6000C701B6010E942C0F8FEFC81AD80AE80AB2
:104E7000F80AD4CF029799F5C0901602D090170285
:104E8000E0901802F090190240911602509117021A
:104E9000609118027091190280910E0290910F0298
:104EA000A0911002B0911102840F951FA61FB71F89
:104EB000C816D906EA06FB0690F48EE396E00E9437
:104EC00043441092DD0340E050E0C701B6010E9468
:104ED0002C0F8FEFC81AD80AE80AF80AD5CFFF902E
:104EE000EF90DF90CF900C94290F8F929F92AF920A
:104EF000BF92CF92DF92EF92FF921F93CF93DF93F7
:104F00000E94A7066AE070E080E090E00E94C04145
:104F10000E9436076AE070E080E090E00E94C041A5
:104F20008FEF87B9C090DD05D090DE05E090DF05FA
:104F3000F090E0051FEF4091DD055091DE05609196
:104F4000DF057091E0058091E1059091E205A09167
:104F5000E305B091E405840F951FA61FB71FC8167F
:104F6000D906EA06FB0608F046C0D701C6019F70C5
:104F7000AA27BB27892B8A2B8B2B19F48EB180583B
:104F80008EB9CDEDD3E0460157018EE396E00E9445
:104F9000434488834AEA6AEA7AE080E090E00E942B
:104FA0002D1545E565E575E080E090E00E942D1542
:104FB00040EA6AEA7AE080E090E00E942D1548819C
:104FC000C501B4010E942D1517B81198999186B1A9
:104FD000892787FDFCCF119A17B98FEF881A980A95
:104FE000A80AB80A85E0CD3DD80779F682E0D80E48
:104FF000E11CF11CA0CF17B87798DF91CF911F91DA
:10500000FF90EF90DF90CF90BF90AF909F908F90E8
:1050100008958F929F92AF92BF92CF92DF92EF92BC
:10502000FF921F93CF93DF930E94A7066AE070E080
:1050300080E090E00E94C0410E9436076AE070E084
:1050400080E090E00E94C0418FEF87B94AEA6AEAA7
:105050007AE080E090E00E942D1545E565E575E079
:1050600080E090E00E942D1540E26AEA7AE080E05C
:1050700090E00E942D15C090DD05D090DE05E090F7
:10508000DF05F090E0051FEF4091DD055091DE0552
:105090006091DF057091E0058091E1059091E20556
:1050A000A091E305B091E405840F951FA61FB71FDB
:1050B000C816D906EA06FB06C0F5D701C6019F70DF
:1050C000AA27BB27892B8A2B8B2B19F48EB18058EA
:1050D0008EB9CDEDD3E0460157018EE396E00E94F4
:1050E0004344888340EA6AEA7AE080E090E00E94E4
:1050F0002D154881C501B4010E942D1517B81198CE
:10510000999186B1892787FDFCCF119A17B98FEF46
:10511000881A980AA80AB80A85E0CD3DD807E9F6AA
:1051200082E0D80EE11CF11CAFCF40E965E575E0E7
:1051300080E090E00E942D1540E06AEA7AE080E08D
:1051400090E00E942D1517B87798DF91CF911F91AD
:10515000FF90EF90DF90CF90BF90AF909F908F9097
:1051600008952F923F924F925F926F927F928F920B
:105170009F92AF92BF92CF92DF92EF92FF920F93E6
:105180001F93CF93DF9300D000D000D0CDB7DEB710
:105190000E94951A6AE070E080E090E00E94C041B1
:1051A0000E94A7066AE070E080E090E00E94C041A3
:1051B0000E9436076AE070E080E090E00E94C04103
:1051C0008FEF87B9C090DD05D090DE05E090DF0558
:1051D000F090E00588EE282E83E0382E0FEF409106
:1051E000DD055091DE056091DF057091E00580914D
:1051F000E1059091E205A091E305B091E405840FEB
:10520000951FA61FB71FC816D906EA06FB0608F0A9
:1052100073C08EB180588EB9812C912C54011E829E
:105220001D82D701C601880D991DAA1DBB1D89834A
:105230009A83AB83BC834AEA6AEA7AE080E090E032
:105240000E942D1545E565E575E080E090E00E943F
:105250002D1545E2C701B6010E942D154091D803D6
:105260004150C701B6010E942D1510E0AD81BE81ED
:105270002D01BB0F6608770889819A81AB81BC81BB
:10528000480E591E6A1E7B1E8091D803181778F4A9
:105290008EE396E00E944344482FC301B201610FA0
:1052A000711D811D911D0E942D151F5FEDCF49E2DB
:1052B000C701B6010E942D1517B8C1010197F1F77A
:1052C00007B98091D803AD81BE81A80FB11DBE83FF
:1052D000AD83A115B0440CF4AECF30E4930EA11C05
:1052E000B11C8114910482E0A806B10409F097CFA3
:1052F00092E0E90EF11C73CF779826960FB6F894DA
:10530000DEBF0FBECDBFDF91CF911F910F91FF90F8
:10531000EF90DF90CF90BF90AF909F908F907F9055
:105320006F905F904F903F902F9008958F929F9233
:10533000AF92BF92CF92DF92EF92FF92CF93DF9323
:105340000E94A7066AE070E080E090E00E94C04101
:105350000E94600E6AE070E080E090E00E94C04130
:105360008FEF87B9C090DD05D090DE05E090DF05B6
:10537000F090E0058091260290912702A0912802EA
:10538000B0912902C816D906EA06FB06E8F4779A16
:10539000CDEDD3E0460157018EE396E00E944344F1
:1053A0008993482FC501B4010E942D158FEF881AEB
:1053B000980AA80AB80A85E0CD3DD80769F782E0C7
:1053C000D80EE11CF11CD6CF7798DF91CF91FF90DA
:1053D000EF90DF90CF90BF90AF909F908F90089507
:1053E0008F929F92AF92BF92CF92DF92EF92FF92F5
:1053F0001F93CF93DF930E94A7066AE070E080E0DE
:1054000090E00E94C0410E9436076AE070E080E0B0
:1054100090E00E94C0418FEF8AB94AEA6AEA7AE0D6
:1054200080E090E00E94861645E565E575E080E045
:1054300090E00E94861640E26AEA7AE080E090E01E
:105440000E948616C090DD05D090DE05E090DF0555
:10545000F090E0051FEF4091DD055091DE05609171
:10546000DF057091E0058091E1059091E205A09142
:10547000E305B091E405840F951FA61FB71FC8165A
:10548000D906EA06FB06C0F5D701C6019F70AA2718
:10549000BB27892B8A2B8B2B19F48EB180588EB9A0
:1054A000CDEDD3E0460157018EE396E00E944344E0
:1054B000888340EA6AEA7AE080E090E00E948616FB
:1054C0004881C501B4010E9486161AB87198999155
:1054D00089B1892787FDFCCF719A1AB98FEF881A95
:1054E000980AA80AB80A85E0CD3DD807E9F682E017
:1054F000D80EE11CF11CAFCF40E965E575E080E016
:1055000090E00E94861640E06AEA7AE080E090E04F
:105510000E9486161AB87798DF91CF911F91FF905D
:10552000EF90DF90CF90BF90AF909F908F900895B5
:105530008F929F92AF92BF92CF92DF92EF92FF92A3
:105540001F93CF93DF930E94A7066AE070E080E08C
:1055500090E00E94C0410E9436076AE070E080E05F
:1055600090E00E94C0418FEF8AB94AEA6AEA7AE085
:1055700080E090E00E94861645E565E575E080E0F4
:1055800090E00E94861640E26AEA7AE080E090E0CD
:105590000E948616C090DD05D090DE05E090DF0504
:1055A000F090E0051FEF4091DD055091DE05609120
:1055B000DF057091E0058091E1059091E205A091F1
:1055C000E305B091E405840F951FA61FB71FC81609
:1055D000D906EA06FB0608F072C0D701C6019F7023
:1055E000AA27BB27892B8A2B8B2B19F48EB18058C5
:1055F0008EB9CDEDD3E0460157018EE396E00E94CF
:105600004344A82FA795AA27A795AC014270552718
:1056100025E0440F551F2A95E1F74A2BDC01A470C1
:10562000BB2733E0AA0FBB1F3A95E1F74A2BFC01D9
:10563000E870FF27EE0FFF1F4E2BBC01607177272C
:1056400075956795242F262BAC0140725527F3E002
:1056500055954795FA95E1F7422B9C012074332725
:10566000A5E035952795AA95E1F7242B881F882773
:10567000881F822B888340EA6AEA7AE080E090E023
:105680000E9486164881C501B4010E9486161AB888
:105690007198999189B1892787FDFCCF719A1AB9C0
:1056A0008FEF881A980AA80AB80A85E0CD3DD80776
:1056B00009F0A3CF82E0D80EE11CF11C74CF40E9C1
:1056C00065E575E080E090E00E94861640E06AEAB9
:1056D0007AE080E090E00E9486161AB87798DF9111
:1056E000CF911F91FF90EF90DF90CF90BF90AF9040
:1056F0009F908F9008958F929F92AF92BF92CF927A
:10570000DF92EF92FF92CF93DF930E94A706C090A3
:10571000DD05D090DE05E090DF05F090E00580919A
:10572000DD059091DE05A091DF05B091E0059E5F5B
:10573000AF4FBF4FC816D906EA06FB0620F58EB15B
:1057400080588EB9CDEDD3E046015701C501B401B3
:105750000E949B028883998382E0880E911CA11C81
:10576000B11C229685E0CD3DD80781F740E052E09C
:105770006DED73E08EE396E00E94854482E0D80EE2
:10578000E11CF11CCCCF7798DF91CF91FF90EF9087
:10579000DF90CF90BF90AF909F908F9008958F92A1
:1057A0009F92AF92BF92CF92DF92EF92FF92CF93F0
:1057B000DF930E94A706C090DD05D090DE05E09043
:1057C000DF05F090E0058091DD059091DE05A09168
:1057D000DF05B091E0059E5FAF4FBF4FC816D906F9
:1057E000EA06FB06F8F4CDEDD3E046015701C5010A
:1057F000B4010E94E70289938FEF881A980AA80AD9
:10580000B80A85E0CD3DD80791F740E052E06DED54
:1058100073E08EE396E00E94854482E0D80EE11C9E
:10582000F11CD1CF7798DF91CF91FF90EF90DF906F
:10583000CF90BF90AF909F908F900895CF92DF92BE
:10584000EF92FF920F931F93CF93DF930E94A706CF
:105850006AE070E080E090E00E94C0410E9436075C
:105860006AE070E080E090E00E94C041C090E105F5
:10587000D090E205E090E305F090E4058FEF81B968
:105880008091D4039091D503059724F06C2D80E08E
:1058900091E213C060E080E090E60E94A903B601A7
:1058A00085E0769567958A95E1F780E090E40E941F
:1058B000A9036C2D6F7180E090E20E94A90311B8DA
:1058C000C090DD05D090DE05E090DF05F090E005AA
:1058D0008091DD059091DE05A091DF05B091E00596
:1058E0009E5FAF4FBF4FC816D906EA06FB06F8F415
:1058F0008EB180588EB9CDEDD3E086010D5D134099
:10590000C8018C0F9D1F0E949303899385E0CD3DB4
:10591000D807B1F740E052E06DED73E08EE396E01A
:105920000E94854482E0D80EE11CF11CD1CF77980B
:10593000DF91CF911F910F91FF90EF90DF90CF906B
:1059400008956F927F928F929F92AF92BF92CF9263
:10595000DF92EF92FF920F931F93CF93DF93CDB718
:10596000DEB7C054D1090FB6F894DEBF0FBECDBF6D
:1059700011B884E391E00E9493038FEF81B9809185
:10598000D4039091D50305972CF461E080E090E674
:105990000E94A9036AE080E090E00E94A90310E061
:1059A0000FEFCE0101966C015E0191E4A90EB11CCE
:1059B000812F90E02091C9033091CA038217930789
:1059C00084F58EB180588EB901B9612F80E090E4E2
:1059D0000E94A90311B8E12C80EAF82E8091C5033A
:1059E0009091C6038E159F05D0F0360147018C18A3
:1059F0009D08C401860D971D0E949303F3018193B6
:105A00003F01EA15FB05A9F740E450E0B6018EE33B
:105A100096E00E948544F0E4EF0EF11CDFCF1F5F9B
:105A2000C7CF8FEF81B960E080E090E00E94A903CA
:105A300011B87798C05CDF4F0FB6F894DEBF0FBE89
:105A4000CDBFDF91CF911F910F91FF90EF90DF902D
:105A5000CF90BF90AF909F908F907F906F90089560
:105A6000CF92DF92EF92FF92CF93DF930E94A7062F
:105A7000C0900101D0900201E0900301F090040178
:105A80008091DD059091DE05A091DF05B091E005E4
:105A9000C80ED91EEA1EFB1E409101015091020161
:105AA00060910301709104018091DD059091DE0504
:105AB000A091DF05B091E005840F951FA61FB71FC9
:105AC0009E5FAF4FBF4FC816D906EA06FB06E8F443
:105AD000779AC701B6010E94930FCDEDD3E00E94E3
