:10000000E6C000000EC100000CC100000AC10000E3
:1000100008C1000006C1000004C1000002C10000C8
:1000200000C10000FEC000000C941C100C9499103C
:10003000F8C00000F6C00000F4C00000F2C00000EC
:10004000F0C00000EEC00000ECC00000EAC00000FC
:10005000E8C00000E6C00000E4C000000C94790F86
:10006000E0C00000DEC00000DCC00000DAC000001C
:10007000D8C00000D6C00000D4C00000D2C000002C
:10008000D0C00000CEC00000CCC00000CAC000003C
:10009000C8C00000C6C000000D0B2B0B6B0BB50BCE
:1000A000B50BB50BB50BB50B200BB50BB50BB50BE5
:1000B000B50BB50BB50BB50B270B960BAF0B320B76
:1000C0003B0B6E0B780B8F0BB50BB50B2E0B300B60
:1000D000B50B690BB50BB50BB50BB50BB50BB50B6C
:1000E000B50BB50BB50BB50BB50BB50BB50BB50B10
:1000F000B50BB50BB50BB50B500BB50B600B000179
:100100000000AF0112000200006C01430003000078
:10011000680104010309044E0118020309043601B1
:10012000160303090428010C0C03310032003300CC
:100130003400350000001603550053004200200033
:10014000530065007200690061006C000000180334
:100150005400650065006E0073007900640075004E
:1001600069006E006F0000000403090409024300E7
:10017000020100C03209040000010202010005244E
:1001800000100105240100010424020605240600D4
:10019000010705820308004009040100020A00006B
:1001A000000705030240000007058402400000121A
:1001B00001000202000020C0168304720201020343
:1001C000010001C10201803601813600FC131124B7
:1001D0001FBECFEFD0E2DEBFCDBF13E0A0E0B1E0A5
:1001E000E2E8FEE200E00BBF02C007900D92A631EC
:1001F000B107D9F725E0A6E1B3E001C01D92A73908
:10020000B207E1F710E0C7EED0E004C02197FE018D
:100210000E941014C63ED107C9F70E94090D0C9424
:100220003F17EECEFB0101900020E9F73197AF01B7
:10023000461B570BDC01ED91FC910280F381E02D10
:1002400009940F931F93CF93DF93EC01EBDF8C01A5
:10025000CE010E94BA0B800F911FDF91CF911F91A9
:100260000F91089540E052EC61E070E08BE895E07A
:100270000E94941311B814B817B81AB81DB810BA60
:1002800008958FEF8AB91BB887B918B88DB182610C
:100290008DB98DB180668DB98EB182618EB9459868
:1002A000469A809A889A81986CE271E080E090E0AA
:1002B0000C94B90F8FEF8AB91BB887B918B8089595
:1002C00074980000000000000000000026B189B111
:1002D000749A000090E0922B0895BC01660F771F7E
:1002E00020E030E041E02617370731F091B3942742
:1002F00091BB2F5F3F4FF7CF0895CF93DF93D82F58
:10030000C8E0819A8D2F90E0880F892F881F990B64
:10031000892B39F082E090E0E0DF819886E090E080
:1003200006C086E090E0D9DF819882E090E0D5DFDA
:10033000DD0FC15031F7DF91CF910895819A82E0AE
:1003400090E0CBDF819884E090E0C7CF0F931F93BC
:10035000CF9308E113E0C0E4799B04C081E090E012
:10036000BCDFFACF83E090E0B8DF8FB18695817073
:10037000F80181938F01799904C081E090E0ADDFAD
:10038000FACFC15049F7CF911F910F910895CF93A4
:10039000DF93CDB7DEB727970FB6F894DEBF0FBE59
:1003A000CDBF28E730E04EE66BE875E0CE01019660
:1003B0000E94100CCE0101960E94FF0C6093660310
:1003C000709367038093680390936903CE0101964D
:1003D0000E94460C27960FB6F894DEBF0FBECDBF25
:1003E000DF91CF910895CF93DF93CDB7DEB72797F5
:1003F0000FB6F894DEBF0FBECDBF28E730E04EE663
:100400006BE875E0CE0101960E94100CCE010196BA
:100410000E94FF0C609374057093750580937605B8
:1004200090937705CE0101960E94460C27960FB651
:10043000F894DEBF0FBECDBFDF91CF910895CF936B
:10044000DF93CDB7DEB727970FB6F894DEBF0FBEA8
:10045000CDBF28E730E04EE66BE875E0CE010196AF
:100460000E94100CCE0101960E94FF0C609359036C
:1004700070935A0380935B0390935C03CE010196C3
:100480000E94460C27960FB6F894DEBF0FBECDBF74
:10049000DF91CF910895CF93DF93CDB7DEB7279744
:1004A0000FB6F894DEBF0FBECDBF28E730E04EE6B2
:1004B0006BE875E0CE0101960E94100CCE0101960A
:1004C0000E94FF0C7093170360931603CE010196F0
:1004D0000E94460C27960FB6F894DEBF0FBECDBF24
:1004E000DF91CF9108958FEF80BB81B984B98DB131
:1004F00083628DB96E981AB817B88EB182628EB9C0
:10050000709A6CE271E080E090E00C94B90F8EEF8D
:1005100080BB8FEF81B984B98DB183618DB91AB871
:1005200017B88EB183618EB968EC70E080E090E01E
:100530000C94B90F0F931F93262F2E7F21BB072FEB
:10054000182F292F332702B9AA27BB2785B9000006
:100550007098749800000000000000000000000087
:1005600000000000000000000000000029B186B17A
:10057000709A749A00000000000000000000000063
:1005800090E0922B1F910F9108958FEF8AB987B950
:1005900008951AB817B80895CF92DF92EF92FF929C
:1005A0006B017C01F6DFC1BABB27AF2D9E2D8D2DCF
:1005B00082B96701EE24FF24C5B8000070987198D5
:1005C0000000000000000000000026B189B1719A0F
:1005D000709A000090E0922BFF90EF90DF90CF9008
:1005E0000895CF92DF92EF92FF92CF93DF936B014A
:1005F0007C01D42FC52FC9DFC1BABB27AF2D9E2DDB
:100600008D2D82B96701EE24FF24C5B8DBB9C8B9C6
:1006100000007098000075980000000000000000C5
:100620000000759A0000709A00000000DF91CF91E1
:10063000FF90EF90DF90CF90ACCF40EF50E0D1DF54
:1006400064E670E080E090E00C94B90F1F93CF93C4
:10065000DF9310926203109263031092640310926E
:1006600065034AEA50E065E575E080E090E0B9DFB7
:1006700045E550E06AEA72E080E090E0B2DF40E9F0
:1006800050E065E575E080E090E0ABDF60E070E0B1
:10069000CB0182DF9F938F9389E191E09F938F93AA
:1006A0008DE593E09F938F930E94641460E070E067
:1006B000CB0172DF9F938F93C2E7D2E0DF93CF939A
:1006C00088E795E09F938F930E9464146EE070E03A
:1006D00080E090E061DF182F6FE070E080E090E054
:1006E0005BDF20E030E0282B1F932F93DF93CF9325
:1006F0008EE693E09F938F930E9464146DE573E000
:100700008BE895E08FDD67E772E08BE895E08ADDA6
:1007100068E775E08BE895E085DD67E772E08BE8D8
:1007200095E080DD6EE673E08BE895E07BDD67E7C2
:1007300072E08BE895E076DD8DB79EB742960FB6F6
:10074000F8949EBF0FBE8DBF60E070E0CB01DF91DB
:10075000CF911F9172CFCF92DF92EF92FF9217DE6F
:10076000C12CD12C76018091660390916703A091F2
:100770006803B0916903B695A79597958795C816B4
:10078000D906EA06FB0698F54AEA50E065E575E009
:1007900080E090E026DF45E550E06AEA72E080E024
:1007A00090E01FDF40E850E065E575E080E090E014
:1007B00018DF4AEA50E065E575E080E090E011DF7F
:1007C00045E550E06AEA72E080E090E00ADF40E34D
:1007D00050E0C701B60105DFC701B601DDDE8F6756
:1007E0009F6F0196C9F78FEFE81AF80ABCCFFF9008
:1007F000EF90DF90CF900895CF93DF93D82FC92F3C
:1008000059DDDBB9C8B90000719800000000000094
:1008100000000000719A00000000DF91CF91B9CE76
:10082000CF92DF92EF92FF926B017C0143DDC70113
:10083000AA27BB272EB122612EB9769A0000759A9D
:100840008BB9892F992788B900007698CBB8CD2C21
:10085000DD24C8B80000000075980000000000000A
:100860000000000000000000000000000000FF90F9
:10087000EF90DF90CF908DCED3DF80EF90E0BCDFA4
:1008800064E670E080E090E00C94B90F1F93CF9382
:10089000DF9310926203109263031092640310922C
:1008A00065038091000190910101A0910201B09136
:1008B0000301BC01CD016655754F8F4F9F4FB0DFCF
:1008C0008AEA90E099DF8091000190910101A09166
:1008D0000201B0910301BC01CD016C5A7A4F8F4FD8
:1008E0009F4F9EDF85E590E087DF8091000190912A
:1008F0000101A0910201B0910301BC01CD01665537
:10090000754F8F4F9F4F8CDF80E990E075DF6091CE
:10091000000170910101809102019091030180DF3B
:10092000CFDC9F938F9389E191E09F938F938DE527
:1009300093E09F938F930E946414C2DC9F938F93E4
:10094000C2E7D2E0DF93CF9388E795E09F938F9340
:100950000E9464148091000190910101A091020114
:10096000B0910301BC01CD01645E7F4F8F4F9F4F5B
:1009700057DFA6DC182FA4DC20E030E0282B1F93E3
:100980002F93DF93CF938EE693E09F938F930E94F4
:1009900064146DE573E08BE895E044DC67E772E092
:1009A0008BE895E03FDC68E775E08BE895E03ADCA2
:1009B00067E772E08BE895E035DC6EE673E08BE884
:1009C00095E030DC67E772E08BE895E02BDC8DB7D3
:1009D0009EB742960FB6F8949EBF0FBE8DBF609132
:1009E0000001709101018091020190910301DF915A
:1009F000CF911F9141CF4F925F926F927F928F92D2
:100A00009F92AF92BF92CF92DF92EF92FF9280902F
:100A1000000190900101A0900201B0900301C12C4F
:100A2000D12C7601240135012AEA420E2AE0521E19
:100A3000611C711C84E5880E85E0981EA11CB11C08
:100A40008091660390916703A0916803B091690358
:100A5000C816D906EA06FB0608F048C0C301B20171
:100A6000DFDE8AEA90E0C8DEC501B401D9DE85E5A3
:100A700090E0C2DEC301B201D3DE80E890E0BCDECC
:100A8000C301B201CDDE8AEA90E0B6DEC501B40151
:100A9000C7DE85E590E0B0DE809100019091010114
:100AA000A0910201B0910301BC01CD016C0D7D1D2F
:100AB0008E1D9F1DB5DE80E390E09EDE80910001DB
:100AC00090910101A0910201B0910301BC01CD01FF
:100AD0006C0D7D1D8E1D9F1DA3DEF2DB8F679F6F4A
:100AE000019661F782E0E80EF11CAACFFF90EF902B
:100AF000DF90CF90BF90AF909F908F907F906F903E
:100B00005F904F900895AF92BF92CF92DF92EF9295
:100B1000FF920F931F93CF93DF93D0E010E054E741
:100B2000E52E55E0F52E212F30E0809116039091AF
:100B3000170397FDCF9646E0959587954A95E1F77F
:100B40002817390764F584E7C82E83E0D82E5601AC
:100B50008BE895E00E945212F50181935F01EE1639
:100B6000FF06B1F7F894C0E080E995E6B6DB85E0D2
:100B7000C4DB8D2F8C0FC1DB560108E0F50181919C
:100B80005F01BBDB0150D1F7D9DBCF5FF8E0CF0EBF
:100B9000D11CC03449F778941F5FD05CC4CFDF917B
:100BA000CF911F910F91FF90EF90DF90CF90BF906A
:100BB000AF900895BF92CF92DF92EF92FF920F9382
:100BC0001F93CF93DF93C0900401D0900501E09074
:100BD0000601F09007018091040190910501A09118
:100BE0000601B09107019058AF4FBF4FC816D90604
:100BF000EA06FB0600F5C701B60112DEC4E7D3E042
:100C00008BE895E00E945212B82E88838BE895E01D
:100C10000E94521289831B2D00E09801282BC901E4
:100C2000EBDD229635E0C437D30751F782E0D80ECA
:100C3000E11CF11CD0CFDF91CF911F910F91FF905C
:100C4000EF90DF90CF90BF9008958BE895E00E94E1
:100C500052128093730308952F923F924F925F92A6
:100C60006F927F928F929F92AF92BF92CF92DF92BC
:100C7000EF92FF920F931F93CF93DF93CDB7DEB721
:100C800061970FB6F894DEBF0FBECDBF8090000114
:100C900090900101A0900201B0900301D6DF6AE0BC
:100CA00070E080E090E00E94B90F9DDB6AE070E0A8
:100CB00080E090E00E94B90FC2DB6AE070E080E063
:100CC00090E00E94B90FC0907405D0907505E09037
:100CD0007605F0907705A50194012655354F4F4FC5
:100CE0005F4F2B833C834D835E83D501C4018C5AB7
:100CF0009A4FAF4FBF4F8F839887A987BA8740918C
:100D00007405509175056091760570917705809115
:100D1000590390915A03A0915B03B0915C03840F37
:100D2000951FA61FB71FC816D906EA06FB0608F0CE
:100D300028C1812C912C540100E010E06B817C8152
:100D40008D819E816DDD8AEA90E056DD6F81788528
:100D500089859A8565DD85E590E04EDD2801012EC7
:100D6000000C660877088091000190910101A09124
:100D70000201B09103018C0D9D1DAE1DBF1D880D9C
:100D8000991DAA1DBB1DBC01CD01640D751D861DDD
:100D9000971D46DD85E290E02FDD80910001909166
:100DA0000101A0910201B09103018C0D9D1DAE1DAA
:100DB000BF1D880D991DAA1DBB1DBC01CD01640D71
:100DC000751D861D971D2CDD80917303869590E01F
:100DD000019712DD1B86209173039B859217A8F55E
:100DE0008BE895E00E9452128C87809374038BE805
:100DF00095E00E94521280937503AC85AA831982F4
:100E000029803A80282A8091000190910101A091C7
:100E10000201B09103018C0D9D1DAE1DBF1D880DFB
:100E2000991DAA1DBB1D840D951DA61DB71DBC01D6
:100E3000CD012B85620F711D811D911DF1DCC1015A
:100E4000DBDC3B853E5F3B87C6CF40910001509184
:100E5000010160910201709103014C0D5D1D6E1D39
:100E60007F1D480D591D6A1D7B1DDB01CA01840DC4
:100E7000951DA61DB71D8E879F87A88BB98B822FC6
:100E800090E00297092E000CAA0BBB0B2E853F8524
:100E900048895989280F391F4A1F5B1FCA01B901A8
:100EA000BFDC89E290E0A8DC4091730350E042503F
:100EB0005109052E000C660B770B80910001909173
:100EC0000101A0910201B0910301840F951FA61F9B
:100ED000B71F8C0D9D1DAE1DBF1D880D991DAA1D30
:100EE000BB1DBC01CD01640D751D861D971D98DCD1
:100EF000E7D9A1014F675F6F5D874C878F679F6F51
:100F000040917303AC85BD858A179B0721F150E0A2
:100F100042505109052E000C660B770B80910001A1
:100F200090910101A0910201B0910301840F951FDE
:100F3000A61FB71F8C0D9D1DAE1DBF1D880D991DD1
:100F4000AA1DBB1DBC01CD01640D751D861D971D1D
:100F500067DCB6D9D3CF040F111D0115B0E41B0710
:100F60000CF4ECCE20E4920EA11CB11C811491046F
:100F700032E0A306B10409F0DFCE42E0E40EF11C3A
:100F8000BECE61960FB6F894DEBF0FBECDBFDF9127
:100F9000CF911F910F91FF90EF90DF90CF90BF9076
:100FA000AF909F908F907F906F905F904F903F9009
:100FB0002F9008952F923F924F925F926F927F925F
:100FC0008F929F92AF92BF92CF92DF92EF92FF9259
:100FD0000F931F93CF93DF93CDB7DEB728970FB64C
:100FE000F894DEBF0FBECDBF30DE6AE070E080E077
:100FF00090E0BFD7F8D96AE070E080E090E0B9D720
:101000001EDA6AE070E080E090E0B3D7809074056B
:1010100090907505A0907605B0907705B694A7944A
:101020009794879440917405509175056091760569
:10103000709177058091590390915A03A0915B03B9
:10104000B0915C03840F951FA61FB71FB695A79597
:101050009795879588169906AA06BB0608F0ADC035
:10106000412C512C320118861F82D501C401840DF8
:10107000951DA61DB71D8B839C83AD83BE834AEA55
:1010800050E065E575E080E090E0ABDA45E550E0E2
:101090006AEA72E080E090E0A4DAAF81B8856D0181
:1010A000BB0FEE08FF088B819C81AD81BE81C80E0D
:1010B000D91EEA1EFB1E45E250E0C701B60191DAD7
:1010C0004091730350E041505109C701B60189DADC
:1010D000312C609173033616E0F48BE895E00E94A2
:1010E0005212182F809374038BE895E00E945212DD
:1010F000809375031A83198209811A81082BC7010D
:10110000B601630D711D811D911DA8016ADA33942A
:10111000E0CF70E061507109CB01770FAA0BBB0BD8
:10112000BC01CD016C0D7D1D8E1D9F1D49E250E05F
:1011300058DA6091730370E061507109CB01770F49
:10114000AA0BBB0BBC01CD016C0D7D1D8E1D9F1D1F
:1011500023DA1801AFE72A2A33243A948F679F6F66
:10116000609173038215930579F070E06150710905
:10117000CB01770FAA0BBB0BBC01CD016C0D7D1D04
:101180008E1D9F1D09DAEACF8F819885860F911DEC
:1011900098878F83811590420CF471CFB0E25B0E7B
:1011A000611C711C4114510421E06206710409F0B4
:1011B0005ACF8FEFA81AB80A35CF28960FB6F894F1
:1011C000DEBF0FBECDBFDF91CF911F910F91FF907A
:1011D000EF90DF90CF90BF90AF909F908F907F90D7
:1011E0006F905F904F903F902F900895CF92DF9235
:1011F000EF92FF92CF93DF93F6D8C0900001D0908A
:101200000101E0900201F09003018091740590913A
:101210007505A0917605B0917705C80ED91EEA1E16
:10122000FB1E4091000150910101609102017091FB
:1012300003018091740590917505A0917605B09198
:101240007705840F951FA61FB71F9E5FAF4FBF4F37
:10125000C816D906EA06FB0630F5D701C6019F730A
:10126000AA27BB27892B8A2B8B2B19F48EB1805888
:101270008EB9C701B601D4DAC4E7D3E021D8988388
:101280008983229685E0C437D807C1F740E052E051
:1012900064E773E08BE895E00E94941282E0D80E38
:1012A000E11CF11CBECF7798DF91CF91FF90EF90BA
:1012B000DF90CF900895CF92DF92EF92FF920F933D
:1012C0001F93CF93DF9310E000E0202F30E0809158
:1012D00016039091170397FDCF9646E09595879555
:1012E0004A95E1F7281739070CF061C0F894F12E00
:1012F000C0E0D0E084E001D88F2D0E947D011ED88F
:1013000025D81CD8E8E1F3E0E12CAE014C585C4F45
:101310008E2D869586958695DA01A80FB11D808160
:1013200060E8869F90011124918160E4969FC0013E
:101330001124822B2781822B928120E2929F6001CF
:101340001124282F2C29938130E1939FB00111247F
:10135000822F862B948168E0969F90011124282B80
:10136000958134E0939FC0011124822B9681990FBF
:10137000892B8C9368E0E60E389680E4E812C8CF9B
:101380008CE291E00E946D01F3942896C11592E0E1
:10139000D90709F0AFCF789440E052E064E773E0FA
:1013A0008BE895E00E9494120F5F105C8ECFDF9166
:1013B000CF911F910F91FF90EF90DF90CF90089504
:1013C000CF92DF92EF92FF92CF93DF930CD8C09031
:1013D0000401D0900501E0900601F0900701809192
:1013E000740590917505A0917605B0917705C80EAA
:1013F000D91EEA1EFB1E4091040150910501609127
:101400000601709107018091740590917505A09176
:101410007605B0917705840F951FA61FB71F9E5FB5
:10142000AF4FBF4FC816D906EA06FB0600F5C70145
:10143000B601F6D9C4E7D3E00E946001988389839E
:10144000229685E0C437D807B9F76AE070E080E0FB
:1014500090E08FD540E052E064E773E08BE895E0E0
:101460000E94941282E0D80EE11CF11CC4CFDF91DF
:10147000CF91FF90EF90DF90CF9008958F929F9241
:10148000AF92BF92CF92DF92EF92FF92CF93DF9312
:101490000E94F301C0907405D0907505E090760528
:1014A000F0907705F694E794D794C79480917405EB
:1014B00090917505A0917605B09177059E5FAF4F2D
:1014C000BF4FB695A79597958795C816D906EA0692
:1014D000FB0608F030C0C4E7D3E046015701C50160
:1014E000B4015AD8988389838FEF881A980AA80A7A
:1014F000B80A229685E0C437D80789F700000000B3
:1015000000000000000000000000000000000000DB
:10151000000000000000000000000000000040E0AB
:1015200052E064E773E08BE895E0FED78FEFD81ABE
:10153000E80AF80ABBCFDF91CF91FF90EF90DF90E0
:10154000CF90BF90AF909F908F9008958F929F9271
:10155000AF92BF92CF92DF92EF92FF92CF93DF9341
:1015600080E090E0A8E0B0E080936A0390936B0382
:10157000A0936C03B0936D03C12CD12C76018091A4
:101580006A0390916B03A0916C03B0916D03B695C3
:10159000A79597958795C816D906EA06FB0600F524
:1015A000C4E7D3E046015701C501B4010E949A0285
:1015B000988389838FEF881A980AA80AB80A229616
:1015C00085E0C437D80781F740E052E064E773E074
:1015D0008BE895E0A9D78FEFD81AE80AF80ACFCFA1
:1015E000DF91CF91FF90EF90DF90CF90BF90AF90C1
:1015F0009F908F900895CF93DF9300D0CDB7DEB743
:101600008BE895E04FD7FC01FF27E333F10508F0A5
:10161000ACC0E45BFF4F0C9410146AE772E08BE8F7
:1016200095E00E9421016CE972E08BE895E00E9450
:10163000210167EB72E08BE895E00E94210195C0E3
:1016400011B814B817B81AB81DB810BA8EC00E94D5
:1016500041011CD98AC00E9441011CC0C7DD85C060
:10166000AFDE83C00E94410164EF71E080E090E052
:1016700080D4A0DA7AC00E94410164EF71E080E07A
:1016800090E077D40E944B0264EF71E080E090E03C
:1016900070D439DA64EF71E080E090E06AD465C01C
:1016A0000E94410164EF71E080E090E062D40E940A
:1016B0004B0264EF71E080E090E05BD4FCDDEACFA8
:1016C0000E94870264EF71E080E090E052D43EDF38
:1016D0004CC0D4DE4AC00E947302DCCF0E94730269
:1016E00064EF71E080E090E044D40E9426033DC0A6
:1016F0000E94730264EF71E080E090E03AD42BD84E
:1017000081E08A8341E050E0BE016E5F7F4F8BE84D
:1017100095E00AD764EF71E080E090E004C064E6F1
:1017200070E080E090E025D445DC1FC00E944101BC
:1017300064EF71E080E090E01CD40E94C7015BD9A7
:1017400081E0898341E050E0BE016F5F7F4F8BE80D
:1017500095E0EAD664EF71E080E090E004C068ECC8
:1017600070E080E090E005D477DA0F900F90DF9181
:10177000CF910895CF93DF9300D0CDB7DEB72DE0A2
:1017800029832AE02A83DC01ED91FC910280F38118
:10179000E02D42E050E0BE016F5F7F4F09950F9052
:1017A0000F90DF91CF910895CF92DF92EF92FF9249
:1017B000CF93DF93EC010FB6F894C0908005D090E2
:1017C0008105E0908205F09083050FBEE881F981E4
:1017D0000284F385E02DCE01099597FF1AC00FB65C
:1017E000F8948091800590918105A0918205B09137
:1017F00083050FBE8C199D09AE09BF094B815C8121
:101800006D817E8184179507A607B707F8F28FEFE1
:101810009FEFDF91CF91FF90EF90DF90CF900895F1
:10182000AF92BF92CF92DF92EF92FF920F931F93EE
:10183000CF93DF93EC015B01042F690160E070E05E
:101840008AD0EC80FD80002E000C110BEC14FD04FE
:1018500088F4C501A9DF97FF04C081E0F501878303
:1018600009C0009739F08017910721F0682FCE0149
:10187000AED0ECCFCE01DF91CF911F910F91FF90B1
:10188000EF90DF90CF90BF90AF900895FC018081E2
:1018900091815CC10F931F93CF93DF93EC018B0178
:1018A0006F5F7F4F88819981DAD1009731F09983FA
:1018B00088831B830A8381E001C080E0DF91CF91A0
:1018C0001F910F910895CF93DF93FC012281338103
:1018D0002617370758F4EC01DDDF882341F08C81AF
:1018E0009D81892B19F4E881F981108281E0DF91D3
:1018F000CF910895EF92FF920F931F93CF93DF93B1
:10190000EC017B018A014115510531F4E881F9812F
:10191000309789F010820FC0BA01D5DF2881398154
:1019200081110CC02115310521F0C9010FD1198297
:1019300018821B821A821D821C8205C01D830C83A3
:10194000B701C901A5D7CE01DF91CF911F910F91AA
:10195000FF90EF900895FC01118210821382128291
:101960001582148216826115710549F0FB01019000
:101970000020E9F73197AF01461B570BBBCF089505
:10198000EF92FF920F931F93CF93DF93EC017B01B4
:1019900041155105A1F08C819D818A01080F191F05
:1019A000B801CE0190DF882351F0288139818C81E4
:1019B0009D81B701820F931F6BD71D830C83CE01CE
:1019C000DF91CF911F910F91FF90EF9008950F93AA
:1019D0001F93CF93DF9300D0CDB7DEB78C0169831F
:1019E0001A8241E050E0BE016F5F7F4FC9DFC8013E
:1019F0000F900F90DF91CF911F910F910895FC01EF
:101A000080819181009709F014C760E070E0CB01FC
:101A1000089520D20E943201EEDDFECF0F931F9376
:101A2000CF93DF938230910510F482E090E0E09153
:101A30009505F091960520E030E0A0E0B0E0309709
:101A400019F1408151810281138148175907C8F06B
:101A50008417950769F4109731F012960C9312973A
:101A600013961C9327C0009395051093960522C0EA
:101A70002115310519F04217530718F49A01BD01D9
:101A8000EF01DF01F801DBCF21153105F9F0281B4B
:101A9000390B2430310580F48A819B8161157105F1
:101AA00021F0FB019383828304C090939605809379
:101AB0009505FE01329644C0FE01E20FF31F8193AB
:101AC000919322503109398328833AC020917D05B2
:101AD00030917E05232B41F420910A0130910B01B6
:101AE00030937E0520937D052091080130910901F6
:101AF0002115310541F42DB73EB740910C015091AD
:101B00000D01241B350BE0917D05F0917E05E21758
:101B1000F307A0F42E1B3F0B2817390778F0AC0110
:101B20004E5F5F4F2417350748F04E0F5F1F5093ED
:101B30007E0540937D058193919302C0E0E0F0E043
:101B4000CF01DF91CF911F910F910895CF93DF9334
:101B5000009709F481C0FC01329713821282A09190
:101B60009505B0919605109781F420813181820FFF
:101B7000931F20917D0530917E052817390751F577
:101B8000F0937E05E0937D0567C0ED0120E030E035
:101B9000CE17DF0740F44A815B819E014115510554
:101BA000F1F0EA01F5CFD383C28340815181840FE4
:101BB000951FC817D90759F488819981840F951FFB
:101BC0000296918380838A819B81938382832115EE
:101BD000310529F4F0939605E09395053DC0E901A0
:101BE000FB83EA8349915991C40FD51FEC17FD0778
:101BF00061F480819181840F951F0296E901998398
:101C00008883828193819B838A83E0E0F0E012964F
:101C10008D919C911397009719F0FD01DC01F7CF8E
:101C20008D919C9111979D012E5F3F4F820F931FC5
:101C300020917D0530917E052817390769F430978A
:101C400029F4109296051092950502C01382128213
:101C5000B0937E05A0937D05DF91CF9108956F929B
:101C60007F928F929F92AF92BF92CF92DF92EF922C
:101C7000FF920F931F93CF93DF93009781F4CB01D3
:101C8000DF91CF911F910F91FF90EF90DF90CF9058
:101C9000BF90AF909F908F907F906F90BFCEFC01D0
:101CA000E60FF71F9C0122503109E217F30708F4F1
:101CB0009FC0EC01D9010D911C91119706171707D0
:101CC000A8F00530110508F491C0C80104978617E3
:101CD000970708F48BC002501109061B170B0193DC
:101CE00011936D937C93CF0131DF80C05B01A01A0B
:101CF000B10A4C01800E911EA0919505B0919605F8
:101D0000612C712CE12CF12C109709F446C08D91B7
:101D10009C911197A815B905B1F56C0142E0C40E6C
:101D2000D11CCA14DB0478F14C018A189B086401A9
:101D300042E0C40ED11C1296BC9012971396AC913F
:101D4000B5E0CB16D10440F0B282A38391828082A9
:101D5000D9016D937C9309C00E5F1F4F800F911FB7
:101D6000F90191838083EB2DFA2FE114F10431F016
:101D7000D7011396FC93EE93129738C0F093960513
:101D8000E093950533C06816790608F43C017D019F
:101D900012960D90BC91A02DB7CF80917D059091AA
:101DA0007E0588169906B1F46616770698F48DB705
:101DB0009EB740910C0150910D01841B950BE817C3
:101DC000F907B0F4F0937E05E0937D05F901718386
:101DD00060830CC0CB0122DE7C01009749F0A80192
:101DE000BE014DD5CE01B2DEC70104C0CE0102C096
:101DF00080E090E0DF91CF911F910F91FF90EF90E5
:101E0000DF90CF90BF90AF909F908F907F906F901A
:101E100008951DBA109268001CBC10BE1FBA109223
:101E20007A0010926E0010926F0010927000109263
:101E300071001092C9001092BC0011B814B817B804
:101E40001AB81DB810BA12B815B818B81BB81EB811
:101E500011BA089581E885BF90E895BFF894E1E64E
:101E6000F0E0908381E0808323E024BD25BDEEE691
:101E7000F0E02081216020838093800022E0209385
:101E800081008093B0002093B10080939000209354
:101E9000910085E880937A0090937B0010927E00F9
:101EA000A9D078940895F89484B7877F84BF8091EF
:101EB00060008061809360001092600080E197E292
:101EC0000197F1F781E08093E00080E28093D800F1
:101ED00080E395E70197F1F79CDF0C9400FEFFCFBC
:101EE000F89497DF80E395E70197F1F70C940000F1
:101EF000FFCF8F938FB78F9380917F058A5F8D3748
:101F0000D0F480937F05809180058E5F809380055B
:101F1000D8F0809181058F4F80938105A8F0809142
:101F200082058F4F8093820578F0809183058F4FD3
:101F30008093830509C08D5780937F05809180052C
:101F40008D5F8093800528F780918405885F80935A
:101F5000840558F0809185058F4F8093850528F082
:101F6000809186058F4F809386058F918FBF8F91CB
:101F70001895CF92DF92EF92FF926B017C0119D0FE
:101F80009B01C114D104E104F10471F012D0621B71
:101F9000730B683E7340A8F381E0C81AD108E108CA
:101FA000F10828513C4FEDCFFF90EF90DF90CF909C
:101FB00008950FB6F89466B515B2709184058091B6
:101FC0008505909186050FBE10FE05C06F3F19F084
:101FD000785F8F4F9F4F11240024660F001C660FFF
:101FE000001C660F001C702908958091E80080FF96
:101FF000FCCF08958091D80087FF02C085FF1BC0E9
:1020000081E88093D70080EA8093D80086E189BD7B
:1020100009B400FEFDCF80E98093D8001092E00063
:102020001092990510929805109297051092E10070
:102030008DE08093E20008951F920F920FB60F92E9
:1020400011240BB60F922F933F934F935F936F938F
:102050007F938F939F93AF93BF93EF93FF93909151
:10206000E1001092E10093FF11C01092E90081E0BD
:102070008093EB001092EC0082E28093ED0088E008
:102080008093F000109299051092970592FF1DC061
:10209000809199058823C9F080918A05882359F099
:1020A000815080938A05811106C084E08093E90005
:1020B0008AE38093E80080918905882331F081507C
:1020C00080938905811101C0EEDE90FF0CC080E194
:1020D0008093E2001092990581E08093980580EA50
:1020E0008093D80019BC80919805882379F094FFDB
:1020F0000DC086E189BD09B400FEFDCF80E9809363
:10210000D8008DE08093E20010929805FF91EF9146
:10211000BF91AF919F918F917F916F915F914F91FF
:102120003F912F910F900BBE0F900FBE0F901F90FD
:1021300018951F920F920FB60F9211240BB60F92A3
:10214000EF92FF920F931F932F933F934F935F93C1
:102150006F937F938F939F93AF93BF93CF93EF939F
:10216000FF931092E9008091E80083FF31C1C09194
:10217000F1008091F1000091F1001091F100E090E8
:10218000F100F090F1004091F1005091F10092EFD8
:102190009093E800863009F03FC086E0EEEFF0E073
:1021A000259135910217130711F0359615C0259129
:1021B0003591E216F30611F033960EC02591359154
:1021C00084914F3F510519F010F04FEF50E0481740
:1021D00008F4842F5EEF08C0815011F7F9C0891B05
:1021E0005093E8008823A9F09091E800492F4570AA
:1021F000D9F392FDF0C0982F813208F090E2492F78
:10220000442369F3F90125912093F1009F01415086
:10221000F7CF903249F3DFC0853041F48EEF8093E1
:10222000E800E3DE00680093E300D5C0893001F5E3
:10223000C111CEC0009399051092970510928A059E
:102240008EEF8093E80081E0E1ECF1E08093E9001B
:1022500095919093EB00992331F095919093EC0038
:1022600095919093ED008F5F853081F78EE1ABC043
:10227000883049F4C03809F0ABC0B7DE80919905C9
:102280008093F1007EC0813279F4C13A09F0A0C098
:10229000ACDEEEE0F1E080818093F100319681E0E8
:1022A000E531F807C1F76DC0803209F047C0C1328F
:1022B00009F08EC08091E80082FFFCCFEEE0F1E0F3
:1022C0008091F1008083319681E0E531F807C1F714
:1022D0008BEF8093E8008EEF8093E80030910E0141
:1022E00040910F01809110012091110190E0A0E038
:1022F000B0E0DC0199278827942B832BB22B8638FA
:102300009105A105B10521F48FE08093890563C093
:1023100086399105A105B10509F05DC084E080937F
:10232000E9009FEF8091EE00837039F09093E80010
:102330008091E80082FDFCCFF5CFD2DD823231F40E
:10234000C13209F045C00093970505C0833229F4D6
:10235000C13209F03DC049DE14C0811116C045DE0E
:10236000C23851F4E092E9008091EB0085FB8827A8
:1023700080F91092E90001C080E08093F100109292
:10238000F1008EEF8093E80026C0982F9D7F91305A
:10239000F9F4C230E9F4012BD9F4CE2DCF779FEFB9
:1023A0009C0F9630A8F49EEF9093E800C093E9004C
:1023B000833071F089E18093EB0081E090E001C00F
:1023C000880FCA95EAF78093EA001092EA0003C0EA
:1023D00081E28093EB00FF91EF91CF91BF91AF919C
:1023E0009F918F917F916F915F914F913F912F912D
:1023F0001F910F91FF90EF900F900BBE0F900FBEAB
:102400000F901F901895CF93DF931F92CDB7DEB733
:102410006983DC01ED91FC910280F381E02D41E0C4
:1024200050E0BE016F5F7F4F09950F90DF91CF9114
:102430000895FC018FB7F89490919905911102C00D
:1024400090E010C093E09093E9009091F200911118
:1024500009C02091E80022FFF3CF25FDF1CF2BE644
:102460002093E8008FBF2085318537FD03C09F3F53
:1024700009F09F5F892F90E00895CF93DF93EC01DF
:102480008885998597FF09C0E881F9810284F385E1
:10249000E02DCE0109959987888788859985DF91F8
:1024A000CF910895FC012085318537FD07C04FEF9E
:1024B0005FEF51874087C901992708959FB7F89426
:1024C00080919905882369F083E08093E9002BE6E9
:1024D0008091E80085FD09C082FF03C02093E800D9
:1024E000F7CF9FBF8FEF9FEF08958091F10020916C
:1024F000E80025FD03C02BE62093E8009FBF90E095
:10250000089580919905882361F08FB7F89494E03D
:102510009093E9009091F2008FBF80E4891B90E0D6
:10252000089580E090E00895BF92CF92DF92EF92FD
:10253000FF920F931F93CF93DF937C0180919905B6
:10254000882371F02FB7F89484E08093E90080919C
:102550008805882369F08091E80085FD07C02FBFBA
:1025600081E0F701828300E010E0D3C0109288057B
:1025700000E010E084E0D82E90E4C92EA1EFB0E096
:102580003AE3B32E33E04115510509F4C1C08091FF
:10259000E400815F9091E80095FD16C02FBF9091F7
:1025A000E400891304C081E08093880505C0909100
:1025B0009905911104C081E0F7018283AAC02FB769
:1025C000F894D092E900E6CF8091F2009C2D981B00
:1025D000E92FF0E04E175F0708F4942FE92FF0E0A1
:1025E0004E1B5F0B0E0F1F1FEB01E0E4E91BE034F5
:1025F00028F4EE0FFF27E150FD4E099480C0999119
:102600009C9399919C9399919C9399919C93999166
:102610009C9399919C9399919C9399919C93999156
:102620009C9399919C9399919C9399919C93999146
:102630009C9399919C9399919C9399919C93999136
:102640009C9399919C9399919C9399919C93999126
:102650009C9399919C9399919C9399919C93999116
:102660009C9399919C9399919C9399919C93999106
:102670009C9399919C9399919C9399919C939991F6
:102680009C9399919C9399919C9399919C939991E6
:102690009C9399919C9399919C9399919C939991D6
:1026A0009C9399919C9399919C9399919C939991C6
:1026B0009C9399919C9399919C9399919C939991B6
:1026C0009C9399919C9399919C9399919C939991A6
:1026D0009C9399919C9399919C9399919C93999196
:1026E0009C9399919C9399919C9399919C93999186
:1026F0009C9399919C9399919C9399919C93BE01E1
:102700008091E80085FFB092E80030938A053BCFC6
:102710002FBFC801DF91CF911F910F91FF90EF90D4
:10272000DF90CF90BF9008952FEF3FEFFC013187EE
:10273000208760DC0FB6F894809180059091810528
:10274000A0918205B09183050FBE9C0180919905EF
:10275000882329F068EC70E080E090E00ACC80915A
:102760009805882309F10FB6F8948091800590911F
:102770008105A0918205B09183050FBEAC018091C7
:102780009805882389F00FB6F89480918005909180
:102790008105A0918205B09183050FBE841B950B26
:1027A0008B3F910560F308950FB6F89480918005F2
:1027B00090918105A0918205B09183050FBE821B87
:1027C000930B853C994008F4C1CF08959FB7F894C6
:1027D00080919905882321F080918A05811102C09A
:1027E0009FBF089584E08093E9008AE38093E80026
:1027F00010928A05F5CFEACFEBE8F5E08AE0DF0139
:102800001D928A95E9F788EE93E0A0E0B0E083831B
:102810009483A583B68388E093E0918380830895B1
:10282000EE0FFF1F0024001C0BBE0790F691E02D59
:1028300009941F93FC0199278827BC01E894119102
:102840001032E9F3193010F01E30C8F31B3249F092
:102850001D3241F4689405C022D0610F711D811DA5
:10286000911D119110531A30B8F33EF49095809554
:10287000709561957F4F8F4F9F4F1F910895FB017A
:10288000DC0102C001900D9241505040D8F70895EC
:10289000FB01DC0101900D920020E1F70895592F12
:1028A000482F372F262F660F771F881F991F660F17
:1028B000771F881F991F620F731F841F951F660F54
:1028C000771F881F991F08950F931F93CF93DF934E
:1028D000CDB7DEB72E970FB6F894DEBF0FBECDBFD3
:1028E0000D891E8986E08C831A8309838FEF9FE709
:1028F0009E838D83AE01475E5F4F6F89788DCE01D9
:10290000019610D0EF81F885E00FF11F10822E960E
:102910000FB6F894DEBF0FBECDBFDF91CF911F91F0
:102920000F9108952F923F924F925F926F927F92F4
:102930008F929F92AF92BF92CF92DF92EF92FF92CF
:102940000F931F93CF93DF93CDB7DEB72B970FB6BF
:10295000F894DEBF0FBECDBF6C017B018A01FC0184
:1029600017821682838181FFBFC1CE0101963C018F
:10297000F6019381F70193FD859193FF81917F018A
:10298000882309F4ADC1853239F493FD859193FF15
:1029900081917F01853221F4B60190E0D6D1E8CF54
:1029A000912C212C312CFFE1F315D8F08B3279F0EA
:1029B00038F4803279F08332A1F4232D20611DC0D8
:1029C0008D3261F0803369F4232D216016C0832D90
:1029D0008260382EE32DE4603E2E2AC0F32DF8608D
:1029E0001DC037FC2DC020ED280F2A3040F08E325C
:1029F000B9F436FC75C1232D2064322E19C036FE81
:102A000006C08AE0989E200D1124922E11C0EAE0A3
:102A10002E9E200D1124222EF32DF0623F2E08C091
:102A20008C3621F4832D8068382E02C0883641F41C
:102A3000F70193FD859193FF81917F018111B3CFC0
:102A4000982F9F7D9554933028F40C5F1F4F9FE380
:102A500099830DC0833631F0833771F0833509F0E7
:102A600055C020C0F801808189830E5F1F4F8824E4
:102A70008394912C530112C02801F2E04F0E511C97
:102A8000F801A080B18036FE03C0692D70E002C05D
:102A90006FEF7FEFC5014ED14C018201F32DFF771F
:102AA0003F2E15C0280122E0420E511CF801A080E3
:102AB000B18036FE03C0692D70E002C06FEF7FEF7A
:102AC000C5012DD14C01F32DF0683F2E820133FC5E
:102AD00019C0822D90E088169906A0F4B60180E214
:102AE00090E033D12A94F5CFF50137FC859137FE7C
:102AF00081915F01B60190E028D121102A9421E054
:102B0000821A91088114910479F7E1C0843611F09A
:102B1000893639F5F80137FE07C0608171818281FD
:102B200093810C5F1F4F08C060817181072E000CDC
:102B3000880B990B0E5F1F4FF32DFF763F2E97FFEB
:102B400009C090958095709561957F4F8F4F9F4FED
:102B5000F0683F2E2AE030E0A30133D1882E86189A
:102B600044C0853731F4232D2F7EB22E2AE030E089
:102B700025C0932D997FB92E8F36C1F018F4883572
:102B800079F0AEC0803719F0883721F0A9C0E92F5D
:102B9000E061BE2EB4FE0DC0FB2DF460BF2E09C057
:102BA00034FE0AC0292F2660B22E06C028E030E08D
:102BB00005C020E130E002C020E132E0F801B7FEBC
:102BC00007C060817181828193810C5F1F4F06C0B5
:102BD0006081718180E090E00E5F1F4FA301F1D012
:102BE000882E8618FB2DFF773F2E36FE0DC0232D35
:102BF0002E7FA22E891458F434FE0BC032FC09C07B
:102C0000832D8E7EA82E05C0B82CA32C03C0B82C13
:102C100001C0B92CA4FE0FC0FE01E80DF11D80819A
:102C2000803321F49A2D997EA92E09C0A2FE06C0F8
:102C3000B394B39404C08A2D867809F0B394A3FCAE
:102C400010C0A0FE06C0B21480F4280C922C9B1871
:102C50000DC0B21458F4B60180E290E076D0B3947F
:102C6000F8CFB21418F42B1802C0982C212CA4FE13
:102C70000FC0B60180E390E068D0A2FE16C0A1FCB0
:102C800003C088E790E002C088E590E0B6010CC080
:102C90008A2D867851F0A1FE02C08BE201C080E24D
:102CA000A7FC8DE2B60190E050D0891430F4B60153
:102CB00080E390E04AD09A94F8CF8A94F301E80D2B
:102CC000F11D8081B60190E040D08110F6CF222026
:102CD00009F44ECEB60180E290E037D02A94F7CFC7
:102CE000F6018681978102C08FEF9FEF2B960FB67A
:102CF000F894DEBF0FBECDBFDF91CF911F910F9132
:102D0000FF90EF90DF90CF90BF90AF909F908F900B
:102D10007F906F905F904F903F902F900895FC01AF
:102D20000590615070400110D8F7809590958E0FF6
:102D30009F1F0895FC016150704001900110D8F769
:102D4000809590958E0F9F1F08950F931F93CF939B
:102D5000DF93FB01238121FD03C08FEF9FEF2CC088
:102D600022FF16C0468157812481358142175307BF
:102D700044F4A081B1819D012F5F3F4F31832083B7
:102D80008C93268137812F5F3F4F3783268314C072
:102D90008B01EC01FB010084F185E02D0995892B65
:102DA000E1F6D80116968D919C911797019617968A
:102DB0009C938E931697CE01DF91CF911F910F9127
:102DC0000895FA01AA27283051F1203181F1E894C1
:102DD0006F936E7F6E5F7F4F8F4F9F4FAF4FB1E00E
:102DE0003ED0B4E03CD0670F781F891F9A1FA11D09
:102DF000680F791F8A1F911DA11D6A0F711D811D0A
:102E0000911DA11D20D009F468943F912AE0269FCE
:102E100011243019305D3193DEF6CF010895462F2D
:102E20004770405D4193B3E00FD0C9F7F6CF462F0E
:102E30004F70405D4A3318F0495D31FD4052419377
:102E400002D0A9F7EACFB4E0A69597958795779534
:102E50006795BA95C9F700976105710508959B01BB
:102E6000AC010A2E06945795479537952795BA9544
:102E7000C9F7620F731F841F951FA01D0895F89452
:022E8000FFCF82
:102E8200000000100000000800009A05800000E128
:102E9200000000000825303258253032580030300A
:102EA200004742204361727420496E666F00526F80
:102EB2006D204E616D653A2000526F6D205479701D
:102EC200653A2000524F4D204F4E4C59004D42431F
:102ED20031004D4243312B52414D004D42433200AD
:102EE200524F4D2B52414D004D4D4D3031004D4D05
:102EF2004D30312B52414D004D4243332B54494DFD
:102F02004552004D4243332B54494D45522B5241B9
:102F12004D004D424333004D4243332B52414D004D
:102F22004D424334004D4243342B52414D004D42F9
:102F32004335004D4243352B52414D004D424335FE
:102F42002B52554D424C45004D4243352B52554D67
:102F5200424C452B52414D0047616D65626F7920AD
:102F620043616D657261004E6F7420666F756E64A9
:102F720000526F6D2053697A653A200033324B421A
:102F82000036344B42003132384B42003235364B38
:102F920042003531324B4200344D4200312E314D28
:102FA2004200312E324D4200312E354D422900422F
:102FB200616E6B733A20005372616D2053697A65BA
:102FC2003A200035313242004E6F6E65004368652B
:102FD200636B73756D3A200050726573732042758E
:102FE20074746F6E2E2E2E0057686174206E6F7788
:102FF2003F0025303458002F6E00526574726F42C4
:103002006C61737465722050726F6772616D6D6569
:1030120072202D203173742047656E004669726DEF
:10302200776172652076657273696F6E20322E3019
:10303200632D6265746100526574726F53746167C7
:103042006520436F6D707574696E67203230313957
:103052000030344434004D424D323946303333432C
:10306200002F323536003031343100414D3239468D
:1030720030333242003031303100533239474C3034
:1030820033324E0000000000031294128112FB132F
:06309200191252123D125A
:00000001FF
