:10000000B3C00000DBC00000D9C00000D7C00000B2
:10001000D5C00000D3C00000D1C00000CFC0000098
:10002000CDC00000CBC000000C94F40F0C947110F4
:10003000C5C00000C3C00000C1C00000BFC00000B8
:10004000BDC00000BBC00000B9C00000B7C00000C8
:10005000B5C00000B3C00000B1C000000C94530F45
:10006000ADC00000ABC00000A9C00000A7C00000E8
:10007000A5C00000A3C00000A1C000009FC00000F8
:100080009DC000009BC0000099C0000097C0000008
:1000900095C0000093C0000000010000490112005B
:1000A00002000006014300030000020104010309ED
:1000B00004E8001802030904D0001603030904C26F
:1000C000000C0C0331003200330034003500000016
:1000D00016035500530042002000530065007200D3
:1000E000690061006C0000001803540065006500A1
:1000F0006E00730079006400750069006E006F0087
:1001000000000403090409024300020100C032098F
:100110000400000102020100052400100105240171
:1001200000010424020605240600010705820308D5
:10013000004009040100020A000000070503024014
:1001400000000705840240000012010002020000C6
:1001500020C01683047202010203010001C10201E2
:10016000803601813600D41311241FBECFEFD0E2B8
:10017000DEBFCDBF11E0A0E0B1E0E6E7FEE200E0C7
:100180000BBF02C007900D92AE39B107D9F724E03A
:10019000AEE9B1E001C01D92AF31B207E1F710E066
:1001A000C4EBD0E004C02197FE010E940A14C33BB7
:1001B000D107C9F70E94E30C0C94391721CFFB013A
:1001C00001900020E9F73197AF01461B570BDC0186
:1001D000ED91FC910280F381E02D0994362F242FBC
:1001E000462F50E060E070E0211108C0DC01ED9185
:1001F000FC910190F081E02D632F09942A3011F0D9
:10020000213019F420E00C94760A203111F40C947A
:10021000E20A223011F40C941E0B0C94520B0F9333
:100220001F93CF93DF93EC01CADF8C01CE010E94B4
:100230005C0A800F911FDF91CF911F910F9108955C
:1002400040E855E260E070E083E194E00E946C13C6
:1002500011B814B817B81AB81DB810BA08958FEFAE
:1002600084B915B887B918B881B1836081B981B1F3
:10027000886181B982B1836082B91398149A0D9A0A
:10028000159A0A9880E090E0A0E0B8E08093EE0133
:100290009093EF01A093F001B093F1016CE271E053
:1002A00080E090E00C94930F8FEF84B915B887B974
:1002B00018B8089511980000000000000000000028
:1002C00026B183B1119A000090E0922B0895BC01F1
:1002D000660F771F20E030E040E22617370731F045
:1002E00092B1942792B92F5F3F4FF7CF0895CF93E4
:1002F000DF93D82FC8E00A9A8D2F90E0880F892FBE
:10030000881F990B892B39F082E090E0E0DF0A9892
:1003100086E090E006C086E090E0D9DF0A9882E0AF
:1003200090E0D5DFDD0FC15031F7DF91CF91089517
:100330000A9A82E090E0CBDF0A9884E090E0C7CF91
:100340000F931F93CF9300EA11E0C0E4029B04C017
:1003500081E090E0BCDFFACF83E090E0B8DF80B1CD
:1003600082FB882780F9F80181938F01029904C0EC
:1003700081E090E0ACDFFACFC15041F7CF911F91FF
:100380000F910895CF93DF93CDB7DEB727970FB6C0
:10039000F894DEBF0FBECDBF28E730E04EE663E144
:1003A00074E0CE0101960E94EA0BCE0101960E94F4
:1003B000D90C6093F8017093F9018093FA0190933E
:1003C000FB01CE0101960E94200C27960FB6F894EF
:1003D000DEBF0FBECDBFDF91CF910895CF93DF93E6
:1003E000CDB7DEB727970FB6F894DEBF0FBECDBFEF
:1003F00028E730E04EE663E174E0CE0101960E940A
:10040000EA0BCE0101960E94D90C6093FC03709315
:10041000FD038093FE039093FF03CE0101960E949B
:10042000200C27960FB6F894DEBF0FBECDBFDF912C
:10043000CF910895CF93DF93CDB7DEB727970FB64F
:10044000F894DEBF0FBECDBF28E730E04EE663E193
:1004500074E0CE0101960E94EA0BCE0101960E9443
:10046000D90C6093E1017093E2018093E3019093D2
:10047000E401CE0101960E94200C27960FB6F89455
:10048000DEBF0FBECDBFDF91CF910895CF93DF9335
:10049000CDB7DEB727970FB6F894DEBF0FBECDBF3E
:1004A00028E730E04EE663E174E0CE0101960E9459
:1004B000EA0BCE0101960E94D90C70939F016093C4
:1004C0009E01CE0101960E94200C27960FB6F8944B
:1004D000DEBF0FBECDBFDF91CF9108958FEF84B9FE
:1004E00087B980BB8DB186648DB98EB186648EB9B3
:1004F0001AB81BB864EF71E080E090E00C94930FA1
:100500000F931F9365B9072F182F292F332708B989
:10051000AA27BB2781BB4BB90000729871980000D5
:1005200000000000729A719A000000001F910F9164
:1005300008950F931F9365B9072F182F292F33277D
:1005400008B9AA27BB2781BB0000729876980000E3
:100550000000000089B1729A769A000000001F9195
:100560000F9108951F93CF93DF93769ACFEFCAB977
:100570004AEA65E575E080E090E0C2DF45E56AEAB9
:1005800072E080E090E0BCDF40E965E575E080E086
:1005900090E0B6DF1AB860E070E0CB01CADF182F38
:1005A00061E070E080E090E0C4DFD82F61E171E0AD
:1005B00083E194E034DE40E150E0612F83E194E098
:1005C0000DDE63E271E083E194E029DE64E271E034
:1005D00083E194E024DE40E150E06D2F83E194E07C
:1005E000FDDDCAB94AEA65E575E080E090E088DFA4
:1005F00045E56AEA72E080E090E082DF40EF65E581
:1006000075E080E090E07CDF1AB87798DF91CF91B9
:100610001F9108958FEF8AB94AEA65E575E080E099
:1006200090E06EDF45E56AEA72E080E090E068DF26
:1006300040E865E575E080E090E062DF4AEA65E564
:1006400075E080E090E05CDF45E56AEA72E080E01A
:1006500090E056DF40E165E575E080E090E050DF36
:1006600064E670E080E090E00E94930F1AB860E0CA
:1006700070E0CB015EDF87FD0AC08EB180588EB975
:1006800064EF71E080E090E00E94930FF0CF7798E4
:1006900008958F929F92AF92BF92CF92DF92EF9286
:1006A000FF92CF93DF931AB8C12CD12C7601779AA1
:1006B000CCEFD1E046015701C501B4013ADF89937F
:1006C00040E150E0682F83E194E088DD83E194E02D
:1006D000F3D68FEF881A980AA80AB80A83E0CC3FAD
:1006E000D80751F782E0D80EE11CF11CC11480E854
:1006F000D806E104F104D9F67798DF91CF91FF9005
:10070000EF90DF90CF90BF90AF909F908F90089523
:1007100014B817B80895CF93DF93D82FC92FC4DD2D
:10072000D5B9C8B900001098000000000000000012
:100730000000109A00000000DF91CF91E9CFCF9226
:10074000DF92EF92FF926B017C01AEDDC701AA2719
:10075000BB2722B1236022B9139A0000149A85B9ED
:10076000892F992788B900001498C5B8CD2CDD24AD
:10077000C8B800000000139800000000000000004E
:10078000000000000000000000000000FF90EF905B
:10079000DF90CF90BDCFD3DF80EF90E0BCDF64E689
:1007A00070E080E090E00C94930F1F93CF93DF9361
:1007B0001092EA011092EB011092EC011092ED01FF
:1007C0008091000190910101A0910201B09103017B
:1007D000BC01CD016655754F8F4F9F4FB0DF8AEA40
:1007E00090E099DF8091000190910101A0910201B8
:1007F000B0910301BC01CD016C5A7A4F8F4F9F4FCE
:100800009EDF85E590E087DF8091000190910101F6
:10081000A0910201B0910301BC01CD016655754F55
:100820008F4F9F4F8CDF80E990E075DF6091000172
:1008300070910101809102019091030180DF3ADD06
:100840009F938F938FE291E09F938F9385EE91E03A
:100850009F938F930E945E142DDD9F938F93C4E32B
:10086000D1E0DF93CF9380E094E09F938F930E9439
:100870005E148091000190910101A0910201B0915C
:100880000301BC01CD01645E7F4F8F4F9F4F57DF47
:1008900011DD182F0FDD20E030E0282B1F932F9360
:1008A000DF93CF9382EF91E09F938F930E945E142A
:1008B00065EE71E083E194E082DC69E371E083E15D
:1008C00094E07DDC60E074E083E194E078DC69E34F
:1008D00071E083E194E073DC62EF71E083E194E026
:1008E0006EDC69E371E083E194E069DC8DB79EB76B
:1008F00042960FB6F8949EBF0FBE8DBF6091000167
:10090000709101018091020190910301DF91CF91DB
:100910001F9141CF4F925F926F927F928F929F92E1
:10092000AF92BF92CF92DF92EF92FF928090000140
:1009300090900101A0900201B0900301C12CD12C34
:100940007601240135012AEA420E2AE0521E611C7A
:10095000711C84E5880E85E0981EA11CB11C809155
:10096000F8019091F901A091FA01B091FB01C8162C
:10097000D906EA06FB0608F04BC08EB180588EB946
:10098000C301B201DCDE8AEA90E0C5DEC501B40134
:10099000D6DE85E590E0BFDEC301B201D0DE80E89F
:1009A00090E0B9DEC301B201CADE8AEA90E0B3DEAC
:1009B000C501B401C4DE85E590E0ADDE80910001A3
:1009C00090910101A0910201B0910301BC01CD0100
:1009D0006C0D7D1D8E1D9F1DB2DE80E390E09BDEC1
:1009E0008091000190910101A0910201B091030159
:1009F000BC01CD016C0D7D1D8E1D9F1DA0DE5ADC3E
:100A00008F679F6F019661F782E0E80EF11CA7CF18
:100A10007798FF90EF90DF90CF90BF90AF909F902E
:100A20008F907F906F905F904F900895AF92BF929C
:100A3000CF92DF92EF92FF920F931F93CF93DF93AA
:100A4000D0E010E05CEFE52E53E0F52E212F30E0F2
:100A500080919E0190919F0197FDCF9646E09595DC
:100A600087954A95E1F72817390764F58CEFC82E6A
:100A700081E0D82E560183E194E00E942A12F5010C
:100A800081935F01EE16FF06B1F7F894C0E080E9AC
:100A900095E61DDC85E02BDC8D2F8C0F28DC5601C4
:100AA00008E0F50181915F0122DC0150D1F740DCC3
:100AB000CF5FF8E0CF0ED11CC03449F778941F5FA8
:100AC000D05CC4CFDF91CF911F910F91FF90EF9039
:100AD000DF90CF90BF90AF900895BF92CF92DF92FA
:100AE000EF92FF920F931F93CF93DF93C090EE018D
:100AF000D090EF01E090F001F090F1018091EE01D3
:100B00009091EF01A091F001B091F1019058AF4F99
:100B1000BF4FC816D906EA06FB0608F5C701B6019D
:100B20000EDECCEFD1E083E194E00E942A12B82ED1
:100B3000888383E194E00E942A1289831B2D00E0C0
:100B40009801282BC901E7DD229632E0CC33D30788
:100B500051F780E4C80ED11CE11CF11CCFCFDF910E
:100B6000CF911F910F91FF90EF90DF90CF90BF90AA
:100B7000089583E194E00E942A128093F70108957A
:100B80002F923F924F925F926F927F928F929F929D
:100B9000AF92BF92CF92DF92EF92FF920F931F938B
:100BA000CF93DF93CDB7DEB761970FB6F894DEBF72
:100BB0000FBECDBF8090000190900101A090020176
:100BC000B0900301D6DF6AE070E080E090E00E9420
:100BD000930F04DC6AE070E080E090E00E94930FE5
:100BE00029DC6AE070E080E090E00E94930FC09002
:100BF000FC03D090FD03E090FE03F090FF03A501FD
:100C000094012655354F4F4F5F4F2B833C834D83C7
:100C10005E83D501C4018C5A9A4FAF4FBF4F8F836B
:100C20009887A987BA874091FC035091FD03609192
:100C3000FE037091FF038091E1019091E201A09188
:100C4000E301B091E401840F951FA61FB71FC816DA
:100C5000D906EA06FB0608F02BC18EB180588EB982
:100C6000812C912C540100E010E06B817C818D81FE
:100C70009E8165DD8AEA90E04EDD6F817885898509
:100C80009A855DDD85E590E046DD2801012E000CAA
:100C9000660877088091000190910101A0910201FE
:100CA000B09103018C0D9D1DAE1DBF1D880D991DBA
:100CB000AA1DBB1DBC01CD01640D751D861D971DB0
:100CC0003EDD85E290E027DD8091000190910101F9
:100CD000A0910201B09103018C0D9D1DAE1DBF1DA1
:100CE000880D991DAA1DBB1DBC01CD01640D751D8C
:100CF000861D971D24DD8091F701869590E0019770
:100D00000ADD1B862091F7019B859217A8F583E1E8
:100D100094E00E942A128C878093FC0183E194E086
:100D20000E942A128093FD01AC85AA831982298032
:100D30003A80282A8091000190910101A09102013E
:100D4000B09103018C0D9D1DAE1DBF1D880D991D19
:100D5000AA1DBB1D840D951DA61DB71DBC01CD018F
:100D60002B85620F711D811D911DE9DCC101D3DC52
:100D70003B853E5F3B87C6CF40910001509101010A
:100D800060910201709103014C0D5D1D6E1D7F1D70
:100D9000480D591D6A1D7B1DDB01CA01840D951D7F
:100DA000A61DB71D8E879F87A88BB98B822F90E0D9
:100DB0000297092E000CAA0BBB0B2E853F85488994
:100DC0005989280F391F4A1F5B1FCA01B901B7DCB7
:100DD00089E290E0A0DC4091F70150E042505109D7
:100DE000052E000C660B770B80910001909101019C
:100DF000A0910201B0910301840F951FA61FB71F98
:100E00008C0D9D1DAE1DBF1D880D991DAA1DBB1DFE
:100E1000BC01CD01640D751D861D971D90DC4ADA5D
:100E2000A1014F675F6F5D874C878F679F6F409110
:100E3000F701AC85BD858A179B0721F150E0425030
:100E40005109052E000C660B770B809100019091E3
:100E50000101A0910201B0910301840F951FA61F0B
:100E6000B71F8C0D9D1DAE1DBF1D880D991DAA1DA0
:100E7000BB1DBC01CD01640D751D861D971D5FDC7A
:100E800019DAD3CF040F111D0115B0E41B070CF4C0
:100E9000ECCE20E4920EA11CB11C8114910432E02E
:100EA000A306B10409F0DFCE42E0E40EF11CBBCE94
:100EB000779861960FB6F894DEBF0FBECDBFDF9175
:100EC000CF911F910F91FF90EF90DF90CF90BF9047
:100ED000AF909F908F907F906F905F904F903F90DA
:100EE0002F900895CF92DF92EF92FF92CF93DF93EE
:100EF00075DAC0900001D0900101E0900201F090FD
:100F000003018091FC039091FD03A091FE03B09139
:100F1000FF03C80ED91EEA1EFB1E4091000150912E
:100F2000010160910201709103018091FC03909195
:100F3000FD03A091FE03B091FF03840F951FA61F30
:100F4000B71F9E5FAF4FBF4FC816D906EA06FB0614
:100F5000D8F4779AC701B601F2DBCCEFD1E0AAD979
:100F600098838983229683E0CC3FD807C1F740E07D
:100F700052E06CEF71E083E194E00E946C1282E039
:100F8000D80EE11CF11CC9CF7798DF91CF91FF906B
:100F9000EF90DF90CF900895CF92DF92EF92FF9283
:100FA0000F931F93CF93DF9310E000E0202F30E0EA
:100FB00080919E0190919F0197FDCF9646E0959577
:100FC00087954A95E1F7281739070CF05FC0F89428
:100FD000F12EC0E0D0E084E08AD98F2D88D9A8D93D
:100FE000AFD9A6D9E0EAF1E0E12CAE0144505E4F62
:100FF0008E2D869586958695DA01A80FB11D808184
:1010000060E8869F90011124918160E4969FC00161
:101010001124822B2781822B928120E2929F6001F2
:101020001124282F2C29938130E1939FB0011124A2
:10103000822F862B948168E0969F90011124282BA3
:10104000958134E0939FC0011124822B9681990FE2
:10105000892B8C9368E0E60E389680E4E812C8CFBE
:101060008CE291E034D9F3942896C11592E0D90727
:1010700009F0B1CF789440E052E06CEF71E083E189
:1010800094E00E946C120F5F105C90CFDF91CF91C3
:101090001F910F91FF90EF90DF90CF900895CF9226
:1010A000DF92EF92FF92CF93DF9398D9C090EE0139
:1010B000D090EF01E090F001F090F1018091FC03FD
:1010C0009091FD03A091FE03B091FF03C80ED91EBD
:1010D000EA1EFB1E4091EE015091EF016091F0017C
:1010E0007091F1018091FC039091FD03A091FE03AA
:1010F000B091FF03840F951FA61FB71F9E5FAF4FD0
:10110000BF4FC816D906EA06FB06D0F4C701B601E0
:1011100016DBCCEFD1E0CED898838983229683E08A
:10112000CC3FD807C1F740E052E06CEF71E083E1BB
:1011300094E00E946C1282E0D80EE11CF11CCACF30
:10114000DF91CF91FF90EF90DF90CF9008958F9235
:101150009F92AF92BF92CF92DF92EF92FF92CF9386
:10116000DF931AB83BD9C090FC03D090FD03E09008
:10117000FE03F090FF038091FC039091FD03A0918A
:10118000FE03B091FF03805C9F4FAF4FBF4FC81667
:10119000D906EA06FB0600F5779ACCEFD1E04601C6
:1011A0005701C501B401C5D989938FEF881A980AF0
:1011B000A80AB80A82E0CC33D80799F740E450E097
:1011C0006CEF71E083E194E00E946C1280E4C80E41
:1011D000D11CE11CF11CCFCF7798DF91CF91FF900C
:1011E000EF90DF90CF90BF90AF909F908F90089539
:1011F0007F928F929F92AF92BF92CF92DF92EF92A7
:10120000FF920F931F93CF93DF938FEF8AB9C12C77
:10121000D12C7601C0E0D0E077247A948E0104507E
:101220001E4F83E194E00E94F111892B61F0C034DC
:10123000D10549F083E194E00E942A12F8018193DC
:101240008F012196EECFD701C6019770AA27BB2741
:10125000892B8A2B8B2B19F48EB180588EB90CEF09
:1012600011E0460157014AEA65E575E080E090E04B
:1012700047D945E56AEA72E080E090E041D940EA6A
:1012800065E575E080E090E03BD9F8014081C5015B
:10129000B40136D91AB87698F80191918F0189B1C5
:1012A000892787FDFCCF769A7AB8FFEF8F1A9F0ABD
:1012B000AF0ABF0A82E00C331807A9F6E0E4CE0EAD
:1012C000D11CE11CF11CC114F0E8DF06E104F104BB
:1012D00009F0A4CF7798DF91CF911F910F91FF90E4
:1012E000EF90DF90CF90BF90AF909F908F907F90C6
:1012F0000895CF93DF9300D0CDB7DEB783E194E0BC
:101300000E942A1299278A31910509F47EC00CF0B7
:101310003FC08031910509F471C0F4F4813091052A
:1013200009F470C08530910509F4B1C0892B09F02A
:10133000BEC06CE371E083E194E00E940F0168E5B8
:1013400071E083E194E00E940F016EE671E083E1B9
:1013500094E00E940F01ABC08231910509F490C066
:101360000CF474C08331910509F453C0449709F01B
:101370009EC00E942F0164EF71E080E090E0D3D521
:1013800085D864EF71E080E090E0CDD54FDB58C0A8
:101390008234910509F47DC004F58C31910509F47E
:1013A00041C0ACF18034910509F47DC081349105D0
:1013B00009F07DC093D864EF71E080E090E0B3D590
:1013C00029D981E0898341E050E0BE016F5F7F4F02
:1013D00083E194E00E946C125CC08434910509F4AE
:1013E00061C00CF45DC08534910509F45EC082359E
:1013F000910509F05CC072D84CD959C00E942F01E8
:10140000D4D955C00E942F011BC06CDD50C047DEEF
:101410004EC00E942F0164EF71E080E090E083D520
:101420005CDB45C00E942F0164EF71E080E090E03A
:101430007AD52CD864EF71E080E090E074D5ACDD13
:1014400064EF71E080E090E06ED531C00E942F0122
:1014500064EF71E080E090E066D50E94C2015ADA44
:1014600081E08A8341E050E0BE016E5F7F4F83E1FF
:1014700094E00E946C1264EF71E080E090E004C0A0
:1014800068EC70E080E090E04ED57ADB10C026D8A2
:10149000D7CF64EF71E080E090E045D5A9DE07C0CA
:1014A00056DE05C01BD85ED802C018D8B3D80F903E
:1014B0000F90DF91CF910895CF93DF9300D0CDB7F8
:1014C000DEB72DE029832AE02A83DC01ED91FC912F
:1014D0000280F381E02D42E050E0BE016F5F7F4F5C
:1014E00009950F900F90DF91CF910895EF92FF92A1
:1014F0000F931F93CF93DF93CDB7DEB72B970FB624
:10150000F894DEBF0FBECDBFA22F7E012CE0E20E0D
:10151000F11C8A019B01E3E30E9F00270E0E011DC3
:10152000F02D1E9F1127000D111D2E9F2227100D3B
:10153000211D3E9F3327200D311D1124F00F011F67
:10154000121F231F311DF10F021F131F211D311DFB
:10155000F30F011D111D211D311D3695279517957E
:101560000795F795EAE0FE9FF12D1124B901A80136
:1015700030E33F0FF70132937F01411551056105BB
:10158000710509F0C6CFAA2319F02DE222937F013D
:10159000AE014E195F09445F5F4FDC01ED91FC9194
:1015A0000280F381E02DB70109952B960FB6F894D0
:1015B000DEBF0FBECDBFDF91CF911F910F91FF9086
:1015C000EF900895CF93DF93CDB7DEB728970FB68E
:1015D000F894DEBF0FBECDBFDC019E01275F3F4FF9
:1015E000942F9F70215031099A3010F4905D01C002
:1015F000995CF901908384E07695679557954795B6
:101600008A95D1F7411551056105710549F7AE017C
:10161000421B530B475F5F4FED91FC911197028086
:10162000F381E02DB901CD01099528960FB6F89404
:10163000DEBF0FBECDBFDF91CF910895CF93DF9373
:10164000CDB7DEB7A0970FB6F894DEBF0FBECDBF03
:10165000DC019E012F5D3F4F942F9170905DF90149
:1016600092939F017695679557954795411551053A
:101670006105710589F7AE014E1B5F0B4F5D5F4F32
:10168000ED91FC9111970280F381E02DB901CD011C
:101690000995A0960FB6F894DEBF0FBECDBFDF91BF
:1016A000CF9108958F929F92AF92BF92CF92DF9287
:1016B000EF92FF920F931F93CF93DF93CDB7DEB7D7
:1016C00065970FB6F894DEBF0FBECDBF6C01142F27
:1016D000E52FCB01022F7E0126E1E20EF11C802EC8
:1016E000912CA12CB12C612F7E2FA50194010E9479
:1016F000E813029F1019112481E0E81AF1081A304A
:1017000010F4105D01C0195CD7011C93122FE32F58
:10171000CA01232B242B252B31F7AE014E195F096B
:101720004A5E5F4FD601ED91FC910280F381E02D7E
:10173000B701C601099565960FB6F894DEBF0FBED6
:10174000CDBFDF91CF911F910F91FF90EF90DF9070
:10175000CF90BF90AF909F908F900895CF92DF92DF
:10176000EF92FF92CF93DF93EC010FB6F894C09005
:101770000804D0900904E0900A04F0900B040FBE16
:10178000E881F9810284F385E02DCE01099597FF68
:101790001AC00FB6F8948091080490910904A091A2
:1017A0000A04B0910B040FBE8C199D09AE09BF0944
:1017B0004B815C816D817E8184179507A607B707F1
:1017C000F8F28FEF9FEFDF91CF91FF90EF90DF90D6
:1017D000CF900895AF92BF92CF92DF92EF92FF9297
:1017E0000F931F93CF93DF93EC015B01042F6901EB
:1017F00060E070E08AD0EC80FD80002E000C110BC0
:10180000EC14FD0488F4C501A9DF97FF04C081E052
:10181000F501878309C0009739F08017910721F0FF
:10182000682FCE01AED0ECCFCE01DF91CF911F91CA
:101830000F91FF90EF90DF90CF90BF90AF90089501
:10184000FC01808191815CC10F931F93CF93DF9343
:10185000EC018B016F5F7F4F88819981DAD100970E
:1018600031F0998388831B830A8381E001C080E083
:10187000DF91CF911F910F910895CF93DF93FC01DA
:10188000228133812617370758F4EC01DDDF8823E6
:1018900041F08C819D81892B19F4E881F9811082B6
:1018A00081E0DF91CF910895EF92FF920F931F9304
:1018B000CF93DF93EC017B018A014115510531F48F
:1018C000E881F981309789F010820FC0BA01D5DF25
:1018D0002881398181110CC02115310521F0C90100
:1018E0000FD1198218821B821A821D821C8205C0A8
:1018F0001D830C83B701C901C5D7CE01DF91CF91FC
:101900001F910F91FF90EF900895FC0111821082BA
:10191000138212821582148216826115710549F0B4
:10192000FB0101900020E9F73197AF01461B570BEF
:10193000BBCF0895EF92FF920F931F93CF93DF9346
:10194000EC017B0141155105A1F08C819D818A013B
:10195000080F191FB801CE0190DF882351F02881AC
:1019600039818C819D81B701820F931F8BD71D8395
:101970000C83CE01DF91CF911F910F91FF90EF90DB
:1019800008950F931F93CF93DF9300D0CDB7DEB7A9
:101990008C0169831A8241E050E0BE016F5F7F4F86
:1019A000C9DFC8010F900F90DF91CF911F910F9168
:1019B0000895FC0180819181009709F034C760E0AF
:1019C00070E0CB01089520D20E94200192DCFECF6E
:1019D0000F931F93CF93DF938230910510F482E031
:1019E00090E0E0911D04F0911E0420E030E0A0E0C2
:1019F000B0E0309719F1408151810281138148177D
:101A00005907C8F08417950769F4109731F01296BA
:101A10000C93129713961C9327C000931D041093E8
:101A20001E0422C02115310519F04217530718F47E
:101A30009A01BD01EF01DF01F801DBCF211531056E
:101A4000F9F0281B390B2430310580F48A819B8101
:101A50006115710521F0FB019383828304C090938B
:101A60001E0480931D04FE01329644C0FE01E20F65
:101A7000F31F8193919322503109398328833AC00F
:101A80002091050430910604232B41F42091060196
:101A9000309107013093060420930504209104013E
:101AA000309105012115310541F42DB73EB7409124
:101AB000080150910901241B350BE0910504F091B8
:101AC0000604E217F307A0F42E1B3F0B2817390773
:101AD00078F0AC014E5F5F4F2417350748F04E0F8A
:101AE0005F1F50930604409305048193919302C0B5
:101AF000E0E0F0E0CF01DF91CF911F910F910895C9
:101B0000CF93DF93009709F481C0FC0132971382D1
:101B10001282A0911D04B0911E04109781F42081BF
:101B20003181820F931F20910504309106042817FC
:101B3000390751F5F0930604E093050467C0ED0101
:101B400020E030E0CE17DF0740F44A815B819E0140
:101B500041155105F1F0EA01F5CFD383C2834081ED
:101B60005181840F951FC817D90759F4888199812D
:101B7000840F951F0296918380838A819B81938332
:101B800082832115310529F4F0931E04E0931D048E
:101B90003DC0E901FB83EA8349915991C40FD51FE8
:101BA000EC17FD0761F480819181840F951F0296E7
:101BB000E90199838883828193819B838A83E0E012
:101BC000F0E012968D919C911397009719F0FD010A
:101BD000DC01F7CF8D919C9111979D012E5F3F4FB6
:101BE000820F931F209105043091060428173907AE
:101BF00069F4309729F410921E0410921D0402C05B
:101C000013821282B0930604A0930504DF91CF9152
:101C100008956F927F928F929F92AF92BF92CF92D0
:101C2000DF92EF92FF920F931F93CF93DF93009772
:101C300081F4CB01DF91CF911F910F91FF90EF9035
:101C4000DF90CF90BF90AF909F908F907F906F90DC
:101C5000BFCEFC01E60FF71F9C0122503109E217AD
:101C6000F30708F49FC0EC01D9010D911C91119765
:101C700006171707A8F00530110508F491C0C80130
:101C800004978617970708F48BC002501109061BAA
:101C9000170B019311936D937C93CF0131DF80C0BB
:101CA0005B01A01AB10A4C01800E911EA0911D0487
:101CB000B0911E04612C712CE12CF12C109709F4C9
:101CC00046C08D919C911197A815B905B1F56C018D
:101CD00042E0C40ED11CCA14DB0478F14C018A180E
:101CE0009B08640142E0C40ED11C1296BC9012976E
:101CF0001396AC91B5E0CB16D10440F0B282A38329
:101D000091828082D9016D937C9309C00E5F1F4F31
:101D1000800F911FF90191838083EB2DFA2FE1143D
:101D2000F10431F0D7011396FC93EE93129738C06B
:101D3000F0931E04E0931D0433C06816790608F47E
:101D40003C017D0112960D90BC91A02DB7CF8091E2
:101D500005049091060488169906B1F46616770674
:101D600098F48DB79EB74091080150910901841BEA
:101D7000950BE817F907B0F4F0930604E093050417
:101D8000F901718360830CC0CB0122DE7C010097D6
:101D900049F0A801BE016DD5CE01B2DEC70104C075
:101DA000CE0102C080E090E0DF91CF911F910F91B2
:101DB000FF90EF90DF90CF90BF90AF909F908F906B
:101DC0007F906F9008951DBA109268001CBC10BEE1
:101DD0001FBA10927A0010926E0010926F0010924B
:101DE0007000109271001092C9001092BC0011B8DE
:101DF00014B817B81AB81DB810BA12B815B818B870
:101E00001BB81EB811BA089581E885BF80E885BF68
:101E1000F894E1E6F0E08083108293E094BD95BDF4
:101E2000EEE6F0E090819160908321E020938000C5
:101E300092E0909381002093B0009093B1002093A2
:101E400090009093910096E890937A0080937B00A5
:101E500010927E00A7D078940895F89484B7877F75
:101E600084BF809160008061809360001092600068
:101E700080E29EE40197F1F781E08093E00080E248
:101E80008093D80080E69AEE0197F1F79CDF0C94DE
:101E900000FEFFCFF89497DF80E69AEE0197F1F706
:101EA0000C940000FFCF8F938FB78F93809107041E
:101EB0008D5F8D37D0F480930704809108048F5F85
:101EC00080930804D8F0809109048F4F809309040F
:101ED000A8F080910A048F4F80930A0478F08091D3
:101EE0000B048F4F80930B0409C08D578093070418
:101EF000809108048E5F8093080428F780910C0479
:101F00008C5F80930C0458F080910D048F4F809368
:101F10000D0428F080910E048F4F80930E048F9152
:101F20008FBF8F911895CF92DF92EF92FF926B0146
:101F30007C0119D09B01C114D104E104F10471F0BA
:101F400012D0621B730B683E7340A8F381E0C81A7D
:101F5000D108E108F10828513C4FEDCFFF90EF90F8
:101F6000DF90CF9008950FB6F89466B515B27091D2
:101F70000C0480910D0490910E040FBE10FE05C05C
:101F80006F3F19F07C5F8F4F9F4F11240024660F25
:101F9000001C660F001C702908958091E80080FFE6
:101FA000FCCF08958091D80087FF02C085FF1BC039
:101FB00081E88093D70080EA8093D80086E189BDCC
:101FC00009B400FEFDCF80E98093D8001092E000B4
:101FD000109221041092200410921F041092E1002C
:101FE0008DE08093E20008951F920F920FB60F923A
:101FF00011240BB60F922F933F934F935F936F93E0
:102000007F938F939F93AF93BF93EF93FF939091A1
:10201000E1001092E10093FF11C01092E90081E00D
:102020008093EB001092EC0082E28093ED0088E058
:102030008093F0001092210410921F0492FF1DC0A3
:10204000809121048823C9F080911204882359F0DB
:10205000815080931204811106C084E08093E900CE
:102060008AE38093E80080911104882331F0815045
:1020700080931104811101C0F0DE90FF0CC080E15B
:102080008093E2001092210481E08093200480EA92
:102090008093D80019BC80912004882379F094FFA4
:1020A0000DC086E189BD09B400FEFDCF80E98093B3
:1020B000D8008DE08093E20010922004FF91EF9110
:1020C000BF91AF919F918F917F916F915F914F9150
:1020D0003F912F910F900BBE0F900FBE0F901F904E
:1020E00018951F920F920FB60F9211240BB60F92F4
:1020F000EF92FF920F931F932F933F934F935F9312
:102100006F937F938F939F93AF93BF93CF93EF93EF
:10211000FF931092E9008091E80083FF31C1C091E4
:10212000F1008091F1000091F1001091F100E09038
:10213000F100F090F1004091F1005091F10092EF28
:102140009093E800863009F03FC086E0E8E9F0E0CF
:10215000259135910217130711F0359615C0259179
:102160003591E216F30611F033960EC025913591A4
:1021700084914F3F510519F010F04FEF50E0481790
:1021800008F4842F5EEF08C0815011F7F9C0891B55
:102190005093E8008823A9F09091E800492F4570FA
:1021A000D9F392FDF0C0982F813208F090E2492FC8
:1021B000442369F3F90125912093F1009F014150D7
:1021C000F7CF903249F3DFC0853041F48EEF809332
:1021D000E800E3DE00680093E300D5C0893001F534
:1021E000C111CEC00093210410921F04109212045A
:1021F0008EEF8093E80081E0EBE5F1E08093E90069
:1022000095919093EB00992331F095919093EC0088
:1022100095919093ED008F5F853081F78EE1ABC093
:10222000883049F4C03809F0ABC0B7DE8091210492
:102230008093F1007EC0813279F4C13A09F0A0C0E8
:10224000ACDEEAE0F1E080818093F100319681E03C
:10225000E131F807C1F76DC0803209F047C0C132E3
:1022600009F08EC08091E80082FFFCCFEAE0F1E047
:102270008091F1008083319681E0E131F807C1F768
:102280008BEF8093E8008EEF8093E80030910A0195
:1022900040910B0180910C0120910D0190E0A0E094
:1022A000B0E0DC0199278827942B832BB22B86384A
:1022B0009105A105B10521F48FE08093110463C05D
:1022C00086399105A105B10509F05DC084E08093D0
:1022D000E9009FEF8091EE00837039F09093E80061
:1022E0008091E80082FDFCCFF5CFD4DD823231F45D
:1022F000C13209F045C000931F0405C0833229F4A0
:10230000C13209F03DC049DE14C0811116C045DE5E
:10231000C23851F4E092E9008091EB0085FB8827F8
:1023200080F91092E90001C080E08093F1001092E2
:10233000F1008EEF8093E80026C0982F9D7F9130AA
:10234000F9F4C230E9F4012BD9F4CE2DCF779FEF09
:102350009C0F9630A8F49EEF9093E800C093E9009C
:10236000833071F089E18093EB0081E090E001C05F
:10237000880FCA95EAF78093EA001092EA0003C03A
:1023800081E28093EB00FF91EF91CF91BF91AF91EC
:102390009F918F917F916F915F914F913F912F917D
:1023A0001F910F91FF90EF900F900BBE0F900FBEFB
:1023B0000F901F901895CF93DF931F92CDB7DEB784
:1023C0006983DC01ED91FC910280F381E02D41E015
:1023D00050E0BE016F5F7F4F09950F90DF91CF9165
:1023E0000895FC018FB7F89490912104911102C0D7
:1023F00090E010C093E09093E9009091F200911169
:1024000009C02091E80022FFF3CF25FDF1CF2BE694
:102410002093E8008FBF2085318537FD03C09F3FA3
:1024200009F09F5F892F90E00895CF93DF93EC012F
:102430008885998597FF09C0E881F9810284F38531
:10244000E02DCE0109959987888788859985DF9148
:10245000CF910895FC012085318537FD07C04FEFEE
:102460005FEF51874087C901992708959FB7F89476
:1024700080912104882369F083E08093E9002BE6B2
:102480008091E80085FD09C082FF03C02093E80029
:10249000F7CF9FBF8FEF9FEF08958091F1002091BC
:1024A000E80025FD03C02BE62093E8009FBF90E0E5
:1024B000089580912104882361F08FB7F89494E007
:1024C0009093E9009091F2008FBF80E4891B90E027
:1024D000089580E090E00895BF92CF92DF92EF924E
:1024E000FF920F931F93CF93DF937C018091210480
:1024F000882371F02FB7F89484E08093E9008091ED
:102500001004882369F08091E80085FD07C02FBF83
:1025100081E0F701828300E010E0D3C01092100444
:1025200000E010E084E0D82E90E4C92EA1EFB0E0E6
:102530003AE3B32E33E04115510509F4C1C080914F
:10254000E400815F9091E80095FD16C02FBF909147
:10255000E400891304C081E08093100405C09091C9
:102560002104911104C081E0F7018283AAC02FB732
:10257000F894D092E900E6CF8091F2009C2D981B50
:10258000E92FF0E04E175F0708F4942FE92FF0E0F1
:102590004E1B5F0B0E0F1F1FEB01E0E4E91BE03445
:1025A00028F4EE0FFF27E952FD4E099480C099915F
:1025B0009C9399919C9399919C9399919C939991B7
:1025C0009C9399919C9399919C9399919C939991A7
:1025D0009C9399919C9399919C9399919C93999197
:1025E0009C9399919C9399919C9399919C93999187
:1025F0009C9399919C9399919C9399919C93999177
:102600009C9399919C9399919C9399919C93999166
:102610009C9399919C9399919C9399919C93999156
:102620009C9399919C9399919C9399919C93999146
:102630009C9399919C9399919C9399919C93999136
:102640009C9399919C9399919C9399919C93999126
:102650009C9399919C9399919C9399919C93999116
:102660009C9399919C9399919C9399919C93999106
:102670009C9399919C9399919C9399919C939991F6
:102680009C9399919C9399919C9399919C939991E6
:102690009C9399919C9399919C9399919C939991D6
:1026A0009C9399919C9399919C9399919C93BE0131
:1026B0008091E80085FFB092E800309312043BCF90
:1026C0002FBFC801DF91CF911F910F91FF90EF9025
:1026D000DF90CF90BF9008952FEF3FEFFC0131873F
:1026E000208760DC0FB6F89480910804909109046B
:1026F000A0910A04B0910B040FBE9C0180912104AB
:10270000882329F068EC70E080E090E00CCC8091A8
:102710002004882309F10FB6F89480910804909161
:102720000904A0910A04B0910B040FBEAC01809182
:102730002004882389F00FB6F894809108049091C2
:102740000904A0910A04B0910B040FBE841B950BE1
:102750008B3F910560F308950FB6F89480910804BB
:1027600090910904A0910A04B0910B040FBE821B42
:10277000930B853C994008F4C1CF08959FB7F89416
:1027800080912104882321F080911204811102C0DC
:102790009FBF089584E08093E9008AE38093E80076
:1027A00010921204F5CFEACFE3E1F4E08AE0DF0112
:1027B0001D928A95E9F788EE93E0A0E0B0E083836C
:1027C0009483A583B6838FE891E0918380830895F5
:1027D000A1E21A2EAA1BBB1BFD010DC0AA1FBB1F25
:1027E000EE1FFF1FA217B307E407F50720F0A21B97
:1027F000B30BE40BF50B661F771F881F991F1A9404
:1028000069F760957095809590959B01AC01BD012D
:10281000CF010895EE0FFF1F0024001C0BBE079090
:10282000F691E02D09941F93FC0199278827BC019C
:10283000E89411911032E9F3193010F01E30C8F30A
:102840001B3249F01D3241F4689405C022D0610F5B
:10285000711D811D911D119110531A30B8F33EF472
:1028600090958095709561957F4F8F4F9F4F1F91E9
:102870000895FB01DC0102C001900D9241505040CF
:10288000D8F70895FB01DC0101900D920020E1F7DB
:102890000895592F482F372F262F660F771F881F2F
:1028A000991F660F771F881F991F620F731F841F60
:1028B000951F660F771F881F991F08950F931F9309
:1028C000CF93DF93CDB7DEB72E970FB6F894DEBF68
:1028D0000FBECDBF0D891E8986E08C831A830983C4
:1028E0008FEF9FE79E838D83AE01475E5F4F6F89B9
:1028F000788DCE01019610D0EF81F885E00FF11FA1
:1029000010822E960FB6F894DEBF0FBECDBFDF91BA
:10291000CF911F910F9108952F923F924F925F9206
:102920006F927F928F929F92AF92BF92CF92DF92DF
:10293000EF92FF920F931F93CF93DF93CDB7DEB744
:102940002B970FB6F894DEBF0FBECDBF6C017B0195
:102950008A01FC0117821682838181FFBFC1CE01EB
:1029600001963C01F6019381F70193FD859193FF58
:1029700081917F01882309F4ADC1853239F493FD3B
:10298000859193FF81917F01853221F4B60190E01A
:10299000D6D1E8CF912C212C312CFFE1F315D8F0C2
:1029A0008B3279F038F4803279F08332A1F4232D20
:1029B00020611DC08D3261F0803369F4232D2160C8
:1029C00016C0832D8260382EE32DE4603E2E2AC08F
:1029D000F32DF8601DC037FC2DC020ED280F2A30E4
:1029E00040F08E32B9F436FC75C1232D2064322EAE
:1029F00019C036FE06C08AE0989E200D1124922E42
:102A000011C0EAE02E9E200D1124222EF32DF0623B
:102A10003F2E08C08C3621F4832D8068382E02C0EA
:102A2000883641F4F70193FD859193FF81917F01F1
:102A30008111B3CF982F9F7D9554933028F40C5F6C
:102A40001F4F9FE399830DC0833631F0833771F0B8
:102A5000833509F055C020C0F801808189830E5F5D
:102A60001F4F88248394912C530112C02801F2E057
:102A70004F0E511CF801A080B18036FE03C0692DB5
:102A800070E002C06FEF7FEFC5014ED14C018201B3
:102A9000F32DFF773F2E15C0280122E0420E511C76
:102AA000F801A080B18036FE03C0692D70E002C03D
:102AB0006FEF7FEFC5012DD14C01F32DF0683F2E54
:102AC000820133FC19C0822D90E088169906A0F48B
:102AD000B60180E290E033D12A94F5CFF50137FCBE
:102AE000859137FE81915F01B60190E028D12110D8
:102AF0002A9421E0821A91088114910479F7E1C0A7
:102B0000843611F0893639F5F80137FE07C0608147
:102B10007181828193810C5F1F4F08C06081718138
:102B2000072E000C880B990B0E5F1F4FF32DFF76BD
:102B30003F2E97FF09C090958095709561957F4FC6
:102B40008F4F9F4FF0683F2E2AE030E0A30133D132
:102B5000882E861844C0853731F4232D2F7EB22E5F
:102B60002AE030E025C0932D997FB92E8F36C1F031
:102B700018F4883579F0AEC0803719F0883721F025
:102B8000A9C0E92FE061BE2EB4FE0DC0FB2DF4609C
:102B9000BF2E09C034FE0AC0292F2660B22E06C0FF
:102BA00028E030E005C020E130E002C020E132E062
:102BB000F801B7FE07C060817181828193810C5F4B
:102BC0001F4F06C06081718180E090E00E5F1F4F53
:102BD000A301F1D0882E8618FB2DFF773F2E36FEFD
:102BE0000DC0232D2E7FA22E891458F434FE0BC065
:102BF00032FC09C0832D8E7EA82E05C0B82CA32CD4
:102C000003C0B82C01C0B92CA4FE0FC0FE01E80D12
:102C1000F11D8081803321F49A2D997EA92E09C05F
:102C2000A2FE06C0B394B39404C08A2D867809F03E
:102C3000B394A3FC10C0A0FE06C0B21480F4280C0C
:102C4000922C9B180DC0B21458F4B60180E290E0AB
:102C500076D0B394F8CFB21418F42B1802C0982C85
:102C6000212CA4FE0FC0B60180E390E068D0A2FE44
:102C700016C0A1FC03C088E790E002C088E590E0A0
:102C8000B6010CC08A2D867851F0A1FE02C08BE2FD
:102C900001C080E2A7FC8DE2B60190E050D089141B
:102CA00030F4B60180E390E04AD09A94F8CF8A9449
:102CB000F301E80DF11D8081B60190E040D0811054
:102CC000F6CF222009F44ECEB60180E290E037D054
:102CD0002A94F7CFF6018681978102C08FEF9FEF8C
:102CE0002B960FB6F894DEBF0FBECDBFDF91CF910C
:102CF0001F910F91FF90EF90DF90CF90BF90AF901A
:102D00009F908F907F906F905F904F903F902F900B
:102D10000895FC010590615070400110D8F780952E
:102D200090958E0F9F1F0895FC0161507040019097
:102D30000110D8F7809590958E0F9F1F08950F93DF
:102D40001F93CF93DF93FB01238121FD03C08FEFFE
:102D50009FEF2CC022FF16C0468157812481358108
:102D60004217530744F4A081B1819D012F5F3F4F6B
:102D7000318320838C93268137812F5F3F4F3783A8
:102D8000268314C08B01EC01FB010084F185E02D4A
:102D90000995892BE1F6D80116968D919C9117978C
:102DA000019617969C938E931697CE01DF91CF9143
:102DB0001F910F910895FA01AA27283051F120316F
:102DC00081F1E8946F936E7F6E5F7F4F8F4F9F4FBF
:102DD000AF4FB1E03ED0B4E03CD0670F781F891F01
:102DE0009A1FA11D680F791F8A1F911DA11D6A0FCF
:102DF000711D811D911DA11D20D009F468943F9182
:102E00002AE0269F11243019305D3193DEF6CF0180
:102E10000895462F4770405D4193B3E00FD0C9F746
:102E2000F6CF462F4F70405D4A3318F0495D31FDB3
:102E30004052419302D0A9F7EACFB4E0A695979506
:102E4000879577956795BA95C9F7009761057105DC
:102E500008959B01AC010A2E069457954795379526
:102E60002795BA95C9F7620F731F841F951FA01D80
:062E70000895F894FFCF65
:102E76000000001000002204800000E100000000B5
:102E8600084D616E7566616374757265722049449A
:102E9600203D200043686970206964203D2000259C
:102EA6003032580025303458002F6E005265747247
:102EB6006F426C61737465722050726F6772616DD8
:102EC6006D657220322E30004669726D77617265CB
:102ED6002076657273696F6E20322E3062005265FD
:102EE60074726F537461676520436F6D7075746992
:102EF6006E6720286329323031390000000000DB7C
:0E2F0600116C125912D313F1112A1215120078
:00000001FF
